{
	"data": {
		"bytecode": {
			"linkReferences": {},
			"object": "60806040525f80555f60075f6101000a81548160ff02191690831515021790555064e8d4a51000600855348015610034575f80fd5b506040516124f43803806124f4833981810160405281019061005691906100fb565b80600760016101000a81548173ffffffffffffffffffffffffffffffffffffffff021916908373ffffffffffffffffffffffffffffffffffffffff16021790555050610126565b5f80fd5b5f73ffffffffffffffffffffffffffffffffffffffff82169050919050565b5f6100ca826100a1565b9050919050565b6100da816100c0565b81146100e4575f80fd5b50565b5f815190506100f5816100d1565b92915050565b5f602082840312156101105761010f61009d565b5b5f61011d848285016100e7565b91505092915050565b6123c1806101335f395ff3fe608060405234801561000f575f80fd5b50600436106100cd575f3560e01c8063bf4747661161008a578063f020044f11610064578063f020044f146101ff578063f712545b1461021d578063f71d96cb14610239578063fc0c546a14610269576100cd565b8063bf47476614610195578063d24257c0146101b1578063e8fcf723146101cf576100cd565b80630252b995146100d1578063228cb733146100ef578063410346b31461010d578063b14b28a31461013d578063b8c23c0a1461015b578063b9a5301314610165575b5f80fd5b6100d9610287565b6040516100e69190611809565b60405180910390f35b6100f761028d565b6040516101049190611809565b60405180910390f35b6101276004803603810190610122919061188d565b610292565b6040516101349190611809565b60405180910390f35b6101456102a7565b6040516101529190611809565b60405180910390f35b6101636102ad565b005b61017f600480360381019061017a919061188d565b6107db565b60405161018c91906118d2565b60405180910390f35b6101af60048036038101906101aa919061191e565b6107f8565b005b6101b9610ec7565b6040516101c69190611809565b60405180910390f35b6101e960048036038101906101e4919061188d565b610ecd565b6040516101f69190611958565b60405180910390f35b610207610ee2565b60405161021491906118d2565b60405180910390f35b61023760048036038101906102329190611ad7565b610ef4565b005b610253600480360381019061024e9190611b31565b61123a565b6040516102609190611b6b565b60405180910390f35b610271611275565b60405161027e9190611bdf565b60405180910390f35b60055481565b5f5481565b6002602052805f5260405f205f915090505481565b60065481565b60075f9054906101000a900460ff166102fb576040517f08c379a00000000000000000000000000000000000000000000000000000000081526004016102f290611c52565b60405180910390fd5b600654421161033f576040517f08c379a000000000000000000000000000000000000000000000000000000000815260040161033690611cba565b60405180910390fd5b60035f60045f8154811061035657610355611cd8565b5b905f5260205f20015f9054906101000a900473ffffffffffffffffffffffffffffffffffffffff1673ffffffffffffffffffffffffffffffffffffffff1673ffffffffffffffffffffffffffffffffffffffff1681526020019081526020015f205f9054906101000a900460ff168015610453575060035f60046001815481106103e3576103e2611cd8565b5b905f5260205f20015f9054906101000a900473ffffffffffffffffffffffffffffffffffffffff1673ffffffffffffffffffffffffffffffffffffffff1673ffffffffffffffffffffffffffffffffffffffff1681526020019081526020015f205f9054906101000a900460ff16155b1561053757600760019054906101000a900473ffffffffffffffffffffffffffffffffffffffff1673ffffffffffffffffffffffffffffffffffffffff1663a9059cbb60045f815481106104aa576104a9611cd8565b5b905f5260205f20015f9054906101000a900473ffffffffffffffffffffffffffffffffffffffff165f546040518363ffffffff1660e01b81526004016104f1929190611d05565b6020604051808303815f875af115801561050d573d5f803e3d5ffd5b505050506040513d601f19601f820116820180604052508101906105319190611d56565b506107d1565b60035f600460018154811061054f5761054e611cd8565b5b905f5260205f20015f9054906101000a900473ffffffffffffffffffffffffffffffffffffffff1673ffffffffffffffffffffffffffffffffffffffff1673ffffffffffffffffffffffffffffffffffffffff1681526020019081526020015f205f9054906101000a900460ff16801561064b575060035f60045f815481106105db576105da611cd8565b5b905f5260205f20015f9054906101000a900473ffffffffffffffffffffffffffffffffffffffff1673ffffffffffffffffffffffffffffffffffffffff1673ffffffffffffffffffffffffffffffffffffffff1681526020019081526020015f205f9054906101000a900460ff16155b1561073057600760019054906101000a900473ffffffffffffffffffffffffffffffffffffffff1673ffffffffffffffffffffffffffffffffffffffff1663a9059cbb60046001815481106106a3576106a2611cd8565b5b905f5260205f20015f9054906101000a900473ffffffffffffffffffffffffffffffffffffffff165f546040518363ffffffff1660e01b81526004016106ea929190611d05565b6020604051808303815f875af1158015610706573d5f803e3d5ffd5b505050506040513d601f19601f8201168201806040525081019061072a9190611d56565b506107d0565b600760019054906101000a900473ffffffffffffffffffffffffffffffffffffffff1673ffffffffffffffffffffffffffffffffffffffff1663a9059cbb335f546040518363ffffffff1660e01b815260040161078e929190611d05565b6020604051808303815f875af11580156107aa573d5f803e3d5ffd5b505050506040513d601f19601f820116820180604052508101906107ce9190611d56565b505b5b6107d961129b565b565b6003602052805f5260405f205f915054906101000a900460ff1681565b600260048054905010610840576040517f08c379a000000000000000000000000000000000000000000000000000000000815260040161083790611dcb565b60405180910390fd5b600854600760019054906101000a900473ffffffffffffffffffffffffffffffffffffffff1673ffffffffffffffffffffffffffffffffffffffff1663dd62ed3e33306040518363ffffffff1660e01b81526004016108a0929190611de9565b602060405180830381865afa1580156108bb573d5f803e3d5ffd5b505050506040513d601f19601f820116820180604052508101906108df9190611e24565b1015610920576040517f08c379a000000000000000000000000000000000000000000000000000000000815260040161091790611e99565b60405180910390fd5b6001600480549050036109d75760045f8154811061094157610940611cd8565b5b905f5260205f20015f9054906101000a900473ffffffffffffffffffffffffffffffffffffffff1673ffffffffffffffffffffffffffffffffffffffff163373ffffffffffffffffffffffffffffffffffffffff16036109d6576040517f08c379a00000000000000000000000000000000000000000000000000000000081526004016109cd90611f01565b60405180910390fd5b5b600433908060018154018082558091505060019003905f5260205f20015f9091909190916101000a81548173ffffffffffffffffffffffffffffffffffffffff021916908373ffffffffffffffffffffffffffffffffffffffff1602179055508060015f3373ffffffffffffffffffffffffffffffffffffffff1673ffffffffffffffffffffffffffffffffffffffff1681526020019081526020015f2081905550600260048054905003610ec457600854600760019054906101000a900473ffffffffffffffffffffffffffffffffffffffff1673ffffffffffffffffffffffffffffffffffffffff1663dd62ed3e60045f81548110610adb57610ada611cd8565b5b905f5260205f20015f9054906101000a900473ffffffffffffffffffffffffffffffffffffffff16306040518363ffffffff1660e01b8152600401610b21929190611de9565b602060405180830381865afa158015610b3c573d5f803e3d5ffd5b505050506040513d601f19601f82011682018060405250810190610b609190611e24565b1015610ba1576040517f08c379a0000000000000000000000000000000000000000000000000000000008152600401610b9890611f69565b60405180910390fd5b600854600760019054906101000a900473ffffffffffffffffffffffffffffffffffffffff1673ffffffffffffffffffffffffffffffffffffffff1663dd62ed3e6004600181548110610bf757610bf6611cd8565b5b905f5260205f20015f9054906101000a900473ffffffffffffffffffffffffffffffffffffffff16306040518363ffffffff1660e01b8152600401610c3d929190611de9565b602060405180830381865afa158015610c58573d5f803e3d5ffd5b505050506040513d601f19601f82011682018060405250810190610c7c9190611e24565b1015610cbd576040517f08c379a0000000000000000000000000000000000000000000000000000000008152600401610cb490611fd1565b60405180910390fd5b600760019054906101000a900473ffffffffffffffffffffffffffffffffffffffff1673ffffffffffffffffffffffffffffffffffffffff166323b872dd60045f81548110610d0f57610d0e611cd8565b5b905f5260205f20015f9054906101000a900473ffffffffffffffffffffffffffffffffffffffff16306008546040518463ffffffff1660e01b8152600401610d5993929190611fef565b6020604051808303815f875af1158015610d75573d5f803e3d5ffd5b505050506040513d601f19601f82011682018060405250810190610d999190611d56565b50600760019054906101000a900473ffffffffffffffffffffffffffffffffffffffff1673ffffffffffffffffffffffffffffffffffffffff166323b872dd6004600181548110610ded57610dec611cd8565b5b905f5260205f20015f9054906101000a900473ffffffffffffffffffffffffffffffffffffffff16306008546040518463ffffffff1660e01b8152600401610e3793929190611fef565b6020604051808303815f875af1158015610e53573d5f803e3d5ffd5b505050506040513d601f19601f82011682018060405250810190610e779190611d56565b506002600854610e879190612051565b5f819055504260058190555061012c600554610ea39190612092565b600681905550600160075f6101000a81548160ff0219169083151502179055505b50565b60085481565b6001602052805f5260405f205f915090505481565b60075f9054906101000a900460ff1681565b60075f9054906101000a900460ff16610f42576040517f08c379a0000000000000000000000000000000000000000000000000000000008152600401610f3990611c52565b60405180910390fd5b600654421115610f87576040517f08c379a0000000000000000000000000000000000000000000000000000000008152600401610f7e9061210f565b60405180910390fd5b5f8210158015610f98575060048211155b610fd7576040517f08c379a0000000000000000000000000000000000000000000000000000000008152600401610fce90612177565b60405180910390fd5b8181604051602001610fea929190612207565b6040516020818303038152906040528051906020012060015f3373ffffffffffffffffffffffffffffffffffffffff1673ffffffffffffffffffffffffffffffffffffffff1681526020019081526020015f20541461107e576040517f08c379a000000000000000000000000000000000000000000000000000000000815260040161107590612278565b60405180910390fd5b8160025f3373ffffffffffffffffffffffffffffffffffffffff1673ffffffffffffffffffffffffffffffffffffffff1681526020019081526020015f2081905550600160035f3373ffffffffffffffffffffffffffffffffffffffff1673ffffffffffffffffffffffffffffffffffffffff1681526020019081526020015f205f6101000a81548160ff02191690831515021790555060035f60045f8154811061112c5761112b611cd8565b5b905f5260205f20015f9054906101000a900473ffffffffffffffffffffffffffffffffffffffff1673ffffffffffffffffffffffffffffffffffffffff1673ffffffffffffffffffffffffffffffffffffffff1681526020019081526020015f205f9054906101000a900460ff168015611228575060035f60046001815481106111b9576111b8611cd8565b5b905f5260205f20015f9054906101000a900473ffffffffffffffffffffffffffffffffffffffff1673ffffffffffffffffffffffffffffffffffffffff1673ffffffffffffffffffffffffffffffffffffffff1681526020019081526020015f205f9054906101000a900460ff165b15611236576112356112c6565b5b5050565b60048181548110611249575f80fd5b905f5260205f20015f915054906101000a900473ffffffffffffffffffffffffffffffffffffffff1681565b600760019054906101000a900473ffffffffffffffffffffffffffffffffffffffff1681565b60045f6112a891906117b8565b5f80555f60075f6101000a81548160ff021916908315150217905550565b5f60025f60045f815481106112de576112dd611cd8565b5b905f5260205f20015f9054906101000a900473ffffffffffffffffffffffffffffffffffffffff1673ffffffffffffffffffffffffffffffffffffffff1673ffffffffffffffffffffffffffffffffffffffff1681526020019081526020015f205490505f60025f600460018154811061135b5761135a611cd8565b5b905f5260205f20015f9054906101000a900473ffffffffffffffffffffffffffffffffffffffff1673ffffffffffffffffffffffffffffffffffffffff1673ffffffffffffffffffffffffffffffffffffffff1681526020019081526020015f205490505f8160056001856113d09190612092565b6113da91906122c3565b14806113fd57508160056003856113f19190612092565b6113fb91906122c3565b145b1561144657600460018154811061141757611416611cd8565b5b905f5260205f20015f9054906101000a900473ffffffffffffffffffffffffffffffffffffffff1690506114c8565b8260056001846114569190612092565b61146091906122c3565b148061148357508260056003846114779190612092565b61148191906122c3565b145b156114c75760045f8154811061149c5761149b611cd8565b5b905f5260205f20015f9054906101000a900473ffffffffffffffffffffffffffffffffffffffff1690505b5b5f73ffffffffffffffffffffffffffffffffffffffff168173ffffffffffffffffffffffffffffffffffffffff16146115dd57600760019054906101000a900473ffffffffffffffffffffffffffffffffffffffff1673ffffffffffffffffffffffffffffffffffffffff1663a9059cbb825f546040518363ffffffff1660e01b8152600401611559929190611d05565b6020604051808303815f875af1158015611575573d5f803e3d5ffd5b505050506040513d601f19601f820116820180604052508101906115999190611d56565b6115d8576040517f08c379a00000000000000000000000000000000000000000000000000000000081526004016115cf9061233d565b60405180910390fd5b6117ab565b600760019054906101000a900473ffffffffffffffffffffffffffffffffffffffff1673ffffffffffffffffffffffffffffffffffffffff1663a9059cbb60045f8154811061162f5761162e611cd8565b5b905f5260205f20015f9054906101000a900473ffffffffffffffffffffffffffffffffffffffff1660025f54611665919061235b565b6040518363ffffffff1660e01b8152600401611682929190611d05565b6020604051808303815f875af115801561169e573d5f803e3d5ffd5b505050506040513d601f19601f820116820180604052508101906116c29190611d56565b50600760019054906101000a900473ffffffffffffffffffffffffffffffffffffffff1673ffffffffffffffffffffffffffffffffffffffff1663a9059cbb600460018154811061171657611715611cd8565b5b905f5260205f20015f9054906101000a900473ffffffffffffffffffffffffffffffffffffffff1660025f5461174c919061235b565b6040518363ffffffff1660e01b8152600401611769929190611d05565b6020604051808303815f875af1158015611785573d5f803e3d5ffd5b505050506040513d601f19601f820116820180604052508101906117a99190611d56565b505b6117b361129b565b505050565b5080545f8255905f5260205f20908101906117d391906117d6565b50565b5b808211156117ed575f815f9055506001016117d7565b5090565b5f819050919050565b611803816117f1565b82525050565b5f60208201905061181c5f8301846117fa565b92915050565b5f604051905090565b5f80fd5b5f80fd5b5f73ffffffffffffffffffffffffffffffffffffffff82169050919050565b5f61185c82611833565b9050919050565b61186c81611852565b8114611876575f80fd5b50565b5f8135905061188781611863565b92915050565b5f602082840312156118a2576118a161182b565b5b5f6118af84828501611879565b91505092915050565b5f8115159050919050565b6118cc816118b8565b82525050565b5f6020820190506118e55f8301846118c3565b92915050565b5f819050919050565b6118fd816118eb565b8114611907575f80fd5b50565b5f81359050611918816118f4565b92915050565b5f602082840312156119335761193261182b565b5b5f6119408482850161190a565b91505092915050565b611952816118eb565b82525050565b5f60208201905061196b5f830184611949565b92915050565b61197a816117f1565b8114611984575f80fd5b50565b5f8135905061199581611971565b92915050565b5f80fd5b5f80fd5b5f601f19601f8301169050919050565b7f4e487b71000000000000000000000000000000000000000000000000000000005f52604160045260245ffd5b6119e9826119a3565b810181811067ffffffffffffffff82111715611a0857611a076119b3565b5b80604052505050565b5f611a1a611822565b9050611a2682826119e0565b919050565b5f67ffffffffffffffff821115611a4557611a446119b3565b5b611a4e826119a3565b9050602081019050919050565b828183375f83830152505050565b5f611a7b611a7684611a2b565b611a11565b905082815260208101848484011115611a9757611a9661199f565b5b611aa2848285611a5b565b509392505050565b5f82601f830112611abe57611abd61199b565b5b8135611ace848260208601611a69565b91505092915050565b5f8060408385031215611aed57611aec61182b565b5b5f611afa85828601611987565b925050602083013567ffffffffffffffff811115611b1b57611b1a61182f565b5b611b2785828601611aaa565b9150509250929050565b5f60208284031215611b4657611b4561182b565b5b5f611b5384828501611987565b91505092915050565b611b6581611852565b82525050565b5f602082019050611b7e5f830184611b5c565b92915050565b5f819050919050565b5f611ba7611ba2611b9d84611833565b611b84565b611833565b9050919050565b5f611bb882611b8d565b9050919050565b5f611bc982611bae565b9050919050565b611bd981611bbf565b82525050565b5f602082019050611bf25f830184611bd0565b92915050565b5f82825260208201905092915050565b7f47616d65206973206e6f742061637469766500000000000000000000000000005f82015250565b5f611c3c601283611bf8565b9150611c4782611c08565b602082019050919050565b5f6020820190508181035f830152611c6981611c30565b9050919050565b7f52657665616c20706572696f64206e6f7420656e6465640000000000000000005f82015250565b5f611ca4601783611bf8565b9150611caf82611c70565b602082019050919050565b5f6020820190508181035f830152611cd181611c98565b9050919050565b7f4e487b71000000000000000000000000000000000000000000000000000000005f52603260045260245ffd5b5f604082019050611d185f830185611b5c565b611d2560208301846117fa565b9392505050565b611d35816118b8565b8114611d3f575f80fd5b50565b5f81519050611d5081611d2c565b92915050565b5f60208284031215611d6b57611d6a61182b565b5b5f611d7884828501611d42565b91505092915050565b7f47616d6520616c7265616479206861732074776f20706c6179657273000000005f82015250565b5f611db5601c83611bf8565b9150611dc082611d81565b602082019050919050565b5f6020820190508181035f830152611de281611da9565b9050919050565b5f604082019050611dfc5f830185611b5c565b611e096020830184611b5c565b9392505050565b5f81519050611e1e81611971565b92915050565b5f60208284031215611e3957611e3861182b565b5b5f611e4684828501611e10565b91505092915050565b7f496e73756666696369656e7420616c6c6f77616e6365000000000000000000005f82015250565b5f611e83601683611bf8565b9150611e8e82611e4f565b602082019050919050565b5f6020820190508181035f830152611eb081611e77565b9050919050565b7f43616e6e6f74206a6f696e2074776963650000000000000000000000000000005f82015250565b5f611eeb601183611bf8565b9150611ef682611eb7565b602082019050919050565b5f6020820190508181035f830152611f1881611edf565b9050919050565b7f506c61796572203120686173206e6f7420617070726f766564000000000000005f82015250565b5f611f53601983611bf8565b9150611f5e82611f1f565b602082019050919050565b5f6020820190508181035f830152611f8081611f47565b9050919050565b7f506c61796572203220686173206e6f7420617070726f766564000000000000005f82015250565b5f611fbb601983611bf8565b9150611fc682611f87565b602082019050919050565b5f6020820190508181035f830152611fe881611faf565b9050919050565b5f6060820190506120025f830186611b5c565b61200f6020830185611b5c565b61201c60408301846117fa565b949350505050565b7f4e487b71000000000000000000000000000000000000000000000000000000005f52601160045260245ffd5b5f61205b826117f1565b9150612066836117f1565b9250828202612074816117f1565b9150828204841483151761208b5761208a612024565b5b5092915050565b5f61209c826117f1565b91506120a7836117f1565b92508282019050808211156120bf576120be612024565b5b92915050565b7f52657665616c20706572696f6420656e646564000000000000000000000000005f82015250565b5f6120f9601383611bf8565b9150612104826120c5565b602082019050919050565b5f6020820190508181035f830152612126816120ed565b9050919050565b7f496e76616c69642063686f6963650000000000000000000000000000000000005f82015250565b5f612161600e83611bf8565b915061216c8261212d565b602082019050919050565b5f6020820190508181035f83015261218e81612155565b9050919050565b5f819050919050565b6121af6121aa826117f1565b612195565b82525050565b5f81519050919050565b5f81905092915050565b8281835e5f83830152505050565b5f6121e1826121b5565b6121eb81856121bf565b93506121fb8185602086016121c9565b80840191505092915050565b5f612212828561219e565b60208201915061222282846121d7565b91508190509392505050565b7f436f6d6d69746d656e74206d69736d61746368000000000000000000000000005f82015250565b5f612262601383611bf8565b915061226d8261222e565b602082019050919050565b5f6020820190508181035f83015261228f81612256565b9050919050565b7f4e487b71000000000000000000000000000000000000000000000000000000005f52601260045260245ffd5b5f6122cd826117f1565b91506122d8836117f1565b9250826122e8576122e7612296565b5b828206905092915050565b7f5472616e73666572206661696c656400000000000000000000000000000000005f82015250565b5f612327600f83611bf8565b9150612332826122f3565b602082019050919050565b5f6020820190508181035f8301526123548161231b565b9050919050565b5f612365826117f1565b9150612370836117f1565b9250826123805761237f612296565b5b82820490509291505056fea26469706673582212204ecfbd827d28e4f2d29286d38982e64fee247f50ea1c338e0d170422eb6dfdd564736f6c634300081a0033",
			"opcodes": "PUSH1 0x80 PUSH1 0x40 MSTORE PUSH0 DUP1 SSTORE PUSH0 PUSH1 0x7 PUSH0 PUSH2 0x100 EXP DUP2 SLOAD DUP2 PUSH1 0xFF MUL NOT AND SWAP1 DUP4 ISZERO ISZERO MUL OR SWAP1 SSTORE POP PUSH5 0xE8D4A51000 PUSH1 0x8 SSTORE CALLVALUE DUP1 ISZERO PUSH2 0x34 JUMPI PUSH0 DUP1 REVERT JUMPDEST POP PUSH1 0x40 MLOAD PUSH2 0x24F4 CODESIZE SUB DUP1 PUSH2 0x24F4 DUP4 CODECOPY DUP2 DUP2 ADD PUSH1 0x40 MSTORE DUP2 ADD SWAP1 PUSH2 0x56 SWAP2 SWAP1 PUSH2 0xFB JUMP JUMPDEST DUP1 PUSH1 0x7 PUSH1 0x1 PUSH2 0x100 EXP DUP2 SLOAD DUP2 PUSH20 0xFFFFFFFFFFFFFFFFFFFFFFFFFFFFFFFFFFFFFFFF MUL NOT AND SWAP1 DUP4 PUSH20 0xFFFFFFFFFFFFFFFFFFFFFFFFFFFFFFFFFFFFFFFF AND MUL OR SWAP1 SSTORE POP POP PUSH2 0x126 JUMP JUMPDEST PUSH0 DUP1 REVERT JUMPDEST PUSH0 PUSH20 0xFFFFFFFFFFFFFFFFFFFFFFFFFFFFFFFFFFFFFFFF DUP3 AND SWAP1 POP SWAP2 SWAP1 POP JUMP JUMPDEST PUSH0 PUSH2 0xCA DUP3 PUSH2 0xA1 JUMP JUMPDEST SWAP1 POP SWAP2 SWAP1 POP JUMP JUMPDEST PUSH2 0xDA DUP2 PUSH2 0xC0 JUMP JUMPDEST DUP2 EQ PUSH2 0xE4 JUMPI PUSH0 DUP1 REVERT JUMPDEST POP JUMP JUMPDEST PUSH0 DUP2 MLOAD SWAP1 POP PUSH2 0xF5 DUP2 PUSH2 0xD1 JUMP JUMPDEST SWAP3 SWAP2 POP POP JUMP JUMPDEST PUSH0 PUSH1 0x20 DUP3 DUP5 SUB SLT ISZERO PUSH2 0x110 JUMPI PUSH2 0x10F PUSH2 0x9D JUMP JUMPDEST JUMPDEST PUSH0 PUSH2 0x11D DUP5 DUP3 DUP6 ADD PUSH2 0xE7 JUMP JUMPDEST SWAP2 POP POP SWAP3 SWAP2 POP POP JUMP JUMPDEST PUSH2 0x23C1 DUP1 PUSH2 0x133 PUSH0 CODECOPY PUSH0 RETURN INVALID PUSH1 0x80 PUSH1 0x40 MSTORE CALLVALUE DUP1 ISZERO PUSH2 0xF JUMPI PUSH0 DUP1 REVERT JUMPDEST POP PUSH1 0x4 CALLDATASIZE LT PUSH2 0xCD JUMPI PUSH0 CALLDATALOAD PUSH1 0xE0 SHR DUP1 PUSH4 0xBF474766 GT PUSH2 0x8A JUMPI DUP1 PUSH4 0xF020044F GT PUSH2 0x64 JUMPI DUP1 PUSH4 0xF020044F EQ PUSH2 0x1FF JUMPI DUP1 PUSH4 0xF712545B EQ PUSH2 0x21D JUMPI DUP1 PUSH4 0xF71D96CB EQ PUSH2 0x239 JUMPI DUP1 PUSH4 0xFC0C546A EQ PUSH2 0x269 JUMPI PUSH2 0xCD JUMP JUMPDEST DUP1 PUSH4 0xBF474766 EQ PUSH2 0x195 JUMPI DUP1 PUSH4 0xD24257C0 EQ PUSH2 0x1B1 JUMPI DUP1 PUSH4 0xE8FCF723 EQ PUSH2 0x1CF JUMPI PUSH2 0xCD JUMP JUMPDEST DUP1 PUSH4 0x252B995 EQ PUSH2 0xD1 JUMPI DUP1 PUSH4 0x228CB733 EQ PUSH2 0xEF JUMPI DUP1 PUSH4 0x410346B3 EQ PUSH2 0x10D JUMPI DUP1 PUSH4 0xB14B28A3 EQ PUSH2 0x13D JUMPI DUP1 PUSH4 0xB8C23C0A EQ PUSH2 0x15B JUMPI DUP1 PUSH4 0xB9A53013 EQ PUSH2 0x165 JUMPI JUMPDEST PUSH0 DUP1 REVERT JUMPDEST PUSH2 0xD9 PUSH2 0x287 JUMP JUMPDEST PUSH1 0x40 MLOAD PUSH2 0xE6 SWAP2 SWAP1 PUSH2 0x1809 JUMP JUMPDEST PUSH1 0x40 MLOAD DUP1 SWAP2 SUB SWAP1 RETURN JUMPDEST PUSH2 0xF7 PUSH2 0x28D JUMP JUMPDEST PUSH1 0x40 MLOAD PUSH2 0x104 SWAP2 SWAP1 PUSH2 0x1809 JUMP JUMPDEST PUSH1 0x40 MLOAD DUP1 SWAP2 SUB SWAP1 RETURN JUMPDEST PUSH2 0x127 PUSH1 0x4 DUP1 CALLDATASIZE SUB DUP2 ADD SWAP1 PUSH2 0x122 SWAP2 SWAP1 PUSH2 0x188D JUMP JUMPDEST PUSH2 0x292 JUMP JUMPDEST PUSH1 0x40 MLOAD PUSH2 0x134 SWAP2 SWAP1 PUSH2 0x1809 JUMP JUMPDEST PUSH1 0x40 MLOAD DUP1 SWAP2 SUB SWAP1 RETURN JUMPDEST PUSH2 0x145 PUSH2 0x2A7 JUMP JUMPDEST PUSH1 0x40 MLOAD PUSH2 0x152 SWAP2 SWAP1 PUSH2 0x1809 JUMP JUMPDEST PUSH1 0x40 MLOAD DUP1 SWAP2 SUB SWAP1 RETURN JUMPDEST PUSH2 0x163 PUSH2 0x2AD JUMP JUMPDEST STOP JUMPDEST PUSH2 0x17F PUSH1 0x4 DUP1 CALLDATASIZE SUB DUP2 ADD SWAP1 PUSH2 0x17A SWAP2 SWAP1 PUSH2 0x188D JUMP JUMPDEST PUSH2 0x7DB JUMP JUMPDEST PUSH1 0x40 MLOAD PUSH2 0x18C SWAP2 SWAP1 PUSH2 0x18D2 JUMP JUMPDEST PUSH1 0x40 MLOAD DUP1 SWAP2 SUB SWAP1 RETURN JUMPDEST PUSH2 0x1AF PUSH1 0x4 DUP1 CALLDATASIZE SUB DUP2 ADD SWAP1 PUSH2 0x1AA SWAP2 SWAP1 PUSH2 0x191E JUMP JUMPDEST PUSH2 0x7F8 JUMP JUMPDEST STOP JUMPDEST PUSH2 0x1B9 PUSH2 0xEC7 JUMP JUMPDEST PUSH1 0x40 MLOAD PUSH2 0x1C6 SWAP2 SWAP1 PUSH2 0x1809 JUMP JUMPDEST PUSH1 0x40 MLOAD DUP1 SWAP2 SUB SWAP1 RETURN JUMPDEST PUSH2 0x1E9 PUSH1 0x4 DUP1 CALLDATASIZE SUB DUP2 ADD SWAP1 PUSH2 0x1E4 SWAP2 SWAP1 PUSH2 0x188D JUMP JUMPDEST PUSH2 0xECD JUMP JUMPDEST PUSH1 0x40 MLOAD PUSH2 0x1F6 SWAP2 SWAP1 PUSH2 0x1958 JUMP JUMPDEST PUSH1 0x40 MLOAD DUP1 SWAP2 SUB SWAP1 RETURN JUMPDEST PUSH2 0x207 PUSH2 0xEE2 JUMP JUMPDEST PUSH1 0x40 MLOAD PUSH2 0x214 SWAP2 SWAP1 PUSH2 0x18D2 JUMP JUMPDEST PUSH1 0x40 MLOAD DUP1 SWAP2 SUB SWAP1 RETURN JUMPDEST PUSH2 0x237 PUSH1 0x4 DUP1 CALLDATASIZE SUB DUP2 ADD SWAP1 PUSH2 0x232 SWAP2 SWAP1 PUSH2 0x1AD7 JUMP JUMPDEST PUSH2 0xEF4 JUMP JUMPDEST STOP JUMPDEST PUSH2 0x253 PUSH1 0x4 DUP1 CALLDATASIZE SUB DUP2 ADD SWAP1 PUSH2 0x24E SWAP2 SWAP1 PUSH2 0x1B31 JUMP JUMPDEST PUSH2 0x123A JUMP JUMPDEST PUSH1 0x40 MLOAD PUSH2 0x260 SWAP2 SWAP1 PUSH2 0x1B6B JUMP JUMPDEST PUSH1 0x40 MLOAD DUP1 SWAP2 SUB SWAP1 RETURN JUMPDEST PUSH2 0x271 PUSH2 0x1275 JUMP JUMPDEST PUSH1 0x40 MLOAD PUSH2 0x27E SWAP2 SWAP1 PUSH2 0x1BDF JUMP JUMPDEST PUSH1 0x40 MLOAD DUP1 SWAP2 SUB SWAP1 RETURN JUMPDEST PUSH1 0x5 SLOAD DUP2 JUMP JUMPDEST PUSH0 SLOAD DUP2 JUMP JUMPDEST PUSH1 0x2 PUSH1 0x20 MSTORE DUP1 PUSH0 MSTORE PUSH1 0x40 PUSH0 KECCAK256 PUSH0 SWAP2 POP SWAP1 POP SLOAD DUP2 JUMP JUMPDEST PUSH1 0x6 SLOAD DUP2 JUMP JUMPDEST PUSH1 0x7 PUSH0 SWAP1 SLOAD SWAP1 PUSH2 0x100 EXP SWAP1 DIV PUSH1 0xFF AND PUSH2 0x2FB JUMPI PUSH1 0x40 MLOAD PUSH32 0x8C379A000000000000000000000000000000000000000000000000000000000 DUP2 MSTORE PUSH1 0x4 ADD PUSH2 0x2F2 SWAP1 PUSH2 0x1C52 JUMP JUMPDEST PUSH1 0x40 MLOAD DUP1 SWAP2 SUB SWAP1 REVERT JUMPDEST PUSH1 0x6 SLOAD TIMESTAMP GT PUSH2 0x33F JUMPI PUSH1 0x40 MLOAD PUSH32 0x8C379A000000000000000000000000000000000000000000000000000000000 DUP2 MSTORE PUSH1 0x4 ADD PUSH2 0x336 SWAP1 PUSH2 0x1CBA JUMP JUMPDEST PUSH1 0x40 MLOAD DUP1 SWAP2 SUB SWAP1 REVERT JUMPDEST PUSH1 0x3 PUSH0 PUSH1 0x4 PUSH0 DUP2 SLOAD DUP2 LT PUSH2 0x356 JUMPI PUSH2 0x355 PUSH2 0x1CD8 JUMP JUMPDEST JUMPDEST SWAP1 PUSH0 MSTORE PUSH1 0x20 PUSH0 KECCAK256 ADD PUSH0 SWAP1 SLOAD SWAP1 PUSH2 0x100 EXP SWAP1 DIV PUSH20 0xFFFFFFFFFFFFFFFFFFFFFFFFFFFFFFFFFFFFFFFF AND PUSH20 0xFFFFFFFFFFFFFFFFFFFFFFFFFFFFFFFFFFFFFFFF AND PUSH20 0xFFFFFFFFFFFFFFFFFFFFFFFFFFFFFFFFFFFFFFFF AND DUP2 MSTORE PUSH1 0x20 ADD SWAP1 DUP2 MSTORE PUSH1 0x20 ADD PUSH0 KECCAK256 PUSH0 SWAP1 SLOAD SWAP1 PUSH2 0x100 EXP SWAP1 DIV PUSH1 0xFF AND DUP1 ISZERO PUSH2 0x453 JUMPI POP PUSH1 0x3 PUSH0 PUSH1 0x4 PUSH1 0x1 DUP2 SLOAD DUP2 LT PUSH2 0x3E3 JUMPI PUSH2 0x3E2 PUSH2 0x1CD8 JUMP JUMPDEST JUMPDEST SWAP1 PUSH0 MSTORE PUSH1 0x20 PUSH0 KECCAK256 ADD PUSH0 SWAP1 SLOAD SWAP1 PUSH2 0x100 EXP SWAP1 DIV PUSH20 0xFFFFFFFFFFFFFFFFFFFFFFFFFFFFFFFFFFFFFFFF AND PUSH20 0xFFFFFFFFFFFFFFFFFFFFFFFFFFFFFFFFFFFFFFFF AND PUSH20 0xFFFFFFFFFFFFFFFFFFFFFFFFFFFFFFFFFFFFFFFF AND DUP2 MSTORE PUSH1 0x20 ADD SWAP1 DUP2 MSTORE PUSH1 0x20 ADD PUSH0 KECCAK256 PUSH0 SWAP1 SLOAD SWAP1 PUSH2 0x100 EXP SWAP1 DIV PUSH1 0xFF AND ISZERO JUMPDEST ISZERO PUSH2 0x537 JUMPI PUSH1 0x7 PUSH1 0x1 SWAP1 SLOAD SWAP1 PUSH2 0x100 EXP SWAP1 DIV PUSH20 0xFFFFFFFFFFFFFFFFFFFFFFFFFFFFFFFFFFFFFFFF AND PUSH20 0xFFFFFFFFFFFFFFFFFFFFFFFFFFFFFFFFFFFFFFFF AND PUSH4 0xA9059CBB PUSH1 0x4 PUSH0 DUP2 SLOAD DUP2 LT PUSH2 0x4AA JUMPI PUSH2 0x4A9 PUSH2 0x1CD8 JUMP JUMPDEST JUMPDEST SWAP1 PUSH0 MSTORE PUSH1 0x20 PUSH0 KECCAK256 ADD PUSH0 SWAP1 SLOAD SWAP1 PUSH2 0x100 EXP SWAP1 DIV PUSH20 0xFFFFFFFFFFFFFFFFFFFFFFFFFFFFFFFFFFFFFFFF AND PUSH0 SLOAD PUSH1 0x40 MLOAD DUP4 PUSH4 0xFFFFFFFF AND PUSH1 0xE0 SHL DUP2 MSTORE PUSH1 0x4 ADD PUSH2 0x4F1 SWAP3 SWAP2 SWAP1 PUSH2 0x1D05 JUMP JUMPDEST PUSH1 0x20 PUSH1 0x40 MLOAD DUP1 DUP4 SUB DUP2 PUSH0 DUP8 GAS CALL ISZERO DUP1 ISZERO PUSH2 0x50D JUMPI RETURNDATASIZE PUSH0 DUP1 RETURNDATACOPY RETURNDATASIZE PUSH0 REVERT JUMPDEST POP POP POP POP PUSH1 0x40 MLOAD RETURNDATASIZE PUSH1 0x1F NOT PUSH1 0x1F DUP3 ADD AND DUP3 ADD DUP1 PUSH1 0x40 MSTORE POP DUP2 ADD SWAP1 PUSH2 0x531 SWAP2 SWAP1 PUSH2 0x1D56 JUMP JUMPDEST POP PUSH2 0x7D1 JUMP JUMPDEST PUSH1 0x3 PUSH0 PUSH1 0x4 PUSH1 0x1 DUP2 SLOAD DUP2 LT PUSH2 0x54F JUMPI PUSH2 0x54E PUSH2 0x1CD8 JUMP JUMPDEST JUMPDEST SWAP1 PUSH0 MSTORE PUSH1 0x20 PUSH0 KECCAK256 ADD PUSH0 SWAP1 SLOAD SWAP1 PUSH2 0x100 EXP SWAP1 DIV PUSH20 0xFFFFFFFFFFFFFFFFFFFFFFFFFFFFFFFFFFFFFFFF AND PUSH20 0xFFFFFFFFFFFFFFFFFFFFFFFFFFFFFFFFFFFFFFFF AND PUSH20 0xFFFFFFFFFFFFFFFFFFFFFFFFFFFFFFFFFFFFFFFF AND DUP2 MSTORE PUSH1 0x20 ADD SWAP1 DUP2 MSTORE PUSH1 0x20 ADD PUSH0 KECCAK256 PUSH0 SWAP1 SLOAD SWAP1 PUSH2 0x100 EXP SWAP1 DIV PUSH1 0xFF AND DUP1 ISZERO PUSH2 0x64B JUMPI POP PUSH1 0x3 PUSH0 PUSH1 0x4 PUSH0 DUP2 SLOAD DUP2 LT PUSH2 0x5DB JUMPI PUSH2 0x5DA PUSH2 0x1CD8 JUMP JUMPDEST JUMPDEST SWAP1 PUSH0 MSTORE PUSH1 0x20 PUSH0 KECCAK256 ADD PUSH0 SWAP1 SLOAD SWAP1 PUSH2 0x100 EXP SWAP1 DIV PUSH20 0xFFFFFFFFFFFFFFFFFFFFFFFFFFFFFFFFFFFFFFFF AND PUSH20 0xFFFFFFFFFFFFFFFFFFFFFFFFFFFFFFFFFFFFFFFF AND PUSH20 0xFFFFFFFFFFFFFFFFFFFFFFFFFFFFFFFFFFFFFFFF AND DUP2 MSTORE PUSH1 0x20 ADD SWAP1 DUP2 MSTORE PUSH1 0x20 ADD PUSH0 KECCAK256 PUSH0 SWAP1 SLOAD SWAP1 PUSH2 0x100 EXP SWAP1 DIV PUSH1 0xFF AND ISZERO JUMPDEST ISZERO PUSH2 0x730 JUMPI PUSH1 0x7 PUSH1 0x1 SWAP1 SLOAD SWAP1 PUSH2 0x100 EXP SWAP1 DIV PUSH20 0xFFFFFFFFFFFFFFFFFFFFFFFFFFFFFFFFFFFFFFFF AND PUSH20 0xFFFFFFFFFFFFFFFFFFFFFFFFFFFFFFFFFFFFFFFF AND PUSH4 0xA9059CBB PUSH1 0x4 PUSH1 0x1 DUP2 SLOAD DUP2 LT PUSH2 0x6A3 JUMPI PUSH2 0x6A2 PUSH2 0x1CD8 JUMP JUMPDEST JUMPDEST SWAP1 PUSH0 MSTORE PUSH1 0x20 PUSH0 KECCAK256 ADD PUSH0 SWAP1 SLOAD SWAP1 PUSH2 0x100 EXP SWAP1 DIV PUSH20 0xFFFFFFFFFFFFFFFFFFFFFFFFFFFFFFFFFFFFFFFF AND PUSH0 SLOAD PUSH1 0x40 MLOAD DUP4 PUSH4 0xFFFFFFFF AND PUSH1 0xE0 SHL DUP2 MSTORE PUSH1 0x4 ADD PUSH2 0x6EA SWAP3 SWAP2 SWAP1 PUSH2 0x1D05 JUMP JUMPDEST PUSH1 0x20 PUSH1 0x40 MLOAD DUP1 DUP4 SUB DUP2 PUSH0 DUP8 GAS CALL ISZERO DUP1 ISZERO PUSH2 0x706 JUMPI RETURNDATASIZE PUSH0 DUP1 RETURNDATACOPY RETURNDATASIZE PUSH0 REVERT JUMPDEST POP POP POP POP PUSH1 0x40 MLOAD RETURNDATASIZE PUSH1 0x1F NOT PUSH1 0x1F DUP3 ADD AND DUP3 ADD DUP1 PUSH1 0x40 MSTORE POP DUP2 ADD SWAP1 PUSH2 0x72A SWAP2 SWAP1 PUSH2 0x1D56 JUMP JUMPDEST POP PUSH2 0x7D0 JUMP JUMPDEST PUSH1 0x7 PUSH1 0x1 SWAP1 SLOAD SWAP1 PUSH2 0x100 EXP SWAP1 DIV PUSH20 0xFFFFFFFFFFFFFFFFFFFFFFFFFFFFFFFFFFFFFFFF AND PUSH20 0xFFFFFFFFFFFFFFFFFFFFFFFFFFFFFFFFFFFFFFFF AND PUSH4 0xA9059CBB CALLER PUSH0 SLOAD PUSH1 0x40 MLOAD DUP4 PUSH4 0xFFFFFFFF AND PUSH1 0xE0 SHL DUP2 MSTORE PUSH1 0x4 ADD PUSH2 0x78E SWAP3 SWAP2 SWAP1 PUSH2 0x1D05 JUMP JUMPDEST PUSH1 0x20 PUSH1 0x40 MLOAD DUP1 DUP4 SUB DUP2 PUSH0 DUP8 GAS CALL ISZERO DUP1 ISZERO PUSH2 0x7AA JUMPI RETURNDATASIZE PUSH0 DUP1 RETURNDATACOPY RETURNDATASIZE PUSH0 REVERT JUMPDEST POP POP POP POP PUSH1 0x40 MLOAD RETURNDATASIZE PUSH1 0x1F NOT PUSH1 0x1F DUP3 ADD AND DUP3 ADD DUP1 PUSH1 0x40 MSTORE POP DUP2 ADD SWAP1 PUSH2 0x7CE SWAP2 SWAP1 PUSH2 0x1D56 JUMP JUMPDEST POP JUMPDEST JUMPDEST PUSH2 0x7D9 PUSH2 0x129B JUMP JUMPDEST JUMP JUMPDEST PUSH1 0x3 PUSH1 0x20 MSTORE DUP1 PUSH0 MSTORE PUSH1 0x40 PUSH0 KECCAK256 PUSH0 SWAP2 POP SLOAD SWAP1 PUSH2 0x100 EXP SWAP1 DIV PUSH1 0xFF AND DUP2 JUMP JUMPDEST PUSH1 0x2 PUSH1 0x4 DUP1 SLOAD SWAP1 POP LT PUSH2 0x840 JUMPI PUSH1 0x40 MLOAD PUSH32 0x8C379A000000000000000000000000000000000000000000000000000000000 DUP2 MSTORE PUSH1 0x4 ADD PUSH2 0x837 SWAP1 PUSH2 0x1DCB JUMP JUMPDEST PUSH1 0x40 MLOAD DUP1 SWAP2 SUB SWAP1 REVERT JUMPDEST PUSH1 0x8 SLOAD PUSH1 0x7 PUSH1 0x1 SWAP1 SLOAD SWAP1 PUSH2 0x100 EXP SWAP1 DIV PUSH20 0xFFFFFFFFFFFFFFFFFFFFFFFFFFFFFFFFFFFFFFFF AND PUSH20 0xFFFFFFFFFFFFFFFFFFFFFFFFFFFFFFFFFFFFFFFF AND PUSH4 0xDD62ED3E CALLER ADDRESS PUSH1 0x40 MLOAD DUP4 PUSH4 0xFFFFFFFF AND PUSH1 0xE0 SHL DUP2 MSTORE PUSH1 0x4 ADD PUSH2 0x8A0 SWAP3 SWAP2 SWAP1 PUSH2 0x1DE9 JUMP JUMPDEST PUSH1 0x20 PUSH1 0x40 MLOAD DUP1 DUP4 SUB DUP2 DUP7 GAS STATICCALL ISZERO DUP1 ISZERO PUSH2 0x8BB JUMPI RETURNDATASIZE PUSH0 DUP1 RETURNDATACOPY RETURNDATASIZE PUSH0 REVERT JUMPDEST POP POP POP POP PUSH1 0x40 MLOAD RETURNDATASIZE PUSH1 0x1F NOT PUSH1 0x1F DUP3 ADD AND DUP3 ADD DUP1 PUSH1 0x40 MSTORE POP DUP2 ADD SWAP1 PUSH2 0x8DF SWAP2 SWAP1 PUSH2 0x1E24 JUMP JUMPDEST LT ISZERO PUSH2 0x920 JUMPI PUSH1 0x40 MLOAD PUSH32 0x8C379A000000000000000000000000000000000000000000000000000000000 DUP2 MSTORE PUSH1 0x4 ADD PUSH2 0x917 SWAP1 PUSH2 0x1E99 JUMP JUMPDEST PUSH1 0x40 MLOAD DUP1 SWAP2 SUB SWAP1 REVERT JUMPDEST PUSH1 0x1 PUSH1 0x4 DUP1 SLOAD SWAP1 POP SUB PUSH2 0x9D7 JUMPI PUSH1 0x4 PUSH0 DUP2 SLOAD DUP2 LT PUSH2 0x941 JUMPI PUSH2 0x940 PUSH2 0x1CD8 JUMP JUMPDEST JUMPDEST SWAP1 PUSH0 MSTORE PUSH1 0x20 PUSH0 KECCAK256 ADD PUSH0 SWAP1 SLOAD SWAP1 PUSH2 0x100 EXP SWAP1 DIV PUSH20 0xFFFFFFFFFFFFFFFFFFFFFFFFFFFFFFFFFFFFFFFF AND PUSH20 0xFFFFFFFFFFFFFFFFFFFFFFFFFFFFFFFFFFFFFFFF AND CALLER PUSH20 0xFFFFFFFFFFFFFFFFFFFFFFFFFFFFFFFFFFFFFFFF AND SUB PUSH2 0x9D6 JUMPI PUSH1 0x40 MLOAD PUSH32 0x8C379A000000000000000000000000000000000000000000000000000000000 DUP2 MSTORE PUSH1 0x4 ADD PUSH2 0x9CD SWAP1 PUSH2 0x1F01 JUMP JUMPDEST PUSH1 0x40 MLOAD DUP1 SWAP2 SUB SWAP1 REVERT JUMPDEST JUMPDEST PUSH1 0x4 CALLER SWAP1 DUP1 PUSH1 0x1 DUP2 SLOAD ADD DUP1 DUP3 SSTORE DUP1 SWAP2 POP POP PUSH1 0x1 SWAP1 SUB SWAP1 PUSH0 MSTORE PUSH1 0x20 PUSH0 KECCAK256 ADD PUSH0 SWAP1 SWAP2 SWAP1 SWAP2 SWAP1 SWAP2 PUSH2 0x100 EXP DUP2 SLOAD DUP2 PUSH20 0xFFFFFFFFFFFFFFFFFFFFFFFFFFFFFFFFFFFFFFFF MUL NOT AND SWAP1 DUP4 PUSH20 0xFFFFFFFFFFFFFFFFFFFFFFFFFFFFFFFFFFFFFFFF AND MUL OR SWAP1 SSTORE POP DUP1 PUSH1 0x1 PUSH0 CALLER PUSH20 0xFFFFFFFFFFFFFFFFFFFFFFFFFFFFFFFFFFFFFFFF AND PUSH20 0xFFFFFFFFFFFFFFFFFFFFFFFFFFFFFFFFFFFFFFFF AND DUP2 MSTORE PUSH1 0x20 ADD SWAP1 DUP2 MSTORE PUSH1 0x20 ADD PUSH0 KECCAK256 DUP2 SWAP1 SSTORE POP PUSH1 0x2 PUSH1 0x4 DUP1 SLOAD SWAP1 POP SUB PUSH2 0xEC4 JUMPI PUSH1 0x8 SLOAD PUSH1 0x7 PUSH1 0x1 SWAP1 SLOAD SWAP1 PUSH2 0x100 EXP SWAP1 DIV PUSH20 0xFFFFFFFFFFFFFFFFFFFFFFFFFFFFFFFFFFFFFFFF AND PUSH20 0xFFFFFFFFFFFFFFFFFFFFFFFFFFFFFFFFFFFFFFFF AND PUSH4 0xDD62ED3E PUSH1 0x4 PUSH0 DUP2 SLOAD DUP2 LT PUSH2 0xADB JUMPI PUSH2 0xADA PUSH2 0x1CD8 JUMP JUMPDEST JUMPDEST SWAP1 PUSH0 MSTORE PUSH1 0x20 PUSH0 KECCAK256 ADD PUSH0 SWAP1 SLOAD SWAP1 PUSH2 0x100 EXP SWAP1 DIV PUSH20 0xFFFFFFFFFFFFFFFFFFFFFFFFFFFFFFFFFFFFFFFF AND ADDRESS PUSH1 0x40 MLOAD DUP4 PUSH4 0xFFFFFFFF AND PUSH1 0xE0 SHL DUP2 MSTORE PUSH1 0x4 ADD PUSH2 0xB21 SWAP3 SWAP2 SWAP1 PUSH2 0x1DE9 JUMP JUMPDEST PUSH1 0x20 PUSH1 0x40 MLOAD DUP1 DUP4 SUB DUP2 DUP7 GAS STATICCALL ISZERO DUP1 ISZERO PUSH2 0xB3C JUMPI RETURNDATASIZE PUSH0 DUP1 RETURNDATACOPY RETURNDATASIZE PUSH0 REVERT JUMPDEST POP POP POP POP PUSH1 0x40 MLOAD RETURNDATASIZE PUSH1 0x1F NOT PUSH1 0x1F DUP3 ADD AND DUP3 ADD DUP1 PUSH1 0x40 MSTORE POP DUP2 ADD SWAP1 PUSH2 0xB60 SWAP2 SWAP1 PUSH2 0x1E24 JUMP JUMPDEST LT ISZERO PUSH2 0xBA1 JUMPI PUSH1 0x40 MLOAD PUSH32 0x8C379A000000000000000000000000000000000000000000000000000000000 DUP2 MSTORE PUSH1 0x4 ADD PUSH2 0xB98 SWAP1 PUSH2 0x1F69 JUMP JUMPDEST PUSH1 0x40 MLOAD DUP1 SWAP2 SUB SWAP1 REVERT JUMPDEST PUSH1 0x8 SLOAD PUSH1 0x7 PUSH1 0x1 SWAP1 SLOAD SWAP1 PUSH2 0x100 EXP SWAP1 DIV PUSH20 0xFFFFFFFFFFFFFFFFFFFFFFFFFFFFFFFFFFFFFFFF AND PUSH20 0xFFFFFFFFFFFFFFFFFFFFFFFFFFFFFFFFFFFFFFFF AND PUSH4 0xDD62ED3E PUSH1 0x4 PUSH1 0x1 DUP2 SLOAD DUP2 LT PUSH2 0xBF7 JUMPI PUSH2 0xBF6 PUSH2 0x1CD8 JUMP JUMPDEST JUMPDEST SWAP1 PUSH0 MSTORE PUSH1 0x20 PUSH0 KECCAK256 ADD PUSH0 SWAP1 SLOAD SWAP1 PUSH2 0x100 EXP SWAP1 DIV PUSH20 0xFFFFFFFFFFFFFFFFFFFFFFFFFFFFFFFFFFFFFFFF AND ADDRESS PUSH1 0x40 MLOAD DUP4 PUSH4 0xFFFFFFFF AND PUSH1 0xE0 SHL DUP2 MSTORE PUSH1 0x4 ADD PUSH2 0xC3D SWAP3 SWAP2 SWAP1 PUSH2 0x1DE9 JUMP JUMPDEST PUSH1 0x20 PUSH1 0x40 MLOAD DUP1 DUP4 SUB DUP2 DUP7 GAS STATICCALL ISZERO DUP1 ISZERO PUSH2 0xC58 JUMPI RETURNDATASIZE PUSH0 DUP1 RETURNDATACOPY RETURNDATASIZE PUSH0 REVERT JUMPDEST POP POP POP POP PUSH1 0x40 MLOAD RETURNDATASIZE PUSH1 0x1F NOT PUSH1 0x1F DUP3 ADD AND DUP3 ADD DUP1 PUSH1 0x40 MSTORE POP DUP2 ADD SWAP1 PUSH2 0xC7C SWAP2 SWAP1 PUSH2 0x1E24 JUMP JUMPDEST LT ISZERO PUSH2 0xCBD JUMPI PUSH1 0x40 MLOAD PUSH32 0x8C379A000000000000000000000000000000000000000000000000000000000 DUP2 MSTORE PUSH1 0x4 ADD PUSH2 0xCB4 SWAP1 PUSH2 0x1FD1 JUMP JUMPDEST PUSH1 0x40 MLOAD DUP1 SWAP2 SUB SWAP1 REVERT JUMPDEST PUSH1 0x7 PUSH1 0x1 SWAP1 SLOAD SWAP1 PUSH2 0x100 EXP SWAP1 DIV PUSH20 0xFFFFFFFFFFFFFFFFFFFFFFFFFFFFFFFFFFFFFFFF AND PUSH20 0xFFFFFFFFFFFFFFFFFFFFFFFFFFFFFFFFFFFFFFFF AND PUSH4 0x23B872DD PUSH1 0x4 PUSH0 DUP2 SLOAD DUP2 LT PUSH2 0xD0F JUMPI PUSH2 0xD0E PUSH2 0x1CD8 JUMP JUMPDEST JUMPDEST SWAP1 PUSH0 MSTORE PUSH1 0x20 PUSH0 KECCAK256 ADD PUSH0 SWAP1 SLOAD SWAP1 PUSH2 0x100 EXP SWAP1 DIV PUSH20 0xFFFFFFFFFFFFFFFFFFFFFFFFFFFFFFFFFFFFFFFF AND ADDRESS PUSH1 0x8 SLOAD PUSH1 0x40 MLOAD DUP5 PUSH4 0xFFFFFFFF AND PUSH1 0xE0 SHL DUP2 MSTORE PUSH1 0x4 ADD PUSH2 0xD59 SWAP4 SWAP3 SWAP2 SWAP1 PUSH2 0x1FEF JUMP JUMPDEST PUSH1 0x20 PUSH1 0x40 MLOAD DUP1 DUP4 SUB DUP2 PUSH0 DUP8 GAS CALL ISZERO DUP1 ISZERO PUSH2 0xD75 JUMPI RETURNDATASIZE PUSH0 DUP1 RETURNDATACOPY RETURNDATASIZE PUSH0 REVERT JUMPDEST POP POP POP POP PUSH1 0x40 MLOAD RETURNDATASIZE PUSH1 0x1F NOT PUSH1 0x1F DUP3 ADD AND DUP3 ADD DUP1 PUSH1 0x40 MSTORE POP DUP2 ADD SWAP1 PUSH2 0xD99 SWAP2 SWAP1 PUSH2 0x1D56 JUMP JUMPDEST POP PUSH1 0x7 PUSH1 0x1 SWAP1 SLOAD SWAP1 PUSH2 0x100 EXP SWAP1 DIV PUSH20 0xFFFFFFFFFFFFFFFFFFFFFFFFFFFFFFFFFFFFFFFF AND PUSH20 0xFFFFFFFFFFFFFFFFFFFFFFFFFFFFFFFFFFFFFFFF AND PUSH4 0x23B872DD PUSH1 0x4 PUSH1 0x1 DUP2 SLOAD DUP2 LT PUSH2 0xDED JUMPI PUSH2 0xDEC PUSH2 0x1CD8 JUMP JUMPDEST JUMPDEST SWAP1 PUSH0 MSTORE PUSH1 0x20 PUSH0 KECCAK256 ADD PUSH0 SWAP1 SLOAD SWAP1 PUSH2 0x100 EXP SWAP1 DIV PUSH20 0xFFFFFFFFFFFFFFFFFFFFFFFFFFFFFFFFFFFFFFFF AND ADDRESS PUSH1 0x8 SLOAD PUSH1 0x40 MLOAD DUP5 PUSH4 0xFFFFFFFF AND PUSH1 0xE0 SHL DUP2 MSTORE PUSH1 0x4 ADD PUSH2 0xE37 SWAP4 SWAP3 SWAP2 SWAP1 PUSH2 0x1FEF JUMP JUMPDEST PUSH1 0x20 PUSH1 0x40 MLOAD DUP1 DUP4 SUB DUP2 PUSH0 DUP8 GAS CALL ISZERO DUP1 ISZERO PUSH2 0xE53 JUMPI RETURNDATASIZE PUSH0 DUP1 RETURNDATACOPY RETURNDATASIZE PUSH0 REVERT JUMPDEST POP POP POP POP PUSH1 0x40 MLOAD RETURNDATASIZE PUSH1 0x1F NOT PUSH1 0x1F DUP3 ADD AND DUP3 ADD DUP1 PUSH1 0x40 MSTORE POP DUP2 ADD SWAP1 PUSH2 0xE77 SWAP2 SWAP1 PUSH2 0x1D56 JUMP JUMPDEST POP PUSH1 0x2 PUSH1 0x8 SLOAD PUSH2 0xE87 SWAP2 SWAP1 PUSH2 0x2051 JUMP JUMPDEST PUSH0 DUP2 SWAP1 SSTORE POP TIMESTAMP PUSH1 0x5 DUP2 SWAP1 SSTORE POP PUSH2 0x12C PUSH1 0x5 SLOAD PUSH2 0xEA3 SWAP2 SWAP1 PUSH2 0x2092 JUMP JUMPDEST PUSH1 0x6 DUP2 SWAP1 SSTORE POP PUSH1 0x1 PUSH1 0x7 PUSH0 PUSH2 0x100 EXP DUP2 SLOAD DUP2 PUSH1 0xFF MUL NOT AND SWAP1 DUP4 ISZERO ISZERO MUL OR SWAP1 SSTORE POP JUMPDEST POP JUMP JUMPDEST PUSH1 0x8 SLOAD DUP2 JUMP JUMPDEST PUSH1 0x1 PUSH1 0x20 MSTORE DUP1 PUSH0 MSTORE PUSH1 0x40 PUSH0 KECCAK256 PUSH0 SWAP2 POP SWAP1 POP SLOAD DUP2 JUMP JUMPDEST PUSH1 0x7 PUSH0 SWAP1 SLOAD SWAP1 PUSH2 0x100 EXP SWAP1 DIV PUSH1 0xFF AND DUP2 JUMP JUMPDEST PUSH1 0x7 PUSH0 SWAP1 SLOAD SWAP1 PUSH2 0x100 EXP SWAP1 DIV PUSH1 0xFF AND PUSH2 0xF42 JUMPI PUSH1 0x40 MLOAD PUSH32 0x8C379A000000000000000000000000000000000000000000000000000000000 DUP2 MSTORE PUSH1 0x4 ADD PUSH2 0xF39 SWAP1 PUSH2 0x1C52 JUMP JUMPDEST PUSH1 0x40 MLOAD DUP1 SWAP2 SUB SWAP1 REVERT JUMPDEST PUSH1 0x6 SLOAD TIMESTAMP GT ISZERO PUSH2 0xF87 JUMPI PUSH1 0x40 MLOAD PUSH32 0x8C379A000000000000000000000000000000000000000000000000000000000 DUP2 MSTORE PUSH1 0x4 ADD PUSH2 0xF7E SWAP1 PUSH2 0x210F JUMP JUMPDEST PUSH1 0x40 MLOAD DUP1 SWAP2 SUB SWAP1 REVERT JUMPDEST PUSH0 DUP3 LT ISZERO DUP1 ISZERO PUSH2 0xF98 JUMPI POP PUSH1 0x4 DUP3 GT ISZERO JUMPDEST PUSH2 0xFD7 JUMPI PUSH1 0x40 MLOAD PUSH32 0x8C379A000000000000000000000000000000000000000000000000000000000 DUP2 MSTORE PUSH1 0x4 ADD PUSH2 0xFCE SWAP1 PUSH2 0x2177 JUMP JUMPDEST PUSH1 0x40 MLOAD DUP1 SWAP2 SUB SWAP1 REVERT JUMPDEST DUP2 DUP2 PUSH1 0x40 MLOAD PUSH1 0x20 ADD PUSH2 0xFEA SWAP3 SWAP2 SWAP1 PUSH2 0x2207 JUMP JUMPDEST PUSH1 0x40 MLOAD PUSH1 0x20 DUP2 DUP4 SUB SUB DUP2 MSTORE SWAP1 PUSH1 0x40 MSTORE DUP1 MLOAD SWAP1 PUSH1 0x20 ADD KECCAK256 PUSH1 0x1 PUSH0 CALLER PUSH20 0xFFFFFFFFFFFFFFFFFFFFFFFFFFFFFFFFFFFFFFFF AND PUSH20 0xFFFFFFFFFFFFFFFFFFFFFFFFFFFFFFFFFFFFFFFF AND DUP2 MSTORE PUSH1 0x20 ADD SWAP1 DUP2 MSTORE PUSH1 0x20 ADD PUSH0 KECCAK256 SLOAD EQ PUSH2 0x107E JUMPI PUSH1 0x40 MLOAD PUSH32 0x8C379A000000000000000000000000000000000000000000000000000000000 DUP2 MSTORE PUSH1 0x4 ADD PUSH2 0x1075 SWAP1 PUSH2 0x2278 JUMP JUMPDEST PUSH1 0x40 MLOAD DUP1 SWAP2 SUB SWAP1 REVERT JUMPDEST DUP2 PUSH1 0x2 PUSH0 CALLER PUSH20 0xFFFFFFFFFFFFFFFFFFFFFFFFFFFFFFFFFFFFFFFF AND PUSH20 0xFFFFFFFFFFFFFFFFFFFFFFFFFFFFFFFFFFFFFFFF AND DUP2 MSTORE PUSH1 0x20 ADD SWAP1 DUP2 MSTORE PUSH1 0x20 ADD PUSH0 KECCAK256 DUP2 SWAP1 SSTORE POP PUSH1 0x1 PUSH1 0x3 PUSH0 CALLER PUSH20 0xFFFFFFFFFFFFFFFFFFFFFFFFFFFFFFFFFFFFFFFF AND PUSH20 0xFFFFFFFFFFFFFFFFFFFFFFFFFFFFFFFFFFFFFFFF AND DUP2 MSTORE PUSH1 0x20 ADD SWAP1 DUP2 MSTORE PUSH1 0x20 ADD PUSH0 KECCAK256 PUSH0 PUSH2 0x100 EXP DUP2 SLOAD DUP2 PUSH1 0xFF MUL NOT AND SWAP1 DUP4 ISZERO ISZERO MUL OR SWAP1 SSTORE POP PUSH1 0x3 PUSH0 PUSH1 0x4 PUSH0 DUP2 SLOAD DUP2 LT PUSH2 0x112C JUMPI PUSH2 0x112B PUSH2 0x1CD8 JUMP JUMPDEST JUMPDEST SWAP1 PUSH0 MSTORE PUSH1 0x20 PUSH0 KECCAK256 ADD PUSH0 SWAP1 SLOAD SWAP1 PUSH2 0x100 EXP SWAP1 DIV PUSH20 0xFFFFFFFFFFFFFFFFFFFFFFFFFFFFFFFFFFFFFFFF AND PUSH20 0xFFFFFFFFFFFFFFFFFFFFFFFFFFFFFFFFFFFFFFFF AND PUSH20 0xFFFFFFFFFFFFFFFFFFFFFFFFFFFFFFFFFFFFFFFF AND DUP2 MSTORE PUSH1 0x20 ADD SWAP1 DUP2 MSTORE PUSH1 0x20 ADD PUSH0 KECCAK256 PUSH0 SWAP1 SLOAD SWAP1 PUSH2 0x100 EXP SWAP1 DIV PUSH1 0xFF AND DUP1 ISZERO PUSH2 0x1228 JUMPI POP PUSH1 0x3 PUSH0 PUSH1 0x4 PUSH1 0x1 DUP2 SLOAD DUP2 LT PUSH2 0x11B9 JUMPI PUSH2 0x11B8 PUSH2 0x1CD8 JUMP JUMPDEST JUMPDEST SWAP1 PUSH0 MSTORE PUSH1 0x20 PUSH0 KECCAK256 ADD PUSH0 SWAP1 SLOAD SWAP1 PUSH2 0x100 EXP SWAP1 DIV PUSH20 0xFFFFFFFFFFFFFFFFFFFFFFFFFFFFFFFFFFFFFFFF AND PUSH20 0xFFFFFFFFFFFFFFFFFFFFFFFFFFFFFFFFFFFFFFFF AND PUSH20 0xFFFFFFFFFFFFFFFFFFFFFFFFFFFFFFFFFFFFFFFF AND DUP2 MSTORE PUSH1 0x20 ADD SWAP1 DUP2 MSTORE PUSH1 0x20 ADD PUSH0 KECCAK256 PUSH0 SWAP1 SLOAD SWAP1 PUSH2 0x100 EXP SWAP1 DIV PUSH1 0xFF AND JUMPDEST ISZERO PUSH2 0x1236 JUMPI PUSH2 0x1235 PUSH2 0x12C6 JUMP JUMPDEST JUMPDEST POP POP JUMP JUMPDEST PUSH1 0x4 DUP2 DUP2 SLOAD DUP2 LT PUSH2 0x1249 JUMPI PUSH0 DUP1 REVERT JUMPDEST SWAP1 PUSH0 MSTORE PUSH1 0x20 PUSH0 KECCAK256 ADD PUSH0 SWAP2 POP SLOAD SWAP1 PUSH2 0x100 EXP SWAP1 DIV PUSH20 0xFFFFFFFFFFFFFFFFFFFFFFFFFFFFFFFFFFFFFFFF AND DUP2 JUMP JUMPDEST PUSH1 0x7 PUSH1 0x1 SWAP1 SLOAD SWAP1 PUSH2 0x100 EXP SWAP1 DIV PUSH20 0xFFFFFFFFFFFFFFFFFFFFFFFFFFFFFFFFFFFFFFFF AND DUP2 JUMP JUMPDEST PUSH1 0x4 PUSH0 PUSH2 0x12A8 SWAP2 SWAP1 PUSH2 0x17B8 JUMP JUMPDEST PUSH0 DUP1 SSTORE PUSH0 PUSH1 0x7 PUSH0 PUSH2 0x100 EXP DUP2 SLOAD DUP2 PUSH1 0xFF MUL NOT AND SWAP1 DUP4 ISZERO ISZERO MUL OR SWAP1 SSTORE POP JUMP JUMPDEST PUSH0 PUSH1 0x2 PUSH0 PUSH1 0x4 PUSH0 DUP2 SLOAD DUP2 LT PUSH2 0x12DE JUMPI PUSH2 0x12DD PUSH2 0x1CD8 JUMP JUMPDEST JUMPDEST SWAP1 PUSH0 MSTORE PUSH1 0x20 PUSH0 KECCAK256 ADD PUSH0 SWAP1 SLOAD SWAP1 PUSH2 0x100 EXP SWAP1 DIV PUSH20 0xFFFFFFFFFFFFFFFFFFFFFFFFFFFFFFFFFFFFFFFF AND PUSH20 0xFFFFFFFFFFFFFFFFFFFFFFFFFFFFFFFFFFFFFFFF AND PUSH20 0xFFFFFFFFFFFFFFFFFFFFFFFFFFFFFFFFFFFFFFFF AND DUP2 MSTORE PUSH1 0x20 ADD SWAP1 DUP2 MSTORE PUSH1 0x20 ADD PUSH0 KECCAK256 SLOAD SWAP1 POP PUSH0 PUSH1 0x2 PUSH0 PUSH1 0x4 PUSH1 0x1 DUP2 SLOAD DUP2 LT PUSH2 0x135B JUMPI PUSH2 0x135A PUSH2 0x1CD8 JUMP JUMPDEST JUMPDEST SWAP1 PUSH0 MSTORE PUSH1 0x20 PUSH0 KECCAK256 ADD PUSH0 SWAP1 SLOAD SWAP1 PUSH2 0x100 EXP SWAP1 DIV PUSH20 0xFFFFFFFFFFFFFFFFFFFFFFFFFFFFFFFFFFFFFFFF AND PUSH20 0xFFFFFFFFFFFFFFFFFFFFFFFFFFFFFFFFFFFFFFFF AND PUSH20 0xFFFFFFFFFFFFFFFFFFFFFFFFFFFFFFFFFFFFFFFF AND DUP2 MSTORE PUSH1 0x20 ADD SWAP1 DUP2 MSTORE PUSH1 0x20 ADD PUSH0 KECCAK256 SLOAD SWAP1 POP PUSH0 DUP2 PUSH1 0x5 PUSH1 0x1 DUP6 PUSH2 0x13D0 SWAP2 SWAP1 PUSH2 0x2092 JUMP JUMPDEST PUSH2 0x13DA SWAP2 SWAP1 PUSH2 0x22C3 JUMP JUMPDEST EQ DUP1 PUSH2 0x13FD JUMPI POP DUP2 PUSH1 0x5 PUSH1 0x3 DUP6 PUSH2 0x13F1 SWAP2 SWAP1 PUSH2 0x2092 JUMP JUMPDEST PUSH2 0x13FB SWAP2 SWAP1 PUSH2 0x22C3 JUMP JUMPDEST EQ JUMPDEST ISZERO PUSH2 0x1446 JUMPI PUSH1 0x4 PUSH1 0x1 DUP2 SLOAD DUP2 LT PUSH2 0x1417 JUMPI PUSH2 0x1416 PUSH2 0x1CD8 JUMP JUMPDEST JUMPDEST SWAP1 PUSH0 MSTORE PUSH1 0x20 PUSH0 KECCAK256 ADD PUSH0 SWAP1 SLOAD SWAP1 PUSH2 0x100 EXP SWAP1 DIV PUSH20 0xFFFFFFFFFFFFFFFFFFFFFFFFFFFFFFFFFFFFFFFF AND SWAP1 POP PUSH2 0x14C8 JUMP JUMPDEST DUP3 PUSH1 0x5 PUSH1 0x1 DUP5 PUSH2 0x1456 SWAP2 SWAP1 PUSH2 0x2092 JUMP JUMPDEST PUSH2 0x1460 SWAP2 SWAP1 PUSH2 0x22C3 JUMP JUMPDEST EQ DUP1 PUSH2 0x1483 JUMPI POP DUP3 PUSH1 0x5 PUSH1 0x3 DUP5 PUSH2 0x1477 SWAP2 SWAP1 PUSH2 0x2092 JUMP JUMPDEST PUSH2 0x1481 SWAP2 SWAP1 PUSH2 0x22C3 JUMP JUMPDEST EQ JUMPDEST ISZERO PUSH2 0x14C7 JUMPI PUSH1 0x4 PUSH0 DUP2 SLOAD DUP2 LT PUSH2 0x149C JUMPI PUSH2 0x149B PUSH2 0x1CD8 JUMP JUMPDEST JUMPDEST SWAP1 PUSH0 MSTORE PUSH1 0x20 PUSH0 KECCAK256 ADD PUSH0 SWAP1 SLOAD SWAP1 PUSH2 0x100 EXP SWAP1 DIV PUSH20 0xFFFFFFFFFFFFFFFFFFFFFFFFFFFFFFFFFFFFFFFF AND SWAP1 POP JUMPDEST JUMPDEST PUSH0 PUSH20 0xFFFFFFFFFFFFFFFFFFFFFFFFFFFFFFFFFFFFFFFF AND DUP2 PUSH20 0xFFFFFFFFFFFFFFFFFFFFFFFFFFFFFFFFFFFFFFFF AND EQ PUSH2 0x15DD JUMPI PUSH1 0x7 PUSH1 0x1 SWAP1 SLOAD SWAP1 PUSH2 0x100 EXP SWAP1 DIV PUSH20 0xFFFFFFFFFFFFFFFFFFFFFFFFFFFFFFFFFFFFFFFF AND PUSH20 0xFFFFFFFFFFFFFFFFFFFFFFFFFFFFFFFFFFFFFFFF AND PUSH4 0xA9059CBB DUP3 PUSH0 SLOAD PUSH1 0x40 MLOAD DUP4 PUSH4 0xFFFFFFFF AND PUSH1 0xE0 SHL DUP2 MSTORE PUSH1 0x4 ADD PUSH2 0x1559 SWAP3 SWAP2 SWAP1 PUSH2 0x1D05 JUMP JUMPDEST PUSH1 0x20 PUSH1 0x40 MLOAD DUP1 DUP4 SUB DUP2 PUSH0 DUP8 GAS CALL ISZERO DUP1 ISZERO PUSH2 0x1575 JUMPI RETURNDATASIZE PUSH0 DUP1 RETURNDATACOPY RETURNDATASIZE PUSH0 REVERT JUMPDEST POP POP POP POP PUSH1 0x40 MLOAD RETURNDATASIZE PUSH1 0x1F NOT PUSH1 0x1F DUP3 ADD AND DUP3 ADD DUP1 PUSH1 0x40 MSTORE POP DUP2 ADD SWAP1 PUSH2 0x1599 SWAP2 SWAP1 PUSH2 0x1D56 JUMP JUMPDEST PUSH2 0x15D8 JUMPI PUSH1 0x40 MLOAD PUSH32 0x8C379A000000000000000000000000000000000000000000000000000000000 DUP2 MSTORE PUSH1 0x4 ADD PUSH2 0x15CF SWAP1 PUSH2 0x233D JUMP JUMPDEST PUSH1 0x40 MLOAD DUP1 SWAP2 SUB SWAP1 REVERT JUMPDEST PUSH2 0x17AB JUMP JUMPDEST PUSH1 0x7 PUSH1 0x1 SWAP1 SLOAD SWAP1 PUSH2 0x100 EXP SWAP1 DIV PUSH20 0xFFFFFFFFFFFFFFFFFFFFFFFFFFFFFFFFFFFFFFFF AND PUSH20 0xFFFFFFFFFFFFFFFFFFFFFFFFFFFFFFFFFFFFFFFF AND PUSH4 0xA9059CBB PUSH1 0x4 PUSH0 DUP2 SLOAD DUP2 LT PUSH2 0x162F JUMPI PUSH2 0x162E PUSH2 0x1CD8 JUMP JUMPDEST JUMPDEST SWAP1 PUSH0 MSTORE PUSH1 0x20 PUSH0 KECCAK256 ADD PUSH0 SWAP1 SLOAD SWAP1 PUSH2 0x100 EXP SWAP1 DIV PUSH20 0xFFFFFFFFFFFFFFFFFFFFFFFFFFFFFFFFFFFFFFFF AND PUSH1 0x2 PUSH0 SLOAD PUSH2 0x1665 SWAP2 SWAP1 PUSH2 0x235B JUMP JUMPDEST PUSH1 0x40 MLOAD DUP4 PUSH4 0xFFFFFFFF AND PUSH1 0xE0 SHL DUP2 MSTORE PUSH1 0x4 ADD PUSH2 0x1682 SWAP3 SWAP2 SWAP1 PUSH2 0x1D05 JUMP JUMPDEST PUSH1 0x20 PUSH1 0x40 MLOAD DUP1 DUP4 SUB DUP2 PUSH0 DUP8 GAS CALL ISZERO DUP1 ISZERO PUSH2 0x169E JUMPI RETURNDATASIZE PUSH0 DUP1 RETURNDATACOPY RETURNDATASIZE PUSH0 REVERT JUMPDEST POP POP POP POP PUSH1 0x40 MLOAD RETURNDATASIZE PUSH1 0x1F NOT PUSH1 0x1F DUP3 ADD AND DUP3 ADD DUP1 PUSH1 0x40 MSTORE POP DUP2 ADD SWAP1 PUSH2 0x16C2 SWAP2 SWAP1 PUSH2 0x1D56 JUMP JUMPDEST POP PUSH1 0x7 PUSH1 0x1 SWAP1 SLOAD SWAP1 PUSH2 0x100 EXP SWAP1 DIV PUSH20 0xFFFFFFFFFFFFFFFFFFFFFFFFFFFFFFFFFFFFFFFF AND PUSH20 0xFFFFFFFFFFFFFFFFFFFFFFFFFFFFFFFFFFFFFFFF AND PUSH4 0xA9059CBB PUSH1 0x4 PUSH1 0x1 DUP2 SLOAD DUP2 LT PUSH2 0x1716 JUMPI PUSH2 0x1715 PUSH2 0x1CD8 JUMP JUMPDEST JUMPDEST SWAP1 PUSH0 MSTORE PUSH1 0x20 PUSH0 KECCAK256 ADD PUSH0 SWAP1 SLOAD SWAP1 PUSH2 0x100 EXP SWAP1 DIV PUSH20 0xFFFFFFFFFFFFFFFFFFFFFFFFFFFFFFFFFFFFFFFF AND PUSH1 0x2 PUSH0 SLOAD PUSH2 0x174C SWAP2 SWAP1 PUSH2 0x235B JUMP JUMPDEST PUSH1 0x40 MLOAD DUP4 PUSH4 0xFFFFFFFF AND PUSH1 0xE0 SHL DUP2 MSTORE PUSH1 0x4 ADD PUSH2 0x1769 SWAP3 SWAP2 SWAP1 PUSH2 0x1D05 JUMP JUMPDEST PUSH1 0x20 PUSH1 0x40 MLOAD DUP1 DUP4 SUB DUP2 PUSH0 DUP8 GAS CALL ISZERO DUP1 ISZERO PUSH2 0x1785 JUMPI RETURNDATASIZE PUSH0 DUP1 RETURNDATACOPY RETURNDATASIZE PUSH0 REVERT JUMPDEST POP POP POP POP PUSH1 0x40 MLOAD RETURNDATASIZE PUSH1 0x1F NOT PUSH1 0x1F DUP3 ADD AND DUP3 ADD DUP1 PUSH1 0x40 MSTORE POP DUP2 ADD SWAP1 PUSH2 0x17A9 SWAP2 SWAP1 PUSH2 0x1D56 JUMP JUMPDEST POP JUMPDEST PUSH2 0x17B3 PUSH2 0x129B JUMP JUMPDEST POP POP POP JUMP JUMPDEST POP DUP1 SLOAD PUSH0 DUP3 SSTORE SWAP1 PUSH0 MSTORE PUSH1 0x20 PUSH0 KECCAK256 SWAP1 DUP2 ADD SWAP1 PUSH2 0x17D3 SWAP2 SWAP1 PUSH2 0x17D6 JUMP JUMPDEST POP JUMP JUMPDEST JUMPDEST DUP1 DUP3 GT ISZERO PUSH2 0x17ED JUMPI PUSH0 DUP2 PUSH0 SWAP1 SSTORE POP PUSH1 0x1 ADD PUSH2 0x17D7 JUMP JUMPDEST POP SWAP1 JUMP JUMPDEST PUSH0 DUP2 SWAP1 POP SWAP2 SWAP1 POP JUMP JUMPDEST PUSH2 0x1803 DUP2 PUSH2 0x17F1 JUMP JUMPDEST DUP3 MSTORE POP POP JUMP JUMPDEST PUSH0 PUSH1 0x20 DUP3 ADD SWAP1 POP PUSH2 0x181C PUSH0 DUP4 ADD DUP5 PUSH2 0x17FA JUMP JUMPDEST SWAP3 SWAP2 POP POP JUMP JUMPDEST PUSH0 PUSH1 0x40 MLOAD SWAP1 POP SWAP1 JUMP JUMPDEST PUSH0 DUP1 REVERT JUMPDEST PUSH0 DUP1 REVERT JUMPDEST PUSH0 PUSH20 0xFFFFFFFFFFFFFFFFFFFFFFFFFFFFFFFFFFFFFFFF DUP3 AND SWAP1 POP SWAP2 SWAP1 POP JUMP JUMPDEST PUSH0 PUSH2 0x185C DUP3 PUSH2 0x1833 JUMP JUMPDEST SWAP1 POP SWAP2 SWAP1 POP JUMP JUMPDEST PUSH2 0x186C DUP2 PUSH2 0x1852 JUMP JUMPDEST DUP2 EQ PUSH2 0x1876 JUMPI PUSH0 DUP1 REVERT JUMPDEST POP JUMP JUMPDEST PUSH0 DUP2 CALLDATALOAD SWAP1 POP PUSH2 0x1887 DUP2 PUSH2 0x1863 JUMP JUMPDEST SWAP3 SWAP2 POP POP JUMP JUMPDEST PUSH0 PUSH1 0x20 DUP3 DUP5 SUB SLT ISZERO PUSH2 0x18A2 JUMPI PUSH2 0x18A1 PUSH2 0x182B JUMP JUMPDEST JUMPDEST PUSH0 PUSH2 0x18AF DUP5 DUP3 DUP6 ADD PUSH2 0x1879 JUMP JUMPDEST SWAP2 POP POP SWAP3 SWAP2 POP POP JUMP JUMPDEST PUSH0 DUP2 ISZERO ISZERO SWAP1 POP SWAP2 SWAP1 POP JUMP JUMPDEST PUSH2 0x18CC DUP2 PUSH2 0x18B8 JUMP JUMPDEST DUP3 MSTORE POP POP JUMP JUMPDEST PUSH0 PUSH1 0x20 DUP3 ADD SWAP1 POP PUSH2 0x18E5 PUSH0 DUP4 ADD DUP5 PUSH2 0x18C3 JUMP JUMPDEST SWAP3 SWAP2 POP POP JUMP JUMPDEST PUSH0 DUP2 SWAP1 POP SWAP2 SWAP1 POP JUMP JUMPDEST PUSH2 0x18FD DUP2 PUSH2 0x18EB JUMP JUMPDEST DUP2 EQ PUSH2 0x1907 JUMPI PUSH0 DUP1 REVERT JUMPDEST POP JUMP JUMPDEST PUSH0 DUP2 CALLDATALOAD SWAP1 POP PUSH2 0x1918 DUP2 PUSH2 0x18F4 JUMP JUMPDEST SWAP3 SWAP2 POP POP JUMP JUMPDEST PUSH0 PUSH1 0x20 DUP3 DUP5 SUB SLT ISZERO PUSH2 0x1933 JUMPI PUSH2 0x1932 PUSH2 0x182B JUMP JUMPDEST JUMPDEST PUSH0 PUSH2 0x1940 DUP5 DUP3 DUP6 ADD PUSH2 0x190A JUMP JUMPDEST SWAP2 POP POP SWAP3 SWAP2 POP POP JUMP JUMPDEST PUSH2 0x1952 DUP2 PUSH2 0x18EB JUMP JUMPDEST DUP3 MSTORE POP POP JUMP JUMPDEST PUSH0 PUSH1 0x20 DUP3 ADD SWAP1 POP PUSH2 0x196B PUSH0 DUP4 ADD DUP5 PUSH2 0x1949 JUMP JUMPDEST SWAP3 SWAP2 POP POP JUMP JUMPDEST PUSH2 0x197A DUP2 PUSH2 0x17F1 JUMP JUMPDEST DUP2 EQ PUSH2 0x1984 JUMPI PUSH0 DUP1 REVERT JUMPDEST POP JUMP JUMPDEST PUSH0 DUP2 CALLDATALOAD SWAP1 POP PUSH2 0x1995 DUP2 PUSH2 0x1971 JUMP JUMPDEST SWAP3 SWAP2 POP POP JUMP JUMPDEST PUSH0 DUP1 REVERT JUMPDEST PUSH0 DUP1 REVERT JUMPDEST PUSH0 PUSH1 0x1F NOT PUSH1 0x1F DUP4 ADD AND SWAP1 POP SWAP2 SWAP1 POP JUMP JUMPDEST PUSH32 0x4E487B7100000000000000000000000000000000000000000000000000000000 PUSH0 MSTORE PUSH1 0x41 PUSH1 0x4 MSTORE PUSH1 0x24 PUSH0 REVERT JUMPDEST PUSH2 0x19E9 DUP3 PUSH2 0x19A3 JUMP JUMPDEST DUP2 ADD DUP2 DUP2 LT PUSH8 0xFFFFFFFFFFFFFFFF DUP3 GT OR ISZERO PUSH2 0x1A08 JUMPI PUSH2 0x1A07 PUSH2 0x19B3 JUMP JUMPDEST JUMPDEST DUP1 PUSH1 0x40 MSTORE POP POP POP JUMP JUMPDEST PUSH0 PUSH2 0x1A1A PUSH2 0x1822 JUMP JUMPDEST SWAP1 POP PUSH2 0x1A26 DUP3 DUP3 PUSH2 0x19E0 JUMP JUMPDEST SWAP2 SWAP1 POP JUMP JUMPDEST PUSH0 PUSH8 0xFFFFFFFFFFFFFFFF DUP3 GT ISZERO PUSH2 0x1A45 JUMPI PUSH2 0x1A44 PUSH2 0x19B3 JUMP JUMPDEST JUMPDEST PUSH2 0x1A4E DUP3 PUSH2 0x19A3 JUMP JUMPDEST SWAP1 POP PUSH1 0x20 DUP2 ADD SWAP1 POP SWAP2 SWAP1 POP JUMP JUMPDEST DUP3 DUP2 DUP4 CALLDATACOPY PUSH0 DUP4 DUP4 ADD MSTORE POP POP POP JUMP JUMPDEST PUSH0 PUSH2 0x1A7B PUSH2 0x1A76 DUP5 PUSH2 0x1A2B JUMP JUMPDEST PUSH2 0x1A11 JUMP JUMPDEST SWAP1 POP DUP3 DUP2 MSTORE PUSH1 0x20 DUP2 ADD DUP5 DUP5 DUP5 ADD GT ISZERO PUSH2 0x1A97 JUMPI PUSH2 0x1A96 PUSH2 0x199F JUMP JUMPDEST JUMPDEST PUSH2 0x1AA2 DUP5 DUP3 DUP6 PUSH2 0x1A5B JUMP JUMPDEST POP SWAP4 SWAP3 POP POP POP JUMP JUMPDEST PUSH0 DUP3 PUSH1 0x1F DUP4 ADD SLT PUSH2 0x1ABE JUMPI PUSH2 0x1ABD PUSH2 0x199B JUMP JUMPDEST JUMPDEST DUP2 CALLDATALOAD PUSH2 0x1ACE DUP5 DUP3 PUSH1 0x20 DUP7 ADD PUSH2 0x1A69 JUMP JUMPDEST SWAP2 POP POP SWAP3 SWAP2 POP POP JUMP JUMPDEST PUSH0 DUP1 PUSH1 0x40 DUP4 DUP6 SUB SLT ISZERO PUSH2 0x1AED JUMPI PUSH2 0x1AEC PUSH2 0x182B JUMP JUMPDEST JUMPDEST PUSH0 PUSH2 0x1AFA DUP6 DUP3 DUP7 ADD PUSH2 0x1987 JUMP JUMPDEST SWAP3 POP POP PUSH1 0x20 DUP4 ADD CALLDATALOAD PUSH8 0xFFFFFFFFFFFFFFFF DUP2 GT ISZERO PUSH2 0x1B1B JUMPI PUSH2 0x1B1A PUSH2 0x182F JUMP JUMPDEST JUMPDEST PUSH2 0x1B27 DUP6 DUP3 DUP7 ADD PUSH2 0x1AAA JUMP JUMPDEST SWAP2 POP POP SWAP3 POP SWAP3 SWAP1 POP JUMP JUMPDEST PUSH0 PUSH1 0x20 DUP3 DUP5 SUB SLT ISZERO PUSH2 0x1B46 JUMPI PUSH2 0x1B45 PUSH2 0x182B JUMP JUMPDEST JUMPDEST PUSH0 PUSH2 0x1B53 DUP5 DUP3 DUP6 ADD PUSH2 0x1987 JUMP JUMPDEST SWAP2 POP POP SWAP3 SWAP2 POP POP JUMP JUMPDEST PUSH2 0x1B65 DUP2 PUSH2 0x1852 JUMP JUMPDEST DUP3 MSTORE POP POP JUMP JUMPDEST PUSH0 PUSH1 0x20 DUP3 ADD SWAP1 POP PUSH2 0x1B7E PUSH0 DUP4 ADD DUP5 PUSH2 0x1B5C JUMP JUMPDEST SWAP3 SWAP2 POP POP JUMP JUMPDEST PUSH0 DUP2 SWAP1 POP SWAP2 SWAP1 POP JUMP JUMPDEST PUSH0 PUSH2 0x1BA7 PUSH2 0x1BA2 PUSH2 0x1B9D DUP5 PUSH2 0x1833 JUMP JUMPDEST PUSH2 0x1B84 JUMP JUMPDEST PUSH2 0x1833 JUMP JUMPDEST SWAP1 POP SWAP2 SWAP1 POP JUMP JUMPDEST PUSH0 PUSH2 0x1BB8 DUP3 PUSH2 0x1B8D JUMP JUMPDEST SWAP1 POP SWAP2 SWAP1 POP JUMP JUMPDEST PUSH0 PUSH2 0x1BC9 DUP3 PUSH2 0x1BAE JUMP JUMPDEST SWAP1 POP SWAP2 SWAP1 POP JUMP JUMPDEST PUSH2 0x1BD9 DUP2 PUSH2 0x1BBF JUMP JUMPDEST DUP3 MSTORE POP POP JUMP JUMPDEST PUSH0 PUSH1 0x20 DUP3 ADD SWAP1 POP PUSH2 0x1BF2 PUSH0 DUP4 ADD DUP5 PUSH2 0x1BD0 JUMP JUMPDEST SWAP3 SWAP2 POP POP JUMP JUMPDEST PUSH0 DUP3 DUP3 MSTORE PUSH1 0x20 DUP3 ADD SWAP1 POP SWAP3 SWAP2 POP POP JUMP JUMPDEST PUSH32 0x47616D65206973206E6F74206163746976650000000000000000000000000000 PUSH0 DUP3 ADD MSTORE POP JUMP JUMPDEST PUSH0 PUSH2 0x1C3C PUSH1 0x12 DUP4 PUSH2 0x1BF8 JUMP JUMPDEST SWAP2 POP PUSH2 0x1C47 DUP3 PUSH2 0x1C08 JUMP JUMPDEST PUSH1 0x20 DUP3 ADD SWAP1 POP SWAP2 SWAP1 POP JUMP JUMPDEST PUSH0 PUSH1 0x20 DUP3 ADD SWAP1 POP DUP2 DUP2 SUB PUSH0 DUP4 ADD MSTORE PUSH2 0x1C69 DUP2 PUSH2 0x1C30 JUMP JUMPDEST SWAP1 POP SWAP2 SWAP1 POP JUMP JUMPDEST PUSH32 0x52657665616C20706572696F64206E6F7420656E646564000000000000000000 PUSH0 DUP3 ADD MSTORE POP JUMP JUMPDEST PUSH0 PUSH2 0x1CA4 PUSH1 0x17 DUP4 PUSH2 0x1BF8 JUMP JUMPDEST SWAP2 POP PUSH2 0x1CAF DUP3 PUSH2 0x1C70 JUMP JUMPDEST PUSH1 0x20 DUP3 ADD SWAP1 POP SWAP2 SWAP1 POP JUMP JUMPDEST PUSH0 PUSH1 0x20 DUP3 ADD SWAP1 POP DUP2 DUP2 SUB PUSH0 DUP4 ADD MSTORE PUSH2 0x1CD1 DUP2 PUSH2 0x1C98 JUMP JUMPDEST SWAP1 POP SWAP2 SWAP1 POP JUMP JUMPDEST PUSH32 0x4E487B7100000000000000000000000000000000000000000000000000000000 PUSH0 MSTORE PUSH1 0x32 PUSH1 0x4 MSTORE PUSH1 0x24 PUSH0 REVERT JUMPDEST PUSH0 PUSH1 0x40 DUP3 ADD SWAP1 POP PUSH2 0x1D18 PUSH0 DUP4 ADD DUP6 PUSH2 0x1B5C JUMP JUMPDEST PUSH2 0x1D25 PUSH1 0x20 DUP4 ADD DUP5 PUSH2 0x17FA JUMP JUMPDEST SWAP4 SWAP3 POP POP POP JUMP JUMPDEST PUSH2 0x1D35 DUP2 PUSH2 0x18B8 JUMP JUMPDEST DUP2 EQ PUSH2 0x1D3F JUMPI PUSH0 DUP1 REVERT JUMPDEST POP JUMP JUMPDEST PUSH0 DUP2 MLOAD SWAP1 POP PUSH2 0x1D50 DUP2 PUSH2 0x1D2C JUMP JUMPDEST SWAP3 SWAP2 POP POP JUMP JUMPDEST PUSH0 PUSH1 0x20 DUP3 DUP5 SUB SLT ISZERO PUSH2 0x1D6B JUMPI PUSH2 0x1D6A PUSH2 0x182B JUMP JUMPDEST JUMPDEST PUSH0 PUSH2 0x1D78 DUP5 DUP3 DUP6 ADD PUSH2 0x1D42 JUMP JUMPDEST SWAP2 POP POP SWAP3 SWAP2 POP POP JUMP JUMPDEST PUSH32 0x47616D6520616C7265616479206861732074776F20706C617965727300000000 PUSH0 DUP3 ADD MSTORE POP JUMP JUMPDEST PUSH0 PUSH2 0x1DB5 PUSH1 0x1C DUP4 PUSH2 0x1BF8 JUMP JUMPDEST SWAP2 POP PUSH2 0x1DC0 DUP3 PUSH2 0x1D81 JUMP JUMPDEST PUSH1 0x20 DUP3 ADD SWAP1 POP SWAP2 SWAP1 POP JUMP JUMPDEST PUSH0 PUSH1 0x20 DUP3 ADD SWAP1 POP DUP2 DUP2 SUB PUSH0 DUP4 ADD MSTORE PUSH2 0x1DE2 DUP2 PUSH2 0x1DA9 JUMP JUMPDEST SWAP1 POP SWAP2 SWAP1 POP JUMP JUMPDEST PUSH0 PUSH1 0x40 DUP3 ADD SWAP1 POP PUSH2 0x1DFC PUSH0 DUP4 ADD DUP6 PUSH2 0x1B5C JUMP JUMPDEST PUSH2 0x1E09 PUSH1 0x20 DUP4 ADD DUP5 PUSH2 0x1B5C JUMP JUMPDEST SWAP4 SWAP3 POP POP POP JUMP JUMPDEST PUSH0 DUP2 MLOAD SWAP1 POP PUSH2 0x1E1E DUP2 PUSH2 0x1971 JUMP JUMPDEST SWAP3 SWAP2 POP POP JUMP JUMPDEST PUSH0 PUSH1 0x20 DUP3 DUP5 SUB SLT ISZERO PUSH2 0x1E39 JUMPI PUSH2 0x1E38 PUSH2 0x182B JUMP JUMPDEST JUMPDEST PUSH0 PUSH2 0x1E46 DUP5 DUP3 DUP6 ADD PUSH2 0x1E10 JUMP JUMPDEST SWAP2 POP POP SWAP3 SWAP2 POP POP JUMP JUMPDEST PUSH32 0x496E73756666696369656E7420616C6C6F77616E636500000000000000000000 PUSH0 DUP3 ADD MSTORE POP JUMP JUMPDEST PUSH0 PUSH2 0x1E83 PUSH1 0x16 DUP4 PUSH2 0x1BF8 JUMP JUMPDEST SWAP2 POP PUSH2 0x1E8E DUP3 PUSH2 0x1E4F JUMP JUMPDEST PUSH1 0x20 DUP3 ADD SWAP1 POP SWAP2 SWAP1 POP JUMP JUMPDEST PUSH0 PUSH1 0x20 DUP3 ADD SWAP1 POP DUP2 DUP2 SUB PUSH0 DUP4 ADD MSTORE PUSH2 0x1EB0 DUP2 PUSH2 0x1E77 JUMP JUMPDEST SWAP1 POP SWAP2 SWAP1 POP JUMP JUMPDEST PUSH32 0x43616E6E6F74206A6F696E207477696365000000000000000000000000000000 PUSH0 DUP3 ADD MSTORE POP JUMP JUMPDEST PUSH0 PUSH2 0x1EEB PUSH1 0x11 DUP4 PUSH2 0x1BF8 JUMP JUMPDEST SWAP2 POP PUSH2 0x1EF6 DUP3 PUSH2 0x1EB7 JUMP JUMPDEST PUSH1 0x20 DUP3 ADD SWAP1 POP SWAP2 SWAP1 POP JUMP JUMPDEST PUSH0 PUSH1 0x20 DUP3 ADD SWAP1 POP DUP2 DUP2 SUB PUSH0 DUP4 ADD MSTORE PUSH2 0x1F18 DUP2 PUSH2 0x1EDF JUMP JUMPDEST SWAP1 POP SWAP2 SWAP1 POP JUMP JUMPDEST PUSH32 0x506C61796572203120686173206E6F7420617070726F76656400000000000000 PUSH0 DUP3 ADD MSTORE POP JUMP JUMPDEST PUSH0 PUSH2 0x1F53 PUSH1 0x19 DUP4 PUSH2 0x1BF8 JUMP JUMPDEST SWAP2 POP PUSH2 0x1F5E DUP3 PUSH2 0x1F1F JUMP JUMPDEST PUSH1 0x20 DUP3 ADD SWAP1 POP SWAP2 SWAP1 POP JUMP JUMPDEST PUSH0 PUSH1 0x20 DUP3 ADD SWAP1 POP DUP2 DUP2 SUB PUSH0 DUP4 ADD MSTORE PUSH2 0x1F80 DUP2 PUSH2 0x1F47 JUMP JUMPDEST SWAP1 POP SWAP2 SWAP1 POP JUMP JUMPDEST PUSH32 0x506C61796572203220686173206E6F7420617070726F76656400000000000000 PUSH0 DUP3 ADD MSTORE POP JUMP JUMPDEST PUSH0 PUSH2 0x1FBB PUSH1 0x19 DUP4 PUSH2 0x1BF8 JUMP JUMPDEST SWAP2 POP PUSH2 0x1FC6 DUP3 PUSH2 0x1F87 JUMP JUMPDEST PUSH1 0x20 DUP3 ADD SWAP1 POP SWAP2 SWAP1 POP JUMP JUMPDEST PUSH0 PUSH1 0x20 DUP3 ADD SWAP1 POP DUP2 DUP2 SUB PUSH0 DUP4 ADD MSTORE PUSH2 0x1FE8 DUP2 PUSH2 0x1FAF JUMP JUMPDEST SWAP1 POP SWAP2 SWAP1 POP JUMP JUMPDEST PUSH0 PUSH1 0x60 DUP3 ADD SWAP1 POP PUSH2 0x2002 PUSH0 DUP4 ADD DUP7 PUSH2 0x1B5C JUMP JUMPDEST PUSH2 0x200F PUSH1 0x20 DUP4 ADD DUP6 PUSH2 0x1B5C JUMP JUMPDEST PUSH2 0x201C PUSH1 0x40 DUP4 ADD DUP5 PUSH2 0x17FA JUMP JUMPDEST SWAP5 SWAP4 POP POP POP POP JUMP JUMPDEST PUSH32 0x4E487B7100000000000000000000000000000000000000000000000000000000 PUSH0 MSTORE PUSH1 0x11 PUSH1 0x4 MSTORE PUSH1 0x24 PUSH0 REVERT JUMPDEST PUSH0 PUSH2 0x205B DUP3 PUSH2 0x17F1 JUMP JUMPDEST SWAP2 POP PUSH2 0x2066 DUP4 PUSH2 0x17F1 JUMP JUMPDEST SWAP3 POP DUP3 DUP3 MUL PUSH2 0x2074 DUP2 PUSH2 0x17F1 JUMP JUMPDEST SWAP2 POP DUP3 DUP3 DIV DUP5 EQ DUP4 ISZERO OR PUSH2 0x208B JUMPI PUSH2 0x208A PUSH2 0x2024 JUMP JUMPDEST JUMPDEST POP SWAP3 SWAP2 POP POP JUMP JUMPDEST PUSH0 PUSH2 0x209C DUP3 PUSH2 0x17F1 JUMP JUMPDEST SWAP2 POP PUSH2 0x20A7 DUP4 PUSH2 0x17F1 JUMP JUMPDEST SWAP3 POP DUP3 DUP3 ADD SWAP1 POP DUP1 DUP3 GT ISZERO PUSH2 0x20BF JUMPI PUSH2 0x20BE PUSH2 0x2024 JUMP JUMPDEST JUMPDEST SWAP3 SWAP2 POP POP JUMP JUMPDEST PUSH32 0x52657665616C20706572696F6420656E64656400000000000000000000000000 PUSH0 DUP3 ADD MSTORE POP JUMP JUMPDEST PUSH0 PUSH2 0x20F9 PUSH1 0x13 DUP4 PUSH2 0x1BF8 JUMP JUMPDEST SWAP2 POP PUSH2 0x2104 DUP3 PUSH2 0x20C5 JUMP JUMPDEST PUSH1 0x20 DUP3 ADD SWAP1 POP SWAP2 SWAP1 POP JUMP JUMPDEST PUSH0 PUSH1 0x20 DUP3 ADD SWAP1 POP DUP2 DUP2 SUB PUSH0 DUP4 ADD MSTORE PUSH2 0x2126 DUP2 PUSH2 0x20ED JUMP JUMPDEST SWAP1 POP SWAP2 SWAP1 POP JUMP JUMPDEST PUSH32 0x496E76616C69642063686F696365000000000000000000000000000000000000 PUSH0 DUP3 ADD MSTORE POP JUMP JUMPDEST PUSH0 PUSH2 0x2161 PUSH1 0xE DUP4 PUSH2 0x1BF8 JUMP JUMPDEST SWAP2 POP PUSH2 0x216C DUP3 PUSH2 0x212D JUMP JUMPDEST PUSH1 0x20 DUP3 ADD SWAP1 POP SWAP2 SWAP1 POP JUMP JUMPDEST PUSH0 PUSH1 0x20 DUP3 ADD SWAP1 POP DUP2 DUP2 SUB PUSH0 DUP4 ADD MSTORE PUSH2 0x218E DUP2 PUSH2 0x2155 JUMP JUMPDEST SWAP1 POP SWAP2 SWAP1 POP JUMP JUMPDEST PUSH0 DUP2 SWAP1 POP SWAP2 SWAP1 POP JUMP JUMPDEST PUSH2 0x21AF PUSH2 0x21AA DUP3 PUSH2 0x17F1 JUMP JUMPDEST PUSH2 0x2195 JUMP JUMPDEST DUP3 MSTORE POP POP JUMP JUMPDEST PUSH0 DUP2 MLOAD SWAP1 POP SWAP2 SWAP1 POP JUMP JUMPDEST PUSH0 DUP2 SWAP1 POP SWAP3 SWAP2 POP POP JUMP JUMPDEST DUP3 DUP2 DUP4 MCOPY PUSH0 DUP4 DUP4 ADD MSTORE POP POP POP JUMP JUMPDEST PUSH0 PUSH2 0x21E1 DUP3 PUSH2 0x21B5 JUMP JUMPDEST PUSH2 0x21EB DUP2 DUP6 PUSH2 0x21BF JUMP JUMPDEST SWAP4 POP PUSH2 0x21FB DUP2 DUP6 PUSH1 0x20 DUP7 ADD PUSH2 0x21C9 JUMP JUMPDEST DUP1 DUP5 ADD SWAP2 POP POP SWAP3 SWAP2 POP POP JUMP JUMPDEST PUSH0 PUSH2 0x2212 DUP3 DUP6 PUSH2 0x219E JUMP JUMPDEST PUSH1 0x20 DUP3 ADD SWAP2 POP PUSH2 0x2222 DUP3 DUP5 PUSH2 0x21D7 JUMP JUMPDEST SWAP2 POP DUP2 SWAP1 POP SWAP4 SWAP3 POP POP POP JUMP JUMPDEST PUSH32 0x436F6D6D69746D656E74206D69736D6174636800000000000000000000000000 PUSH0 DUP3 ADD MSTORE POP JUMP JUMPDEST PUSH0 PUSH2 0x2262 PUSH1 0x13 DUP4 PUSH2 0x1BF8 JUMP JUMPDEST SWAP2 POP PUSH2 0x226D DUP3 PUSH2 0x222E JUMP JUMPDEST PUSH1 0x20 DUP3 ADD SWAP1 POP SWAP2 SWAP1 POP JUMP JUMPDEST PUSH0 PUSH1 0x20 DUP3 ADD SWAP1 POP DUP2 DUP2 SUB PUSH0 DUP4 ADD MSTORE PUSH2 0x228F DUP2 PUSH2 0x2256 JUMP JUMPDEST SWAP1 POP SWAP2 SWAP1 POP JUMP JUMPDEST PUSH32 0x4E487B7100000000000000000000000000000000000000000000000000000000 PUSH0 MSTORE PUSH1 0x12 PUSH1 0x4 MSTORE PUSH1 0x24 PUSH0 REVERT JUMPDEST PUSH0 PUSH2 0x22CD DUP3 PUSH2 0x17F1 JUMP JUMPDEST SWAP2 POP PUSH2 0x22D8 DUP4 PUSH2 0x17F1 JUMP JUMPDEST SWAP3 POP DUP3 PUSH2 0x22E8 JUMPI PUSH2 0x22E7 PUSH2 0x2296 JUMP JUMPDEST JUMPDEST DUP3 DUP3 MOD SWAP1 POP SWAP3 SWAP2 POP POP JUMP JUMPDEST PUSH32 0x5472616E73666572206661696C65640000000000000000000000000000000000 PUSH0 DUP3 ADD MSTORE POP JUMP JUMPDEST PUSH0 PUSH2 0x2327 PUSH1 0xF DUP4 PUSH2 0x1BF8 JUMP JUMPDEST SWAP2 POP PUSH2 0x2332 DUP3 PUSH2 0x22F3 JUMP JUMPDEST PUSH1 0x20 DUP3 ADD SWAP1 POP SWAP2 SWAP1 POP JUMP JUMPDEST PUSH0 PUSH1 0x20 DUP3 ADD SWAP1 POP DUP2 DUP2 SUB PUSH0 DUP4 ADD MSTORE PUSH2 0x2354 DUP2 PUSH2 0x231B JUMP JUMPDEST SWAP1 POP SWAP2 SWAP1 POP JUMP JUMPDEST PUSH0 PUSH2 0x2365 DUP3 PUSH2 0x17F1 JUMP JUMPDEST SWAP2 POP PUSH2 0x2370 DUP4 PUSH2 0x17F1 JUMP JUMPDEST SWAP3 POP DUP3 PUSH2 0x2380 JUMPI PUSH2 0x237F PUSH2 0x2296 JUMP JUMPDEST JUMPDEST DUP3 DUP3 DIV SWAP1 POP SWAP3 SWAP2 POP POP JUMP INVALID LOG2 PUSH5 0x6970667358 0x22 SLT KECCAK256 0x4E 0xCF 0xBD DUP3 PUSH30 0x28E4F2D29286D38982E64FEE247F50EA1C338E0D170422EB6DFDD564736F PUSH13 0x634300081A0033000000000000 "
		},
		"gasEstimates": {
			"creation": {
				"codeDepositCost": "1830600",
				"executionCost": "infinite",
				"totalCost": "infinite"
			},
			"external": {
				"betAmount()": "2470",
				"choices(address)": "2847",
				"commitments(address)": "2869",
				"gameActive()": "2488",
				"gameStartTime()": "2426",
				"hasRevealed(address)": "2944",
				"joinGame(bytes32)": "infinite",
				"players(uint256)": "5010",
				"revealChoice(uint256,string)": "infinite",
				"revealDeadline()": "2492",
				"reward()": "2447",
				"token()": "infinite",
				"withdrawIfOpponentFails()": "infinite"
			},
			"internal": {
				"_checkWinnerAndPay()": "infinite",
				"_resetGame()": "infinite"
			}
		},
		"methodIdentifiers": {
			"betAmount()": "d24257c0",
			"choices(address)": "410346b3",
			"commitments(address)": "e8fcf723",
			"gameActive()": "f020044f",
			"gameStartTime()": "0252b995",
			"hasRevealed(address)": "b9a53013",
			"joinGame(bytes32)": "bf474766",
			"players(uint256)": "f71d96cb",
			"revealChoice(uint256,string)": "f712545b",
			"revealDeadline()": "b14b28a3",
			"reward()": "228cb733",
			"token()": "fc0c546a",
			"withdrawIfOpponentFails()": "b8c23c0a"
		}
	},
	"abi": [
		{
			"inputs": [
				{
					"internalType": "address",
					"name": "_tokenAddress",
					"type": "address"
				}
			],
			"stateMutability": "nonpayable",
			"type": "constructor"
		},
		{
			"inputs": [],
			"name": "betAmount",
			"outputs": [
				{
					"internalType": "uint256",
					"name": "",
					"type": "uint256"
				}
			],
			"stateMutability": "view",
			"type": "function"
		},
		{
			"inputs": [
				{
					"internalType": "address",
					"name": "",
					"type": "address"
				}
			],
			"name": "choices",
			"outputs": [
				{
					"internalType": "uint256",
					"name": "",
					"type": "uint256"
				}
			],
			"stateMutability": "view",
			"type": "function"
		},
		{
			"inputs": [
				{
					"internalType": "address",
					"name": "",
					"type": "address"
				}
			],
			"name": "commitments",
			"outputs": [
				{
					"internalType": "bytes32",
					"name": "",
					"type": "bytes32"
				}
			],
			"stateMutability": "view",
			"type": "function"
		},
		{
			"inputs": [],
			"name": "gameActive",
			"outputs": [
				{
					"internalType": "bool",
					"name": "",
					"type": "bool"
				}
			],
			"stateMutability": "view",
			"type": "function"
		},
		{
			"inputs": [],
			"name": "gameStartTime",
			"outputs": [
				{
					"internalType": "uint256",
					"name": "",
					"type": "uint256"
				}
			],
			"stateMutability": "view",
			"type": "function"
		},
		{
			"inputs": [
				{
					"internalType": "address",
					"name": "",
					"type": "address"
				}
			],
			"name": "hasRevealed",
			"outputs": [
				{
					"internalType": "bool",
					"name": "",
					"type": "bool"
				}
			],
			"stateMutability": "view",
			"type": "function"
		},
		{
			"inputs": [
				{
					"internalType": "bytes32",
					"name": "commitment",
					"type": "bytes32"
				}
			],
			"name": "joinGame",
			"outputs": [],
			"stateMutability": "nonpayable",
			"type": "function"
		},
		{
			"inputs": [
				{
					"internalType": "uint256",
					"name": "",
					"type": "uint256"
				}
			],
			"name": "players",
			"outputs": [
				{
					"internalType": "address",
					"name": "",
					"type": "address"
				}
			],
			"stateMutability": "view",
			"type": "function"
		},
		{
			"inputs": [
				{
					"internalType": "uint256",
					"name": "choice",
					"type": "uint256"
				},
				{
					"internalType": "string",
					"name": "secret",
					"type": "string"
				}
			],
			"name": "revealChoice",
			"outputs": [],
			"stateMutability": "nonpayable",
			"type": "function"
		},
		{
			"inputs": [],
			"name": "revealDeadline",
			"outputs": [
				{
					"internalType": "uint256",
					"name": "",
					"type": "uint256"
				}
			],
			"stateMutability": "view",
			"type": "function"
		},
		{
			"inputs": [],
			"name": "reward",
			"outputs": [
				{
					"internalType": "uint256",
					"name": "",
					"type": "uint256"
				}
			],
			"stateMutability": "view",
			"type": "function"
		},
		{
			"inputs": [],
			"name": "token",
			"outputs": [
				{
					"internalType": "contract IERC20",
					"name": "",
					"type": "address"
				}
			],
			"stateMutability": "view",
			"type": "function"
		},
		{
			"inputs": [],
			"name": "withdrawIfOpponentFails",
			"outputs": [],
			"stateMutability": "nonpayable",
			"type": "function"
		}
	]
}