{
	"DEFI_lab5/RPS.sol": {
		"Convert": {
			"abi": [
				{
					"inputs": [
						{
							"internalType": "bytes32",
							"name": "data",
							"type": "bytes32"
						}
					],
					"name": "getHash",
					"outputs": [
						{
							"internalType": "bytes32",
							"name": "",
							"type": "bytes32"
						}
					],
					"stateMutability": "pure",
					"type": "function"
				}
			],
			"devdoc": {
				"kind": "dev",
				"methods": {},
				"version": 1
			},
			"evm": {
				"assembly": "    /* \"DEFI_lab5/RPS.sol\":132:279  contract Convert {... */\n  mstore(0x40, 0x80)\n  callvalue\n  dup1\n  iszero\n  tag_1\n  jumpi\n  0x00\n  dup1\n  revert\ntag_1:\n  pop\n  dataSize(sub_0)\n  dup1\n  dataOffset(sub_0)\n  0x00\n  codecopy\n  0x00\n  return\nstop\n\nsub_0: assembly {\n        /* \"DEFI_lab5/RPS.sol\":132:279  contract Convert {... */\n      mstore(0x40, 0x80)\n      callvalue\n      dup1\n      iszero\n      tag_1\n      jumpi\n      0x00\n      dup1\n      revert\n    tag_1:\n      pop\n      jumpi(tag_2, lt(calldatasize, 0x04))\n      shr(0xe0, calldataload(0x00))\n      dup1\n      0x3cf5040a\n      eq\n      tag_3\n      jumpi\n    tag_2:\n      0x00\n      dup1\n      revert\n        /* \"DEFI_lab5/RPS.sol\":156:276  function getHash(bytes32 data) public pure returns (bytes32) {... */\n    tag_3:\n      tag_4\n      0x04\n      dup1\n      calldatasize\n      sub\n      dup2\n      add\n      swap1\n      tag_5\n      swap2\n      swap1\n      tag_6\n      jump\t// in\n    tag_5:\n      tag_7\n      jump\t// in\n    tag_4:\n      mload(0x40)\n      tag_8\n      swap2\n      swap1\n      tag_9\n      jump\t// in\n    tag_8:\n      mload(0x40)\n      dup1\n      swap2\n      sub\n      swap1\n      return\n    tag_7:\n        /* \"DEFI_lab5/RPS.sol\":208:215  bytes32 */\n      0x00\n        /* \"DEFI_lab5/RPS.sol\":262:266  data */\n      dup2\n        /* \"DEFI_lab5/RPS.sol\":245:267  abi.encodePacked(data) */\n      add(0x20, mload(0x40))\n      tag_11\n      swap2\n      swap1\n      tag_12\n      jump\t// in\n    tag_11:\n      mload(0x40)\n      0x20\n      dup2\n      dup4\n      sub\n      sub\n      dup2\n      mstore\n      swap1\n      0x40\n      mstore\n        /* \"DEFI_lab5/RPS.sol\":235:268  keccak256(abi.encodePacked(data)) */\n      dup1\n      mload\n      swap1\n      0x20\n      add\n      keccak256\n        /* \"DEFI_lab5/RPS.sol\":228:268  return keccak256(abi.encodePacked(data)) */\n      swap1\n      pop\n        /* \"DEFI_lab5/RPS.sol\":156:276  function getHash(bytes32 data) public pure returns (bytes32) {... */\n      swap2\n      swap1\n      pop\n      jump\t// out\n        /* \"#utility.yul\":88:205   */\n    tag_14:\n        /* \"#utility.yul\":197:198   */\n      0x00\n        /* \"#utility.yul\":194:195   */\n      dup1\n        /* \"#utility.yul\":187:199   */\n      revert\n        /* \"#utility.yul\":334:411   */\n    tag_16:\n        /* \"#utility.yul\":371:378   */\n      0x00\n        /* \"#utility.yul\":400:405   */\n      dup2\n        /* \"#utility.yul\":389:405   */\n      swap1\n      pop\n        /* \"#utility.yul\":334:411   */\n      swap2\n      swap1\n      pop\n      jump\t// out\n        /* \"#utility.yul\":417:539   */\n    tag_17:\n        /* \"#utility.yul\":490:514   */\n      tag_28\n        /* \"#utility.yul\":508:513   */\n      dup2\n        /* \"#utility.yul\":490:514   */\n      tag_16\n      jump\t// in\n    tag_28:\n        /* \"#utility.yul\":483:488   */\n      dup2\n        /* \"#utility.yul\":480:515   */\n      eq\n        /* \"#utility.yul\":470:533   */\n      tag_29\n      jumpi\n        /* \"#utility.yul\":529:530   */\n      0x00\n        /* \"#utility.yul\":526:527   */\n      dup1\n        /* \"#utility.yul\":519:531   */\n      revert\n        /* \"#utility.yul\":470:533   */\n    tag_29:\n        /* \"#utility.yul\":417:539   */\n      pop\n      jump\t// out\n        /* \"#utility.yul\":545:684   */\n    tag_18:\n        /* \"#utility.yul\":591:596   */\n      0x00\n        /* \"#utility.yul\":629:635   */\n      dup2\n        /* \"#utility.yul\":616:636   */\n      calldataload\n        /* \"#utility.yul\":607:636   */\n      swap1\n      pop\n        /* \"#utility.yul\":645:678   */\n      tag_31\n        /* \"#utility.yul\":672:677   */\n      dup2\n        /* \"#utility.yul\":645:678   */\n      tag_17\n      jump\t// in\n    tag_31:\n        /* \"#utility.yul\":545:684   */\n      swap3\n      swap2\n      pop\n      pop\n      jump\t// out\n        /* \"#utility.yul\":690:1019   */\n    tag_6:\n        /* \"#utility.yul\":749:755   */\n      0x00\n        /* \"#utility.yul\":798:800   */\n      0x20\n        /* \"#utility.yul\":786:795   */\n      dup3\n        /* \"#utility.yul\":777:784   */\n      dup5\n        /* \"#utility.yul\":773:796   */\n      sub\n        /* \"#utility.yul\":769:801   */\n      slt\n        /* \"#utility.yul\":766:885   */\n      iszero\n      tag_33\n      jumpi\n        /* \"#utility.yul\":804:883   */\n      tag_34\n      tag_14\n      jump\t// in\n    tag_34:\n        /* \"#utility.yul\":766:885   */\n    tag_33:\n        /* \"#utility.yul\":924:925   */\n      0x00\n        /* \"#utility.yul\":949:1002   */\n      tag_35\n        /* \"#utility.yul\":994:1001   */\n      dup5\n        /* \"#utility.yul\":985:991   */\n      dup3\n        /* \"#utility.yul\":974:983   */\n      dup6\n        /* \"#utility.yul\":970:992   */\n      add\n        /* \"#utility.yul\":949:1002   */\n      tag_18\n      jump\t// in\n    tag_35:\n        /* \"#utility.yul\":939:1002   */\n      swap2\n      pop\n        /* \"#utility.yul\":895:1012   */\n      pop\n        /* \"#utility.yul\":690:1019   */\n      swap3\n      swap2\n      pop\n      pop\n      jump\t// out\n        /* \"#utility.yul\":1025:1143   */\n    tag_19:\n        /* \"#utility.yul\":1112:1136   */\n      tag_37\n        /* \"#utility.yul\":1130:1135   */\n      dup2\n        /* \"#utility.yul\":1112:1136   */\n      tag_16\n      jump\t// in\n    tag_37:\n        /* \"#utility.yul\":1107:1110   */\n      dup3\n        /* \"#utility.yul\":1100:1137   */\n      mstore\n        /* \"#utility.yul\":1025:1143   */\n      pop\n      pop\n      jump\t// out\n        /* \"#utility.yul\":1149:1371   */\n    tag_9:\n        /* \"#utility.yul\":1242:1246   */\n      0x00\n        /* \"#utility.yul\":1280:1282   */\n      0x20\n        /* \"#utility.yul\":1269:1278   */\n      dup3\n        /* \"#utility.yul\":1265:1283   */\n      add\n        /* \"#utility.yul\":1257:1283   */\n      swap1\n      pop\n        /* \"#utility.yul\":1293:1364   */\n      tag_39\n        /* \"#utility.yul\":1361:1362   */\n      0x00\n        /* \"#utility.yul\":1350:1359   */\n      dup4\n        /* \"#utility.yul\":1346:1363   */\n      add\n        /* \"#utility.yul\":1337:1343   */\n      dup5\n        /* \"#utility.yul\":1293:1364   */\n      tag_19\n      jump\t// in\n    tag_39:\n        /* \"#utility.yul\":1149:1371   */\n      swap3\n      swap2\n      pop\n      pop\n      jump\t// out\n        /* \"#utility.yul\":1377:1456   */\n    tag_20:\n        /* \"#utility.yul\":1416:1423   */\n      0x00\n        /* \"#utility.yul\":1445:1450   */\n      dup2\n        /* \"#utility.yul\":1434:1450   */\n      swap1\n      pop\n        /* \"#utility.yul\":1377:1456   */\n      swap2\n      swap1\n      pop\n      jump\t// out\n        /* \"#utility.yul\":1462:1619   */\n    tag_21:\n        /* \"#utility.yul\":1567:1612   */\n      tag_42\n        /* \"#utility.yul\":1587:1611   */\n      tag_43\n        /* \"#utility.yul\":1605:1610   */\n      dup3\n        /* \"#utility.yul\":1587:1611   */\n      tag_16\n      jump\t// in\n    tag_43:\n        /* \"#utility.yul\":1567:1612   */\n      tag_20\n      jump\t// in\n    tag_42:\n        /* \"#utility.yul\":1562:1565   */\n      dup3\n        /* \"#utility.yul\":1555:1613   */\n      mstore\n        /* \"#utility.yul\":1462:1619   */\n      pop\n      pop\n      jump\t// out\n        /* \"#utility.yul\":1625:1881   */\n    tag_12:\n        /* \"#utility.yul\":1737:1740   */\n      0x00\n        /* \"#utility.yul\":1752:1827   */\n      tag_45\n        /* \"#utility.yul\":1823:1826   */\n      dup3\n        /* \"#utility.yul\":1814:1820   */\n      dup5\n        /* \"#utility.yul\":1752:1827   */\n      tag_21\n      jump\t// in\n    tag_45:\n        /* \"#utility.yul\":1852:1854   */\n      0x20\n        /* \"#utility.yul\":1847:1850   */\n      dup3\n        /* \"#utility.yul\":1843:1855   */\n      add\n        /* \"#utility.yul\":1836:1855   */\n      swap2\n      pop\n        /* \"#utility.yul\":1872:1875   */\n      dup2\n        /* \"#utility.yul\":1865:1875   */\n      swap1\n      pop\n        /* \"#utility.yul\":1625:1881   */\n      swap3\n      swap2\n      pop\n      pop\n      jump\t// out\n\n    auxdata: 0xa26469706673582212208f5eadb7a3f616ab1004342550d6c930edf4759f6f3a5a9905b2beceea2ed52964736f6c634300081a0033\n}\n",
				"bytecode": {
					"linkReferences": {},
					"object": "6080604052348015600e575f80fd5b506101868061001c5f395ff3fe608060405234801561000f575f80fd5b5060043610610029575f3560e01c80633cf5040a1461002d575b5f80fd5b610047600480360381019061004291906100c3565b61005d565b60405161005491906100fd565b60405180910390f35b5f8160405160200161006f9190610136565b604051602081830303815290604052805190602001209050919050565b5f80fd5b5f819050919050565b6100a281610090565b81146100ac575f80fd5b50565b5f813590506100bd81610099565b92915050565b5f602082840312156100d8576100d761008c565b5b5f6100e5848285016100af565b91505092915050565b6100f781610090565b82525050565b5f6020820190506101105f8301846100ee565b92915050565b5f819050919050565b61013061012b82610090565b610116565b82525050565b5f610141828461011f565b6020820191508190509291505056fea26469706673582212208f5eadb7a3f616ab1004342550d6c930edf4759f6f3a5a9905b2beceea2ed52964736f6c634300081a0033",
					"opcodes": "PUSH1 0x80 PUSH1 0x40 MSTORE CALLVALUE DUP1 ISZERO PUSH1 0xE JUMPI PUSH0 DUP1 REVERT JUMPDEST POP PUSH2 0x186 DUP1 PUSH2 0x1C PUSH0 CODECOPY PUSH0 RETURN INVALID PUSH1 0x80 PUSH1 0x40 MSTORE CALLVALUE DUP1 ISZERO PUSH2 0xF JUMPI PUSH0 DUP1 REVERT JUMPDEST POP PUSH1 0x4 CALLDATASIZE LT PUSH2 0x29 JUMPI PUSH0 CALLDATALOAD PUSH1 0xE0 SHR DUP1 PUSH4 0x3CF5040A EQ PUSH2 0x2D JUMPI JUMPDEST PUSH0 DUP1 REVERT JUMPDEST PUSH2 0x47 PUSH1 0x4 DUP1 CALLDATASIZE SUB DUP2 ADD SWAP1 PUSH2 0x42 SWAP2 SWAP1 PUSH2 0xC3 JUMP JUMPDEST PUSH2 0x5D JUMP JUMPDEST PUSH1 0x40 MLOAD PUSH2 0x54 SWAP2 SWAP1 PUSH2 0xFD JUMP JUMPDEST PUSH1 0x40 MLOAD DUP1 SWAP2 SUB SWAP1 RETURN JUMPDEST PUSH0 DUP2 PUSH1 0x40 MLOAD PUSH1 0x20 ADD PUSH2 0x6F SWAP2 SWAP1 PUSH2 0x136 JUMP JUMPDEST PUSH1 0x40 MLOAD PUSH1 0x20 DUP2 DUP4 SUB SUB DUP2 MSTORE SWAP1 PUSH1 0x40 MSTORE DUP1 MLOAD SWAP1 PUSH1 0x20 ADD KECCAK256 SWAP1 POP SWAP2 SWAP1 POP JUMP JUMPDEST PUSH0 DUP1 REVERT JUMPDEST PUSH0 DUP2 SWAP1 POP SWAP2 SWAP1 POP JUMP JUMPDEST PUSH2 0xA2 DUP2 PUSH2 0x90 JUMP JUMPDEST DUP2 EQ PUSH2 0xAC JUMPI PUSH0 DUP1 REVERT JUMPDEST POP JUMP JUMPDEST PUSH0 DUP2 CALLDATALOAD SWAP1 POP PUSH2 0xBD DUP2 PUSH2 0x99 JUMP JUMPDEST SWAP3 SWAP2 POP POP JUMP JUMPDEST PUSH0 PUSH1 0x20 DUP3 DUP5 SUB SLT ISZERO PUSH2 0xD8 JUMPI PUSH2 0xD7 PUSH2 0x8C JUMP JUMPDEST JUMPDEST PUSH0 PUSH2 0xE5 DUP5 DUP3 DUP6 ADD PUSH2 0xAF JUMP JUMPDEST SWAP2 POP POP SWAP3 SWAP2 POP POP JUMP JUMPDEST PUSH2 0xF7 DUP2 PUSH2 0x90 JUMP JUMPDEST DUP3 MSTORE POP POP JUMP JUMPDEST PUSH0 PUSH1 0x20 DUP3 ADD SWAP1 POP PUSH2 0x110 PUSH0 DUP4 ADD DUP5 PUSH2 0xEE JUMP JUMPDEST SWAP3 SWAP2 POP POP JUMP JUMPDEST PUSH0 DUP2 SWAP1 POP SWAP2 SWAP1 POP JUMP JUMPDEST PUSH2 0x130 PUSH2 0x12B DUP3 PUSH2 0x90 JUMP JUMPDEST PUSH2 0x116 JUMP JUMPDEST DUP3 MSTORE POP POP JUMP JUMPDEST PUSH0 PUSH2 0x141 DUP3 DUP5 PUSH2 0x11F JUMP JUMPDEST PUSH1 0x20 DUP3 ADD SWAP2 POP DUP2 SWAP1 POP SWAP3 SWAP2 POP POP JUMP INVALID LOG2 PUSH5 0x6970667358 0x22 SLT KECCAK256 DUP16 MCOPY 0xAD 0xB7 LOG3 0xF6 AND 0xAB LT DIV CALLVALUE 0x25 POP 0xD6 0xC9 ADDRESS 0xED DELEGATECALL PUSH22 0x9F6F3A5A9905B2BECEEA2ED52964736F6C634300081A STOP CALLER "
				},
				"gasEstimates": {
					"creation": {
						"codeDepositCost": "78000",
						"executionCost": "127",
						"totalCost": "78127"
					},
					"external": {
						"getHash(bytes32)": "infinite"
					}
				},
				"methodIdentifiers": {
					"getHash(bytes32)": "3cf5040a"
				}
			},
			"storageLayout": {
				"storage": [],
				"types": null
			},
			"userdoc": {
				"kind": "user",
				"methods": {},
				"version": 1
			}
		}
	}
}