{
	"DEFI_lab5/CommitReveal.sol": {
		"CommitReveal": {
			"abi": [
				{
					"anonymous": false,
					"inputs": [
						{
							"indexed": false,
							"internalType": "address",
							"name": "sender",
							"type": "address"
						},
						{
							"indexed": false,
							"internalType": "bytes32",
							"name": "dataHash",
							"type": "bytes32"
						},
						{
							"indexed": false,
							"internalType": "uint64",
							"name": "block",
							"type": "uint64"
						}
					],
					"name": "CommitHash",
					"type": "event"
				},
				{
					"anonymous": false,
					"inputs": [
						{
							"indexed": false,
							"internalType": "address",
							"name": "sender",
							"type": "address"
						},
						{
							"indexed": false,
							"internalType": "bytes32",
							"name": "revealHash",
							"type": "bytes32"
						},
						{
							"indexed": false,
							"internalType": "uint256",
							"name": "random",
							"type": "uint256"
						}
					],
					"name": "RevealHash",
					"type": "event"
				},
				{
					"inputs": [
						{
							"internalType": "bytes32",
							"name": "dataHash",
							"type": "bytes32"
						}
					],
					"name": "commit",
					"outputs": [],
					"stateMutability": "nonpayable",
					"type": "function"
				},
				{
					"inputs": [
						{
							"internalType": "address",
							"name": "",
							"type": "address"
						}
					],
					"name": "commits",
					"outputs": [
						{
							"internalType": "bytes32",
							"name": "commit",
							"type": "bytes32"
						},
						{
							"internalType": "uint64",
							"name": "block",
							"type": "uint64"
						},
						{
							"internalType": "bool",
							"name": "revealed",
							"type": "bool"
						}
					],
					"stateMutability": "view",
					"type": "function"
				},
				{
					"inputs": [
						{
							"internalType": "bytes32",
							"name": "data",
							"type": "bytes32"
						}
					],
					"name": "getHash",
					"outputs": [
						{
							"internalType": "bytes32",
							"name": "",
							"type": "bytes32"
						}
					],
					"stateMutability": "pure",
					"type": "function"
				},
				{
					"inputs": [],
					"name": "max",
					"outputs": [
						{
							"internalType": "uint8",
							"name": "",
							"type": "uint8"
						}
					],
					"stateMutability": "view",
					"type": "function"
				},
				{
					"inputs": [
						{
							"internalType": "bytes32",
							"name": "revealHash",
							"type": "bytes32"
						}
					],
					"name": "reveal",
					"outputs": [],
					"stateMutability": "nonpayable",
					"type": "function"
				}
			],
			"devdoc": {
				"kind": "dev",
				"methods": {},
				"version": 1
			},
			"evm": {
				"assembly": "    /* \"DEFI_lab5/CommitReveal.sol\":74:1973  contract CommitReveal {... */\n  mstore(0x40, 0x80)\n    /* \"DEFI_lab5/CommitReveal.sol\":122:125  100 */\n  0x64\n    /* \"DEFI_lab5/CommitReveal.sol\":103:125  uint8 public max = 100 */\n  0x00\n  dup1\n  0x0100\n  exp\n  dup2\n  sload\n  dup2\n  0xff\n  mul\n  not\n  and\n  swap1\n  dup4\n  0xff\n  and\n  mul\n  or\n  swap1\n  sstore\n  pop\n    /* \"DEFI_lab5/CommitReveal.sol\":74:1973  contract CommitReveal {... */\n  callvalue\n  dup1\n  iszero\n  tag_1\n  jumpi\n  0x00\n  dup1\n  revert\ntag_1:\n  pop\n  dataSize(sub_0)\n  dup1\n  dataOffset(sub_0)\n  0x00\n  codecopy\n  0x00\n  return\nstop\n\nsub_0: assembly {\n        /* \"DEFI_lab5/CommitReveal.sol\":74:1973  contract CommitReveal {... */\n      mstore(0x40, 0x80)\n      callvalue\n      dup1\n      iszero\n      tag_1\n      jumpi\n      0x00\n      dup1\n      revert\n    tag_1:\n      pop\n      jumpi(tag_2, lt(calldatasize, 0x04))\n      shr(0xe0, calldataload(0x00))\n      dup1\n      0x3cf5040a\n      eq\n      tag_3\n      jumpi\n      dup1\n      0x6ac5db19\n      eq\n      tag_4\n      jumpi\n      dup1\n      0x701fd0f1\n      eq\n      tag_5\n      jumpi\n      dup1\n      0x7b43a8e6\n      eq\n      tag_6\n      jumpi\n      dup1\n      0xf14fcbc8\n      eq\n      tag_7\n      jumpi\n    tag_2:\n      0x00\n      dup1\n      revert\n        /* \"DEFI_lab5/CommitReveal.sol\":1858:1970  function getHash(bytes32 data) public pure returns(bytes32){... */\n    tag_3:\n      tag_8\n      0x04\n      dup1\n      calldatasize\n      sub\n      dup2\n      add\n      swap1\n      tag_9\n      swap2\n      swap1\n      tag_10\n      jump\t// in\n    tag_9:\n      tag_11\n      jump\t// in\n    tag_8:\n      mload(0x40)\n      tag_12\n      swap2\n      swap1\n      tag_13\n      jump\t// in\n    tag_12:\n      mload(0x40)\n      dup1\n      swap2\n      sub\n      swap1\n      return\n        /* \"DEFI_lab5/CommitReveal.sol\":103:125  uint8 public max = 100 */\n    tag_4:\n      tag_14\n      tag_15\n      jump\t// in\n    tag_14:\n      mload(0x40)\n      tag_16\n      swap2\n      swap1\n      tag_17\n      jump\t// in\n    tag_16:\n      mload(0x40)\n      dup1\n      swap2\n      sub\n      swap1\n      return\n        /* \"DEFI_lab5/CommitReveal.sol\":618:1782  function reveal(bytes32 revealHash) public {... */\n    tag_5:\n      tag_18\n      0x04\n      dup1\n      calldatasize\n      sub\n      dup2\n      add\n      swap1\n      tag_19\n      swap2\n      swap1\n      tag_10\n      jump\t// in\n    tag_19:\n      tag_20\n      jump\t// in\n    tag_18:\n      stop\n        /* \"DEFI_lab5/CommitReveal.sol\":218:260  mapping (address => Commit) public commits */\n    tag_6:\n      tag_21\n      0x04\n      dup1\n      calldatasize\n      sub\n      dup2\n      add\n      swap1\n      tag_22\n      swap2\n      swap1\n      tag_23\n      jump\t// in\n    tag_22:\n      tag_24\n      jump\t// in\n    tag_21:\n      mload(0x40)\n      tag_25\n      swap4\n      swap3\n      swap2\n      swap1\n      tag_26\n      jump\t// in\n    tag_25:\n      mload(0x40)\n      dup1\n      swap2\n      sub\n      swap1\n      return\n        /* \"DEFI_lab5/CommitReveal.sol\":267:543  function commit(bytes32 dataHash) public {... */\n    tag_7:\n      tag_27\n      0x04\n      dup1\n      calldatasize\n      sub\n      dup2\n      add\n      swap1\n      tag_28\n      swap2\n      swap1\n      tag_10\n      jump\t// in\n    tag_28:\n      tag_29\n      jump\t// in\n    tag_27:\n      stop\n        /* \"DEFI_lab5/CommitReveal.sol\":1858:1970  function getHash(bytes32 data) public pure returns(bytes32){... */\n    tag_11:\n        /* \"DEFI_lab5/CommitReveal.sol\":1909:1916  bytes32 */\n      0x00\n        /* \"DEFI_lab5/CommitReveal.sol\":1958:1962  data */\n      dup2\n        /* \"DEFI_lab5/CommitReveal.sol\":1941:1963  abi.encodePacked(data) */\n      add(0x20, mload(0x40))\n      tag_31\n      swap2\n      swap1\n      tag_32\n      jump\t// in\n    tag_31:\n      mload(0x40)\n      0x20\n      dup2\n      dup4\n      sub\n      sub\n      dup2\n      mstore\n      swap1\n      0x40\n      mstore\n        /* \"DEFI_lab5/CommitReveal.sol\":1931:1964  keccak256(abi.encodePacked(data)) */\n      dup1\n      mload\n      swap1\n      0x20\n      add\n      keccak256\n        /* \"DEFI_lab5/CommitReveal.sol\":1924:1964  return keccak256(abi.encodePacked(data)) */\n      swap1\n      pop\n        /* \"DEFI_lab5/CommitReveal.sol\":1858:1970  function getHash(bytes32 data) public pure returns(bytes32){... */\n      swap2\n      swap1\n      pop\n      jump\t// out\n        /* \"DEFI_lab5/CommitReveal.sol\":103:125  uint8 public max = 100 */\n    tag_15:\n      0x00\n      dup1\n      sload\n      swap1\n      0x0100\n      exp\n      swap1\n      div\n      0xff\n      and\n      dup2\n      jump\t// out\n        /* \"DEFI_lab5/CommitReveal.sol\":618:1782  function reveal(bytes32 revealHash) public {... */\n    tag_20:\n        /* \"DEFI_lab5/CommitReveal.sol\":774:779  false */\n      0x00\n        /* \"DEFI_lab5/CommitReveal.sol\":744:779  commits[msg.sender].revealed==false */\n      iszero\n      iszero\n        /* \"DEFI_lab5/CommitReveal.sol\":744:751  commits */\n      0x01\n        /* \"DEFI_lab5/CommitReveal.sol\":744:763  commits[msg.sender] */\n      0x00\n        /* \"DEFI_lab5/CommitReveal.sol\":752:762  msg.sender */\n      caller\n        /* \"DEFI_lab5/CommitReveal.sol\":744:763  commits[msg.sender] */\n      0xffffffffffffffffffffffffffffffffffffffff\n      and\n      0xffffffffffffffffffffffffffffffffffffffff\n      and\n      dup2\n      mstore\n      0x20\n      add\n      swap1\n      dup2\n      mstore\n      0x20\n      add\n      0x00\n      keccak256\n        /* \"DEFI_lab5/CommitReveal.sol\":744:772  commits[msg.sender].revealed */\n      0x01\n      add\n      0x08\n      swap1\n      sload\n      swap1\n      0x0100\n      exp\n      swap1\n      div\n      0xff\n      and\n        /* \"DEFI_lab5/CommitReveal.sol\":744:779  commits[msg.sender].revealed==false */\n      iszero\n      iszero\n      eq\n        /* \"DEFI_lab5/CommitReveal.sol\":736:821  require(commits[msg.sender].revealed==false,\"CommitReveal::reveal: Already revealed\") */\n      tag_34\n      jumpi\n      mload(0x40)\n      0x08c379a000000000000000000000000000000000000000000000000000000000\n      dup2\n      mstore\n      0x04\n      add\n      tag_35\n      swap1\n      tag_36\n      jump\t// in\n    tag_35:\n      mload(0x40)\n      dup1\n      swap2\n      sub\n      swap1\n      revert\n    tag_34:\n        /* \"DEFI_lab5/CommitReveal.sol\":857:861  true */\n      0x01\n        /* \"DEFI_lab5/CommitReveal.sol\":828:835  commits */\n      dup1\n        /* \"DEFI_lab5/CommitReveal.sol\":828:847  commits[msg.sender] */\n      0x00\n        /* \"DEFI_lab5/CommitReveal.sol\":836:846  msg.sender */\n      caller\n        /* \"DEFI_lab5/CommitReveal.sol\":828:847  commits[msg.sender] */\n      0xffffffffffffffffffffffffffffffffffffffff\n      and\n      0xffffffffffffffffffffffffffffffffffffffff\n      and\n      dup2\n      mstore\n      0x20\n      add\n      swap1\n      dup2\n      mstore\n      0x20\n      add\n      0x00\n      keccak256\n        /* \"DEFI_lab5/CommitReveal.sol\":828:856  commits[msg.sender].revealed */\n      0x01\n      add\n      0x08\n        /* \"DEFI_lab5/CommitReveal.sol\":828:861  commits[msg.sender].revealed=true */\n      0x0100\n      exp\n      dup2\n      sload\n      dup2\n      0xff\n      mul\n      not\n      and\n      swap1\n      dup4\n      iszero\n      iszero\n      mul\n      or\n      swap1\n      sstore\n      pop\n        /* \"DEFI_lab5/CommitReveal.sol\":953:960  commits */\n      0x01\n        /* \"DEFI_lab5/CommitReveal.sol\":953:972  commits[msg.sender] */\n      0x00\n        /* \"DEFI_lab5/CommitReveal.sol\":961:971  msg.sender */\n      caller\n        /* \"DEFI_lab5/CommitReveal.sol\":953:972  commits[msg.sender] */\n      0xffffffffffffffffffffffffffffffffffffffff\n      and\n      0xffffffffffffffffffffffffffffffffffffffff\n      and\n      dup2\n      mstore\n      0x20\n      add\n      swap1\n      dup2\n      mstore\n      0x20\n      add\n      0x00\n      keccak256\n        /* \"DEFI_lab5/CommitReveal.sol\":953:979  commits[msg.sender].commit */\n      0x00\n      add\n      sload\n        /* \"DEFI_lab5/CommitReveal.sol\":932:951  getHash(revealHash) */\n      tag_37\n        /* \"DEFI_lab5/CommitReveal.sol\":940:950  revealHash */\n      dup3\n        /* \"DEFI_lab5/CommitReveal.sol\":932:939  getHash */\n      tag_11\n        /* \"DEFI_lab5/CommitReveal.sol\":932:951  getHash(revealHash) */\n      jump\t// in\n    tag_37:\n        /* \"DEFI_lab5/CommitReveal.sol\":932:979  getHash(revealHash)==commits[msg.sender].commit */\n      eq\n        /* \"DEFI_lab5/CommitReveal.sol\":924:1040  require(getHash(revealHash)==commits[msg.sender].commit,\"CommitReveal::reveal: Revealed hash does not match commit\") */\n      tag_38\n      jumpi\n      mload(0x40)\n      0x08c379a000000000000000000000000000000000000000000000000000000000\n      dup2\n      mstore\n      0x04\n      add\n      tag_39\n      swap1\n      tag_40\n      jump\t// in\n    tag_39:\n      mload(0x40)\n      dup1\n      swap2\n      sub\n      swap1\n      revert\n    tag_38:\n        /* \"DEFI_lab5/CommitReveal.sol\":1148:1155  commits */\n      0x01\n        /* \"DEFI_lab5/CommitReveal.sol\":1148:1167  commits[msg.sender] */\n      0x00\n        /* \"DEFI_lab5/CommitReveal.sol\":1156:1166  msg.sender */\n      caller\n        /* \"DEFI_lab5/CommitReveal.sol\":1148:1167  commits[msg.sender] */\n      0xffffffffffffffffffffffffffffffffffffffff\n      and\n      0xffffffffffffffffffffffffffffffffffffffff\n      and\n      dup2\n      mstore\n      0x20\n      add\n      swap1\n      dup2\n      mstore\n      0x20\n      add\n      0x00\n      keccak256\n        /* \"DEFI_lab5/CommitReveal.sol\":1148:1173  commits[msg.sender].block */\n      0x01\n      add\n      0x00\n      swap1\n      sload\n      swap1\n      0x0100\n      exp\n      swap1\n      div\n      0xffffffffffffffff\n      and\n        /* \"DEFI_lab5/CommitReveal.sol\":1127:1173  uint64(block.number)>commits[msg.sender].block */\n      0xffffffffffffffff\n      and\n        /* \"DEFI_lab5/CommitReveal.sol\":1134:1146  block.number */\n      number\n        /* \"DEFI_lab5/CommitReveal.sol\":1127:1173  uint64(block.number)>commits[msg.sender].block */\n      0xffffffffffffffff\n      and\n      gt\n        /* \"DEFI_lab5/CommitReveal.sol\":1119:1243  require(uint64(block.number)>commits[msg.sender].block,\"CommitReveal::reveal: Reveal and commit happened on the same block\") */\n      tag_41\n      jumpi\n      mload(0x40)\n      0x08c379a000000000000000000000000000000000000000000000000000000000\n      dup2\n      mstore\n      0x04\n      add\n      tag_42\n      swap1\n      tag_43\n      jump\t// in\n    tag_42:\n      mload(0x40)\n      dup1\n      swap2\n      sub\n      swap1\n      revert\n    tag_41:\n        /* \"DEFI_lab5/CommitReveal.sol\":1362:1365  250 */\n      0xfa\n        /* \"DEFI_lab5/CommitReveal.sol\":1336:1343  commits */\n      0x01\n        /* \"DEFI_lab5/CommitReveal.sol\":1336:1355  commits[msg.sender] */\n      0x00\n        /* \"DEFI_lab5/CommitReveal.sol\":1344:1354  msg.sender */\n      caller\n        /* \"DEFI_lab5/CommitReveal.sol\":1336:1355  commits[msg.sender] */\n      0xffffffffffffffffffffffffffffffffffffffff\n      and\n      0xffffffffffffffffffffffffffffffffffffffff\n      and\n      dup2\n      mstore\n      0x20\n      add\n      swap1\n      dup2\n      mstore\n      0x20\n      add\n      0x00\n      keccak256\n        /* \"DEFI_lab5/CommitReveal.sol\":1336:1361  commits[msg.sender].block */\n      0x01\n      add\n      0x00\n      swap1\n      sload\n      swap1\n      0x0100\n      exp\n      swap1\n      div\n      0xffffffffffffffff\n      and\n        /* \"DEFI_lab5/CommitReveal.sol\":1336:1365  commits[msg.sender].block+250 */\n      tag_44\n      swap2\n      swap1\n      tag_45\n      jump\t// in\n    tag_44:\n        /* \"DEFI_lab5/CommitReveal.sol\":1314:1365  uint64(block.number)<=commits[msg.sender].block+250 */\n      0xffffffffffffffff\n      and\n        /* \"DEFI_lab5/CommitReveal.sol\":1321:1333  block.number */\n      number\n        /* \"DEFI_lab5/CommitReveal.sol\":1314:1365  uint64(block.number)<=commits[msg.sender].block+250 */\n      0xffffffffffffffff\n      and\n      gt\n      iszero\n        /* \"DEFI_lab5/CommitReveal.sol\":1306:1408  require(uint64(block.number)<=commits[msg.sender].block+250,\"CommitReveal::reveal: Revealed too late\") */\n      tag_46\n      jumpi\n      mload(0x40)\n      0x08c379a000000000000000000000000000000000000000000000000000000000\n      dup2\n      mstore\n      0x04\n      add\n      tag_47\n      swap1\n      tag_48\n      jump\t// in\n    tag_47:\n      mload(0x40)\n      dup1\n      swap2\n      sub\n      swap1\n      revert\n    tag_46:\n        /* \"DEFI_lab5/CommitReveal.sol\":1483:1500  bytes32 blockHash */\n      0x00\n        /* \"DEFI_lab5/CommitReveal.sol\":1513:1520  commits */\n      0x01\n        /* \"DEFI_lab5/CommitReveal.sol\":1513:1532  commits[msg.sender] */\n      0x00\n        /* \"DEFI_lab5/CommitReveal.sol\":1521:1531  msg.sender */\n      caller\n        /* \"DEFI_lab5/CommitReveal.sol\":1513:1532  commits[msg.sender] */\n      0xffffffffffffffffffffffffffffffffffffffff\n      and\n      0xffffffffffffffffffffffffffffffffffffffff\n      and\n      dup2\n      mstore\n      0x20\n      add\n      swap1\n      dup2\n      mstore\n      0x20\n      add\n      0x00\n      keccak256\n        /* \"DEFI_lab5/CommitReveal.sol\":1513:1538  commits[msg.sender].block */\n      0x01\n      add\n      0x00\n      swap1\n      sload\n      swap1\n      0x0100\n      exp\n      swap1\n      div\n      0xffffffffffffffff\n      and\n        /* \"DEFI_lab5/CommitReveal.sol\":1503:1539  blockhash(commits[msg.sender].block) */\n      0xffffffffffffffff\n      and\n      blockhash\n        /* \"DEFI_lab5/CommitReveal.sol\":1483:1539  bytes32 blockHash = blockhash(commits[msg.sender].block) */\n      swap1\n      pop\n        /* \"DEFI_lab5/CommitReveal.sol\":1651:1662  uint random */\n      0x00\n        /* \"DEFI_lab5/CommitReveal.sol\":1721:1724  max */\n      dup1\n      0x00\n      swap1\n      sload\n      swap1\n      0x0100\n      exp\n      swap1\n      div\n      0xff\n      and\n        /* \"DEFI_lab5/CommitReveal.sol\":1665:1724  uint(keccak256(abi.encodePacked(blockHash,revealHash)))%max */\n      0xff\n      and\n        /* \"DEFI_lab5/CommitReveal.sol\":1697:1706  blockHash */\n      dup3\n        /* \"DEFI_lab5/CommitReveal.sol\":1707:1717  revealHash */\n      dup5\n        /* \"DEFI_lab5/CommitReveal.sol\":1680:1718  abi.encodePacked(blockHash,revealHash) */\n      add(0x20, mload(0x40))\n      tag_49\n      swap3\n      swap2\n      swap1\n      tag_50\n      jump\t// in\n    tag_49:\n      mload(0x40)\n      0x20\n      dup2\n      dup4\n      sub\n      sub\n      dup2\n      mstore\n      swap1\n      0x40\n      mstore\n        /* \"DEFI_lab5/CommitReveal.sol\":1670:1719  keccak256(abi.encodePacked(blockHash,revealHash)) */\n      dup1\n      mload\n      swap1\n      0x20\n      add\n      keccak256\n        /* \"DEFI_lab5/CommitReveal.sol\":1665:1720  uint(keccak256(abi.encodePacked(blockHash,revealHash))) */\n      0x00\n      shr\n        /* \"DEFI_lab5/CommitReveal.sol\":1665:1724  uint(keccak256(abi.encodePacked(blockHash,revealHash)))%max */\n      tag_51\n      swap2\n      swap1\n      tag_52\n      jump\t// in\n    tag_51:\n        /* \"DEFI_lab5/CommitReveal.sol\":1651:1724  uint random = uint(keccak256(abi.encodePacked(blockHash,revealHash)))%max */\n      swap1\n      pop\n        /* \"DEFI_lab5/CommitReveal.sol\":1736:1776  RevealHash(msg.sender,revealHash,random) */\n      0xbc016dd1cadeaefcb851af7a0a93532e0023d536894b730801f7bcfe7065bcc2\n        /* \"DEFI_lab5/CommitReveal.sol\":1747:1757  msg.sender */\n      caller\n        /* \"DEFI_lab5/CommitReveal.sol\":1758:1768  revealHash */\n      dup5\n        /* \"DEFI_lab5/CommitReveal.sol\":1769:1775  random */\n      dup4\n        /* \"DEFI_lab5/CommitReveal.sol\":1736:1776  RevealHash(msg.sender,revealHash,random) */\n      mload(0x40)\n      tag_53\n      swap4\n      swap3\n      swap2\n      swap1\n      tag_54\n      jump\t// in\n    tag_53:\n      mload(0x40)\n      dup1\n      swap2\n      sub\n      swap1\n      log1\n        /* \"DEFI_lab5/CommitReveal.sol\":661:1782  {... */\n      pop\n      pop\n        /* \"DEFI_lab5/CommitReveal.sol\":618:1782  function reveal(bytes32 revealHash) public {... */\n      pop\n      jump\t// out\n        /* \"DEFI_lab5/CommitReveal.sol\":218:260  mapping (address => Commit) public commits */\n    tag_24:\n      mstore(0x20, 0x01)\n      dup1\n      0x00\n      mstore\n      keccak256(0x00, 0x40)\n      0x00\n      swap2\n      pop\n      swap1\n      pop\n      dup1\n      0x00\n      add\n      sload\n      swap1\n      dup1\n      0x01\n      add\n      0x00\n      swap1\n      sload\n      swap1\n      0x0100\n      exp\n      swap1\n      div\n      0xffffffffffffffff\n      and\n      swap1\n      dup1\n      0x01\n      add\n      0x08\n      swap1\n      sload\n      swap1\n      0x0100\n      exp\n      swap1\n      div\n      0xff\n      and\n      swap1\n      pop\n      dup4\n      jump\t// out\n        /* \"DEFI_lab5/CommitReveal.sol\":267:543  function commit(bytes32 dataHash) public {... */\n    tag_29:\n        /* \"DEFI_lab5/CommitReveal.sol\":344:352  dataHash */\n      dup1\n        /* \"DEFI_lab5/CommitReveal.sol\":315:322  commits */\n      0x01\n        /* \"DEFI_lab5/CommitReveal.sol\":315:334  commits[msg.sender] */\n      0x00\n        /* \"DEFI_lab5/CommitReveal.sol\":323:333  msg.sender */\n      caller\n        /* \"DEFI_lab5/CommitReveal.sol\":315:334  commits[msg.sender] */\n      0xffffffffffffffffffffffffffffffffffffffff\n      and\n      0xffffffffffffffffffffffffffffffffffffffff\n      and\n      dup2\n      mstore\n      0x20\n      add\n      swap1\n      dup2\n      mstore\n      0x20\n      add\n      0x00\n      keccak256\n        /* \"DEFI_lab5/CommitReveal.sol\":315:341  commits[msg.sender].commit */\n      0x00\n      add\n        /* \"DEFI_lab5/CommitReveal.sol\":315:352  commits[msg.sender].commit = dataHash */\n      dup2\n      swap1\n      sstore\n      pop\n        /* \"DEFI_lab5/CommitReveal.sol\":394:406  block.number */\n      number\n        /* \"DEFI_lab5/CommitReveal.sol\":359:366  commits */\n      0x01\n        /* \"DEFI_lab5/CommitReveal.sol\":359:378  commits[msg.sender] */\n      0x00\n        /* \"DEFI_lab5/CommitReveal.sol\":367:377  msg.sender */\n      caller\n        /* \"DEFI_lab5/CommitReveal.sol\":359:378  commits[msg.sender] */\n      0xffffffffffffffffffffffffffffffffffffffff\n      and\n      0xffffffffffffffffffffffffffffffffffffffff\n      and\n      dup2\n      mstore\n      0x20\n      add\n      swap1\n      dup2\n      mstore\n      0x20\n      add\n      0x00\n      keccak256\n        /* \"DEFI_lab5/CommitReveal.sol\":359:384  commits[msg.sender].block */\n      0x01\n      add\n      0x00\n        /* \"DEFI_lab5/CommitReveal.sol\":359:407  commits[msg.sender].block = uint64(block.number) */\n      0x0100\n      exp\n      dup2\n      sload\n      dup2\n      0xffffffffffffffff\n      mul\n      not\n      and\n      swap1\n      dup4\n      0xffffffffffffffff\n      and\n      mul\n      or\n      swap1\n      sstore\n      pop\n        /* \"DEFI_lab5/CommitReveal.sol\":445:450  false */\n      0x00\n        /* \"DEFI_lab5/CommitReveal.sol\":414:421  commits */\n      0x01\n        /* \"DEFI_lab5/CommitReveal.sol\":414:433  commits[msg.sender] */\n      0x00\n        /* \"DEFI_lab5/CommitReveal.sol\":422:432  msg.sender */\n      caller\n        /* \"DEFI_lab5/CommitReveal.sol\":414:433  commits[msg.sender] */\n      0xffffffffffffffffffffffffffffffffffffffff\n      and\n      0xffffffffffffffffffffffffffffffffffffffff\n      and\n      dup2\n      mstore\n      0x20\n      add\n      swap1\n      dup2\n      mstore\n      0x20\n      add\n      0x00\n      keccak256\n        /* \"DEFI_lab5/CommitReveal.sol\":414:442  commits[msg.sender].revealed */\n      0x01\n      add\n      0x08\n        /* \"DEFI_lab5/CommitReveal.sol\":414:450  commits[msg.sender].revealed = false */\n      0x0100\n      exp\n      dup2\n      sload\n      dup2\n      0xff\n      mul\n      not\n      and\n      swap1\n      dup4\n      iszero\n      iszero\n      mul\n      or\n      swap1\n      sstore\n      pop\n        /* \"DEFI_lab5/CommitReveal.sol\":462:537  CommitHash(msg.sender,commits[msg.sender].commit,commits[msg.sender].block) */\n      0x3c1a1f8f38335b17f751c6da4ba7d1865f26b3997535176f5080de9fad891603\n        /* \"DEFI_lab5/CommitReveal.sol\":473:483  msg.sender */\n      caller\n        /* \"DEFI_lab5/CommitReveal.sol\":484:491  commits */\n      0x01\n        /* \"DEFI_lab5/CommitReveal.sol\":484:503  commits[msg.sender] */\n      0x00\n        /* \"DEFI_lab5/CommitReveal.sol\":492:502  msg.sender */\n      caller\n        /* \"DEFI_lab5/CommitReveal.sol\":484:503  commits[msg.sender] */\n      0xffffffffffffffffffffffffffffffffffffffff\n      and\n      0xffffffffffffffffffffffffffffffffffffffff\n      and\n      dup2\n      mstore\n      0x20\n      add\n      swap1\n      dup2\n      mstore\n      0x20\n      add\n      0x00\n      keccak256\n        /* \"DEFI_lab5/CommitReveal.sol\":484:510  commits[msg.sender].commit */\n      0x00\n      add\n      sload\n        /* \"DEFI_lab5/CommitReveal.sol\":511:518  commits */\n      0x01\n        /* \"DEFI_lab5/CommitReveal.sol\":511:530  commits[msg.sender] */\n      0x00\n        /* \"DEFI_lab5/CommitReveal.sol\":519:529  msg.sender */\n      caller\n        /* \"DEFI_lab5/CommitReveal.sol\":511:530  commits[msg.sender] */\n      0xffffffffffffffffffffffffffffffffffffffff\n      and\n      0xffffffffffffffffffffffffffffffffffffffff\n      and\n      dup2\n      mstore\n      0x20\n      add\n      swap1\n      dup2\n      mstore\n      0x20\n      add\n      0x00\n      keccak256\n        /* \"DEFI_lab5/CommitReveal.sol\":511:536  commits[msg.sender].block */\n      0x01\n      add\n      0x00\n      swap1\n      sload\n      swap1\n      0x0100\n      exp\n      swap1\n      div\n      0xffffffffffffffff\n      and\n        /* \"DEFI_lab5/CommitReveal.sol\":462:537  CommitHash(msg.sender,commits[msg.sender].commit,commits[msg.sender].block) */\n      mload(0x40)\n      tag_56\n      swap4\n      swap3\n      swap2\n      swap1\n      tag_57\n      jump\t// in\n    tag_56:\n      mload(0x40)\n      dup1\n      swap2\n      sub\n      swap1\n      log1\n        /* \"DEFI_lab5/CommitReveal.sol\":267:543  function commit(bytes32 dataHash) public {... */\n      pop\n      jump\t// out\n        /* \"#utility.yul\":88:205   */\n    tag_59:\n        /* \"#utility.yul\":197:198   */\n      0x00\n        /* \"#utility.yul\":194:195   */\n      dup1\n        /* \"#utility.yul\":187:199   */\n      revert\n        /* \"#utility.yul\":334:411   */\n    tag_61:\n        /* \"#utility.yul\":371:378   */\n      0x00\n        /* \"#utility.yul\":400:405   */\n      dup2\n        /* \"#utility.yul\":389:405   */\n      swap1\n      pop\n        /* \"#utility.yul\":334:411   */\n      swap2\n      swap1\n      pop\n      jump\t// out\n        /* \"#utility.yul\":417:539   */\n    tag_62:\n        /* \"#utility.yul\":490:514   */\n      tag_97\n        /* \"#utility.yul\":508:513   */\n      dup2\n        /* \"#utility.yul\":490:514   */\n      tag_61\n      jump\t// in\n    tag_97:\n        /* \"#utility.yul\":483:488   */\n      dup2\n        /* \"#utility.yul\":480:515   */\n      eq\n        /* \"#utility.yul\":470:533   */\n      tag_98\n      jumpi\n        /* \"#utility.yul\":529:530   */\n      0x00\n        /* \"#utility.yul\":526:527   */\n      dup1\n        /* \"#utility.yul\":519:531   */\n      revert\n        /* \"#utility.yul\":470:533   */\n    tag_98:\n        /* \"#utility.yul\":417:539   */\n      pop\n      jump\t// out\n        /* \"#utility.yul\":545:684   */\n    tag_63:\n        /* \"#utility.yul\":591:596   */\n      0x00\n        /* \"#utility.yul\":629:635   */\n      dup2\n        /* \"#utility.yul\":616:636   */\n      calldataload\n        /* \"#utility.yul\":607:636   */\n      swap1\n      pop\n        /* \"#utility.yul\":645:678   */\n      tag_100\n        /* \"#utility.yul\":672:677   */\n      dup2\n        /* \"#utility.yul\":645:678   */\n      tag_62\n      jump\t// in\n    tag_100:\n        /* \"#utility.yul\":545:684   */\n      swap3\n      swap2\n      pop\n      pop\n      jump\t// out\n        /* \"#utility.yul\":690:1019   */\n    tag_10:\n        /* \"#utility.yul\":749:755   */\n      0x00\n        /* \"#utility.yul\":798:800   */\n      0x20\n        /* \"#utility.yul\":786:795   */\n      dup3\n        /* \"#utility.yul\":777:784   */\n      dup5\n        /* \"#utility.yul\":773:796   */\n      sub\n        /* \"#utility.yul\":769:801   */\n      slt\n        /* \"#utility.yul\":766:885   */\n      iszero\n      tag_102\n      jumpi\n        /* \"#utility.yul\":804:883   */\n      tag_103\n      tag_59\n      jump\t// in\n    tag_103:\n        /* \"#utility.yul\":766:885   */\n    tag_102:\n        /* \"#utility.yul\":924:925   */\n      0x00\n        /* \"#utility.yul\":949:1002   */\n      tag_104\n        /* \"#utility.yul\":994:1001   */\n      dup5\n        /* \"#utility.yul\":985:991   */\n      dup3\n        /* \"#utility.yul\":974:983   */\n      dup6\n        /* \"#utility.yul\":970:992   */\n      add\n        /* \"#utility.yul\":949:1002   */\n      tag_63\n      jump\t// in\n    tag_104:\n        /* \"#utility.yul\":939:1002   */\n      swap2\n      pop\n        /* \"#utility.yul\":895:1012   */\n      pop\n        /* \"#utility.yul\":690:1019   */\n      swap3\n      swap2\n      pop\n      pop\n      jump\t// out\n        /* \"#utility.yul\":1025:1143   */\n    tag_64:\n        /* \"#utility.yul\":1112:1136   */\n      tag_106\n        /* \"#utility.yul\":1130:1135   */\n      dup2\n        /* \"#utility.yul\":1112:1136   */\n      tag_61\n      jump\t// in\n    tag_106:\n        /* \"#utility.yul\":1107:1110   */\n      dup3\n        /* \"#utility.yul\":1100:1137   */\n      mstore\n        /* \"#utility.yul\":1025:1143   */\n      pop\n      pop\n      jump\t// out\n        /* \"#utility.yul\":1149:1371   */\n    tag_13:\n        /* \"#utility.yul\":1242:1246   */\n      0x00\n        /* \"#utility.yul\":1280:1282   */\n      0x20\n        /* \"#utility.yul\":1269:1278   */\n      dup3\n        /* \"#utility.yul\":1265:1283   */\n      add\n        /* \"#utility.yul\":1257:1283   */\n      swap1\n      pop\n        /* \"#utility.yul\":1293:1364   */\n      tag_108\n        /* \"#utility.yul\":1361:1362   */\n      0x00\n        /* \"#utility.yul\":1350:1359   */\n      dup4\n        /* \"#utility.yul\":1346:1363   */\n      add\n        /* \"#utility.yul\":1337:1343   */\n      dup5\n        /* \"#utility.yul\":1293:1364   */\n      tag_64\n      jump\t// in\n    tag_108:\n        /* \"#utility.yul\":1149:1371   */\n      swap3\n      swap2\n      pop\n      pop\n      jump\t// out\n        /* \"#utility.yul\":1377:1463   */\n    tag_65:\n        /* \"#utility.yul\":1412:1419   */\n      0x00\n        /* \"#utility.yul\":1452:1456   */\n      0xff\n        /* \"#utility.yul\":1445:1450   */\n      dup3\n        /* \"#utility.yul\":1441:1457   */\n      and\n        /* \"#utility.yul\":1430:1457   */\n      swap1\n      pop\n        /* \"#utility.yul\":1377:1463   */\n      swap2\n      swap1\n      pop\n      jump\t// out\n        /* \"#utility.yul\":1469:1581   */\n    tag_66:\n        /* \"#utility.yul\":1552:1574   */\n      tag_111\n        /* \"#utility.yul\":1568:1573   */\n      dup2\n        /* \"#utility.yul\":1552:1574   */\n      tag_65\n      jump\t// in\n    tag_111:\n        /* \"#utility.yul\":1547:1550   */\n      dup3\n        /* \"#utility.yul\":1540:1575   */\n      mstore\n        /* \"#utility.yul\":1469:1581   */\n      pop\n      pop\n      jump\t// out\n        /* \"#utility.yul\":1587:1801   */\n    tag_17:\n        /* \"#utility.yul\":1676:1680   */\n      0x00\n        /* \"#utility.yul\":1714:1716   */\n      0x20\n        /* \"#utility.yul\":1703:1712   */\n      dup3\n        /* \"#utility.yul\":1699:1717   */\n      add\n        /* \"#utility.yul\":1691:1717   */\n      swap1\n      pop\n        /* \"#utility.yul\":1727:1794   */\n      tag_113\n        /* \"#utility.yul\":1791:1792   */\n      0x00\n        /* \"#utility.yul\":1780:1789   */\n      dup4\n        /* \"#utility.yul\":1776:1793   */\n      add\n        /* \"#utility.yul\":1767:1773   */\n      dup5\n        /* \"#utility.yul\":1727:1794   */\n      tag_66\n      jump\t// in\n    tag_113:\n        /* \"#utility.yul\":1587:1801   */\n      swap3\n      swap2\n      pop\n      pop\n      jump\t// out\n        /* \"#utility.yul\":1807:1933   */\n    tag_67:\n        /* \"#utility.yul\":1844:1851   */\n      0x00\n        /* \"#utility.yul\":1884:1926   */\n      0xffffffffffffffffffffffffffffffffffffffff\n        /* \"#utility.yul\":1877:1882   */\n      dup3\n        /* \"#utility.yul\":1873:1927   */\n      and\n        /* \"#utility.yul\":1862:1927   */\n      swap1\n      pop\n        /* \"#utility.yul\":1807:1933   */\n      swap2\n      swap1\n      pop\n      jump\t// out\n        /* \"#utility.yul\":1939:2035   */\n    tag_68:\n        /* \"#utility.yul\":1976:1983   */\n      0x00\n        /* \"#utility.yul\":2005:2029   */\n      tag_116\n        /* \"#utility.yul\":2023:2028   */\n      dup3\n        /* \"#utility.yul\":2005:2029   */\n      tag_67\n      jump\t// in\n    tag_116:\n        /* \"#utility.yul\":1994:2029   */\n      swap1\n      pop\n        /* \"#utility.yul\":1939:2035   */\n      swap2\n      swap1\n      pop\n      jump\t// out\n        /* \"#utility.yul\":2041:2163   */\n    tag_69:\n        /* \"#utility.yul\":2114:2138   */\n      tag_118\n        /* \"#utility.yul\":2132:2137   */\n      dup2\n        /* \"#utility.yul\":2114:2138   */\n      tag_68\n      jump\t// in\n    tag_118:\n        /* \"#utility.yul\":2107:2112   */\n      dup2\n        /* \"#utility.yul\":2104:2139   */\n      eq\n        /* \"#utility.yul\":2094:2157   */\n      tag_119\n      jumpi\n        /* \"#utility.yul\":2153:2154   */\n      0x00\n        /* \"#utility.yul\":2150:2151   */\n      dup1\n        /* \"#utility.yul\":2143:2155   */\n      revert\n        /* \"#utility.yul\":2094:2157   */\n    tag_119:\n        /* \"#utility.yul\":2041:2163   */\n      pop\n      jump\t// out\n        /* \"#utility.yul\":2169:2308   */\n    tag_70:\n        /* \"#utility.yul\":2215:2220   */\n      0x00\n        /* \"#utility.yul\":2253:2259   */\n      dup2\n        /* \"#utility.yul\":2240:2260   */\n      calldataload\n        /* \"#utility.yul\":2231:2260   */\n      swap1\n      pop\n        /* \"#utility.yul\":2269:2302   */\n      tag_121\n        /* \"#utility.yul\":2296:2301   */\n      dup2\n        /* \"#utility.yul\":2269:2302   */\n      tag_69\n      jump\t// in\n    tag_121:\n        /* \"#utility.yul\":2169:2308   */\n      swap3\n      swap2\n      pop\n      pop\n      jump\t// out\n        /* \"#utility.yul\":2314:2643   */\n    tag_23:\n        /* \"#utility.yul\":2373:2379   */\n      0x00\n        /* \"#utility.yul\":2422:2424   */\n      0x20\n        /* \"#utility.yul\":2410:2419   */\n      dup3\n        /* \"#utility.yul\":2401:2408   */\n      dup5\n        /* \"#utility.yul\":2397:2420   */\n      sub\n        /* \"#utility.yul\":2393:2425   */\n      slt\n        /* \"#utility.yul\":2390:2509   */\n      iszero\n      tag_123\n      jumpi\n        /* \"#utility.yul\":2428:2507   */\n      tag_124\n      tag_59\n      jump\t// in\n    tag_124:\n        /* \"#utility.yul\":2390:2509   */\n    tag_123:\n        /* \"#utility.yul\":2548:2549   */\n      0x00\n        /* \"#utility.yul\":2573:2626   */\n      tag_125\n        /* \"#utility.yul\":2618:2625   */\n      dup5\n        /* \"#utility.yul\":2609:2615   */\n      dup3\n        /* \"#utility.yul\":2598:2607   */\n      dup6\n        /* \"#utility.yul\":2594:2616   */\n      add\n        /* \"#utility.yul\":2573:2626   */\n      tag_70\n      jump\t// in\n    tag_125:\n        /* \"#utility.yul\":2563:2626   */\n      swap2\n      pop\n        /* \"#utility.yul\":2519:2636   */\n      pop\n        /* \"#utility.yul\":2314:2643   */\n      swap3\n      swap2\n      pop\n      pop\n      jump\t// out\n        /* \"#utility.yul\":2649:2750   */\n    tag_71:\n        /* \"#utility.yul\":2685:2692   */\n      0x00\n        /* \"#utility.yul\":2725:2743   */\n      0xffffffffffffffff\n        /* \"#utility.yul\":2718:2723   */\n      dup3\n        /* \"#utility.yul\":2714:2744   */\n      and\n        /* \"#utility.yul\":2703:2744   */\n      swap1\n      pop\n        /* \"#utility.yul\":2649:2750   */\n      swap2\n      swap1\n      pop\n      jump\t// out\n        /* \"#utility.yul\":2756:2871   */\n    tag_72:\n        /* \"#utility.yul\":2841:2864   */\n      tag_128\n        /* \"#utility.yul\":2858:2863   */\n      dup2\n        /* \"#utility.yul\":2841:2864   */\n      tag_71\n      jump\t// in\n    tag_128:\n        /* \"#utility.yul\":2836:2839   */\n      dup3\n        /* \"#utility.yul\":2829:2865   */\n      mstore\n        /* \"#utility.yul\":2756:2871   */\n      pop\n      pop\n      jump\t// out\n        /* \"#utility.yul\":2877:2967   */\n    tag_73:\n        /* \"#utility.yul\":2911:2918   */\n      0x00\n        /* \"#utility.yul\":2954:2959   */\n      dup2\n        /* \"#utility.yul\":2947:2960   */\n      iszero\n        /* \"#utility.yul\":2940:2961   */\n      iszero\n        /* \"#utility.yul\":2929:2961   */\n      swap1\n      pop\n        /* \"#utility.yul\":2877:2967   */\n      swap2\n      swap1\n      pop\n      jump\t// out\n        /* \"#utility.yul\":2973:3082   */\n    tag_74:\n        /* \"#utility.yul\":3054:3075   */\n      tag_131\n        /* \"#utility.yul\":3069:3074   */\n      dup2\n        /* \"#utility.yul\":3054:3075   */\n      tag_73\n      jump\t// in\n    tag_131:\n        /* \"#utility.yul\":3049:3052   */\n      dup3\n        /* \"#utility.yul\":3042:3076   */\n      mstore\n        /* \"#utility.yul\":2973:3082   */\n      pop\n      pop\n      jump\t// out\n        /* \"#utility.yul\":3088:3514   */\n    tag_26:\n        /* \"#utility.yul\":3229:3233   */\n      0x00\n        /* \"#utility.yul\":3267:3269   */\n      0x60\n        /* \"#utility.yul\":3256:3265   */\n      dup3\n        /* \"#utility.yul\":3252:3270   */\n      add\n        /* \"#utility.yul\":3244:3270   */\n      swap1\n      pop\n        /* \"#utility.yul\":3280:3351   */\n      tag_133\n        /* \"#utility.yul\":3348:3349   */\n      0x00\n        /* \"#utility.yul\":3337:3346   */\n      dup4\n        /* \"#utility.yul\":3333:3350   */\n      add\n        /* \"#utility.yul\":3324:3330   */\n      dup7\n        /* \"#utility.yul\":3280:3351   */\n      tag_64\n      jump\t// in\n    tag_133:\n        /* \"#utility.yul\":3361:3431   */\n      tag_134\n        /* \"#utility.yul\":3427:3429   */\n      0x20\n        /* \"#utility.yul\":3416:3425   */\n      dup4\n        /* \"#utility.yul\":3412:3430   */\n      add\n        /* \"#utility.yul\":3403:3409   */\n      dup6\n        /* \"#utility.yul\":3361:3431   */\n      tag_72\n      jump\t// in\n    tag_134:\n        /* \"#utility.yul\":3441:3507   */\n      tag_135\n        /* \"#utility.yul\":3503:3505   */\n      0x40\n        /* \"#utility.yul\":3492:3501   */\n      dup4\n        /* \"#utility.yul\":3488:3506   */\n      add\n        /* \"#utility.yul\":3479:3485   */\n      dup5\n        /* \"#utility.yul\":3441:3507   */\n      tag_74\n      jump\t// in\n    tag_135:\n        /* \"#utility.yul\":3088:3514   */\n      swap5\n      swap4\n      pop\n      pop\n      pop\n      pop\n      jump\t// out\n        /* \"#utility.yul\":3520:3599   */\n    tag_75:\n        /* \"#utility.yul\":3559:3566   */\n      0x00\n        /* \"#utility.yul\":3588:3593   */\n      dup2\n        /* \"#utility.yul\":3577:3593   */\n      swap1\n      pop\n        /* \"#utility.yul\":3520:3599   */\n      swap2\n      swap1\n      pop\n      jump\t// out\n        /* \"#utility.yul\":3605:3762   */\n    tag_76:\n        /* \"#utility.yul\":3710:3755   */\n      tag_138\n        /* \"#utility.yul\":3730:3754   */\n      tag_139\n        /* \"#utility.yul\":3748:3753   */\n      dup3\n        /* \"#utility.yul\":3730:3754   */\n      tag_61\n      jump\t// in\n    tag_139:\n        /* \"#utility.yul\":3710:3755   */\n      tag_75\n      jump\t// in\n    tag_138:\n        /* \"#utility.yul\":3705:3708   */\n      dup3\n        /* \"#utility.yul\":3698:3756   */\n      mstore\n        /* \"#utility.yul\":3605:3762   */\n      pop\n      pop\n      jump\t// out\n        /* \"#utility.yul\":3768:4024   */\n    tag_32:\n        /* \"#utility.yul\":3880:3883   */\n      0x00\n        /* \"#utility.yul\":3895:3970   */\n      tag_141\n        /* \"#utility.yul\":3966:3969   */\n      dup3\n        /* \"#utility.yul\":3957:3963   */\n      dup5\n        /* \"#utility.yul\":3895:3970   */\n      tag_76\n      jump\t// in\n    tag_141:\n        /* \"#utility.yul\":3995:3997   */\n      0x20\n        /* \"#utility.yul\":3990:3993   */\n      dup3\n        /* \"#utility.yul\":3986:3998   */\n      add\n        /* \"#utility.yul\":3979:3998   */\n      swap2\n      pop\n        /* \"#utility.yul\":4015:4018   */\n      dup2\n        /* \"#utility.yul\":4008:4018   */\n      swap1\n      pop\n        /* \"#utility.yul\":3768:4024   */\n      swap3\n      swap2\n      pop\n      pop\n      jump\t// out\n        /* \"#utility.yul\":4030:4199   */\n    tag_77:\n        /* \"#utility.yul\":4114:4125   */\n      0x00\n        /* \"#utility.yul\":4148:4154   */\n      dup3\n        /* \"#utility.yul\":4143:4146   */\n      dup3\n        /* \"#utility.yul\":4136:4155   */\n      mstore\n        /* \"#utility.yul\":4188:4192   */\n      0x20\n        /* \"#utility.yul\":4183:4186   */\n      dup3\n        /* \"#utility.yul\":4179:4193   */\n      add\n        /* \"#utility.yul\":4164:4193   */\n      swap1\n      pop\n        /* \"#utility.yul\":4030:4199   */\n      swap3\n      swap2\n      pop\n      pop\n      jump\t// out\n        /* \"#utility.yul\":4205:4430   */\n    tag_78:\n        /* \"#utility.yul\":4345:4379   */\n      0x436f6d6d697452657665616c3a3a72657665616c3a20416c7265616479207265\n        /* \"#utility.yul\":4341:4342   */\n      0x00\n        /* \"#utility.yul\":4333:4339   */\n      dup3\n        /* \"#utility.yul\":4329:4343   */\n      add\n        /* \"#utility.yul\":4322:4380   */\n      mstore\n        /* \"#utility.yul\":4414:4422   */\n      0x7665616c65640000000000000000000000000000000000000000000000000000\n        /* \"#utility.yul\":4409:4411   */\n      0x20\n        /* \"#utility.yul\":4401:4407   */\n      dup3\n        /* \"#utility.yul\":4397:4412   */\n      add\n        /* \"#utility.yul\":4390:4423   */\n      mstore\n        /* \"#utility.yul\":4205:4430   */\n      pop\n      jump\t// out\n        /* \"#utility.yul\":4436:4802   */\n    tag_79:\n        /* \"#utility.yul\":4578:4581   */\n      0x00\n        /* \"#utility.yul\":4599:4666   */\n      tag_145\n        /* \"#utility.yul\":4663:4665   */\n      0x26\n        /* \"#utility.yul\":4658:4661   */\n      dup4\n        /* \"#utility.yul\":4599:4666   */\n      tag_77\n      jump\t// in\n    tag_145:\n        /* \"#utility.yul\":4592:4666   */\n      swap2\n      pop\n        /* \"#utility.yul\":4675:4768   */\n      tag_146\n        /* \"#utility.yul\":4764:4767   */\n      dup3\n        /* \"#utility.yul\":4675:4768   */\n      tag_78\n      jump\t// in\n    tag_146:\n        /* \"#utility.yul\":4793:4795   */\n      0x40\n        /* \"#utility.yul\":4788:4791   */\n      dup3\n        /* \"#utility.yul\":4784:4796   */\n      add\n        /* \"#utility.yul\":4777:4796   */\n      swap1\n      pop\n        /* \"#utility.yul\":4436:4802   */\n      swap2\n      swap1\n      pop\n      jump\t// out\n        /* \"#utility.yul\":4808:5227   */\n    tag_36:\n        /* \"#utility.yul\":4974:4978   */\n      0x00\n        /* \"#utility.yul\":5012:5014   */\n      0x20\n        /* \"#utility.yul\":5001:5010   */\n      dup3\n        /* \"#utility.yul\":4997:5015   */\n      add\n        /* \"#utility.yul\":4989:5015   */\n      swap1\n      pop\n        /* \"#utility.yul\":5061:5070   */\n      dup2\n        /* \"#utility.yul\":5055:5059   */\n      dup2\n        /* \"#utility.yul\":5051:5071   */\n      sub\n        /* \"#utility.yul\":5047:5048   */\n      0x00\n        /* \"#utility.yul\":5036:5045   */\n      dup4\n        /* \"#utility.yul\":5032:5049   */\n      add\n        /* \"#utility.yul\":5025:5072   */\n      mstore\n        /* \"#utility.yul\":5089:5220   */\n      tag_148\n        /* \"#utility.yul\":5215:5219   */\n      dup2\n        /* \"#utility.yul\":5089:5220   */\n      tag_79\n      jump\t// in\n    tag_148:\n        /* \"#utility.yul\":5081:5220   */\n      swap1\n      pop\n        /* \"#utility.yul\":4808:5227   */\n      swap2\n      swap1\n      pop\n      jump\t// out\n        /* \"#utility.yul\":5233:5477   */\n    tag_80:\n        /* \"#utility.yul\":5373:5407   */\n      0x436f6d6d697452657665616c3a3a72657665616c3a2052657665616c65642068\n        /* \"#utility.yul\":5369:5370   */\n      0x00\n        /* \"#utility.yul\":5361:5367   */\n      dup3\n        /* \"#utility.yul\":5357:5371   */\n      add\n        /* \"#utility.yul\":5350:5408   */\n      mstore\n        /* \"#utility.yul\":5442:5469   */\n      0x61736820646f6573206e6f74206d6174636820636f6d6d697400000000000000\n        /* \"#utility.yul\":5437:5439   */\n      0x20\n        /* \"#utility.yul\":5429:5435   */\n      dup3\n        /* \"#utility.yul\":5425:5440   */\n      add\n        /* \"#utility.yul\":5418:5470   */\n      mstore\n        /* \"#utility.yul\":5233:5477   */\n      pop\n      jump\t// out\n        /* \"#utility.yul\":5483:5849   */\n    tag_81:\n        /* \"#utility.yul\":5625:5628   */\n      0x00\n        /* \"#utility.yul\":5646:5713   */\n      tag_151\n        /* \"#utility.yul\":5710:5712   */\n      0x39\n        /* \"#utility.yul\":5705:5708   */\n      dup4\n        /* \"#utility.yul\":5646:5713   */\n      tag_77\n      jump\t// in\n    tag_151:\n        /* \"#utility.yul\":5639:5713   */\n      swap2\n      pop\n        /* \"#utility.yul\":5722:5815   */\n      tag_152\n        /* \"#utility.yul\":5811:5814   */\n      dup3\n        /* \"#utility.yul\":5722:5815   */\n      tag_80\n      jump\t// in\n    tag_152:\n        /* \"#utility.yul\":5840:5842   */\n      0x40\n        /* \"#utility.yul\":5835:5838   */\n      dup3\n        /* \"#utility.yul\":5831:5843   */\n      add\n        /* \"#utility.yul\":5824:5843   */\n      swap1\n      pop\n        /* \"#utility.yul\":5483:5849   */\n      swap2\n      swap1\n      pop\n      jump\t// out\n        /* \"#utility.yul\":5855:6274   */\n    tag_40:\n        /* \"#utility.yul\":6021:6025   */\n      0x00\n        /* \"#utility.yul\":6059:6061   */\n      0x20\n        /* \"#utility.yul\":6048:6057   */\n      dup3\n        /* \"#utility.yul\":6044:6062   */\n      add\n        /* \"#utility.yul\":6036:6062   */\n      swap1\n      pop\n        /* \"#utility.yul\":6108:6117   */\n      dup2\n        /* \"#utility.yul\":6102:6106   */\n      dup2\n        /* \"#utility.yul\":6098:6118   */\n      sub\n        /* \"#utility.yul\":6094:6095   */\n      0x00\n        /* \"#utility.yul\":6083:6092   */\n      dup4\n        /* \"#utility.yul\":6079:6096   */\n      add\n        /* \"#utility.yul\":6072:6119   */\n      mstore\n        /* \"#utility.yul\":6136:6267   */\n      tag_154\n        /* \"#utility.yul\":6262:6266   */\n      dup2\n        /* \"#utility.yul\":6136:6267   */\n      tag_81\n      jump\t// in\n    tag_154:\n        /* \"#utility.yul\":6128:6267   */\n      swap1\n      pop\n        /* \"#utility.yul\":5855:6274   */\n      swap2\n      swap1\n      pop\n      jump\t// out\n        /* \"#utility.yul\":6280:6570   */\n    tag_82:\n        /* \"#utility.yul\":6420:6454   */\n      0x436f6d6d697452657665616c3a3a72657665616c3a2052657665616c20616e64\n        /* \"#utility.yul\":6416:6417   */\n      0x00\n        /* \"#utility.yul\":6408:6414   */\n      dup3\n        /* \"#utility.yul\":6404:6418   */\n      add\n        /* \"#utility.yul\":6397:6455   */\n      mstore\n        /* \"#utility.yul\":6489:6523   */\n      0x20636f6d6d69742068617070656e6564206f6e207468652073616d6520626c6f\n        /* \"#utility.yul\":6484:6486   */\n      0x20\n        /* \"#utility.yul\":6476:6482   */\n      dup3\n        /* \"#utility.yul\":6472:6487   */\n      add\n        /* \"#utility.yul\":6465:6524   */\n      mstore\n        /* \"#utility.yul\":6558:6562   */\n      0x636b000000000000000000000000000000000000000000000000000000000000\n        /* \"#utility.yul\":6553:6555   */\n      0x40\n        /* \"#utility.yul\":6545:6551   */\n      dup3\n        /* \"#utility.yul\":6541:6556   */\n      add\n        /* \"#utility.yul\":6534:6563   */\n      mstore\n        /* \"#utility.yul\":6280:6570   */\n      pop\n      jump\t// out\n        /* \"#utility.yul\":6576:6942   */\n    tag_83:\n        /* \"#utility.yul\":6718:6721   */\n      0x00\n        /* \"#utility.yul\":6739:6806   */\n      tag_157\n        /* \"#utility.yul\":6803:6805   */\n      0x42\n        /* \"#utility.yul\":6798:6801   */\n      dup4\n        /* \"#utility.yul\":6739:6806   */\n      tag_77\n      jump\t// in\n    tag_157:\n        /* \"#utility.yul\":6732:6806   */\n      swap2\n      pop\n        /* \"#utility.yul\":6815:6908   */\n      tag_158\n        /* \"#utility.yul\":6904:6907   */\n      dup3\n        /* \"#utility.yul\":6815:6908   */\n      tag_82\n      jump\t// in\n    tag_158:\n        /* \"#utility.yul\":6933:6935   */\n      0x60\n        /* \"#utility.yul\":6928:6931   */\n      dup3\n        /* \"#utility.yul\":6924:6936   */\n      add\n        /* \"#utility.yul\":6917:6936   */\n      swap1\n      pop\n        /* \"#utility.yul\":6576:6942   */\n      swap2\n      swap1\n      pop\n      jump\t// out\n        /* \"#utility.yul\":6948:7367   */\n    tag_43:\n        /* \"#utility.yul\":7114:7118   */\n      0x00\n        /* \"#utility.yul\":7152:7154   */\n      0x20\n        /* \"#utility.yul\":7141:7150   */\n      dup3\n        /* \"#utility.yul\":7137:7155   */\n      add\n        /* \"#utility.yul\":7129:7155   */\n      swap1\n      pop\n        /* \"#utility.yul\":7201:7210   */\n      dup2\n        /* \"#utility.yul\":7195:7199   */\n      dup2\n        /* \"#utility.yul\":7191:7211   */\n      sub\n        /* \"#utility.yul\":7187:7188   */\n      0x00\n        /* \"#utility.yul\":7176:7185   */\n      dup4\n        /* \"#utility.yul\":7172:7189   */\n      add\n        /* \"#utility.yul\":7165:7212   */\n      mstore\n        /* \"#utility.yul\":7229:7360   */\n      tag_160\n        /* \"#utility.yul\":7355:7359   */\n      dup2\n        /* \"#utility.yul\":7229:7360   */\n      tag_83\n      jump\t// in\n    tag_160:\n        /* \"#utility.yul\":7221:7360   */\n      swap1\n      pop\n        /* \"#utility.yul\":6948:7367   */\n      swap2\n      swap1\n      pop\n      jump\t// out\n        /* \"#utility.yul\":7373:7553   */\n    tag_84:\n        /* \"#utility.yul\":7421:7498   */\n      0x4e487b7100000000000000000000000000000000000000000000000000000000\n        /* \"#utility.yul\":7418:7419   */\n      0x00\n        /* \"#utility.yul\":7411:7499   */\n      mstore\n        /* \"#utility.yul\":7518:7522   */\n      0x11\n        /* \"#utility.yul\":7515:7516   */\n      0x04\n        /* \"#utility.yul\":7508:7523   */\n      mstore\n        /* \"#utility.yul\":7542:7546   */\n      0x24\n        /* \"#utility.yul\":7539:7540   */\n      0x00\n        /* \"#utility.yul\":7532:7547   */\n      revert\n        /* \"#utility.yul\":7559:7764   */\n    tag_45:\n        /* \"#utility.yul\":7598:7601   */\n      0x00\n        /* \"#utility.yul\":7617:7636   */\n      tag_163\n        /* \"#utility.yul\":7634:7635   */\n      dup3\n        /* \"#utility.yul\":7617:7636   */\n      tag_71\n      jump\t// in\n    tag_163:\n        /* \"#utility.yul\":7612:7636   */\n      swap2\n      pop\n        /* \"#utility.yul\":7650:7669   */\n      tag_164\n        /* \"#utility.yul\":7667:7668   */\n      dup4\n        /* \"#utility.yul\":7650:7669   */\n      tag_71\n      jump\t// in\n    tag_164:\n        /* \"#utility.yul\":7645:7669   */\n      swap3\n      pop\n        /* \"#utility.yul\":7692:7693   */\n      dup3\n        /* \"#utility.yul\":7689:7690   */\n      dup3\n        /* \"#utility.yul\":7685:7694   */\n      add\n        /* \"#utility.yul\":7678:7694   */\n      swap1\n      pop\n        /* \"#utility.yul\":7715:7733   */\n      0xffffffffffffffff\n        /* \"#utility.yul\":7710:7713   */\n      dup2\n        /* \"#utility.yul\":7707:7734   */\n      gt\n        /* \"#utility.yul\":7704:7757   */\n      iszero\n      tag_165\n      jumpi\n        /* \"#utility.yul\":7737:7755   */\n      tag_166\n      tag_84\n      jump\t// in\n    tag_166:\n        /* \"#utility.yul\":7704:7757   */\n    tag_165:\n        /* \"#utility.yul\":7559:7764   */\n      swap3\n      swap2\n      pop\n      pop\n      jump\t// out\n        /* \"#utility.yul\":7770:7996   */\n    tag_85:\n        /* \"#utility.yul\":7910:7944   */\n      0x436f6d6d697452657665616c3a3a72657665616c3a2052657665616c65642074\n        /* \"#utility.yul\":7906:7907   */\n      0x00\n        /* \"#utility.yul\":7898:7904   */\n      dup3\n        /* \"#utility.yul\":7894:7908   */\n      add\n        /* \"#utility.yul\":7887:7945   */\n      mstore\n        /* \"#utility.yul\":7979:7988   */\n      0x6f6f206c61746500000000000000000000000000000000000000000000000000\n        /* \"#utility.yul\":7974:7976   */\n      0x20\n        /* \"#utility.yul\":7966:7972   */\n      dup3\n        /* \"#utility.yul\":7962:7977   */\n      add\n        /* \"#utility.yul\":7955:7989   */\n      mstore\n        /* \"#utility.yul\":7770:7996   */\n      pop\n      jump\t// out\n        /* \"#utility.yul\":8002:8368   */\n    tag_86:\n        /* \"#utility.yul\":8144:8147   */\n      0x00\n        /* \"#utility.yul\":8165:8232   */\n      tag_169\n        /* \"#utility.yul\":8229:8231   */\n      0x27\n        /* \"#utility.yul\":8224:8227   */\n      dup4\n        /* \"#utility.yul\":8165:8232   */\n      tag_77\n      jump\t// in\n    tag_169:\n        /* \"#utility.yul\":8158:8232   */\n      swap2\n      pop\n        /* \"#utility.yul\":8241:8334   */\n      tag_170\n        /* \"#utility.yul\":8330:8333   */\n      dup3\n        /* \"#utility.yul\":8241:8334   */\n      tag_85\n      jump\t// in\n    tag_170:\n        /* \"#utility.yul\":8359:8361   */\n      0x40\n        /* \"#utility.yul\":8354:8357   */\n      dup3\n        /* \"#utility.yul\":8350:8362   */\n      add\n        /* \"#utility.yul\":8343:8362   */\n      swap1\n      pop\n        /* \"#utility.yul\":8002:8368   */\n      swap2\n      swap1\n      pop\n      jump\t// out\n        /* \"#utility.yul\":8374:8793   */\n    tag_48:\n        /* \"#utility.yul\":8540:8544   */\n      0x00\n        /* \"#utility.yul\":8578:8580   */\n      0x20\n        /* \"#utility.yul\":8567:8576   */\n      dup3\n        /* \"#utility.yul\":8563:8581   */\n      add\n        /* \"#utility.yul\":8555:8581   */\n      swap1\n      pop\n        /* \"#utility.yul\":8627:8636   */\n      dup2\n        /* \"#utility.yul\":8621:8625   */\n      dup2\n        /* \"#utility.yul\":8617:8637   */\n      sub\n        /* \"#utility.yul\":8613:8614   */\n      0x00\n        /* \"#utility.yul\":8602:8611   */\n      dup4\n        /* \"#utility.yul\":8598:8615   */\n      add\n        /* \"#utility.yul\":8591:8638   */\n      mstore\n        /* \"#utility.yul\":8655:8786   */\n      tag_172\n        /* \"#utility.yul\":8781:8785   */\n      dup2\n        /* \"#utility.yul\":8655:8786   */\n      tag_86\n      jump\t// in\n    tag_172:\n        /* \"#utility.yul\":8647:8786   */\n      swap1\n      pop\n        /* \"#utility.yul\":8374:8793   */\n      swap2\n      swap1\n      pop\n      jump\t// out\n        /* \"#utility.yul\":8799:9196   */\n    tag_50:\n        /* \"#utility.yul\":8939:8942   */\n      0x00\n        /* \"#utility.yul\":8954:9029   */\n      tag_174\n        /* \"#utility.yul\":9025:9028   */\n      dup3\n        /* \"#utility.yul\":9016:9022   */\n      dup6\n        /* \"#utility.yul\":8954:9029   */\n      tag_76\n      jump\t// in\n    tag_174:\n        /* \"#utility.yul\":9054:9056   */\n      0x20\n        /* \"#utility.yul\":9049:9052   */\n      dup3\n        /* \"#utility.yul\":9045:9057   */\n      add\n        /* \"#utility.yul\":9038:9057   */\n      swap2\n      pop\n        /* \"#utility.yul\":9067:9142   */\n      tag_175\n        /* \"#utility.yul\":9138:9141   */\n      dup3\n        /* \"#utility.yul\":9129:9135   */\n      dup5\n        /* \"#utility.yul\":9067:9142   */\n      tag_76\n      jump\t// in\n    tag_175:\n        /* \"#utility.yul\":9167:9169   */\n      0x20\n        /* \"#utility.yul\":9162:9165   */\n      dup3\n        /* \"#utility.yul\":9158:9170   */\n      add\n        /* \"#utility.yul\":9151:9170   */\n      swap2\n      pop\n        /* \"#utility.yul\":9187:9190   */\n      dup2\n        /* \"#utility.yul\":9180:9190   */\n      swap1\n      pop\n        /* \"#utility.yul\":8799:9196   */\n      swap4\n      swap3\n      pop\n      pop\n      pop\n      jump\t// out\n        /* \"#utility.yul\":9202:9279   */\n    tag_87:\n        /* \"#utility.yul\":9239:9246   */\n      0x00\n        /* \"#utility.yul\":9268:9273   */\n      dup2\n        /* \"#utility.yul\":9257:9273   */\n      swap1\n      pop\n        /* \"#utility.yul\":9202:9279   */\n      swap2\n      swap1\n      pop\n      jump\t// out\n        /* \"#utility.yul\":9285:9465   */\n    tag_88:\n        /* \"#utility.yul\":9333:9410   */\n      0x4e487b7100000000000000000000000000000000000000000000000000000000\n        /* \"#utility.yul\":9330:9331   */\n      0x00\n        /* \"#utility.yul\":9323:9411   */\n      mstore\n        /* \"#utility.yul\":9430:9434   */\n      0x12\n        /* \"#utility.yul\":9427:9428   */\n      0x04\n        /* \"#utility.yul\":9420:9435   */\n      mstore\n        /* \"#utility.yul\":9454:9458   */\n      0x24\n        /* \"#utility.yul\":9451:9452   */\n      0x00\n        /* \"#utility.yul\":9444:9459   */\n      revert\n        /* \"#utility.yul\":9471:9647   */\n    tag_52:\n        /* \"#utility.yul\":9503:9504   */\n      0x00\n        /* \"#utility.yul\":9520:9540   */\n      tag_179\n        /* \"#utility.yul\":9538:9539   */\n      dup3\n        /* \"#utility.yul\":9520:9540   */\n      tag_87\n      jump\t// in\n    tag_179:\n        /* \"#utility.yul\":9515:9540   */\n      swap2\n      pop\n        /* \"#utility.yul\":9554:9574   */\n      tag_180\n        /* \"#utility.yul\":9572:9573   */\n      dup4\n        /* \"#utility.yul\":9554:9574   */\n      tag_87\n      jump\t// in\n    tag_180:\n        /* \"#utility.yul\":9549:9574   */\n      swap3\n      pop\n        /* \"#utility.yul\":9593:9594   */\n      dup3\n        /* \"#utility.yul\":9583:9618   */\n      tag_181\n      jumpi\n        /* \"#utility.yul\":9598:9616   */\n      tag_182\n      tag_88\n      jump\t// in\n    tag_182:\n        /* \"#utility.yul\":9583:9618   */\n    tag_181:\n        /* \"#utility.yul\":9639:9640   */\n      dup3\n        /* \"#utility.yul\":9636:9637   */\n      dup3\n        /* \"#utility.yul\":9632:9641   */\n      mod\n        /* \"#utility.yul\":9627:9641   */\n      swap1\n      pop\n        /* \"#utility.yul\":9471:9647   */\n      swap3\n      swap2\n      pop\n      pop\n      jump\t// out\n        /* \"#utility.yul\":9653:9771   */\n    tag_89:\n        /* \"#utility.yul\":9740:9764   */\n      tag_184\n        /* \"#utility.yul\":9758:9763   */\n      dup2\n        /* \"#utility.yul\":9740:9764   */\n      tag_68\n      jump\t// in\n    tag_184:\n        /* \"#utility.yul\":9735:9738   */\n      dup3\n        /* \"#utility.yul\":9728:9765   */\n      mstore\n        /* \"#utility.yul\":9653:9771   */\n      pop\n      pop\n      jump\t// out\n        /* \"#utility.yul\":9777:9895   */\n    tag_90:\n        /* \"#utility.yul\":9864:9888   */\n      tag_186\n        /* \"#utility.yul\":9882:9887   */\n      dup2\n        /* \"#utility.yul\":9864:9888   */\n      tag_87\n      jump\t// in\n    tag_186:\n        /* \"#utility.yul\":9859:9862   */\n      dup3\n        /* \"#utility.yul\":9852:9889   */\n      mstore\n        /* \"#utility.yul\":9777:9895   */\n      pop\n      pop\n      jump\t// out\n        /* \"#utility.yul\":9901:10343   */\n    tag_54:\n        /* \"#utility.yul\":10050:10054   */\n      0x00\n        /* \"#utility.yul\":10088:10090   */\n      0x60\n        /* \"#utility.yul\":10077:10086   */\n      dup3\n        /* \"#utility.yul\":10073:10091   */\n      add\n        /* \"#utility.yul\":10065:10091   */\n      swap1\n      pop\n        /* \"#utility.yul\":10101:10172   */\n      tag_188\n        /* \"#utility.yul\":10169:10170   */\n      0x00\n        /* \"#utility.yul\":10158:10167   */\n      dup4\n        /* \"#utility.yul\":10154:10171   */\n      add\n        /* \"#utility.yul\":10145:10151   */\n      dup7\n        /* \"#utility.yul\":10101:10172   */\n      tag_89\n      jump\t// in\n    tag_188:\n        /* \"#utility.yul\":10182:10254   */\n      tag_189\n        /* \"#utility.yul\":10250:10252   */\n      0x20\n        /* \"#utility.yul\":10239:10248   */\n      dup4\n        /* \"#utility.yul\":10235:10253   */\n      add\n        /* \"#utility.yul\":10226:10232   */\n      dup6\n        /* \"#utility.yul\":10182:10254   */\n      tag_64\n      jump\t// in\n    tag_189:\n        /* \"#utility.yul\":10264:10336   */\n      tag_190\n        /* \"#utility.yul\":10332:10334   */\n      0x40\n        /* \"#utility.yul\":10321:10330   */\n      dup4\n        /* \"#utility.yul\":10317:10335   */\n      add\n        /* \"#utility.yul\":10308:10314   */\n      dup5\n        /* \"#utility.yul\":10264:10336   */\n      tag_90\n      jump\t// in\n    tag_190:\n        /* \"#utility.yul\":9901:10343   */\n      swap5\n      swap4\n      pop\n      pop\n      pop\n      pop\n      jump\t// out\n        /* \"#utility.yul\":10349:10787   */\n    tag_57:\n        /* \"#utility.yul\":10496:10500   */\n      0x00\n        /* \"#utility.yul\":10534:10536   */\n      0x60\n        /* \"#utility.yul\":10523:10532   */\n      dup3\n        /* \"#utility.yul\":10519:10537   */\n      add\n        /* \"#utility.yul\":10511:10537   */\n      swap1\n      pop\n        /* \"#utility.yul\":10547:10618   */\n      tag_192\n        /* \"#utility.yul\":10615:10616   */\n      0x00\n        /* \"#utility.yul\":10604:10613   */\n      dup4\n        /* \"#utility.yul\":10600:10617   */\n      add\n        /* \"#utility.yul\":10591:10597   */\n      dup7\n        /* \"#utility.yul\":10547:10618   */\n      tag_89\n      jump\t// in\n    tag_192:\n        /* \"#utility.yul\":10628:10700   */\n      tag_193\n        /* \"#utility.yul\":10696:10698   */\n      0x20\n        /* \"#utility.yul\":10685:10694   */\n      dup4\n        /* \"#utility.yul\":10681:10699   */\n      add\n        /* \"#utility.yul\":10672:10678   */\n      dup6\n        /* \"#utility.yul\":10628:10700   */\n      tag_64\n      jump\t// in\n    tag_193:\n        /* \"#utility.yul\":10710:10780   */\n      tag_194\n        /* \"#utility.yul\":10776:10778   */\n      0x40\n        /* \"#utility.yul\":10765:10774   */\n      dup4\n        /* \"#utility.yul\":10761:10779   */\n      add\n        /* \"#utility.yul\":10752:10758   */\n      dup5\n        /* \"#utility.yul\":10710:10780   */\n      tag_72\n      jump\t// in\n    tag_194:\n        /* \"#utility.yul\":10349:10787   */\n      swap5\n      swap4\n      pop\n      pop\n      pop\n      pop\n      jump\t// out\n\n    auxdata: 0xa26469706673582212201f6bc272b74731c4306152d5375e5ea516c8b4687c7bf1a6c64c31ea56689b3d64736f6c634300081a0033\n}\n",
				"bytecode": {
					"linkReferences": {},
					"object": "608060405260645f806101000a81548160ff021916908360ff1602179055503480156028575f80fd5b50610d39806100365f395ff3fe608060405234801561000f575f80fd5b5060043610610055575f3560e01c80633cf5040a146100595780636ac5db1914610089578063701fd0f1146100a75780637b43a8e6146100c3578063f14fcbc8146100f5575b5f80fd5b610073600480360381019061006e919061075d565b610111565b6040516100809190610797565b60405180910390f35b610091610140565b60405161009e91906107cb565b60405180910390f35b6100c160048036038101906100bc919061075d565b610150565b005b6100dd60048036038101906100d8919061083e565b61050e565b6040516100ec939291906108a5565b60405180910390f35b61010f600480360381019061010a919061075d565b610554565b005b5f8160405160200161012391906108fa565b604051602081830303815290604052805190602001209050919050565b5f8054906101000a900460ff1681565b5f151560015f3373ffffffffffffffffffffffffffffffffffffffff1673ffffffffffffffffffffffffffffffffffffffff1681526020019081526020015f2060010160089054906101000a900460ff161515146101e3576040517f08c379a00000000000000000000000000000000000000000000000000000000081526004016101da90610994565b60405180910390fd5b6001805f3373ffffffffffffffffffffffffffffffffffffffff1673ffffffffffffffffffffffffffffffffffffffff1681526020019081526020015f2060010160086101000a81548160ff02191690831515021790555060015f3373ffffffffffffffffffffffffffffffffffffffff1673ffffffffffffffffffffffffffffffffffffffff1681526020019081526020015f205f015461028482610111565b146102c4576040517f08c379a00000000000000000000000000000000000000000000000000000000081526004016102bb90610a22565b60405180910390fd5b60015f3373ffffffffffffffffffffffffffffffffffffffff1673ffffffffffffffffffffffffffffffffffffffff1681526020019081526020015f206001015f9054906101000a900467ffffffffffffffff1667ffffffffffffffff164367ffffffffffffffff161161036d576040517f08c379a000000000000000000000000000000000000000000000000000000000815260040161036490610ad6565b60405180910390fd5b60fa60015f3373ffffffffffffffffffffffffffffffffffffffff1673ffffffffffffffffffffffffffffffffffffffff1681526020019081526020015f206001015f9054906101000a900467ffffffffffffffff166103cd9190610b21565b67ffffffffffffffff164367ffffffffffffffff161115610423576040517f08c379a000000000000000000000000000000000000000000000000000000000815260040161041a90610bcc565b60405180910390fd5b5f60015f3373ffffffffffffffffffffffffffffffffffffffff1673ffffffffffffffffffffffffffffffffffffffff1681526020019081526020015f206001015f9054906101000a900467ffffffffffffffff1667ffffffffffffffff164090505f805f9054906101000a900460ff1660ff1682846040516020016104aa929190610bea565b604051602081830303815290604052805190602001205f1c6104cc9190610c4b565b90507fbc016dd1cadeaefcb851af7a0a93532e0023d536894b730801f7bcfe7065bcc233848360405161050193929190610c99565b60405180910390a1505050565b6001602052805f5260405f205f91509050805f015490806001015f9054906101000a900467ffffffffffffffff16908060010160089054906101000a900460ff16905083565b8060015f3373ffffffffffffffffffffffffffffffffffffffff1673ffffffffffffffffffffffffffffffffffffffff1681526020019081526020015f205f01819055504360015f3373ffffffffffffffffffffffffffffffffffffffff1673ffffffffffffffffffffffffffffffffffffffff1681526020019081526020015f206001015f6101000a81548167ffffffffffffffff021916908367ffffffffffffffff1602179055505f60015f3373ffffffffffffffffffffffffffffffffffffffff1673ffffffffffffffffffffffffffffffffffffffff1681526020019081526020015f2060010160086101000a81548160ff0219169083151502179055507f3c1a1f8f38335b17f751c6da4ba7d1865f26b3997535176f5080de9fad8916033360015f3373ffffffffffffffffffffffffffffffffffffffff1673ffffffffffffffffffffffffffffffffffffffff1681526020019081526020015f205f015460015f3373ffffffffffffffffffffffffffffffffffffffff1673ffffffffffffffffffffffffffffffffffffffff1681526020019081526020015f206001015f9054906101000a900467ffffffffffffffff1660405161071b93929190610cce565b60405180910390a150565b5f80fd5b5f819050919050565b61073c8161072a565b8114610746575f80fd5b50565b5f8135905061075781610733565b92915050565b5f6020828403121561077257610771610726565b5b5f61077f84828501610749565b91505092915050565b6107918161072a565b82525050565b5f6020820190506107aa5f830184610788565b92915050565b5f60ff82169050919050565b6107c5816107b0565b82525050565b5f6020820190506107de5f8301846107bc565b92915050565b5f73ffffffffffffffffffffffffffffffffffffffff82169050919050565b5f61080d826107e4565b9050919050565b61081d81610803565b8114610827575f80fd5b50565b5f8135905061083881610814565b92915050565b5f6020828403121561085357610852610726565b5b5f6108608482850161082a565b91505092915050565b5f67ffffffffffffffff82169050919050565b61088581610869565b82525050565b5f8115159050919050565b61089f8161088b565b82525050565b5f6060820190506108b85f830186610788565b6108c5602083018561087c565b6108d26040830184610896565b949350505050565b5f819050919050565b6108f46108ef8261072a565b6108da565b82525050565b5f61090582846108e3565b60208201915081905092915050565b5f82825260208201905092915050565b7f436f6d6d697452657665616c3a3a72657665616c3a20416c72656164792072655f8201527f7665616c65640000000000000000000000000000000000000000000000000000602082015250565b5f61097e602683610914565b915061098982610924565b604082019050919050565b5f6020820190508181035f8301526109ab81610972565b9050919050565b7f436f6d6d697452657665616c3a3a72657665616c3a2052657665616c656420685f8201527f61736820646f6573206e6f74206d6174636820636f6d6d697400000000000000602082015250565b5f610a0c603983610914565b9150610a17826109b2565b604082019050919050565b5f6020820190508181035f830152610a3981610a00565b9050919050565b7f436f6d6d697452657665616c3a3a72657665616c3a2052657665616c20616e645f8201527f20636f6d6d69742068617070656e6564206f6e207468652073616d6520626c6f60208201527f636b000000000000000000000000000000000000000000000000000000000000604082015250565b5f610ac0604283610914565b9150610acb82610a40565b606082019050919050565b5f6020820190508181035f830152610aed81610ab4565b9050919050565b7f4e487b71000000000000000000000000000000000000000000000000000000005f52601160045260245ffd5b5f610b2b82610869565b9150610b3683610869565b9250828201905067ffffffffffffffff811115610b5657610b55610af4565b5b92915050565b7f436f6d6d697452657665616c3a3a72657665616c3a2052657665616c656420745f8201527f6f6f206c61746500000000000000000000000000000000000000000000000000602082015250565b5f610bb6602783610914565b9150610bc182610b5c565b604082019050919050565b5f6020820190508181035f830152610be381610baa565b9050919050565b5f610bf582856108e3565b602082019150610c0582846108e3565b6020820191508190509392505050565b5f819050919050565b7f4e487b71000000000000000000000000000000000000000000000000000000005f52601260045260245ffd5b5f610c5582610c15565b9150610c6083610c15565b925082610c7057610c6f610c1e565b5b828206905092915050565b610c8481610803565b82525050565b610c9381610c15565b82525050565b5f606082019050610cac5f830186610c7b565b610cb96020830185610788565b610cc66040830184610c8a565b949350505050565b5f606082019050610ce15f830186610c7b565b610cee6020830185610788565b610cfb604083018461087c565b94935050505056fea26469706673582212201f6bc272b74731c4306152d5375e5ea516c8b4687c7bf1a6c64c31ea56689b3d64736f6c634300081a0033",
					"opcodes": "PUSH1 0x80 PUSH1 0x40 MSTORE PUSH1 0x64 PUSH0 DUP1 PUSH2 0x100 EXP DUP2 SLOAD DUP2 PUSH1 0xFF MUL NOT AND SWAP1 DUP4 PUSH1 0xFF AND MUL OR SWAP1 SSTORE POP CALLVALUE DUP1 ISZERO PUSH1 0x28 JUMPI PUSH0 DUP1 REVERT JUMPDEST POP PUSH2 0xD39 DUP1 PUSH2 0x36 PUSH0 CODECOPY PUSH0 RETURN INVALID PUSH1 0x80 PUSH1 0x40 MSTORE CALLVALUE DUP1 ISZERO PUSH2 0xF JUMPI PUSH0 DUP1 REVERT JUMPDEST POP PUSH1 0x4 CALLDATASIZE LT PUSH2 0x55 JUMPI PUSH0 CALLDATALOAD PUSH1 0xE0 SHR DUP1 PUSH4 0x3CF5040A EQ PUSH2 0x59 JUMPI DUP1 PUSH4 0x6AC5DB19 EQ PUSH2 0x89 JUMPI DUP1 PUSH4 0x701FD0F1 EQ PUSH2 0xA7 JUMPI DUP1 PUSH4 0x7B43A8E6 EQ PUSH2 0xC3 JUMPI DUP1 PUSH4 0xF14FCBC8 EQ PUSH2 0xF5 JUMPI JUMPDEST PUSH0 DUP1 REVERT JUMPDEST PUSH2 0x73 PUSH1 0x4 DUP1 CALLDATASIZE SUB DUP2 ADD SWAP1 PUSH2 0x6E SWAP2 SWAP1 PUSH2 0x75D JUMP JUMPDEST PUSH2 0x111 JUMP JUMPDEST PUSH1 0x40 MLOAD PUSH2 0x80 SWAP2 SWAP1 PUSH2 0x797 JUMP JUMPDEST PUSH1 0x40 MLOAD DUP1 SWAP2 SUB SWAP1 RETURN JUMPDEST PUSH2 0x91 PUSH2 0x140 JUMP JUMPDEST PUSH1 0x40 MLOAD PUSH2 0x9E SWAP2 SWAP1 PUSH2 0x7CB JUMP JUMPDEST PUSH1 0x40 MLOAD DUP1 SWAP2 SUB SWAP1 RETURN JUMPDEST PUSH2 0xC1 PUSH1 0x4 DUP1 CALLDATASIZE SUB DUP2 ADD SWAP1 PUSH2 0xBC SWAP2 SWAP1 PUSH2 0x75D JUMP JUMPDEST PUSH2 0x150 JUMP JUMPDEST STOP JUMPDEST PUSH2 0xDD PUSH1 0x4 DUP1 CALLDATASIZE SUB DUP2 ADD SWAP1 PUSH2 0xD8 SWAP2 SWAP1 PUSH2 0x83E JUMP JUMPDEST PUSH2 0x50E JUMP JUMPDEST PUSH1 0x40 MLOAD PUSH2 0xEC SWAP4 SWAP3 SWAP2 SWAP1 PUSH2 0x8A5 JUMP JUMPDEST PUSH1 0x40 MLOAD DUP1 SWAP2 SUB SWAP1 RETURN JUMPDEST PUSH2 0x10F PUSH1 0x4 DUP1 CALLDATASIZE SUB DUP2 ADD SWAP1 PUSH2 0x10A SWAP2 SWAP1 PUSH2 0x75D JUMP JUMPDEST PUSH2 0x554 JUMP JUMPDEST STOP JUMPDEST PUSH0 DUP2 PUSH1 0x40 MLOAD PUSH1 0x20 ADD PUSH2 0x123 SWAP2 SWAP1 PUSH2 0x8FA JUMP JUMPDEST PUSH1 0x40 MLOAD PUSH1 0x20 DUP2 DUP4 SUB SUB DUP2 MSTORE SWAP1 PUSH1 0x40 MSTORE DUP1 MLOAD SWAP1 PUSH1 0x20 ADD KECCAK256 SWAP1 POP SWAP2 SWAP1 POP JUMP JUMPDEST PUSH0 DUP1 SLOAD SWAP1 PUSH2 0x100 EXP SWAP1 DIV PUSH1 0xFF AND DUP2 JUMP JUMPDEST PUSH0 ISZERO ISZERO PUSH1 0x1 PUSH0 CALLER PUSH20 0xFFFFFFFFFFFFFFFFFFFFFFFFFFFFFFFFFFFFFFFF AND PUSH20 0xFFFFFFFFFFFFFFFFFFFFFFFFFFFFFFFFFFFFFFFF AND DUP2 MSTORE PUSH1 0x20 ADD SWAP1 DUP2 MSTORE PUSH1 0x20 ADD PUSH0 KECCAK256 PUSH1 0x1 ADD PUSH1 0x8 SWAP1 SLOAD SWAP1 PUSH2 0x100 EXP SWAP1 DIV PUSH1 0xFF AND ISZERO ISZERO EQ PUSH2 0x1E3 JUMPI PUSH1 0x40 MLOAD PUSH32 0x8C379A000000000000000000000000000000000000000000000000000000000 DUP2 MSTORE PUSH1 0x4 ADD PUSH2 0x1DA SWAP1 PUSH2 0x994 JUMP JUMPDEST PUSH1 0x40 MLOAD DUP1 SWAP2 SUB SWAP1 REVERT JUMPDEST PUSH1 0x1 DUP1 PUSH0 CALLER PUSH20 0xFFFFFFFFFFFFFFFFFFFFFFFFFFFFFFFFFFFFFFFF AND PUSH20 0xFFFFFFFFFFFFFFFFFFFFFFFFFFFFFFFFFFFFFFFF AND DUP2 MSTORE PUSH1 0x20 ADD SWAP1 DUP2 MSTORE PUSH1 0x20 ADD PUSH0 KECCAK256 PUSH1 0x1 ADD PUSH1 0x8 PUSH2 0x100 EXP DUP2 SLOAD DUP2 PUSH1 0xFF MUL NOT AND SWAP1 DUP4 ISZERO ISZERO MUL OR SWAP1 SSTORE POP PUSH1 0x1 PUSH0 CALLER PUSH20 0xFFFFFFFFFFFFFFFFFFFFFFFFFFFFFFFFFFFFFFFF AND PUSH20 0xFFFFFFFFFFFFFFFFFFFFFFFFFFFFFFFFFFFFFFFF AND DUP2 MSTORE PUSH1 0x20 ADD SWAP1 DUP2 MSTORE PUSH1 0x20 ADD PUSH0 KECCAK256 PUSH0 ADD SLOAD PUSH2 0x284 DUP3 PUSH2 0x111 JUMP JUMPDEST EQ PUSH2 0x2C4 JUMPI PUSH1 0x40 MLOAD PUSH32 0x8C379A000000000000000000000000000000000000000000000000000000000 DUP2 MSTORE PUSH1 0x4 ADD PUSH2 0x2BB SWAP1 PUSH2 0xA22 JUMP JUMPDEST PUSH1 0x40 MLOAD DUP1 SWAP2 SUB SWAP1 REVERT JUMPDEST PUSH1 0x1 PUSH0 CALLER PUSH20 0xFFFFFFFFFFFFFFFFFFFFFFFFFFFFFFFFFFFFFFFF AND PUSH20 0xFFFFFFFFFFFFFFFFFFFFFFFFFFFFFFFFFFFFFFFF AND DUP2 MSTORE PUSH1 0x20 ADD SWAP1 DUP2 MSTORE PUSH1 0x20 ADD PUSH0 KECCAK256 PUSH1 0x1 ADD PUSH0 SWAP1 SLOAD SWAP1 PUSH2 0x100 EXP SWAP1 DIV PUSH8 0xFFFFFFFFFFFFFFFF AND PUSH8 0xFFFFFFFFFFFFFFFF AND NUMBER PUSH8 0xFFFFFFFFFFFFFFFF AND GT PUSH2 0x36D JUMPI PUSH1 0x40 MLOAD PUSH32 0x8C379A000000000000000000000000000000000000000000000000000000000 DUP2 MSTORE PUSH1 0x4 ADD PUSH2 0x364 SWAP1 PUSH2 0xAD6 JUMP JUMPDEST PUSH1 0x40 MLOAD DUP1 SWAP2 SUB SWAP1 REVERT JUMPDEST PUSH1 0xFA PUSH1 0x1 PUSH0 CALLER PUSH20 0xFFFFFFFFFFFFFFFFFFFFFFFFFFFFFFFFFFFFFFFF AND PUSH20 0xFFFFFFFFFFFFFFFFFFFFFFFFFFFFFFFFFFFFFFFF AND DUP2 MSTORE PUSH1 0x20 ADD SWAP1 DUP2 MSTORE PUSH1 0x20 ADD PUSH0 KECCAK256 PUSH1 0x1 ADD PUSH0 SWAP1 SLOAD SWAP1 PUSH2 0x100 EXP SWAP1 DIV PUSH8 0xFFFFFFFFFFFFFFFF AND PUSH2 0x3CD SWAP2 SWAP1 PUSH2 0xB21 JUMP JUMPDEST PUSH8 0xFFFFFFFFFFFFFFFF AND NUMBER PUSH8 0xFFFFFFFFFFFFFFFF AND GT ISZERO PUSH2 0x423 JUMPI PUSH1 0x40 MLOAD PUSH32 0x8C379A000000000000000000000000000000000000000000000000000000000 DUP2 MSTORE PUSH1 0x4 ADD PUSH2 0x41A SWAP1 PUSH2 0xBCC JUMP JUMPDEST PUSH1 0x40 MLOAD DUP1 SWAP2 SUB SWAP1 REVERT JUMPDEST PUSH0 PUSH1 0x1 PUSH0 CALLER PUSH20 0xFFFFFFFFFFFFFFFFFFFFFFFFFFFFFFFFFFFFFFFF AND PUSH20 0xFFFFFFFFFFFFFFFFFFFFFFFFFFFFFFFFFFFFFFFF AND DUP2 MSTORE PUSH1 0x20 ADD SWAP1 DUP2 MSTORE PUSH1 0x20 ADD PUSH0 KECCAK256 PUSH1 0x1 ADD PUSH0 SWAP1 SLOAD SWAP1 PUSH2 0x100 EXP SWAP1 DIV PUSH8 0xFFFFFFFFFFFFFFFF AND PUSH8 0xFFFFFFFFFFFFFFFF AND BLOCKHASH SWAP1 POP PUSH0 DUP1 PUSH0 SWAP1 SLOAD SWAP1 PUSH2 0x100 EXP SWAP1 DIV PUSH1 0xFF AND PUSH1 0xFF AND DUP3 DUP5 PUSH1 0x40 MLOAD PUSH1 0x20 ADD PUSH2 0x4AA SWAP3 SWAP2 SWAP1 PUSH2 0xBEA JUMP JUMPDEST PUSH1 0x40 MLOAD PUSH1 0x20 DUP2 DUP4 SUB SUB DUP2 MSTORE SWAP1 PUSH1 0x40 MSTORE DUP1 MLOAD SWAP1 PUSH1 0x20 ADD KECCAK256 PUSH0 SHR PUSH2 0x4CC SWAP2 SWAP1 PUSH2 0xC4B JUMP JUMPDEST SWAP1 POP PUSH32 0xBC016DD1CADEAEFCB851AF7A0A93532E0023D536894B730801F7BCFE7065BCC2 CALLER DUP5 DUP4 PUSH1 0x40 MLOAD PUSH2 0x501 SWAP4 SWAP3 SWAP2 SWAP1 PUSH2 0xC99 JUMP JUMPDEST PUSH1 0x40 MLOAD DUP1 SWAP2 SUB SWAP1 LOG1 POP POP POP JUMP JUMPDEST PUSH1 0x1 PUSH1 0x20 MSTORE DUP1 PUSH0 MSTORE PUSH1 0x40 PUSH0 KECCAK256 PUSH0 SWAP2 POP SWAP1 POP DUP1 PUSH0 ADD SLOAD SWAP1 DUP1 PUSH1 0x1 ADD PUSH0 SWAP1 SLOAD SWAP1 PUSH2 0x100 EXP SWAP1 DIV PUSH8 0xFFFFFFFFFFFFFFFF AND SWAP1 DUP1 PUSH1 0x1 ADD PUSH1 0x8 SWAP1 SLOAD SWAP1 PUSH2 0x100 EXP SWAP1 DIV PUSH1 0xFF AND SWAP1 POP DUP4 JUMP JUMPDEST DUP1 PUSH1 0x1 PUSH0 CALLER PUSH20 0xFFFFFFFFFFFFFFFFFFFFFFFFFFFFFFFFFFFFFFFF AND PUSH20 0xFFFFFFFFFFFFFFFFFFFFFFFFFFFFFFFFFFFFFFFF AND DUP2 MSTORE PUSH1 0x20 ADD SWAP1 DUP2 MSTORE PUSH1 0x20 ADD PUSH0 KECCAK256 PUSH0 ADD DUP2 SWAP1 SSTORE POP NUMBER PUSH1 0x1 PUSH0 CALLER PUSH20 0xFFFFFFFFFFFFFFFFFFFFFFFFFFFFFFFFFFFFFFFF AND PUSH20 0xFFFFFFFFFFFFFFFFFFFFFFFFFFFFFFFFFFFFFFFF AND DUP2 MSTORE PUSH1 0x20 ADD SWAP1 DUP2 MSTORE PUSH1 0x20 ADD PUSH0 KECCAK256 PUSH1 0x1 ADD PUSH0 PUSH2 0x100 EXP DUP2 SLOAD DUP2 PUSH8 0xFFFFFFFFFFFFFFFF MUL NOT AND SWAP1 DUP4 PUSH8 0xFFFFFFFFFFFFFFFF AND MUL OR SWAP1 SSTORE POP PUSH0 PUSH1 0x1 PUSH0 CALLER PUSH20 0xFFFFFFFFFFFFFFFFFFFFFFFFFFFFFFFFFFFFFFFF AND PUSH20 0xFFFFFFFFFFFFFFFFFFFFFFFFFFFFFFFFFFFFFFFF AND DUP2 MSTORE PUSH1 0x20 ADD SWAP1 DUP2 MSTORE PUSH1 0x20 ADD PUSH0 KECCAK256 PUSH1 0x1 ADD PUSH1 0x8 PUSH2 0x100 EXP DUP2 SLOAD DUP2 PUSH1 0xFF MUL NOT AND SWAP1 DUP4 ISZERO ISZERO MUL OR SWAP1 SSTORE POP PUSH32 0x3C1A1F8F38335B17F751C6DA4BA7D1865F26B3997535176F5080DE9FAD891603 CALLER PUSH1 0x1 PUSH0 CALLER PUSH20 0xFFFFFFFFFFFFFFFFFFFFFFFFFFFFFFFFFFFFFFFF AND PUSH20 0xFFFFFFFFFFFFFFFFFFFFFFFFFFFFFFFFFFFFFFFF AND DUP2 MSTORE PUSH1 0x20 ADD SWAP1 DUP2 MSTORE PUSH1 0x20 ADD PUSH0 KECCAK256 PUSH0 ADD SLOAD PUSH1 0x1 PUSH0 CALLER PUSH20 0xFFFFFFFFFFFFFFFFFFFFFFFFFFFFFFFFFFFFFFFF AND PUSH20 0xFFFFFFFFFFFFFFFFFFFFFFFFFFFFFFFFFFFFFFFF AND DUP2 MSTORE PUSH1 0x20 ADD SWAP1 DUP2 MSTORE PUSH1 0x20 ADD PUSH0 KECCAK256 PUSH1 0x1 ADD PUSH0 SWAP1 SLOAD SWAP1 PUSH2 0x100 EXP SWAP1 DIV PUSH8 0xFFFFFFFFFFFFFFFF AND PUSH1 0x40 MLOAD PUSH2 0x71B SWAP4 SWAP3 SWAP2 SWAP1 PUSH2 0xCCE JUMP JUMPDEST PUSH1 0x40 MLOAD DUP1 SWAP2 SUB SWAP1 LOG1 POP JUMP JUMPDEST PUSH0 DUP1 REVERT JUMPDEST PUSH0 DUP2 SWAP1 POP SWAP2 SWAP1 POP JUMP JUMPDEST PUSH2 0x73C DUP2 PUSH2 0x72A JUMP JUMPDEST DUP2 EQ PUSH2 0x746 JUMPI PUSH0 DUP1 REVERT JUMPDEST POP JUMP JUMPDEST PUSH0 DUP2 CALLDATALOAD SWAP1 POP PUSH2 0x757 DUP2 PUSH2 0x733 JUMP JUMPDEST SWAP3 SWAP2 POP POP JUMP JUMPDEST PUSH0 PUSH1 0x20 DUP3 DUP5 SUB SLT ISZERO PUSH2 0x772 JUMPI PUSH2 0x771 PUSH2 0x726 JUMP JUMPDEST JUMPDEST PUSH0 PUSH2 0x77F DUP5 DUP3 DUP6 ADD PUSH2 0x749 JUMP JUMPDEST SWAP2 POP POP SWAP3 SWAP2 POP POP JUMP JUMPDEST PUSH2 0x791 DUP2 PUSH2 0x72A JUMP JUMPDEST DUP3 MSTORE POP POP JUMP JUMPDEST PUSH0 PUSH1 0x20 DUP3 ADD SWAP1 POP PUSH2 0x7AA PUSH0 DUP4 ADD DUP5 PUSH2 0x788 JUMP JUMPDEST SWAP3 SWAP2 POP POP JUMP JUMPDEST PUSH0 PUSH1 0xFF DUP3 AND SWAP1 POP SWAP2 SWAP1 POP JUMP JUMPDEST PUSH2 0x7C5 DUP2 PUSH2 0x7B0 JUMP JUMPDEST DUP3 MSTORE POP POP JUMP JUMPDEST PUSH0 PUSH1 0x20 DUP3 ADD SWAP1 POP PUSH2 0x7DE PUSH0 DUP4 ADD DUP5 PUSH2 0x7BC JUMP JUMPDEST SWAP3 SWAP2 POP POP JUMP JUMPDEST PUSH0 PUSH20 0xFFFFFFFFFFFFFFFFFFFFFFFFFFFFFFFFFFFFFFFF DUP3 AND SWAP1 POP SWAP2 SWAP1 POP JUMP JUMPDEST PUSH0 PUSH2 0x80D DUP3 PUSH2 0x7E4 JUMP JUMPDEST SWAP1 POP SWAP2 SWAP1 POP JUMP JUMPDEST PUSH2 0x81D DUP2 PUSH2 0x803 JUMP JUMPDEST DUP2 EQ PUSH2 0x827 JUMPI PUSH0 DUP1 REVERT JUMPDEST POP JUMP JUMPDEST PUSH0 DUP2 CALLDATALOAD SWAP1 POP PUSH2 0x838 DUP2 PUSH2 0x814 JUMP JUMPDEST SWAP3 SWAP2 POP POP JUMP JUMPDEST PUSH0 PUSH1 0x20 DUP3 DUP5 SUB SLT ISZERO PUSH2 0x853 JUMPI PUSH2 0x852 PUSH2 0x726 JUMP JUMPDEST JUMPDEST PUSH0 PUSH2 0x860 DUP5 DUP3 DUP6 ADD PUSH2 0x82A JUMP JUMPDEST SWAP2 POP POP SWAP3 SWAP2 POP POP JUMP JUMPDEST PUSH0 PUSH8 0xFFFFFFFFFFFFFFFF DUP3 AND SWAP1 POP SWAP2 SWAP1 POP JUMP JUMPDEST PUSH2 0x885 DUP2 PUSH2 0x869 JUMP JUMPDEST DUP3 MSTORE POP POP JUMP JUMPDEST PUSH0 DUP2 ISZERO ISZERO SWAP1 POP SWAP2 SWAP1 POP JUMP JUMPDEST PUSH2 0x89F DUP2 PUSH2 0x88B JUMP JUMPDEST DUP3 MSTORE POP POP JUMP JUMPDEST PUSH0 PUSH1 0x60 DUP3 ADD SWAP1 POP PUSH2 0x8B8 PUSH0 DUP4 ADD DUP7 PUSH2 0x788 JUMP JUMPDEST PUSH2 0x8C5 PUSH1 0x20 DUP4 ADD DUP6 PUSH2 0x87C JUMP JUMPDEST PUSH2 0x8D2 PUSH1 0x40 DUP4 ADD DUP5 PUSH2 0x896 JUMP JUMPDEST SWAP5 SWAP4 POP POP POP POP JUMP JUMPDEST PUSH0 DUP2 SWAP1 POP SWAP2 SWAP1 POP JUMP JUMPDEST PUSH2 0x8F4 PUSH2 0x8EF DUP3 PUSH2 0x72A JUMP JUMPDEST PUSH2 0x8DA JUMP JUMPDEST DUP3 MSTORE POP POP JUMP JUMPDEST PUSH0 PUSH2 0x905 DUP3 DUP5 PUSH2 0x8E3 JUMP JUMPDEST PUSH1 0x20 DUP3 ADD SWAP2 POP DUP2 SWAP1 POP SWAP3 SWAP2 POP POP JUMP JUMPDEST PUSH0 DUP3 DUP3 MSTORE PUSH1 0x20 DUP3 ADD SWAP1 POP SWAP3 SWAP2 POP POP JUMP JUMPDEST PUSH32 0x436F6D6D697452657665616C3A3A72657665616C3A20416C7265616479207265 PUSH0 DUP3 ADD MSTORE PUSH32 0x7665616C65640000000000000000000000000000000000000000000000000000 PUSH1 0x20 DUP3 ADD MSTORE POP JUMP JUMPDEST PUSH0 PUSH2 0x97E PUSH1 0x26 DUP4 PUSH2 0x914 JUMP JUMPDEST SWAP2 POP PUSH2 0x989 DUP3 PUSH2 0x924 JUMP JUMPDEST PUSH1 0x40 DUP3 ADD SWAP1 POP SWAP2 SWAP1 POP JUMP JUMPDEST PUSH0 PUSH1 0x20 DUP3 ADD SWAP1 POP DUP2 DUP2 SUB PUSH0 DUP4 ADD MSTORE PUSH2 0x9AB DUP2 PUSH2 0x972 JUMP JUMPDEST SWAP1 POP SWAP2 SWAP1 POP JUMP JUMPDEST PUSH32 0x436F6D6D697452657665616C3A3A72657665616C3A2052657665616C65642068 PUSH0 DUP3 ADD MSTORE PUSH32 0x61736820646F6573206E6F74206D6174636820636F6D6D697400000000000000 PUSH1 0x20 DUP3 ADD MSTORE POP JUMP JUMPDEST PUSH0 PUSH2 0xA0C PUSH1 0x39 DUP4 PUSH2 0x914 JUMP JUMPDEST SWAP2 POP PUSH2 0xA17 DUP3 PUSH2 0x9B2 JUMP JUMPDEST PUSH1 0x40 DUP3 ADD SWAP1 POP SWAP2 SWAP1 POP JUMP JUMPDEST PUSH0 PUSH1 0x20 DUP3 ADD SWAP1 POP DUP2 DUP2 SUB PUSH0 DUP4 ADD MSTORE PUSH2 0xA39 DUP2 PUSH2 0xA00 JUMP JUMPDEST SWAP1 POP SWAP2 SWAP1 POP JUMP JUMPDEST PUSH32 0x436F6D6D697452657665616C3A3A72657665616C3A2052657665616C20616E64 PUSH0 DUP3 ADD MSTORE PUSH32 0x20636F6D6D69742068617070656E6564206F6E207468652073616D6520626C6F PUSH1 0x20 DUP3 ADD MSTORE PUSH32 0x636B000000000000000000000000000000000000000000000000000000000000 PUSH1 0x40 DUP3 ADD MSTORE POP JUMP JUMPDEST PUSH0 PUSH2 0xAC0 PUSH1 0x42 DUP4 PUSH2 0x914 JUMP JUMPDEST SWAP2 POP PUSH2 0xACB DUP3 PUSH2 0xA40 JUMP JUMPDEST PUSH1 0x60 DUP3 ADD SWAP1 POP SWAP2 SWAP1 POP JUMP JUMPDEST PUSH0 PUSH1 0x20 DUP3 ADD SWAP1 POP DUP2 DUP2 SUB PUSH0 DUP4 ADD MSTORE PUSH2 0xAED DUP2 PUSH2 0xAB4 JUMP JUMPDEST SWAP1 POP SWAP2 SWAP1 POP JUMP JUMPDEST PUSH32 0x4E487B7100000000000000000000000000000000000000000000000000000000 PUSH0 MSTORE PUSH1 0x11 PUSH1 0x4 MSTORE PUSH1 0x24 PUSH0 REVERT JUMPDEST PUSH0 PUSH2 0xB2B DUP3 PUSH2 0x869 JUMP JUMPDEST SWAP2 POP PUSH2 0xB36 DUP4 PUSH2 0x869 JUMP JUMPDEST SWAP3 POP DUP3 DUP3 ADD SWAP1 POP PUSH8 0xFFFFFFFFFFFFFFFF DUP2 GT ISZERO PUSH2 0xB56 JUMPI PUSH2 0xB55 PUSH2 0xAF4 JUMP JUMPDEST JUMPDEST SWAP3 SWAP2 POP POP JUMP JUMPDEST PUSH32 0x436F6D6D697452657665616C3A3A72657665616C3A2052657665616C65642074 PUSH0 DUP3 ADD MSTORE PUSH32 0x6F6F206C61746500000000000000000000000000000000000000000000000000 PUSH1 0x20 DUP3 ADD MSTORE POP JUMP JUMPDEST PUSH0 PUSH2 0xBB6 PUSH1 0x27 DUP4 PUSH2 0x914 JUMP JUMPDEST SWAP2 POP PUSH2 0xBC1 DUP3 PUSH2 0xB5C JUMP JUMPDEST PUSH1 0x40 DUP3 ADD SWAP1 POP SWAP2 SWAP1 POP JUMP JUMPDEST PUSH0 PUSH1 0x20 DUP3 ADD SWAP1 POP DUP2 DUP2 SUB PUSH0 DUP4 ADD MSTORE PUSH2 0xBE3 DUP2 PUSH2 0xBAA JUMP JUMPDEST SWAP1 POP SWAP2 SWAP1 POP JUMP JUMPDEST PUSH0 PUSH2 0xBF5 DUP3 DUP6 PUSH2 0x8E3 JUMP JUMPDEST PUSH1 0x20 DUP3 ADD SWAP2 POP PUSH2 0xC05 DUP3 DUP5 PUSH2 0x8E3 JUMP JUMPDEST PUSH1 0x20 DUP3 ADD SWAP2 POP DUP2 SWAP1 POP SWAP4 SWAP3 POP POP POP JUMP JUMPDEST PUSH0 DUP2 SWAP1 POP SWAP2 SWAP1 POP JUMP JUMPDEST PUSH32 0x4E487B7100000000000000000000000000000000000000000000000000000000 PUSH0 MSTORE PUSH1 0x12 PUSH1 0x4 MSTORE PUSH1 0x24 PUSH0 REVERT JUMPDEST PUSH0 PUSH2 0xC55 DUP3 PUSH2 0xC15 JUMP JUMPDEST SWAP2 POP PUSH2 0xC60 DUP4 PUSH2 0xC15 JUMP JUMPDEST SWAP3 POP DUP3 PUSH2 0xC70 JUMPI PUSH2 0xC6F PUSH2 0xC1E JUMP JUMPDEST JUMPDEST DUP3 DUP3 MOD SWAP1 POP SWAP3 SWAP2 POP POP JUMP JUMPDEST PUSH2 0xC84 DUP2 PUSH2 0x803 JUMP JUMPDEST DUP3 MSTORE POP POP JUMP JUMPDEST PUSH2 0xC93 DUP2 PUSH2 0xC15 JUMP JUMPDEST DUP3 MSTORE POP POP JUMP JUMPDEST PUSH0 PUSH1 0x60 DUP3 ADD SWAP1 POP PUSH2 0xCAC PUSH0 DUP4 ADD DUP7 PUSH2 0xC7B JUMP JUMPDEST PUSH2 0xCB9 PUSH1 0x20 DUP4 ADD DUP6 PUSH2 0x788 JUMP JUMPDEST PUSH2 0xCC6 PUSH1 0x40 DUP4 ADD DUP5 PUSH2 0xC8A JUMP JUMPDEST SWAP5 SWAP4 POP POP POP POP JUMP JUMPDEST PUSH0 PUSH1 0x60 DUP3 ADD SWAP1 POP PUSH2 0xCE1 PUSH0 DUP4 ADD DUP7 PUSH2 0xC7B JUMP JUMPDEST PUSH2 0xCEE PUSH1 0x20 DUP4 ADD DUP6 PUSH2 0x788 JUMP JUMPDEST PUSH2 0xCFB PUSH1 0x40 DUP4 ADD DUP5 PUSH2 0x87C JUMP JUMPDEST SWAP5 SWAP4 POP POP POP POP JUMP INVALID LOG2 PUSH5 0x6970667358 0x22 SLT KECCAK256 0x1F PUSH12 0xC272B74731C4306152D5375E MCOPY 0xA5 AND 0xC8 0xB4 PUSH9 0x7C7BF1A6C64C31EA56 PUSH9 0x9B3D64736F6C634300 ADDMOD BYTE STOP CALLER "
				},
				"gasEstimates": {
					"creation": {
						"codeDepositCost": "677000",
						"executionCost": "24972",
						"totalCost": "701972"
					},
					"external": {
						"commit(bytes32)": "infinite",
						"commits(address)": "7414",
						"getHash(bytes32)": "infinite",
						"max()": "2463",
						"reveal(bytes32)": "infinite"
					}
				},
				"methodIdentifiers": {
					"commit(bytes32)": "f14fcbc8",
					"commits(address)": "7b43a8e6",
					"getHash(bytes32)": "3cf5040a",
					"max()": "6ac5db19",
					"reveal(bytes32)": "701fd0f1"
				}
			},
			"storageLayout": {
				"storage": [
					{
						"astId": 4,
						"contract": "DEFI_lab5/CommitReveal.sol:CommitReveal",
						"label": "max",
						"offset": 0,
						"slot": "0",
						"type": "t_uint8"
					},
					{
						"astId": 16,
						"contract": "DEFI_lab5/CommitReveal.sol:CommitReveal",
						"label": "commits",
						"offset": 0,
						"slot": "1",
						"type": "t_mapping(t_address,t_struct(Commit)11_storage)"
					}
				],
				"types": {
					"t_address": {
						"encoding": "inplace",
						"label": "address",
						"numberOfBytes": "20"
					},
					"t_bool": {
						"encoding": "inplace",
						"label": "bool",
						"numberOfBytes": "1"
					},
					"t_bytes32": {
						"encoding": "inplace",
						"label": "bytes32",
						"numberOfBytes": "32"
					},
					"t_mapping(t_address,t_struct(Commit)11_storage)": {
						"encoding": "mapping",
						"key": "t_address",
						"label": "mapping(address => struct CommitReveal.Commit)",
						"numberOfBytes": "32",
						"value": "t_struct(Commit)11_storage"
					},
					"t_struct(Commit)11_storage": {
						"encoding": "inplace",
						"label": "struct CommitReveal.Commit",
						"members": [
							{
								"astId": 6,
								"contract": "DEFI_lab5/CommitReveal.sol:CommitReveal",
								"label": "commit",
								"offset": 0,
								"slot": "0",
								"type": "t_bytes32"
							},
							{
								"astId": 8,
								"contract": "DEFI_lab5/CommitReveal.sol:CommitReveal",
								"label": "block",
								"offset": 0,
								"slot": "1",
								"type": "t_uint64"
							},
							{
								"astId": 10,
								"contract": "DEFI_lab5/CommitReveal.sol:CommitReveal",
								"label": "revealed",
								"offset": 8,
								"slot": "1",
								"type": "t_bool"
							}
						],
						"numberOfBytes": "64"
					},
					"t_uint64": {
						"encoding": "inplace",
						"label": "uint64",
						"numberOfBytes": "8"
					},
					"t_uint8": {
						"encoding": "inplace",
						"label": "uint8",
						"numberOfBytes": "1"
					}
				}
			},
			"userdoc": {
				"kind": "user",
				"methods": {},
				"version": 1
			}
		}
	}
}