{
	".git/final_defi/RPSLS.sol": {
		"RPSLS": {
			"abi": [
				{
					"inputs": [
						{
							"internalType": "address",
							"name": "_tokenAddress",
							"type": "address"
						}
					],
					"stateMutability": "nonpayable",
					"type": "constructor"
				},
				{
					"inputs": [],
					"name": "betAmount",
					"outputs": [
						{
							"internalType": "uint256",
							"name": "",
							"type": "uint256"
						}
					],
					"stateMutability": "view",
					"type": "function"
				},
				{
					"inputs": [
						{
							"internalType": "address",
							"name": "",
							"type": "address"
						}
					],
					"name": "choices",
					"outputs": [
						{
							"internalType": "uint256",
							"name": "",
							"type": "uint256"
						}
					],
					"stateMutability": "view",
					"type": "function"
				},
				{
					"inputs": [
						{
							"internalType": "address",
							"name": "",
							"type": "address"
						}
					],
					"name": "commitments",
					"outputs": [
						{
							"internalType": "bytes32",
							"name": "",
							"type": "bytes32"
						}
					],
					"stateMutability": "view",
					"type": "function"
				},
				{
					"inputs": [],
					"name": "gameActive",
					"outputs": [
						{
							"internalType": "bool",
							"name": "",
							"type": "bool"
						}
					],
					"stateMutability": "view",
					"type": "function"
				},
				{
					"inputs": [],
					"name": "gameStartTime",
					"outputs": [
						{
							"internalType": "uint256",
							"name": "",
							"type": "uint256"
						}
					],
					"stateMutability": "view",
					"type": "function"
				},
				{
					"inputs": [
						{
							"internalType": "address",
							"name": "",
							"type": "address"
						}
					],
					"name": "hasRevealed",
					"outputs": [
						{
							"internalType": "bool",
							"name": "",
							"type": "bool"
						}
					],
					"stateMutability": "view",
					"type": "function"
				},
				{
					"inputs": [
						{
							"internalType": "bytes32",
							"name": "commitment",
							"type": "bytes32"
						}
					],
					"name": "joinGame",
					"outputs": [],
					"stateMutability": "nonpayable",
					"type": "function"
				},
				{
					"inputs": [
						{
							"internalType": "uint256",
							"name": "",
							"type": "uint256"
						}
					],
					"name": "players",
					"outputs": [
						{
							"internalType": "address",
							"name": "",
							"type": "address"
						}
					],
					"stateMutability": "view",
					"type": "function"
				},
				{
					"inputs": [
						{
							"internalType": "uint256",
							"name": "choice",
							"type": "uint256"
						},
						{
							"internalType": "string",
							"name": "secret",
							"type": "string"
						}
					],
					"name": "revealChoice",
					"outputs": [],
					"stateMutability": "nonpayable",
					"type": "function"
				},
				{
					"inputs": [],
					"name": "revealDeadline",
					"outputs": [
						{
							"internalType": "uint256",
							"name": "",
							"type": "uint256"
						}
					],
					"stateMutability": "view",
					"type": "function"
				},
				{
					"inputs": [],
					"name": "reward",
					"outputs": [
						{
							"internalType": "uint256",
							"name": "",
							"type": "uint256"
						}
					],
					"stateMutability": "view",
					"type": "function"
				},
				{
					"inputs": [],
					"name": "token",
					"outputs": [
						{
							"internalType": "contract IERC20",
							"name": "",
							"type": "address"
						}
					],
					"stateMutability": "view",
					"type": "function"
				},
				{
					"inputs": [],
					"name": "withdrawIfOpponentFails",
					"outputs": [],
					"stateMutability": "nonpayable",
					"type": "function"
				}
			],
			"devdoc": {
				"kind": "dev",
				"methods": {},
				"version": 1
			},
			"evm": {
				"assembly": "    /* \".git/final_defi/RPSLS.sol\":528:4093  contract RPSLS {... */\n  mstore(0x40, 0x80)\n    /* \".git/final_defi/RPSLS.sol\":571:572  0 */\n  0x00\n    /* \".git/final_defi/RPSLS.sol\":550:572  uint public reward = 0 */\n  dup1\n  sstore\n    /* \".git/final_defi/RPSLS.sol\":849:854  false */\n  0x00\n    /* \".git/final_defi/RPSLS.sol\":824:854  bool public gameActive = false */\n  0x07\n  exp(0x0100, 0x00)\n  dup2\n  sload\n  dup2\n  0xff\n  mul\n  not\n  and\n  swap1\n  dup4\n  iszero\n  iszero\n  mul\n  or\n  swap1\n  sstore\n  pop\n    /* \".git/final_defi/RPSLS.sol\":914:927  1000000000000 */\n  0xe8d4a51000\n    /* \".git/final_defi/RPSLS.sol\":887:927  uint256 public betAmount = 1000000000000 */\n  0x08\n  sstore\n    /* \".git/final_defi/RPSLS.sol\":975:1058  constructor(address _tokenAddress) {... */\n  callvalue\n  dup1\n  iszero\n  tag_1\n  jumpi\n  0x00\n  dup1\n  revert\ntag_1:\n  pop\n  mload(0x40)\n  sub(codesize, bytecodeSize)\n  dup1\n  bytecodeSize\n  dup4\n  codecopy\n  dup2\n  dup2\n  add\n  0x40\n  mstore\n  dup2\n  add\n  swap1\n  tag_2\n  swap2\n  swap1\n  tag_3\n  jump\t// in\ntag_2:\n    /* \".git/final_defi/RPSLS.sol\":1036:1049  _tokenAddress */\n  dup1\n    /* \".git/final_defi/RPSLS.sol\":1021:1026  token */\n  0x07\n  0x01\n    /* \".git/final_defi/RPSLS.sol\":1021:1050  token = IERC20(_tokenAddress) */\n  0x0100\n  exp\n  dup2\n  sload\n  dup2\n  0xffffffffffffffffffffffffffffffffffffffff\n  mul\n  not\n  and\n  swap1\n  dup4\n  0xffffffffffffffffffffffffffffffffffffffff\n  and\n  mul\n  or\n  swap1\n  sstore\n  pop\n    /* \".git/final_defi/RPSLS.sol\":975:1058  constructor(address _tokenAddress) {... */\n  pop\n    /* \".git/final_defi/RPSLS.sol\":528:4093  contract RPSLS {... */\n  jump(tag_6)\n    /* \"#utility.yul\":88:205   */\ntag_8:\n    /* \"#utility.yul\":197:198   */\n  0x00\n    /* \"#utility.yul\":194:195   */\n  dup1\n    /* \"#utility.yul\":187:199   */\n  revert\n    /* \"#utility.yul\":334:460   */\ntag_10:\n    /* \"#utility.yul\":371:378   */\n  0x00\n    /* \"#utility.yul\":411:453   */\n  0xffffffffffffffffffffffffffffffffffffffff\n    /* \"#utility.yul\":404:409   */\n  dup3\n    /* \"#utility.yul\":400:454   */\n  and\n    /* \"#utility.yul\":389:454   */\n  swap1\n  pop\n    /* \"#utility.yul\":334:460   */\n  swap2\n  swap1\n  pop\n  jump\t// out\n    /* \"#utility.yul\":466:562   */\ntag_11:\n    /* \"#utility.yul\":503:510   */\n  0x00\n    /* \"#utility.yul\":532:556   */\n  tag_20\n    /* \"#utility.yul\":550:555   */\n  dup3\n    /* \"#utility.yul\":532:556   */\n  tag_10\n  jump\t// in\ntag_20:\n    /* \"#utility.yul\":521:556   */\n  swap1\n  pop\n    /* \"#utility.yul\":466:562   */\n  swap2\n  swap1\n  pop\n  jump\t// out\n    /* \"#utility.yul\":568:690   */\ntag_12:\n    /* \"#utility.yul\":641:665   */\n  tag_22\n    /* \"#utility.yul\":659:664   */\n  dup2\n    /* \"#utility.yul\":641:665   */\n  tag_11\n  jump\t// in\ntag_22:\n    /* \"#utility.yul\":634:639   */\n  dup2\n    /* \"#utility.yul\":631:666   */\n  eq\n    /* \"#utility.yul\":621:684   */\n  tag_23\n  jumpi\n    /* \"#utility.yul\":680:681   */\n  0x00\n    /* \"#utility.yul\":677:678   */\n  dup1\n    /* \"#utility.yul\":670:682   */\n  revert\n    /* \"#utility.yul\":621:684   */\ntag_23:\n    /* \"#utility.yul\":568:690   */\n  pop\n  jump\t// out\n    /* \"#utility.yul\":696:839   */\ntag_13:\n    /* \"#utility.yul\":753:758   */\n  0x00\n    /* \"#utility.yul\":784:790   */\n  dup2\n    /* \"#utility.yul\":778:791   */\n  mload\n    /* \"#utility.yul\":769:791   */\n  swap1\n  pop\n    /* \"#utility.yul\":800:833   */\n  tag_25\n    /* \"#utility.yul\":827:832   */\n  dup2\n    /* \"#utility.yul\":800:833   */\n  tag_12\n  jump\t// in\ntag_25:\n    /* \"#utility.yul\":696:839   */\n  swap3\n  swap2\n  pop\n  pop\n  jump\t// out\n    /* \"#utility.yul\":845:1196   */\ntag_3:\n    /* \"#utility.yul\":915:921   */\n  0x00\n    /* \"#utility.yul\":964:966   */\n  0x20\n    /* \"#utility.yul\":952:961   */\n  dup3\n    /* \"#utility.yul\":943:950   */\n  dup5\n    /* \"#utility.yul\":939:962   */\n  sub\n    /* \"#utility.yul\":935:967   */\n  slt\n    /* \"#utility.yul\":932:1051   */\n  iszero\n  tag_27\n  jumpi\n    /* \"#utility.yul\":970:1049   */\n  tag_28\n  tag_8\n  jump\t// in\ntag_28:\n    /* \"#utility.yul\":932:1051   */\ntag_27:\n    /* \"#utility.yul\":1090:1091   */\n  0x00\n    /* \"#utility.yul\":1115:1179   */\n  tag_29\n    /* \"#utility.yul\":1171:1178   */\n  dup5\n    /* \"#utility.yul\":1162:1168   */\n  dup3\n    /* \"#utility.yul\":1151:1160   */\n  dup6\n    /* \"#utility.yul\":1147:1169   */\n  add\n    /* \"#utility.yul\":1115:1179   */\n  tag_13\n  jump\t// in\ntag_29:\n    /* \"#utility.yul\":1105:1179   */\n  swap2\n  pop\n    /* \"#utility.yul\":1061:1189   */\n  pop\n    /* \"#utility.yul\":845:1196   */\n  swap3\n  swap2\n  pop\n  pop\n  jump\t// out\n    /* \".git/final_defi/RPSLS.sol\":528:4093  contract RPSLS {... */\ntag_6:\n  dataSize(sub_0)\n  dup1\n  dataOffset(sub_0)\n  0x00\n  codecopy\n  0x00\n  return\nstop\n\nsub_0: assembly {\n        /* \".git/final_defi/RPSLS.sol\":528:4093  contract RPSLS {... */\n      mstore(0x40, 0x80)\n      callvalue\n      dup1\n      iszero\n      tag_1\n      jumpi\n      0x00\n      dup1\n      revert\n    tag_1:\n      pop\n      jumpi(tag_2, lt(calldatasize, 0x04))\n      shr(0xe0, calldataload(0x00))\n      dup1\n      0xbf474766\n      gt\n      tag_16\n      jumpi\n      dup1\n      0xf020044f\n      gt\n      tag_17\n      jumpi\n      dup1\n      0xf020044f\n      eq\n      tag_12\n      jumpi\n      dup1\n      0xf712545b\n      eq\n      tag_13\n      jumpi\n      dup1\n      0xf71d96cb\n      eq\n      tag_14\n      jumpi\n      dup1\n      0xfc0c546a\n      eq\n      tag_15\n      jumpi\n      jump(tag_2)\n    tag_17:\n      dup1\n      0xbf474766\n      eq\n      tag_9\n      jumpi\n      dup1\n      0xd24257c0\n      eq\n      tag_10\n      jumpi\n      dup1\n      0xe8fcf723\n      eq\n      tag_11\n      jumpi\n      jump(tag_2)\n    tag_16:\n      dup1\n      0x0252b995\n      eq\n      tag_3\n      jumpi\n      dup1\n      0x228cb733\n      eq\n      tag_4\n      jumpi\n      dup1\n      0x410346b3\n      eq\n      tag_5\n      jumpi\n      dup1\n      0xb14b28a3\n      eq\n      tag_6\n      jumpi\n      dup1\n      0xb8c23c0a\n      eq\n      tag_7\n      jumpi\n      dup1\n      0xb9a53013\n      eq\n      tag_8\n      jumpi\n    tag_2:\n      0x00\n      dup1\n      revert\n        /* \".git/final_defi/RPSLS.sol\":759:784  uint public gameStartTime */\n    tag_3:\n      tag_18\n      tag_19\n      jump\t// in\n    tag_18:\n      mload(0x40)\n      tag_20\n      swap2\n      swap1\n      tag_21\n      jump\t// in\n    tag_20:\n      mload(0x40)\n      dup1\n      swap2\n      sub\n      swap1\n      return\n        /* \".git/final_defi/RPSLS.sol\":550:572  uint public reward = 0 */\n    tag_4:\n      tag_22\n      tag_23\n      jump\t// in\n    tag_22:\n      mload(0x40)\n      tag_24\n      swap2\n      swap1\n      tag_21\n      jump\t// in\n    tag_24:\n      mload(0x40)\n      dup1\n      swap2\n      sub\n      swap1\n      return\n        /* \".git/final_defi/RPSLS.sol\":632:671  mapping(address => uint) public choices */\n    tag_5:\n      tag_25\n      0x04\n      dup1\n      calldatasize\n      sub\n      dup2\n      add\n      swap1\n      tag_26\n      swap2\n      swap1\n      tag_27\n      jump\t// in\n    tag_26:\n      tag_28\n      jump\t// in\n    tag_25:\n      mload(0x40)\n      tag_29\n      swap2\n      swap1\n      tag_21\n      jump\t// in\n    tag_29:\n      mload(0x40)\n      dup1\n      swap2\n      sub\n      swap1\n      return\n        /* \".git/final_defi/RPSLS.sol\":791:817  uint public revealDeadline */\n    tag_6:\n      tag_30\n      tag_31\n      jump\t// in\n    tag_30:\n      mload(0x40)\n      tag_32\n      swap2\n      swap1\n      tag_21\n      jump\t// in\n    tag_32:\n      mload(0x40)\n      dup1\n      swap2\n      sub\n      swap1\n      return\n        /* \".git/final_defi/RPSLS.sol\":3547:4090  function withdrawIfOpponentFails() public {... */\n    tag_7:\n      tag_33\n      tag_34\n      jump\t// in\n    tag_33:\n      stop\n        /* \".git/final_defi/RPSLS.sol\":678:721  mapping(address => bool) public hasRevealed */\n    tag_8:\n      tag_35\n      0x04\n      dup1\n      calldatasize\n      sub\n      dup2\n      add\n      swap1\n      tag_36\n      swap2\n      swap1\n      tag_27\n      jump\t// in\n    tag_36:\n      tag_37\n      jump\t// in\n    tag_35:\n      mload(0x40)\n      tag_38\n      swap2\n      swap1\n      tag_39\n      jump\t// in\n    tag_38:\n      mload(0x40)\n      dup1\n      swap2\n      sub\n      swap1\n      return\n        /* \".git/final_defi/RPSLS.sol\":1070:2127  function joinGame(bytes32 commitment) public {... */\n    tag_9:\n      tag_40\n      0x04\n      dup1\n      calldatasize\n      sub\n      dup2\n      add\n      swap1\n      tag_41\n      swap2\n      swap1\n      tag_42\n      jump\t// in\n    tag_41:\n      tag_43\n      jump\t// in\n    tag_40:\n      stop\n        /* \".git/final_defi/RPSLS.sol\":887:927  uint256 public betAmount = 1000000000000 */\n    tag_10:\n      tag_44\n      tag_45\n      jump\t// in\n    tag_44:\n      mload(0x40)\n      tag_46\n      swap2\n      swap1\n      tag_21\n      jump\t// in\n    tag_46:\n      mload(0x40)\n      dup1\n      swap2\n      sub\n      swap1\n      return\n        /* \".git/final_defi/RPSLS.sol\":579:625  mapping(address => bytes32) public commitments */\n    tag_11:\n      tag_47\n      0x04\n      dup1\n      calldatasize\n      sub\n      dup2\n      add\n      swap1\n      tag_48\n      swap2\n      swap1\n      tag_27\n      jump\t// in\n    tag_48:\n      tag_49\n      jump\t// in\n    tag_47:\n      mload(0x40)\n      tag_50\n      swap2\n      swap1\n      tag_51\n      jump\t// in\n    tag_50:\n      mload(0x40)\n      dup1\n      swap2\n      sub\n      swap1\n      return\n        /* \".git/final_defi/RPSLS.sol\":824:854  bool public gameActive = false */\n    tag_12:\n      tag_52\n      tag_53\n      jump\t// in\n    tag_52:\n      mload(0x40)\n      tag_54\n      swap2\n      swap1\n      tag_39\n      jump\t// in\n    tag_54:\n      mload(0x40)\n      dup1\n      swap2\n      sub\n      swap1\n      return\n        /* \".git/final_defi/RPSLS.sol\":2139:2729  function revealChoice(uint choice, string memory secret) public {... */\n    tag_13:\n      tag_55\n      0x04\n      dup1\n      calldatasize\n      sub\n      dup2\n      add\n      swap1\n      tag_56\n      swap2\n      swap1\n      tag_57\n      jump\t// in\n    tag_56:\n      tag_58\n      jump\t// in\n    tag_55:\n      stop\n        /* \".git/final_defi/RPSLS.sol\":728:752  address[] public players */\n    tag_14:\n      tag_59\n      0x04\n      dup1\n      calldatasize\n      sub\n      dup2\n      add\n      swap1\n      tag_60\n      swap2\n      swap1\n      tag_61\n      jump\t// in\n    tag_60:\n      tag_62\n      jump\t// in\n    tag_59:\n      mload(0x40)\n      tag_63\n      swap2\n      swap1\n      tag_64\n      jump\t// in\n    tag_63:\n      mload(0x40)\n      dup1\n      swap2\n      sub\n      swap1\n      return\n        /* \".git/final_defi/RPSLS.sol\":861:880  IERC20 public token */\n    tag_15:\n      tag_65\n      tag_66\n      jump\t// in\n    tag_65:\n      mload(0x40)\n      tag_67\n      swap2\n      swap1\n      tag_68\n      jump\t// in\n    tag_67:\n      mload(0x40)\n      dup1\n      swap2\n      sub\n      swap1\n      return\n        /* \".git/final_defi/RPSLS.sol\":759:784  uint public gameStartTime */\n    tag_19:\n      sload(0x05)\n      dup2\n      jump\t// out\n        /* \".git/final_defi/RPSLS.sol\":550:572  uint public reward = 0 */\n    tag_23:\n      sload(0x00)\n      dup2\n      jump\t// out\n        /* \".git/final_defi/RPSLS.sol\":632:671  mapping(address => uint) public choices */\n    tag_28:\n      mstore(0x20, 0x02)\n      dup1\n      0x00\n      mstore\n      keccak256(0x00, 0x40)\n      0x00\n      swap2\n      pop\n      swap1\n      pop\n      sload\n      dup2\n      jump\t// out\n        /* \".git/final_defi/RPSLS.sol\":791:817  uint public revealDeadline */\n    tag_31:\n      sload(0x06)\n      dup2\n      jump\t// out\n        /* \".git/final_defi/RPSLS.sol\":3547:4090  function withdrawIfOpponentFails() public {... */\n    tag_34:\n        /* \".git/final_defi/RPSLS.sol\":3608:3618  gameActive */\n      0x07\n      0x00\n      swap1\n      sload\n      swap1\n      0x0100\n      exp\n      swap1\n      div\n      0xff\n      and\n        /* \".git/final_defi/RPSLS.sol\":3600:3641  require(gameActive, \"Game is not active\") */\n      tag_70\n      jumpi\n      mload(0x40)\n      0x08c379a000000000000000000000000000000000000000000000000000000000\n      dup2\n      mstore\n      0x04\n      add\n      tag_71\n      swap1\n      tag_72\n      jump\t// in\n    tag_71:\n      mload(0x40)\n      dup1\n      swap2\n      sub\n      swap1\n      revert\n    tag_70:\n        /* \".git/final_defi/RPSLS.sol\":3678:3692  revealDeadline */\n      sload(0x06)\n        /* \".git/final_defi/RPSLS.sol\":3660:3675  block.timestamp */\n      timestamp\n        /* \".git/final_defi/RPSLS.sol\":3660:3692  block.timestamp > revealDeadline */\n      gt\n        /* \".git/final_defi/RPSLS.sol\":3652:3720  require(block.timestamp > revealDeadline, \"Reveal period not ended\") */\n      tag_73\n      jumpi\n      mload(0x40)\n      0x08c379a000000000000000000000000000000000000000000000000000000000\n      dup2\n      mstore\n      0x04\n      add\n      tag_74\n      swap1\n      tag_75\n      jump\t// in\n    tag_74:\n      mload(0x40)\n      dup1\n      swap2\n      sub\n      swap1\n      revert\n    tag_73:\n        /* \".git/final_defi/RPSLS.sol\":3745:3756  hasRevealed */\n      0x03\n        /* \".git/final_defi/RPSLS.sol\":3745:3768  hasRevealed[players[0]] */\n      0x00\n        /* \".git/final_defi/RPSLS.sol\":3757:3764  players */\n      0x04\n        /* \".git/final_defi/RPSLS.sol\":3765:3766  0 */\n      0x00\n        /* \".git/final_defi/RPSLS.sol\":3757:3767  players[0] */\n      dup2\n      sload\n      dup2\n      lt\n      tag_76\n      jumpi\n      tag_77\n      tag_78\n      jump\t// in\n    tag_77:\n    tag_76:\n      swap1\n      0x00\n      mstore\n      keccak256(0x00, 0x20)\n      add\n      0x00\n      swap1\n      sload\n      swap1\n      0x0100\n      exp\n      swap1\n      div\n      0xffffffffffffffffffffffffffffffffffffffff\n      and\n        /* \".git/final_defi/RPSLS.sol\":3745:3768  hasRevealed[players[0]] */\n      0xffffffffffffffffffffffffffffffffffffffff\n      and\n      0xffffffffffffffffffffffffffffffffffffffff\n      and\n      dup2\n      mstore\n      0x20\n      add\n      swap1\n      dup2\n      mstore\n      0x20\n      add\n      0x00\n      keccak256\n      0x00\n      swap1\n      sload\n      swap1\n      0x0100\n      exp\n      swap1\n      div\n      0xff\n      and\n        /* \".git/final_defi/RPSLS.sol\":3745:3796  hasRevealed[players[0]] && !hasRevealed[players[1]] */\n      dup1\n      iszero\n      tag_80\n      jumpi\n      pop\n        /* \".git/final_defi/RPSLS.sol\":3773:3784  hasRevealed */\n      0x03\n        /* \".git/final_defi/RPSLS.sol\":3773:3796  hasRevealed[players[1]] */\n      0x00\n        /* \".git/final_defi/RPSLS.sol\":3785:3792  players */\n      0x04\n        /* \".git/final_defi/RPSLS.sol\":3793:3794  1 */\n      0x01\n        /* \".git/final_defi/RPSLS.sol\":3785:3795  players[1] */\n      dup2\n      sload\n      dup2\n      lt\n      tag_81\n      jumpi\n      tag_82\n      tag_78\n      jump\t// in\n    tag_82:\n    tag_81:\n      swap1\n      0x00\n      mstore\n      keccak256(0x00, 0x20)\n      add\n      0x00\n      swap1\n      sload\n      swap1\n      0x0100\n      exp\n      swap1\n      div\n      0xffffffffffffffffffffffffffffffffffffffff\n      and\n        /* \".git/final_defi/RPSLS.sol\":3773:3796  hasRevealed[players[1]] */\n      0xffffffffffffffffffffffffffffffffffffffff\n      and\n      0xffffffffffffffffffffffffffffffffffffffff\n      and\n      dup2\n      mstore\n      0x20\n      add\n      swap1\n      dup2\n      mstore\n      0x20\n      add\n      0x00\n      keccak256\n      0x00\n      swap1\n      sload\n      swap1\n      0x0100\n      exp\n      swap1\n      div\n      0xff\n      and\n        /* \".git/final_defi/RPSLS.sol\":3772:3796  !hasRevealed[players[1]] */\n      iszero\n        /* \".git/final_defi/RPSLS.sol\":3745:3796  hasRevealed[players[0]] && !hasRevealed[players[1]] */\n    tag_80:\n        /* \".git/final_defi/RPSLS.sol\":3741:4050  if (hasRevealed[players[0]] && !hasRevealed[players[1]]) {... */\n      iszero\n      tag_84\n      jumpi\n        /* \".git/final_defi/RPSLS.sol\":3813:3818  token */\n      0x07\n      0x01\n      swap1\n      sload\n      swap1\n      0x0100\n      exp\n      swap1\n      div\n      0xffffffffffffffffffffffffffffffffffffffff\n      and\n        /* \".git/final_defi/RPSLS.sol\":3813:3827  token.transfer */\n      0xffffffffffffffffffffffffffffffffffffffff\n      and\n      0xa9059cbb\n        /* \".git/final_defi/RPSLS.sol\":3828:3835  players */\n      0x04\n        /* \".git/final_defi/RPSLS.sol\":3836:3837  0 */\n      0x00\n        /* \".git/final_defi/RPSLS.sol\":3828:3838  players[0] */\n      dup2\n      sload\n      dup2\n      lt\n      tag_85\n      jumpi\n      tag_86\n      tag_78\n      jump\t// in\n    tag_86:\n    tag_85:\n      swap1\n      0x00\n      mstore\n      keccak256(0x00, 0x20)\n      add\n      0x00\n      swap1\n      sload\n      swap1\n      0x0100\n      exp\n      swap1\n      div\n      0xffffffffffffffffffffffffffffffffffffffff\n      and\n        /* \".git/final_defi/RPSLS.sol\":3840:3846  reward */\n      sload(0x00)\n        /* \".git/final_defi/RPSLS.sol\":3813:3847  token.transfer(players[0], reward) */\n      mload(0x40)\n      dup4\n      0xffffffff\n      and\n      0xe0\n      shl\n      dup2\n      mstore\n      0x04\n      add\n      tag_88\n      swap3\n      swap2\n      swap1\n      tag_89\n      jump\t// in\n    tag_88:\n      0x20\n      mload(0x40)\n      dup1\n      dup4\n      sub\n      dup2\n      0x00\n      dup8\n      gas\n      call\n      iszero\n      dup1\n      iszero\n      tag_91\n      jumpi\n      returndatasize\n      0x00\n      dup1\n      returndatacopy\n      revert(0x00, returndatasize)\n    tag_91:\n      pop\n      pop\n      pop\n      pop\n      mload(0x40)\n      returndatasize\n      not(0x1f)\n      0x1f\n      dup3\n      add\n      and\n      dup3\n      add\n      dup1\n      0x40\n      mstore\n      pop\n      dup2\n      add\n      swap1\n      tag_92\n      swap2\n      swap1\n      tag_93\n      jump\t// in\n    tag_92:\n      pop\n        /* \".git/final_defi/RPSLS.sol\":3741:4050  if (hasRevealed[players[0]] && !hasRevealed[players[1]]) {... */\n      jump(tag_94)\n    tag_84:\n        /* \".git/final_defi/RPSLS.sol\":3869:3880  hasRevealed */\n      0x03\n        /* \".git/final_defi/RPSLS.sol\":3869:3892  hasRevealed[players[1]] */\n      0x00\n        /* \".git/final_defi/RPSLS.sol\":3881:3888  players */\n      0x04\n        /* \".git/final_defi/RPSLS.sol\":3889:3890  1 */\n      0x01\n        /* \".git/final_defi/RPSLS.sol\":3881:3891  players[1] */\n      dup2\n      sload\n      dup2\n      lt\n      tag_95\n      jumpi\n      tag_96\n      tag_78\n      jump\t// in\n    tag_96:\n    tag_95:\n      swap1\n      0x00\n      mstore\n      keccak256(0x00, 0x20)\n      add\n      0x00\n      swap1\n      sload\n      swap1\n      0x0100\n      exp\n      swap1\n      div\n      0xffffffffffffffffffffffffffffffffffffffff\n      and\n        /* \".git/final_defi/RPSLS.sol\":3869:3892  hasRevealed[players[1]] */\n      0xffffffffffffffffffffffffffffffffffffffff\n      and\n      0xffffffffffffffffffffffffffffffffffffffff\n      and\n      dup2\n      mstore\n      0x20\n      add\n      swap1\n      dup2\n      mstore\n      0x20\n      add\n      0x00\n      keccak256\n      0x00\n      swap1\n      sload\n      swap1\n      0x0100\n      exp\n      swap1\n      div\n      0xff\n      and\n        /* \".git/final_defi/RPSLS.sol\":3869:3920  hasRevealed[players[1]] && !hasRevealed[players[0]] */\n      dup1\n      iszero\n      tag_98\n      jumpi\n      pop\n        /* \".git/final_defi/RPSLS.sol\":3897:3908  hasRevealed */\n      0x03\n        /* \".git/final_defi/RPSLS.sol\":3897:3920  hasRevealed[players[0]] */\n      0x00\n        /* \".git/final_defi/RPSLS.sol\":3909:3916  players */\n      0x04\n        /* \".git/final_defi/RPSLS.sol\":3917:3918  0 */\n      0x00\n        /* \".git/final_defi/RPSLS.sol\":3909:3919  players[0] */\n      dup2\n      sload\n      dup2\n      lt\n      tag_99\n      jumpi\n      tag_100\n      tag_78\n      jump\t// in\n    tag_100:\n    tag_99:\n      swap1\n      0x00\n      mstore\n      keccak256(0x00, 0x20)\n      add\n      0x00\n      swap1\n      sload\n      swap1\n      0x0100\n      exp\n      swap1\n      div\n      0xffffffffffffffffffffffffffffffffffffffff\n      and\n        /* \".git/final_defi/RPSLS.sol\":3897:3920  hasRevealed[players[0]] */\n      0xffffffffffffffffffffffffffffffffffffffff\n      and\n      0xffffffffffffffffffffffffffffffffffffffff\n      and\n      dup2\n      mstore\n      0x20\n      add\n      swap1\n      dup2\n      mstore\n      0x20\n      add\n      0x00\n      keccak256\n      0x00\n      swap1\n      sload\n      swap1\n      0x0100\n      exp\n      swap1\n      div\n      0xff\n      and\n        /* \".git/final_defi/RPSLS.sol\":3896:3920  !hasRevealed[players[0]] */\n      iszero\n        /* \".git/final_defi/RPSLS.sol\":3869:3920  hasRevealed[players[1]] && !hasRevealed[players[0]] */\n    tag_98:\n        /* \".git/final_defi/RPSLS.sol\":3865:4050  if (hasRevealed[players[1]] && !hasRevealed[players[0]]) {... */\n      iszero\n      tag_102\n      jumpi\n        /* \".git/final_defi/RPSLS.sol\":3937:3942  token */\n      0x07\n      0x01\n      swap1\n      sload\n      swap1\n      0x0100\n      exp\n      swap1\n      div\n      0xffffffffffffffffffffffffffffffffffffffff\n      and\n        /* \".git/final_defi/RPSLS.sol\":3937:3951  token.transfer */\n      0xffffffffffffffffffffffffffffffffffffffff\n      and\n      0xa9059cbb\n        /* \".git/final_defi/RPSLS.sol\":3952:3959  players */\n      0x04\n        /* \".git/final_defi/RPSLS.sol\":3960:3961  1 */\n      0x01\n        /* \".git/final_defi/RPSLS.sol\":3952:3962  players[1] */\n      dup2\n      sload\n      dup2\n      lt\n      tag_103\n      jumpi\n      tag_104\n      tag_78\n      jump\t// in\n    tag_104:\n    tag_103:\n      swap1\n      0x00\n      mstore\n      keccak256(0x00, 0x20)\n      add\n      0x00\n      swap1\n      sload\n      swap1\n      0x0100\n      exp\n      swap1\n      div\n      0xffffffffffffffffffffffffffffffffffffffff\n      and\n        /* \".git/final_defi/RPSLS.sol\":3964:3970  reward */\n      sload(0x00)\n        /* \".git/final_defi/RPSLS.sol\":3937:3971  token.transfer(players[1], reward) */\n      mload(0x40)\n      dup4\n      0xffffffff\n      and\n      0xe0\n      shl\n      dup2\n      mstore\n      0x04\n      add\n      tag_106\n      swap3\n      swap2\n      swap1\n      tag_89\n      jump\t// in\n    tag_106:\n      0x20\n      mload(0x40)\n      dup1\n      dup4\n      sub\n      dup2\n      0x00\n      dup8\n      gas\n      call\n      iszero\n      dup1\n      iszero\n      tag_108\n      jumpi\n      returndatasize\n      0x00\n      dup1\n      returndatacopy\n      revert(0x00, returndatasize)\n    tag_108:\n      pop\n      pop\n      pop\n      pop\n      mload(0x40)\n      returndatasize\n      not(0x1f)\n      0x1f\n      dup3\n      add\n      and\n      dup3\n      add\n      dup1\n      0x40\n      mstore\n      pop\n      dup2\n      add\n      swap1\n      tag_109\n      swap2\n      swap1\n      tag_93\n      jump\t// in\n    tag_109:\n      pop\n        /* \".git/final_defi/RPSLS.sol\":3865:4050  if (hasRevealed[players[1]] && !hasRevealed[players[0]]) {... */\n      jump(tag_110)\n    tag_102:\n        /* \".git/final_defi/RPSLS.sol\":4004:4009  token */\n      0x07\n      0x01\n      swap1\n      sload\n      swap1\n      0x0100\n      exp\n      swap1\n      div\n      0xffffffffffffffffffffffffffffffffffffffff\n      and\n        /* \".git/final_defi/RPSLS.sol\":4004:4018  token.transfer */\n      0xffffffffffffffffffffffffffffffffffffffff\n      and\n      0xa9059cbb\n        /* \".git/final_defi/RPSLS.sol\":4019:4029  msg.sender */\n      caller\n        /* \".git/final_defi/RPSLS.sol\":4031:4037  reward */\n      sload(0x00)\n        /* \".git/final_defi/RPSLS.sol\":4004:4038  token.transfer(msg.sender, reward) */\n      mload(0x40)\n      dup4\n      0xffffffff\n      and\n      0xe0\n      shl\n      dup2\n      mstore\n      0x04\n      add\n      tag_111\n      swap3\n      swap2\n      swap1\n      tag_89\n      jump\t// in\n    tag_111:\n      0x20\n      mload(0x40)\n      dup1\n      dup4\n      sub\n      dup2\n      0x00\n      dup8\n      gas\n      call\n      iszero\n      dup1\n      iszero\n      tag_113\n      jumpi\n      returndatasize\n      0x00\n      dup1\n      returndatacopy\n      revert(0x00, returndatasize)\n    tag_113:\n      pop\n      pop\n      pop\n      pop\n      mload(0x40)\n      returndatasize\n      not(0x1f)\n      0x1f\n      dup3\n      add\n      and\n      dup3\n      add\n      dup1\n      0x40\n      mstore\n      pop\n      dup2\n      add\n      swap1\n      tag_114\n      swap2\n      swap1\n      tag_93\n      jump\t// in\n    tag_114:\n      pop\n        /* \".git/final_defi/RPSLS.sol\":3865:4050  if (hasRevealed[players[1]] && !hasRevealed[players[0]]) {... */\n    tag_110:\n        /* \".git/final_defi/RPSLS.sol\":3741:4050  if (hasRevealed[players[0]] && !hasRevealed[players[1]]) {... */\n    tag_94:\n        /* \".git/final_defi/RPSLS.sol\":4070:4082  _resetGame() */\n      tag_115\n        /* \".git/final_defi/RPSLS.sol\":4070:4080  _resetGame */\n      tag_116\n        /* \".git/final_defi/RPSLS.sol\":4070:4082  _resetGame() */\n      jump\t// in\n    tag_115:\n        /* \".git/final_defi/RPSLS.sol\":3547:4090  function withdrawIfOpponentFails() public {... */\n      jump\t// out\n        /* \".git/final_defi/RPSLS.sol\":678:721  mapping(address => bool) public hasRevealed */\n    tag_37:\n      mstore(0x20, 0x03)\n      dup1\n      0x00\n      mstore\n      keccak256(0x00, 0x40)\n      0x00\n      swap2\n      pop\n      sload\n      swap1\n      0x0100\n      exp\n      swap1\n      div\n      0xff\n      and\n      dup2\n      jump\t// out\n        /* \".git/final_defi/RPSLS.sol\":1070:2127  function joinGame(bytes32 commitment) public {... */\n    tag_43:\n        /* \".git/final_defi/RPSLS.sol\":1151:1152  2 */\n      0x02\n        /* \".git/final_defi/RPSLS.sol\":1134:1141  players */\n      0x04\n        /* \".git/final_defi/RPSLS.sol\":1134:1148  players.length */\n      dup1\n      sload\n      swap1\n      pop\n        /* \".git/final_defi/RPSLS.sol\":1134:1152  players.length < 2 */\n      lt\n        /* \".git/final_defi/RPSLS.sol\":1126:1185  require(players.length < 2, \"Game already has two players\") */\n      tag_118\n      jumpi\n      mload(0x40)\n      0x08c379a000000000000000000000000000000000000000000000000000000000\n      dup2\n      mstore\n      0x04\n      add\n      tag_119\n      swap1\n      tag_120\n      jump\t// in\n    tag_119:\n      mload(0x40)\n      dup1\n      swap2\n      sub\n      swap1\n      revert\n    tag_118:\n        /* \".git/final_defi/RPSLS.sol\":1250:1259  betAmount */\n      sload(0x08)\n        /* \".git/final_defi/RPSLS.sol\":1204:1209  token */\n      0x07\n      0x01\n      swap1\n      sload\n      swap1\n      0x0100\n      exp\n      swap1\n      div\n      0xffffffffffffffffffffffffffffffffffffffff\n      and\n        /* \".git/final_defi/RPSLS.sol\":1204:1219  token.allowance */\n      0xffffffffffffffffffffffffffffffffffffffff\n      and\n      0xdd62ed3e\n        /* \".git/final_defi/RPSLS.sol\":1220:1230  msg.sender */\n      caller\n        /* \".git/final_defi/RPSLS.sol\":1240:1244  this */\n      address\n        /* \".git/final_defi/RPSLS.sol\":1204:1246  token.allowance(msg.sender, address(this)) */\n      mload(0x40)\n      dup4\n      0xffffffff\n      and\n      0xe0\n      shl\n      dup2\n      mstore\n      0x04\n      add\n      tag_121\n      swap3\n      swap2\n      swap1\n      tag_122\n      jump\t// in\n    tag_121:\n      0x20\n      mload(0x40)\n      dup1\n      dup4\n      sub\n      dup2\n      dup7\n      gas\n      staticcall\n      iszero\n      dup1\n      iszero\n      tag_124\n      jumpi\n      returndatasize\n      0x00\n      dup1\n      returndatacopy\n      revert(0x00, returndatasize)\n    tag_124:\n      pop\n      pop\n      pop\n      pop\n      mload(0x40)\n      returndatasize\n      not(0x1f)\n      0x1f\n      dup3\n      add\n      and\n      dup3\n      add\n      dup1\n      0x40\n      mstore\n      pop\n      dup2\n      add\n      swap1\n      tag_125\n      swap2\n      swap1\n      tag_126\n      jump\t// in\n    tag_125:\n        /* \".git/final_defi/RPSLS.sol\":1204:1259  token.allowance(msg.sender, address(this)) >= betAmount */\n      lt\n      iszero\n        /* \".git/final_defi/RPSLS.sol\":1196:1286  require(token.allowance(msg.sender, address(this)) >= betAmount, \"Insufficient allowance\") */\n      tag_127\n      jumpi\n      mload(0x40)\n      0x08c379a000000000000000000000000000000000000000000000000000000000\n      dup2\n      mstore\n      0x04\n      add\n      tag_128\n      swap1\n      tag_129\n      jump\t// in\n    tag_128:\n      mload(0x40)\n      dup1\n      swap2\n      sub\n      swap1\n      revert\n    tag_127:\n        /* \".git/final_defi/RPSLS.sol\":1329:1330  1 */\n      0x01\n        /* \".git/final_defi/RPSLS.sol\":1311:1318  players */\n      0x04\n        /* \".git/final_defi/RPSLS.sol\":1311:1325  players.length */\n      dup1\n      sload\n      swap1\n      pop\n        /* \".git/final_defi/RPSLS.sol\":1311:1330  players.length == 1 */\n      sub\n        /* \".git/final_defi/RPSLS.sol\":1307:1413  if (players.length == 1) {... */\n      tag_130\n      jumpi\n        /* \".git/final_defi/RPSLS.sol\":1369:1376  players */\n      0x04\n        /* \".git/final_defi/RPSLS.sol\":1377:1378  0 */\n      0x00\n        /* \".git/final_defi/RPSLS.sol\":1369:1379  players[0] */\n      dup2\n      sload\n      dup2\n      lt\n      tag_131\n      jumpi\n      tag_132\n      tag_78\n      jump\t// in\n    tag_132:\n    tag_131:\n      swap1\n      0x00\n      mstore\n      keccak256(0x00, 0x20)\n      add\n      0x00\n      swap1\n      sload\n      swap1\n      0x0100\n      exp\n      swap1\n      div\n      0xffffffffffffffffffffffffffffffffffffffff\n      and\n        /* \".git/final_defi/RPSLS.sol\":1355:1379  msg.sender != players[0] */\n      0xffffffffffffffffffffffffffffffffffffffff\n      and\n        /* \".git/final_defi/RPSLS.sol\":1355:1365  msg.sender */\n      caller\n        /* \".git/final_defi/RPSLS.sol\":1355:1379  msg.sender != players[0] */\n      0xffffffffffffffffffffffffffffffffffffffff\n      and\n      sub\n        /* \".git/final_defi/RPSLS.sol\":1347:1401  require(msg.sender != players[0], \"Cannot join twice\") */\n      tag_134\n      jumpi\n      mload(0x40)\n      0x08c379a000000000000000000000000000000000000000000000000000000000\n      dup2\n      mstore\n      0x04\n      add\n      tag_135\n      swap1\n      tag_136\n      jump\t// in\n    tag_135:\n      mload(0x40)\n      dup1\n      swap2\n      sub\n      swap1\n      revert\n    tag_134:\n        /* \".git/final_defi/RPSLS.sol\":1307:1413  if (players.length == 1) {... */\n    tag_130:\n        /* \".git/final_defi/RPSLS.sol\":1433:1440  players */\n      0x04\n        /* \".git/final_defi/RPSLS.sol\":1446:1456  msg.sender */\n      caller\n        /* \".git/final_defi/RPSLS.sol\":1433:1457  players.push(msg.sender) */\n      swap1\n      dup1\n      0x01\n      dup2\n      sload\n      add\n      dup1\n      dup3\n      sstore\n      dup1\n      swap2\n      pop\n      pop\n      0x01\n      swap1\n      sub\n      swap1\n      0x00\n      mstore\n      keccak256(0x00, 0x20)\n      add\n      0x00\n      swap1\n      swap2\n      swap1\n      swap2\n      swap1\n      swap2\n      0x0100\n      exp\n      dup2\n      sload\n      dup2\n      0xffffffffffffffffffffffffffffffffffffffff\n      mul\n      not\n      and\n      swap1\n      dup4\n      0xffffffffffffffffffffffffffffffffffffffff\n      and\n      mul\n      or\n      swap1\n      sstore\n      pop\n        /* \".git/final_defi/RPSLS.sol\":1494:1504  commitment */\n      dup1\n        /* \".git/final_defi/RPSLS.sol\":1468:1479  commitments */\n      0x01\n        /* \".git/final_defi/RPSLS.sol\":1468:1491  commitments[msg.sender] */\n      0x00\n        /* \".git/final_defi/RPSLS.sol\":1480:1490  msg.sender */\n      caller\n        /* \".git/final_defi/RPSLS.sol\":1468:1491  commitments[msg.sender] */\n      0xffffffffffffffffffffffffffffffffffffffff\n      and\n      0xffffffffffffffffffffffffffffffffffffffff\n      and\n      dup2\n      mstore\n      0x20\n      add\n      swap1\n      dup2\n      mstore\n      0x20\n      add\n      0x00\n      keccak256\n        /* \".git/final_defi/RPSLS.sol\":1468:1504  commitments[msg.sender] = commitment */\n      dup2\n      swap1\n      sstore\n      pop\n        /* \".git/final_defi/RPSLS.sol\":1547:1548  2 */\n      0x02\n        /* \".git/final_defi/RPSLS.sol\":1529:1536  players */\n      0x04\n        /* \".git/final_defi/RPSLS.sol\":1529:1543  players.length */\n      dup1\n      sload\n      swap1\n      pop\n        /* \".git/final_defi/RPSLS.sol\":1529:1548  players.length == 2 */\n      sub\n        /* \".git/final_defi/RPSLS.sol\":1525:2120  if (players.length == 2) {... */\n      tag_138\n      jumpi\n        /* \".git/final_defi/RPSLS.sol\":1619:1628  betAmount */\n      sload(0x08)\n        /* \".git/final_defi/RPSLS.sol\":1573:1578  token */\n      0x07\n      0x01\n      swap1\n      sload\n      swap1\n      0x0100\n      exp\n      swap1\n      div\n      0xffffffffffffffffffffffffffffffffffffffff\n      and\n        /* \".git/final_defi/RPSLS.sol\":1573:1588  token.allowance */\n      0xffffffffffffffffffffffffffffffffffffffff\n      and\n      0xdd62ed3e\n        /* \".git/final_defi/RPSLS.sol\":1589:1596  players */\n      0x04\n        /* \".git/final_defi/RPSLS.sol\":1597:1598  0 */\n      0x00\n        /* \".git/final_defi/RPSLS.sol\":1589:1599  players[0] */\n      dup2\n      sload\n      dup2\n      lt\n      tag_139\n      jumpi\n      tag_140\n      tag_78\n      jump\t// in\n    tag_140:\n    tag_139:\n      swap1\n      0x00\n      mstore\n      keccak256(0x00, 0x20)\n      add\n      0x00\n      swap1\n      sload\n      swap1\n      0x0100\n      exp\n      swap1\n      div\n      0xffffffffffffffffffffffffffffffffffffffff\n      and\n        /* \".git/final_defi/RPSLS.sol\":1609:1613  this */\n      address\n        /* \".git/final_defi/RPSLS.sol\":1573:1615  token.allowance(players[0], address(this)) */\n      mload(0x40)\n      dup4\n      0xffffffff\n      and\n      0xe0\n      shl\n      dup2\n      mstore\n      0x04\n      add\n      tag_142\n      swap3\n      swap2\n      swap1\n      tag_122\n      jump\t// in\n    tag_142:\n      0x20\n      mload(0x40)\n      dup1\n      dup4\n      sub\n      dup2\n      dup7\n      gas\n      staticcall\n      iszero\n      dup1\n      iszero\n      tag_144\n      jumpi\n      returndatasize\n      0x00\n      dup1\n      returndatacopy\n      revert(0x00, returndatasize)\n    tag_144:\n      pop\n      pop\n      pop\n      pop\n      mload(0x40)\n      returndatasize\n      not(0x1f)\n      0x1f\n      dup3\n      add\n      and\n      dup3\n      add\n      dup1\n      0x40\n      mstore\n      pop\n      dup2\n      add\n      swap1\n      tag_145\n      swap2\n      swap1\n      tag_126\n      jump\t// in\n    tag_145:\n        /* \".git/final_defi/RPSLS.sol\":1573:1628  token.allowance(players[0], address(this)) >= betAmount */\n      lt\n      iszero\n        /* \".git/final_defi/RPSLS.sol\":1565:1658  require(token.allowance(players[0], address(this)) >= betAmount, \"Player 1 has not approved\") */\n      tag_146\n      jumpi\n      mload(0x40)\n      0x08c379a000000000000000000000000000000000000000000000000000000000\n      dup2\n      mstore\n      0x04\n      add\n      tag_147\n      swap1\n      tag_148\n      jump\t// in\n    tag_147:\n      mload(0x40)\n      dup1\n      swap2\n      sub\n      swap1\n      revert\n    tag_146:\n        /* \".git/final_defi/RPSLS.sol\":1727:1736  betAmount */\n      sload(0x08)\n        /* \".git/final_defi/RPSLS.sol\":1681:1686  token */\n      0x07\n      0x01\n      swap1\n      sload\n      swap1\n      0x0100\n      exp\n      swap1\n      div\n      0xffffffffffffffffffffffffffffffffffffffff\n      and\n        /* \".git/final_defi/RPSLS.sol\":1681:1696  token.allowance */\n      0xffffffffffffffffffffffffffffffffffffffff\n      and\n      0xdd62ed3e\n        /* \".git/final_defi/RPSLS.sol\":1697:1704  players */\n      0x04\n        /* \".git/final_defi/RPSLS.sol\":1705:1706  1 */\n      0x01\n        /* \".git/final_defi/RPSLS.sol\":1697:1707  players[1] */\n      dup2\n      sload\n      dup2\n      lt\n      tag_149\n      jumpi\n      tag_150\n      tag_78\n      jump\t// in\n    tag_150:\n    tag_149:\n      swap1\n      0x00\n      mstore\n      keccak256(0x00, 0x20)\n      add\n      0x00\n      swap1\n      sload\n      swap1\n      0x0100\n      exp\n      swap1\n      div\n      0xffffffffffffffffffffffffffffffffffffffff\n      and\n        /* \".git/final_defi/RPSLS.sol\":1717:1721  this */\n      address\n        /* \".git/final_defi/RPSLS.sol\":1681:1723  token.allowance(players[1], address(this)) */\n      mload(0x40)\n      dup4\n      0xffffffff\n      and\n      0xe0\n      shl\n      dup2\n      mstore\n      0x04\n      add\n      tag_152\n      swap3\n      swap2\n      swap1\n      tag_122\n      jump\t// in\n    tag_152:\n      0x20\n      mload(0x40)\n      dup1\n      dup4\n      sub\n      dup2\n      dup7\n      gas\n      staticcall\n      iszero\n      dup1\n      iszero\n      tag_154\n      jumpi\n      returndatasize\n      0x00\n      dup1\n      returndatacopy\n      revert(0x00, returndatasize)\n    tag_154:\n      pop\n      pop\n      pop\n      pop\n      mload(0x40)\n      returndatasize\n      not(0x1f)\n      0x1f\n      dup3\n      add\n      and\n      dup3\n      add\n      dup1\n      0x40\n      mstore\n      pop\n      dup2\n      add\n      swap1\n      tag_155\n      swap2\n      swap1\n      tag_126\n      jump\t// in\n    tag_155:\n        /* \".git/final_defi/RPSLS.sol\":1681:1736  token.allowance(players[1], address(this)) >= betAmount */\n      lt\n      iszero\n        /* \".git/final_defi/RPSLS.sol\":1673:1766  require(token.allowance(players[1], address(this)) >= betAmount, \"Player 2 has not approved\") */\n      tag_156\n      jumpi\n      mload(0x40)\n      0x08c379a000000000000000000000000000000000000000000000000000000000\n      dup2\n      mstore\n      0x04\n      add\n      tag_157\n      swap1\n      tag_158\n      jump\t// in\n    tag_157:\n      mload(0x40)\n      dup1\n      swap2\n      sub\n      swap1\n      revert\n    tag_156:\n        /* \".git/final_defi/RPSLS.sol\":1795:1800  token */\n      0x07\n      0x01\n      swap1\n      sload\n      swap1\n      0x0100\n      exp\n      swap1\n      div\n      0xffffffffffffffffffffffffffffffffffffffff\n      and\n        /* \".git/final_defi/RPSLS.sol\":1795:1813  token.transferFrom */\n      0xffffffffffffffffffffffffffffffffffffffff\n      and\n      0x23b872dd\n        /* \".git/final_defi/RPSLS.sol\":1814:1821  players */\n      0x04\n        /* \".git/final_defi/RPSLS.sol\":1822:1823  0 */\n      0x00\n        /* \".git/final_defi/RPSLS.sol\":1814:1824  players[0] */\n      dup2\n      sload\n      dup2\n      lt\n      tag_159\n      jumpi\n      tag_160\n      tag_78\n      jump\t// in\n    tag_160:\n    tag_159:\n      swap1\n      0x00\n      mstore\n      keccak256(0x00, 0x20)\n      add\n      0x00\n      swap1\n      sload\n      swap1\n      0x0100\n      exp\n      swap1\n      div\n      0xffffffffffffffffffffffffffffffffffffffff\n      and\n        /* \".git/final_defi/RPSLS.sol\":1834:1838  this */\n      address\n        /* \".git/final_defi/RPSLS.sol\":1841:1850  betAmount */\n      sload(0x08)\n        /* \".git/final_defi/RPSLS.sol\":1795:1851  token.transferFrom(players[0], address(this), betAmount) */\n      mload(0x40)\n      dup5\n      0xffffffff\n      and\n      0xe0\n      shl\n      dup2\n      mstore\n      0x04\n      add\n      tag_162\n      swap4\n      swap3\n      swap2\n      swap1\n      tag_163\n      jump\t// in\n    tag_162:\n      0x20\n      mload(0x40)\n      dup1\n      dup4\n      sub\n      dup2\n      0x00\n      dup8\n      gas\n      call\n      iszero\n      dup1\n      iszero\n      tag_165\n      jumpi\n      returndatasize\n      0x00\n      dup1\n      returndatacopy\n      revert(0x00, returndatasize)\n    tag_165:\n      pop\n      pop\n      pop\n      pop\n      mload(0x40)\n      returndatasize\n      not(0x1f)\n      0x1f\n      dup3\n      add\n      and\n      dup3\n      add\n      dup1\n      0x40\n      mstore\n      pop\n      dup2\n      add\n      swap1\n      tag_166\n      swap2\n      swap1\n      tag_93\n      jump\t// in\n    tag_166:\n      pop\n        /* \".git/final_defi/RPSLS.sol\":1866:1871  token */\n      0x07\n      0x01\n      swap1\n      sload\n      swap1\n      0x0100\n      exp\n      swap1\n      div\n      0xffffffffffffffffffffffffffffffffffffffff\n      and\n        /* \".git/final_defi/RPSLS.sol\":1866:1884  token.transferFrom */\n      0xffffffffffffffffffffffffffffffffffffffff\n      and\n      0x23b872dd\n        /* \".git/final_defi/RPSLS.sol\":1885:1892  players */\n      0x04\n        /* \".git/final_defi/RPSLS.sol\":1893:1894  1 */\n      0x01\n        /* \".git/final_defi/RPSLS.sol\":1885:1895  players[1] */\n      dup2\n      sload\n      dup2\n      lt\n      tag_167\n      jumpi\n      tag_168\n      tag_78\n      jump\t// in\n    tag_168:\n    tag_167:\n      swap1\n      0x00\n      mstore\n      keccak256(0x00, 0x20)\n      add\n      0x00\n      swap1\n      sload\n      swap1\n      0x0100\n      exp\n      swap1\n      div\n      0xffffffffffffffffffffffffffffffffffffffff\n      and\n        /* \".git/final_defi/RPSLS.sol\":1905:1909  this */\n      address\n        /* \".git/final_defi/RPSLS.sol\":1912:1921  betAmount */\n      sload(0x08)\n        /* \".git/final_defi/RPSLS.sol\":1866:1922  token.transferFrom(players[1], address(this), betAmount) */\n      mload(0x40)\n      dup5\n      0xffffffff\n      and\n      0xe0\n      shl\n      dup2\n      mstore\n      0x04\n      add\n      tag_170\n      swap4\n      swap3\n      swap2\n      swap1\n      tag_163\n      jump\t// in\n    tag_170:\n      0x20\n      mload(0x40)\n      dup1\n      dup4\n      sub\n      dup2\n      0x00\n      dup8\n      gas\n      call\n      iszero\n      dup1\n      iszero\n      tag_172\n      jumpi\n      returndatasize\n      0x00\n      dup1\n      returndatacopy\n      revert(0x00, returndatasize)\n    tag_172:\n      pop\n      pop\n      pop\n      pop\n      mload(0x40)\n      returndatasize\n      not(0x1f)\n      0x1f\n      dup3\n      add\n      and\n      dup3\n      add\n      dup1\n      0x40\n      mstore\n      pop\n      dup2\n      add\n      swap1\n      tag_173\n      swap2\n      swap1\n      tag_93\n      jump\t// in\n    tag_173:\n      pop\n        /* \".git/final_defi/RPSLS.sol\":1958:1959  2 */\n      0x02\n        /* \".git/final_defi/RPSLS.sol\":1946:1955  betAmount */\n      sload(0x08)\n        /* \".git/final_defi/RPSLS.sol\":1946:1959  betAmount * 2 */\n      tag_174\n      swap2\n      swap1\n      tag_175\n      jump\t// in\n    tag_174:\n        /* \".git/final_defi/RPSLS.sol\":1937:1943  reward */\n      0x00\n        /* \".git/final_defi/RPSLS.sol\":1937:1959  reward = betAmount * 2 */\n      dup2\n      swap1\n      sstore\n      pop\n        /* \".git/final_defi/RPSLS.sol\":2004:2019  block.timestamp */\n      timestamp\n        /* \".git/final_defi/RPSLS.sol\":1988:2001  gameStartTime */\n      0x05\n        /* \".git/final_defi/RPSLS.sol\":1988:2019  gameStartTime = block.timestamp */\n      dup2\n      swap1\n      sstore\n      pop\n        /* \".git/final_defi/RPSLS.sol\":2067:2076  5 minutes */\n      0x012c\n        /* \".git/final_defi/RPSLS.sol\":2051:2064  gameStartTime */\n      sload(0x05)\n        /* \".git/final_defi/RPSLS.sol\":2051:2076  gameStartTime + 5 minutes */\n      tag_176\n      swap2\n      swap1\n      tag_177\n      jump\t// in\n    tag_176:\n        /* \".git/final_defi/RPSLS.sol\":2034:2048  revealDeadline */\n      0x06\n        /* \".git/final_defi/RPSLS.sol\":2034:2076  revealDeadline = gameStartTime + 5 minutes */\n      dup2\n      swap1\n      sstore\n      pop\n        /* \".git/final_defi/RPSLS.sol\":2104:2108  true */\n      0x01\n        /* \".git/final_defi/RPSLS.sol\":2091:2101  gameActive */\n      0x07\n      0x00\n        /* \".git/final_defi/RPSLS.sol\":2091:2108  gameActive = true */\n      0x0100\n      exp\n      dup2\n      sload\n      dup2\n      0xff\n      mul\n      not\n      and\n      swap1\n      dup4\n      iszero\n      iszero\n      mul\n      or\n      swap1\n      sstore\n      pop\n        /* \".git/final_defi/RPSLS.sol\":1525:2120  if (players.length == 2) {... */\n    tag_138:\n        /* \".git/final_defi/RPSLS.sol\":1070:2127  function joinGame(bytes32 commitment) public {... */\n      pop\n      jump\t// out\n        /* \".git/final_defi/RPSLS.sol\":887:927  uint256 public betAmount = 1000000000000 */\n    tag_45:\n      sload(0x08)\n      dup2\n      jump\t// out\n        /* \".git/final_defi/RPSLS.sol\":579:625  mapping(address => bytes32) public commitments */\n    tag_49:\n      mstore(0x20, 0x01)\n      dup1\n      0x00\n      mstore\n      keccak256(0x00, 0x40)\n      0x00\n      swap2\n      pop\n      swap1\n      pop\n      sload\n      dup2\n      jump\t// out\n        /* \".git/final_defi/RPSLS.sol\":824:854  bool public gameActive = false */\n    tag_53:\n      0x07\n      0x00\n      swap1\n      sload\n      swap1\n      0x0100\n      exp\n      swap1\n      div\n      0xff\n      and\n      dup2\n      jump\t// out\n        /* \".git/final_defi/RPSLS.sol\":2139:2729  function revealChoice(uint choice, string memory secret) public {... */\n    tag_58:\n        /* \".git/final_defi/RPSLS.sol\":2222:2232  gameActive */\n      0x07\n      0x00\n      swap1\n      sload\n      swap1\n      0x0100\n      exp\n      swap1\n      div\n      0xff\n      and\n        /* \".git/final_defi/RPSLS.sol\":2214:2255  require(gameActive, \"Game is not active\") */\n      tag_179\n      jumpi\n      mload(0x40)\n      0x08c379a000000000000000000000000000000000000000000000000000000000\n      dup2\n      mstore\n      0x04\n      add\n      tag_180\n      swap1\n      tag_72\n      jump\t// in\n    tag_180:\n      mload(0x40)\n      dup1\n      swap2\n      sub\n      swap1\n      revert\n    tag_179:\n        /* \".git/final_defi/RPSLS.sol\":2293:2307  revealDeadline */\n      sload(0x06)\n        /* \".git/final_defi/RPSLS.sol\":2274:2289  block.timestamp */\n      timestamp\n        /* \".git/final_defi/RPSLS.sol\":2274:2307  block.timestamp <= revealDeadline */\n      gt\n      iszero\n        /* \".git/final_defi/RPSLS.sol\":2266:2331  require(block.timestamp <= revealDeadline, \"Reveal period ended\") */\n      tag_181\n      jumpi\n      mload(0x40)\n      0x08c379a000000000000000000000000000000000000000000000000000000000\n      dup2\n      mstore\n      0x04\n      add\n      tag_182\n      swap1\n      tag_183\n      jump\t// in\n    tag_182:\n      mload(0x40)\n      dup1\n      swap2\n      sub\n      swap1\n      revert\n    tag_181:\n        /* \".git/final_defi/RPSLS.sol\":2360:2361  0 */\n      0x00\n        /* \".git/final_defi/RPSLS.sol\":2350:2356  choice */\n      dup3\n        /* \".git/final_defi/RPSLS.sol\":2350:2361  choice >= 0 */\n      lt\n      iszero\n        /* \".git/final_defi/RPSLS.sol\":2350:2376  choice >= 0 && choice <= 4 */\n      dup1\n      iszero\n      tag_184\n      jumpi\n      pop\n        /* \".git/final_defi/RPSLS.sol\":2375:2376  4 */\n      0x04\n        /* \".git/final_defi/RPSLS.sol\":2365:2371  choice */\n      dup3\n        /* \".git/final_defi/RPSLS.sol\":2365:2376  choice <= 4 */\n      gt\n      iszero\n        /* \".git/final_defi/RPSLS.sol\":2350:2376  choice >= 0 && choice <= 4 */\n    tag_184:\n        /* \".git/final_defi/RPSLS.sol\":2342:2395  require(choice >= 0 && choice <= 4, \"Invalid choice\") */\n      tag_185\n      jumpi\n      mload(0x40)\n      0x08c379a000000000000000000000000000000000000000000000000000000000\n      dup2\n      mstore\n      0x04\n      add\n      tag_186\n      swap1\n      tag_187\n      jump\t// in\n    tag_186:\n      mload(0x40)\n      dup1\n      swap2\n      sub\n      swap1\n      revert\n    tag_185:\n        /* \".git/final_defi/RPSLS.sol\":2468:2474  choice */\n      dup2\n        /* \".git/final_defi/RPSLS.sol\":2476:2482  secret */\n      dup2\n        /* \".git/final_defi/RPSLS.sol\":2451:2483  abi.encodePacked(choice, secret) */\n      add(0x20, mload(0x40))\n      tag_188\n      swap3\n      swap2\n      swap1\n      tag_189\n      jump\t// in\n    tag_188:\n      mload(0x40)\n      0x20\n      dup2\n      dup4\n      sub\n      sub\n      dup2\n      mstore\n      swap1\n      0x40\n      mstore\n        /* \".git/final_defi/RPSLS.sol\":2441:2484  keccak256(abi.encodePacked(choice, secret)) */\n      dup1\n      mload\n      swap1\n      0x20\n      add\n      keccak256\n        /* \".git/final_defi/RPSLS.sol\":2414:2425  commitments */\n      0x01\n        /* \".git/final_defi/RPSLS.sol\":2414:2437  commitments[msg.sender] */\n      0x00\n        /* \".git/final_defi/RPSLS.sol\":2426:2436  msg.sender */\n      caller\n        /* \".git/final_defi/RPSLS.sol\":2414:2437  commitments[msg.sender] */\n      0xffffffffffffffffffffffffffffffffffffffff\n      and\n      0xffffffffffffffffffffffffffffffffffffffff\n      and\n      dup2\n      mstore\n      0x20\n      add\n      swap1\n      dup2\n      mstore\n      0x20\n      add\n      0x00\n      keccak256\n      sload\n        /* \".git/final_defi/RPSLS.sol\":2414:2484  commitments[msg.sender] == keccak256(abi.encodePacked(choice, secret)) */\n      eq\n        /* \".git/final_defi/RPSLS.sol\":2406:2508  require(commitments[msg.sender] == keccak256(abi.encodePacked(choice, secret)), \"Commitment mismatch\") */\n      tag_190\n      jumpi\n      mload(0x40)\n      0x08c379a000000000000000000000000000000000000000000000000000000000\n      dup2\n      mstore\n      0x04\n      add\n      tag_191\n      swap1\n      tag_192\n      jump\t// in\n    tag_191:\n      mload(0x40)\n      dup1\n      swap2\n      sub\n      swap1\n      revert\n    tag_190:\n        /* \".git/final_defi/RPSLS.sol\":2551:2557  choice */\n      dup2\n        /* \".git/final_defi/RPSLS.sol\":2529:2536  choices */\n      0x02\n        /* \".git/final_defi/RPSLS.sol\":2529:2548  choices[msg.sender] */\n      0x00\n        /* \".git/final_defi/RPSLS.sol\":2537:2547  msg.sender */\n      caller\n        /* \".git/final_defi/RPSLS.sol\":2529:2548  choices[msg.sender] */\n      0xffffffffffffffffffffffffffffffffffffffff\n      and\n      0xffffffffffffffffffffffffffffffffffffffff\n      and\n      dup2\n      mstore\n      0x20\n      add\n      swap1\n      dup2\n      mstore\n      0x20\n      add\n      0x00\n      keccak256\n        /* \".git/final_defi/RPSLS.sol\":2529:2557  choices[msg.sender] = choice */\n      dup2\n      swap1\n      sstore\n      pop\n        /* \".git/final_defi/RPSLS.sol\":2594:2598  true */\n      0x01\n        /* \".git/final_defi/RPSLS.sol\":2568:2579  hasRevealed */\n      0x03\n        /* \".git/final_defi/RPSLS.sol\":2568:2591  hasRevealed[msg.sender] */\n      0x00\n        /* \".git/final_defi/RPSLS.sol\":2580:2590  msg.sender */\n      caller\n        /* \".git/final_defi/RPSLS.sol\":2568:2591  hasRevealed[msg.sender] */\n      0xffffffffffffffffffffffffffffffffffffffff\n      and\n      0xffffffffffffffffffffffffffffffffffffffff\n      and\n      dup2\n      mstore\n      0x20\n      add\n      swap1\n      dup2\n      mstore\n      0x20\n      add\n      0x00\n      keccak256\n      0x00\n        /* \".git/final_defi/RPSLS.sol\":2568:2598  hasRevealed[msg.sender] = true */\n      0x0100\n      exp\n      dup2\n      sload\n      dup2\n      0xff\n      mul\n      not\n      and\n      swap1\n      dup4\n      iszero\n      iszero\n      mul\n      or\n      swap1\n      sstore\n      pop\n        /* \".git/final_defi/RPSLS.sol\":2623:2634  hasRevealed */\n      0x03\n        /* \".git/final_defi/RPSLS.sol\":2623:2646  hasRevealed[players[0]] */\n      0x00\n        /* \".git/final_defi/RPSLS.sol\":2635:2642  players */\n      0x04\n        /* \".git/final_defi/RPSLS.sol\":2643:2644  0 */\n      0x00\n        /* \".git/final_defi/RPSLS.sol\":2635:2645  players[0] */\n      dup2\n      sload\n      dup2\n      lt\n      tag_193\n      jumpi\n      tag_194\n      tag_78\n      jump\t// in\n    tag_194:\n    tag_193:\n      swap1\n      0x00\n      mstore\n      keccak256(0x00, 0x20)\n      add\n      0x00\n      swap1\n      sload\n      swap1\n      0x0100\n      exp\n      swap1\n      div\n      0xffffffffffffffffffffffffffffffffffffffff\n      and\n        /* \".git/final_defi/RPSLS.sol\":2623:2646  hasRevealed[players[0]] */\n      0xffffffffffffffffffffffffffffffffffffffff\n      and\n      0xffffffffffffffffffffffffffffffffffffffff\n      and\n      dup2\n      mstore\n      0x20\n      add\n      swap1\n      dup2\n      mstore\n      0x20\n      add\n      0x00\n      keccak256\n      0x00\n      swap1\n      sload\n      swap1\n      0x0100\n      exp\n      swap1\n      div\n      0xff\n      and\n        /* \".git/final_defi/RPSLS.sol\":2623:2673  hasRevealed[players[0]] && hasRevealed[players[1]] */\n      dup1\n      iszero\n      tag_196\n      jumpi\n      pop\n        /* \".git/final_defi/RPSLS.sol\":2650:2661  hasRevealed */\n      0x03\n        /* \".git/final_defi/RPSLS.sol\":2650:2673  hasRevealed[players[1]] */\n      0x00\n        /* \".git/final_defi/RPSLS.sol\":2662:2669  players */\n      0x04\n        /* \".git/final_defi/RPSLS.sol\":2670:2671  1 */\n      0x01\n        /* \".git/final_defi/RPSLS.sol\":2662:2672  players[1] */\n      dup2\n      sload\n      dup2\n      lt\n      tag_197\n      jumpi\n      tag_198\n      tag_78\n      jump\t// in\n    tag_198:\n    tag_197:\n      swap1\n      0x00\n      mstore\n      keccak256(0x00, 0x20)\n      add\n      0x00\n      swap1\n      sload\n      swap1\n      0x0100\n      exp\n      swap1\n      div\n      0xffffffffffffffffffffffffffffffffffffffff\n      and\n        /* \".git/final_defi/RPSLS.sol\":2650:2673  hasRevealed[players[1]] */\n      0xffffffffffffffffffffffffffffffffffffffff\n      and\n      0xffffffffffffffffffffffffffffffffffffffff\n      and\n      dup2\n      mstore\n      0x20\n      add\n      swap1\n      dup2\n      mstore\n      0x20\n      add\n      0x00\n      keccak256\n      0x00\n      swap1\n      sload\n      swap1\n      0x0100\n      exp\n      swap1\n      div\n      0xff\n      and\n        /* \".git/final_defi/RPSLS.sol\":2623:2673  hasRevealed[players[0]] && hasRevealed[players[1]] */\n    tag_196:\n        /* \".git/final_defi/RPSLS.sol\":2619:2722  if (hasRevealed[players[0]] && hasRevealed[players[1]]) {... */\n      iszero\n      tag_200\n      jumpi\n        /* \".git/final_defi/RPSLS.sol\":2690:2710  _checkWinnerAndPay() */\n      tag_201\n        /* \".git/final_defi/RPSLS.sol\":2690:2708  _checkWinnerAndPay */\n      tag_202\n        /* \".git/final_defi/RPSLS.sol\":2690:2710  _checkWinnerAndPay() */\n      jump\t// in\n    tag_201:\n        /* \".git/final_defi/RPSLS.sol\":2619:2722  if (hasRevealed[players[0]] && hasRevealed[players[1]]) {... */\n    tag_200:\n        /* \".git/final_defi/RPSLS.sol\":2139:2729  function revealChoice(uint choice, string memory secret) public {... */\n      pop\n      pop\n      jump\t// out\n        /* \".git/final_defi/RPSLS.sol\":728:752  address[] public players */\n    tag_62:\n      0x04\n      dup2\n      dup2\n      sload\n      dup2\n      lt\n      tag_203\n      jumpi\n      0x00\n      dup1\n      revert\n    tag_203:\n      swap1\n      0x00\n      mstore\n      keccak256(0x00, 0x20)\n      add\n      0x00\n      swap2\n      pop\n      sload\n      swap1\n      0x0100\n      exp\n      swap1\n      div\n      0xffffffffffffffffffffffffffffffffffffffff\n      and\n      dup2\n      jump\t// out\n        /* \".git/final_defi/RPSLS.sol\":861:880  IERC20 public token */\n    tag_66:\n      0x07\n      0x01\n      swap1\n      sload\n      swap1\n      0x0100\n      exp\n      swap1\n      div\n      0xffffffffffffffffffffffffffffffffffffffff\n      and\n      dup2\n      jump\t// out\n        /* \".git/final_defi/RPSLS.sol\":3419:3535  function _resetGame() private {... */\n    tag_116:\n        /* \".git/final_defi/RPSLS.sol\":3467:3474  players */\n      0x04\n      0x00\n        /* \".git/final_defi/RPSLS.sol\":3460:3474  delete players */\n      tag_206\n      swap2\n      swap1\n      tag_207\n      jump\t// in\n    tag_206:\n        /* \".git/final_defi/RPSLS.sol\":3492:3498  reward */\n      0x00\n        /* \".git/final_defi/RPSLS.sol\":3485:3498  delete reward */\n      dup1\n      sstore\n        /* \".git/final_defi/RPSLS.sol\":3522:3527  false */\n      0x00\n        /* \".git/final_defi/RPSLS.sol\":3509:3519  gameActive */\n      0x07\n      0x00\n        /* \".git/final_defi/RPSLS.sol\":3509:3527  gameActive = false */\n      0x0100\n      exp\n      dup2\n      sload\n      dup2\n      0xff\n      mul\n      not\n      and\n      swap1\n      dup4\n      iszero\n      iszero\n      mul\n      or\n      swap1\n      sstore\n      pop\n        /* \".git/final_defi/RPSLS.sol\":3419:3535  function _resetGame() private {... */\n      jump\t// out\n        /* \".git/final_defi/RPSLS.sol\":2741:3407  function _checkWinnerAndPay() private {... */\n    tag_202:\n        /* \".git/final_defi/RPSLS.sol\":2790:2797  uint p0 */\n      0x00\n        /* \".git/final_defi/RPSLS.sol\":2800:2807  choices */\n      0x02\n        /* \".git/final_defi/RPSLS.sol\":2800:2819  choices[players[0]] */\n      0x00\n        /* \".git/final_defi/RPSLS.sol\":2808:2815  players */\n      0x04\n        /* \".git/final_defi/RPSLS.sol\":2816:2817  0 */\n      0x00\n        /* \".git/final_defi/RPSLS.sol\":2808:2818  players[0] */\n      dup2\n      sload\n      dup2\n      lt\n      tag_209\n      jumpi\n      tag_210\n      tag_78\n      jump\t// in\n    tag_210:\n    tag_209:\n      swap1\n      0x00\n      mstore\n      keccak256(0x00, 0x20)\n      add\n      0x00\n      swap1\n      sload\n      swap1\n      0x0100\n      exp\n      swap1\n      div\n      0xffffffffffffffffffffffffffffffffffffffff\n      and\n        /* \".git/final_defi/RPSLS.sol\":2800:2819  choices[players[0]] */\n      0xffffffffffffffffffffffffffffffffffffffff\n      and\n      0xffffffffffffffffffffffffffffffffffffffff\n      and\n      dup2\n      mstore\n      0x20\n      add\n      swap1\n      dup2\n      mstore\n      0x20\n      add\n      0x00\n      keccak256\n      sload\n        /* \".git/final_defi/RPSLS.sol\":2790:2819  uint p0 = choices[players[0]] */\n      swap1\n      pop\n        /* \".git/final_defi/RPSLS.sol\":2830:2837  uint p1 */\n      0x00\n        /* \".git/final_defi/RPSLS.sol\":2840:2847  choices */\n      0x02\n        /* \".git/final_defi/RPSLS.sol\":2840:2859  choices[players[1]] */\n      0x00\n        /* \".git/final_defi/RPSLS.sol\":2848:2855  players */\n      0x04\n        /* \".git/final_defi/RPSLS.sol\":2856:2857  1 */\n      0x01\n        /* \".git/final_defi/RPSLS.sol\":2848:2858  players[1] */\n      dup2\n      sload\n      dup2\n      lt\n      tag_212\n      jumpi\n      tag_213\n      tag_78\n      jump\t// in\n    tag_213:\n    tag_212:\n      swap1\n      0x00\n      mstore\n      keccak256(0x00, 0x20)\n      add\n      0x00\n      swap1\n      sload\n      swap1\n      0x0100\n      exp\n      swap1\n      div\n      0xffffffffffffffffffffffffffffffffffffffff\n      and\n        /* \".git/final_defi/RPSLS.sol\":2840:2859  choices[players[1]] */\n      0xffffffffffffffffffffffffffffffffffffffff\n      and\n      0xffffffffffffffffffffffffffffffffffffffff\n      and\n      dup2\n      mstore\n      0x20\n      add\n      swap1\n      dup2\n      mstore\n      0x20\n      add\n      0x00\n      keccak256\n      sload\n        /* \".git/final_defi/RPSLS.sol\":2830:2859  uint p1 = choices[players[1]] */\n      swap1\n      pop\n        /* \".git/final_defi/RPSLS.sol\":2870:2884  address winner */\n      0x00\n        /* \".git/final_defi/RPSLS.sol\":2925:2927  p1 */\n      dup2\n        /* \".git/final_defi/RPSLS.sol\":2920:2921  5 */\n      0x05\n        /* \".git/final_defi/RPSLS.sol\":2915:2916  1 */\n      0x01\n        /* \".git/final_defi/RPSLS.sol\":2910:2912  p0 */\n      dup6\n        /* \".git/final_defi/RPSLS.sol\":2910:2916  p0 + 1 */\n      tag_215\n      swap2\n      swap1\n      tag_177\n      jump\t// in\n    tag_215:\n        /* \".git/final_defi/RPSLS.sol\":2909:2921  (p0 + 1) % 5 */\n      tag_216\n      swap2\n      swap1\n      tag_217\n      jump\t// in\n    tag_216:\n        /* \".git/final_defi/RPSLS.sol\":2909:2927  (p0 + 1) % 5 == p1 */\n      eq\n        /* \".git/final_defi/RPSLS.sol\":2909:2949  (p0 + 1) % 5 == p1 || (p0 + 3) % 5 == p1 */\n      dup1\n      tag_218\n      jumpi\n      pop\n        /* \".git/final_defi/RPSLS.sol\":2947:2949  p1 */\n      dup2\n        /* \".git/final_defi/RPSLS.sol\":2942:2943  5 */\n      0x05\n        /* \".git/final_defi/RPSLS.sol\":2937:2938  3 */\n      0x03\n        /* \".git/final_defi/RPSLS.sol\":2932:2934  p0 */\n      dup6\n        /* \".git/final_defi/RPSLS.sol\":2932:2938  p0 + 3 */\n      tag_219\n      swap2\n      swap1\n      tag_177\n      jump\t// in\n    tag_219:\n        /* \".git/final_defi/RPSLS.sol\":2931:2943  (p0 + 3) % 5 */\n      tag_220\n      swap2\n      swap1\n      tag_217\n      jump\t// in\n    tag_220:\n        /* \".git/final_defi/RPSLS.sol\":2931:2949  (p0 + 3) % 5 == p1 */\n      eq\n        /* \".git/final_defi/RPSLS.sol\":2909:2949  (p0 + 1) % 5 == p1 || (p0 + 3) % 5 == p1 */\n    tag_218:\n        /* \".git/final_defi/RPSLS.sol\":2905:3095  if ((p0 + 1) % 5 == p1 || (p0 + 3) % 5 == p1) {... */\n      iszero\n      tag_221\n      jumpi\n        /* \".git/final_defi/RPSLS.sol\":2975:2982  players */\n      0x04\n        /* \".git/final_defi/RPSLS.sol\":2983:2984  1 */\n      0x01\n        /* \".git/final_defi/RPSLS.sol\":2975:2985  players[1] */\n      dup2\n      sload\n      dup2\n      lt\n      tag_222\n      jumpi\n      tag_223\n      tag_78\n      jump\t// in\n    tag_223:\n    tag_222:\n      swap1\n      0x00\n      mstore\n      keccak256(0x00, 0x20)\n      add\n      0x00\n      swap1\n      sload\n      swap1\n      0x0100\n      exp\n      swap1\n      div\n      0xffffffffffffffffffffffffffffffffffffffff\n      and\n        /* \".git/final_defi/RPSLS.sol\":2966:2985  winner = players[1] */\n      swap1\n      pop\n        /* \".git/final_defi/RPSLS.sol\":2905:3095  if ((p0 + 1) % 5 == p1 || (p0 + 3) % 5 == p1) {... */\n      jump(tag_225)\n    tag_221:\n        /* \".git/final_defi/RPSLS.sol\":3023:3025  p0 */\n      dup3\n        /* \".git/final_defi/RPSLS.sol\":3018:3019  5 */\n      0x05\n        /* \".git/final_defi/RPSLS.sol\":3013:3014  1 */\n      0x01\n        /* \".git/final_defi/RPSLS.sol\":3008:3010  p1 */\n      dup5\n        /* \".git/final_defi/RPSLS.sol\":3008:3014  p1 + 1 */\n      tag_226\n      swap2\n      swap1\n      tag_177\n      jump\t// in\n    tag_226:\n        /* \".git/final_defi/RPSLS.sol\":3007:3019  (p1 + 1) % 5 */\n      tag_227\n      swap2\n      swap1\n      tag_217\n      jump\t// in\n    tag_227:\n        /* \".git/final_defi/RPSLS.sol\":3007:3025  (p1 + 1) % 5 == p0 */\n      eq\n        /* \".git/final_defi/RPSLS.sol\":3007:3047  (p1 + 1) % 5 == p0 || (p1 + 3) % 5 == p0 */\n      dup1\n      tag_228\n      jumpi\n      pop\n        /* \".git/final_defi/RPSLS.sol\":3045:3047  p0 */\n      dup3\n        /* \".git/final_defi/RPSLS.sol\":3040:3041  5 */\n      0x05\n        /* \".git/final_defi/RPSLS.sol\":3035:3036  3 */\n      0x03\n        /* \".git/final_defi/RPSLS.sol\":3030:3032  p1 */\n      dup5\n        /* \".git/final_defi/RPSLS.sol\":3030:3036  p1 + 3 */\n      tag_229\n      swap2\n      swap1\n      tag_177\n      jump\t// in\n    tag_229:\n        /* \".git/final_defi/RPSLS.sol\":3029:3041  (p1 + 3) % 5 */\n      tag_230\n      swap2\n      swap1\n      tag_217\n      jump\t// in\n    tag_230:\n        /* \".git/final_defi/RPSLS.sol\":3029:3047  (p1 + 3) % 5 == p0 */\n      eq\n        /* \".git/final_defi/RPSLS.sol\":3007:3047  (p1 + 1) % 5 == p0 || (p1 + 3) % 5 == p0 */\n    tag_228:\n        /* \".git/final_defi/RPSLS.sol\":3003:3095  if ((p1 + 1) % 5 == p0 || (p1 + 3) % 5 == p0) {... */\n      iszero\n      tag_231\n      jumpi\n        /* \".git/final_defi/RPSLS.sol\":3073:3080  players */\n      0x04\n        /* \".git/final_defi/RPSLS.sol\":3081:3082  0 */\n      0x00\n        /* \".git/final_defi/RPSLS.sol\":3073:3083  players[0] */\n      dup2\n      sload\n      dup2\n      lt\n      tag_232\n      jumpi\n      tag_233\n      tag_78\n      jump\t// in\n    tag_233:\n    tag_232:\n      swap1\n      0x00\n      mstore\n      keccak256(0x00, 0x20)\n      add\n      0x00\n      swap1\n      sload\n      swap1\n      0x0100\n      exp\n      swap1\n      div\n      0xffffffffffffffffffffffffffffffffffffffff\n      and\n        /* \".git/final_defi/RPSLS.sol\":3064:3083  winner = players[0] */\n      swap1\n      pop\n        /* \".git/final_defi/RPSLS.sol\":3003:3095  if ((p1 + 1) % 5 == p0 || (p1 + 3) % 5 == p0) {... */\n    tag_231:\n        /* \".git/final_defi/RPSLS.sol\":2905:3095  if ((p0 + 1) % 5 == p1 || (p0 + 3) % 5 == p1) {... */\n    tag_225:\n        /* \".git/final_defi/RPSLS.sol\":3137:3138  0 */\n      0x00\n        /* \".git/final_defi/RPSLS.sol\":3119:3139  winner != address(0) */\n      0xffffffffffffffffffffffffffffffffffffffff\n      and\n        /* \".git/final_defi/RPSLS.sol\":3119:3125  winner */\n      dup2\n        /* \".git/final_defi/RPSLS.sol\":3119:3139  winner != address(0) */\n      0xffffffffffffffffffffffffffffffffffffffff\n      and\n      eq\n        /* \".git/final_defi/RPSLS.sol\":3115:3367  if (winner != address(0)) {... */\n      tag_235\n      jumpi\n        /* \".git/final_defi/RPSLS.sol\":3179:3184  token */\n      0x07\n      0x01\n      swap1\n      sload\n      swap1\n      0x0100\n      exp\n      swap1\n      div\n      0xffffffffffffffffffffffffffffffffffffffff\n      and\n        /* \".git/final_defi/RPSLS.sol\":3164:3195  IERC20(address(token)).transfer */\n      0xffffffffffffffffffffffffffffffffffffffff\n      and\n      0xa9059cbb\n        /* \".git/final_defi/RPSLS.sol\":3196:3202  winner */\n      dup3\n        /* \".git/final_defi/RPSLS.sol\":3204:3210  reward */\n      sload(0x00)\n        /* \".git/final_defi/RPSLS.sol\":3164:3211  IERC20(address(token)).transfer(winner, reward) */\n      mload(0x40)\n      dup4\n      0xffffffff\n      and\n      0xe0\n      shl\n      dup2\n      mstore\n      0x04\n      add\n      tag_236\n      swap3\n      swap2\n      swap1\n      tag_89\n      jump\t// in\n    tag_236:\n      0x20\n      mload(0x40)\n      dup1\n      dup4\n      sub\n      dup2\n      0x00\n      dup8\n      gas\n      call\n      iszero\n      dup1\n      iszero\n      tag_238\n      jumpi\n      returndatasize\n      0x00\n      dup1\n      returndatacopy\n      revert(0x00, returndatasize)\n    tag_238:\n      pop\n      pop\n      pop\n      pop\n      mload(0x40)\n      returndatasize\n      not(0x1f)\n      0x1f\n      dup3\n      add\n      and\n      dup3\n      add\n      dup1\n      0x40\n      mstore\n      pop\n      dup2\n      add\n      swap1\n      tag_239\n      swap2\n      swap1\n      tag_93\n      jump\t// in\n    tag_239:\n        /* \".git/final_defi/RPSLS.sol\":3156:3231  require(IERC20(address(token)).transfer(winner, reward), \"Transfer failed\") */\n      tag_240\n      jumpi\n      mload(0x40)\n      0x08c379a000000000000000000000000000000000000000000000000000000000\n      dup2\n      mstore\n      0x04\n      add\n      tag_241\n      swap1\n      tag_242\n      jump\t// in\n    tag_241:\n      mload(0x40)\n      dup1\n      swap2\n      sub\n      swap1\n      revert\n    tag_240:\n        /* \".git/final_defi/RPSLS.sol\":3115:3367  if (winner != address(0)) {... */\n      jump(tag_243)\n    tag_235:\n        /* \".git/final_defi/RPSLS.sol\":3264:3269  token */\n      0x07\n      0x01\n      swap1\n      sload\n      swap1\n      0x0100\n      exp\n      swap1\n      div\n      0xffffffffffffffffffffffffffffffffffffffff\n      and\n        /* \".git/final_defi/RPSLS.sol\":3264:3278  token.transfer */\n      0xffffffffffffffffffffffffffffffffffffffff\n      and\n      0xa9059cbb\n        /* \".git/final_defi/RPSLS.sol\":3279:3286  players */\n      0x04\n        /* \".git/final_defi/RPSLS.sol\":3287:3288  0 */\n      0x00\n        /* \".git/final_defi/RPSLS.sol\":3279:3289  players[0] */\n      dup2\n      sload\n      dup2\n      lt\n      tag_244\n      jumpi\n      tag_245\n      tag_78\n      jump\t// in\n    tag_245:\n    tag_244:\n      swap1\n      0x00\n      mstore\n      keccak256(0x00, 0x20)\n      add\n      0x00\n      swap1\n      sload\n      swap1\n      0x0100\n      exp\n      swap1\n      div\n      0xffffffffffffffffffffffffffffffffffffffff\n      and\n        /* \".git/final_defi/RPSLS.sol\":3300:3301  2 */\n      0x02\n        /* \".git/final_defi/RPSLS.sol\":3291:3297  reward */\n      sload(0x00)\n        /* \".git/final_defi/RPSLS.sol\":3291:3301  reward / 2 */\n      tag_247\n      swap2\n      swap1\n      tag_248\n      jump\t// in\n    tag_247:\n        /* \".git/final_defi/RPSLS.sol\":3264:3302  token.transfer(players[0], reward / 2) */\n      mload(0x40)\n      dup4\n      0xffffffff\n      and\n      0xe0\n      shl\n      dup2\n      mstore\n      0x04\n      add\n      tag_249\n      swap3\n      swap2\n      swap1\n      tag_89\n      jump\t// in\n    tag_249:\n      0x20\n      mload(0x40)\n      dup1\n      dup4\n      sub\n      dup2\n      0x00\n      dup8\n      gas\n      call\n      iszero\n      dup1\n      iszero\n      tag_251\n      jumpi\n      returndatasize\n      0x00\n      dup1\n      returndatacopy\n      revert(0x00, returndatasize)\n    tag_251:\n      pop\n      pop\n      pop\n      pop\n      mload(0x40)\n      returndatasize\n      not(0x1f)\n      0x1f\n      dup3\n      add\n      and\n      dup3\n      add\n      dup1\n      0x40\n      mstore\n      pop\n      dup2\n      add\n      swap1\n      tag_252\n      swap2\n      swap1\n      tag_93\n      jump\t// in\n    tag_252:\n      pop\n        /* \".git/final_defi/RPSLS.sol\":3317:3322  token */\n      0x07\n      0x01\n      swap1\n      sload\n      swap1\n      0x0100\n      exp\n      swap1\n      div\n      0xffffffffffffffffffffffffffffffffffffffff\n      and\n        /* \".git/final_defi/RPSLS.sol\":3317:3331  token.transfer */\n      0xffffffffffffffffffffffffffffffffffffffff\n      and\n      0xa9059cbb\n        /* \".git/final_defi/RPSLS.sol\":3332:3339  players */\n      0x04\n        /* \".git/final_defi/RPSLS.sol\":3340:3341  1 */\n      0x01\n        /* \".git/final_defi/RPSLS.sol\":3332:3342  players[1] */\n      dup2\n      sload\n      dup2\n      lt\n      tag_253\n      jumpi\n      tag_254\n      tag_78\n      jump\t// in\n    tag_254:\n    tag_253:\n      swap1\n      0x00\n      mstore\n      keccak256(0x00, 0x20)\n      add\n      0x00\n      swap1\n      sload\n      swap1\n      0x0100\n      exp\n      swap1\n      div\n      0xffffffffffffffffffffffffffffffffffffffff\n      and\n        /* \".git/final_defi/RPSLS.sol\":3353:3354  2 */\n      0x02\n        /* \".git/final_defi/RPSLS.sol\":3344:3350  reward */\n      sload(0x00)\n        /* \".git/final_defi/RPSLS.sol\":3344:3354  reward / 2 */\n      tag_256\n      swap2\n      swap1\n      tag_248\n      jump\t// in\n    tag_256:\n        /* \".git/final_defi/RPSLS.sol\":3317:3355  token.transfer(players[1], reward / 2) */\n      mload(0x40)\n      dup4\n      0xffffffff\n      and\n      0xe0\n      shl\n      dup2\n      mstore\n      0x04\n      add\n      tag_257\n      swap3\n      swap2\n      swap1\n      tag_89\n      jump\t// in\n    tag_257:\n      0x20\n      mload(0x40)\n      dup1\n      dup4\n      sub\n      dup2\n      0x00\n      dup8\n      gas\n      call\n      iszero\n      dup1\n      iszero\n      tag_259\n      jumpi\n      returndatasize\n      0x00\n      dup1\n      returndatacopy\n      revert(0x00, returndatasize)\n    tag_259:\n      pop\n      pop\n      pop\n      pop\n      mload(0x40)\n      returndatasize\n      not(0x1f)\n      0x1f\n      dup3\n      add\n      and\n      dup3\n      add\n      dup1\n      0x40\n      mstore\n      pop\n      dup2\n      add\n      swap1\n      tag_260\n      swap2\n      swap1\n      tag_93\n      jump\t// in\n    tag_260:\n      pop\n        /* \".git/final_defi/RPSLS.sol\":3115:3367  if (winner != address(0)) {... */\n    tag_243:\n        /* \".git/final_defi/RPSLS.sol\":3387:3399  _resetGame() */\n      tag_261\n        /* \".git/final_defi/RPSLS.sol\":3387:3397  _resetGame */\n      tag_116\n        /* \".git/final_defi/RPSLS.sol\":3387:3399  _resetGame() */\n      jump\t// in\n    tag_261:\n        /* \".git/final_defi/RPSLS.sol\":2779:3407  {... */\n      pop\n      pop\n      pop\n        /* \".git/final_defi/RPSLS.sol\":2741:3407  function _checkWinnerAndPay() private {... */\n      jump\t// out\n    tag_207:\n      pop\n      dup1\n      sload\n      0x00\n      dup3\n      sstore\n      swap1\n      0x00\n      mstore\n      keccak256(0x00, 0x20)\n      swap1\n      dup2\n      add\n      swap1\n      tag_263\n      swap2\n      swap1\n      tag_264\n      jump\t// in\n    tag_263:\n      pop\n      jump\t// out\n    tag_264:\n    tag_265:\n      dup1\n      dup3\n      gt\n      iszero\n      tag_266\n      jumpi\n      0x00\n      dup2\n      0x00\n      swap1\n      sstore\n      pop\n      0x01\n      add\n      jump(tag_265)\n    tag_266:\n      pop\n      swap1\n      jump\t// out\n        /* \"#utility.yul\":7:84   */\n    tag_267:\n        /* \"#utility.yul\":44:51   */\n      0x00\n        /* \"#utility.yul\":73:78   */\n      dup2\n        /* \"#utility.yul\":62:78   */\n      swap1\n      pop\n        /* \"#utility.yul\":7:84   */\n      swap2\n      swap1\n      pop\n      jump\t// out\n        /* \"#utility.yul\":90:208   */\n    tag_268:\n        /* \"#utility.yul\":177:201   */\n      tag_337\n        /* \"#utility.yul\":195:200   */\n      dup2\n        /* \"#utility.yul\":177:201   */\n      tag_267\n      jump\t// in\n    tag_337:\n        /* \"#utility.yul\":172:175   */\n      dup3\n        /* \"#utility.yul\":165:202   */\n      mstore\n        /* \"#utility.yul\":90:208   */\n      pop\n      pop\n      jump\t// out\n        /* \"#utility.yul\":214:436   */\n    tag_21:\n        /* \"#utility.yul\":307:311   */\n      0x00\n        /* \"#utility.yul\":345:347   */\n      0x20\n        /* \"#utility.yul\":334:343   */\n      dup3\n        /* \"#utility.yul\":330:348   */\n      add\n        /* \"#utility.yul\":322:348   */\n      swap1\n      pop\n        /* \"#utility.yul\":358:429   */\n      tag_339\n        /* \"#utility.yul\":426:427   */\n      0x00\n        /* \"#utility.yul\":415:424   */\n      dup4\n        /* \"#utility.yul\":411:428   */\n      add\n        /* \"#utility.yul\":402:408   */\n      dup5\n        /* \"#utility.yul\":358:429   */\n      tag_268\n      jump\t// in\n    tag_339:\n        /* \"#utility.yul\":214:436   */\n      swap3\n      swap2\n      pop\n      pop\n      jump\t// out\n        /* \"#utility.yul\":442:517   */\n    tag_269:\n        /* \"#utility.yul\":475:481   */\n      0x00\n        /* \"#utility.yul\":508:510   */\n      0x40\n        /* \"#utility.yul\":502:511   */\n      mload\n        /* \"#utility.yul\":492:511   */\n      swap1\n      pop\n        /* \"#utility.yul\":442:517   */\n      swap1\n      jump\t// out\n        /* \"#utility.yul\":523:640   */\n    tag_270:\n        /* \"#utility.yul\":632:633   */\n      0x00\n        /* \"#utility.yul\":629:630   */\n      dup1\n        /* \"#utility.yul\":622:634   */\n      revert\n        /* \"#utility.yul\":646:763   */\n    tag_271:\n        /* \"#utility.yul\":755:756   */\n      0x00\n        /* \"#utility.yul\":752:753   */\n      dup1\n        /* \"#utility.yul\":745:757   */\n      revert\n        /* \"#utility.yul\":769:895   */\n    tag_272:\n        /* \"#utility.yul\":806:813   */\n      0x00\n        /* \"#utility.yul\":846:888   */\n      0xffffffffffffffffffffffffffffffffffffffff\n        /* \"#utility.yul\":839:844   */\n      dup3\n        /* \"#utility.yul\":835:889   */\n      and\n        /* \"#utility.yul\":824:889   */\n      swap1\n      pop\n        /* \"#utility.yul\":769:895   */\n      swap2\n      swap1\n      pop\n      jump\t// out\n        /* \"#utility.yul\":901:997   */\n    tag_273:\n        /* \"#utility.yul\":938:945   */\n      0x00\n        /* \"#utility.yul\":967:991   */\n      tag_345\n        /* \"#utility.yul\":985:990   */\n      dup3\n        /* \"#utility.yul\":967:991   */\n      tag_272\n      jump\t// in\n    tag_345:\n        /* \"#utility.yul\":956:991   */\n      swap1\n      pop\n        /* \"#utility.yul\":901:997   */\n      swap2\n      swap1\n      pop\n      jump\t// out\n        /* \"#utility.yul\":1003:1125   */\n    tag_274:\n        /* \"#utility.yul\":1076:1100   */\n      tag_347\n        /* \"#utility.yul\":1094:1099   */\n      dup2\n        /* \"#utility.yul\":1076:1100   */\n      tag_273\n      jump\t// in\n    tag_347:\n        /* \"#utility.yul\":1069:1074   */\n      dup2\n        /* \"#utility.yul\":1066:1101   */\n      eq\n        /* \"#utility.yul\":1056:1119   */\n      tag_348\n      jumpi\n        /* \"#utility.yul\":1115:1116   */\n      0x00\n        /* \"#utility.yul\":1112:1113   */\n      dup1\n        /* \"#utility.yul\":1105:1117   */\n      revert\n        /* \"#utility.yul\":1056:1119   */\n    tag_348:\n        /* \"#utility.yul\":1003:1125   */\n      pop\n      jump\t// out\n        /* \"#utility.yul\":1131:1270   */\n    tag_275:\n        /* \"#utility.yul\":1177:1182   */\n      0x00\n        /* \"#utility.yul\":1215:1221   */\n      dup2\n        /* \"#utility.yul\":1202:1222   */\n      calldataload\n        /* \"#utility.yul\":1193:1222   */\n      swap1\n      pop\n        /* \"#utility.yul\":1231:1264   */\n      tag_350\n        /* \"#utility.yul\":1258:1263   */\n      dup2\n        /* \"#utility.yul\":1231:1264   */\n      tag_274\n      jump\t// in\n    tag_350:\n        /* \"#utility.yul\":1131:1270   */\n      swap3\n      swap2\n      pop\n      pop\n      jump\t// out\n        /* \"#utility.yul\":1276:1605   */\n    tag_27:\n        /* \"#utility.yul\":1335:1341   */\n      0x00\n        /* \"#utility.yul\":1384:1386   */\n      0x20\n        /* \"#utility.yul\":1372:1381   */\n      dup3\n        /* \"#utility.yul\":1363:1370   */\n      dup5\n        /* \"#utility.yul\":1359:1382   */\n      sub\n        /* \"#utility.yul\":1355:1387   */\n      slt\n        /* \"#utility.yul\":1352:1471   */\n      iszero\n      tag_352\n      jumpi\n        /* \"#utility.yul\":1390:1469   */\n      tag_353\n      tag_270\n      jump\t// in\n    tag_353:\n        /* \"#utility.yul\":1352:1471   */\n    tag_352:\n        /* \"#utility.yul\":1510:1511   */\n      0x00\n        /* \"#utility.yul\":1535:1588   */\n      tag_354\n        /* \"#utility.yul\":1580:1587   */\n      dup5\n        /* \"#utility.yul\":1571:1577   */\n      dup3\n        /* \"#utility.yul\":1560:1569   */\n      dup6\n        /* \"#utility.yul\":1556:1578   */\n      add\n        /* \"#utility.yul\":1535:1588   */\n      tag_275\n      jump\t// in\n    tag_354:\n        /* \"#utility.yul\":1525:1588   */\n      swap2\n      pop\n        /* \"#utility.yul\":1481:1598   */\n      pop\n        /* \"#utility.yul\":1276:1605   */\n      swap3\n      swap2\n      pop\n      pop\n      jump\t// out\n        /* \"#utility.yul\":1611:1701   */\n    tag_276:\n        /* \"#utility.yul\":1645:1652   */\n      0x00\n        /* \"#utility.yul\":1688:1693   */\n      dup2\n        /* \"#utility.yul\":1681:1694   */\n      iszero\n        /* \"#utility.yul\":1674:1695   */\n      iszero\n        /* \"#utility.yul\":1663:1695   */\n      swap1\n      pop\n        /* \"#utility.yul\":1611:1701   */\n      swap2\n      swap1\n      pop\n      jump\t// out\n        /* \"#utility.yul\":1707:1816   */\n    tag_277:\n        /* \"#utility.yul\":1788:1809   */\n      tag_357\n        /* \"#utility.yul\":1803:1808   */\n      dup2\n        /* \"#utility.yul\":1788:1809   */\n      tag_276\n      jump\t// in\n    tag_357:\n        /* \"#utility.yul\":1783:1786   */\n      dup3\n        /* \"#utility.yul\":1776:1810   */\n      mstore\n        /* \"#utility.yul\":1707:1816   */\n      pop\n      pop\n      jump\t// out\n        /* \"#utility.yul\":1822:2032   */\n    tag_39:\n        /* \"#utility.yul\":1909:1913   */\n      0x00\n        /* \"#utility.yul\":1947:1949   */\n      0x20\n        /* \"#utility.yul\":1936:1945   */\n      dup3\n        /* \"#utility.yul\":1932:1950   */\n      add\n        /* \"#utility.yul\":1924:1950   */\n      swap1\n      pop\n        /* \"#utility.yul\":1960:2025   */\n      tag_359\n        /* \"#utility.yul\":2022:2023   */\n      0x00\n        /* \"#utility.yul\":2011:2020   */\n      dup4\n        /* \"#utility.yul\":2007:2024   */\n      add\n        /* \"#utility.yul\":1998:2004   */\n      dup5\n        /* \"#utility.yul\":1960:2025   */\n      tag_277\n      jump\t// in\n    tag_359:\n        /* \"#utility.yul\":1822:2032   */\n      swap3\n      swap2\n      pop\n      pop\n      jump\t// out\n        /* \"#utility.yul\":2038:2115   */\n    tag_278:\n        /* \"#utility.yul\":2075:2082   */\n      0x00\n        /* \"#utility.yul\":2104:2109   */\n      dup2\n        /* \"#utility.yul\":2093:2109   */\n      swap1\n      pop\n        /* \"#utility.yul\":2038:2115   */\n      swap2\n      swap1\n      pop\n      jump\t// out\n        /* \"#utility.yul\":2121:2243   */\n    tag_279:\n        /* \"#utility.yul\":2194:2218   */\n      tag_362\n        /* \"#utility.yul\":2212:2217   */\n      dup2\n        /* \"#utility.yul\":2194:2218   */\n      tag_278\n      jump\t// in\n    tag_362:\n        /* \"#utility.yul\":2187:2192   */\n      dup2\n        /* \"#utility.yul\":2184:2219   */\n      eq\n        /* \"#utility.yul\":2174:2237   */\n      tag_363\n      jumpi\n        /* \"#utility.yul\":2233:2234   */\n      0x00\n        /* \"#utility.yul\":2230:2231   */\n      dup1\n        /* \"#utility.yul\":2223:2235   */\n      revert\n        /* \"#utility.yul\":2174:2237   */\n    tag_363:\n        /* \"#utility.yul\":2121:2243   */\n      pop\n      jump\t// out\n        /* \"#utility.yul\":2249:2388   */\n    tag_280:\n        /* \"#utility.yul\":2295:2300   */\n      0x00\n        /* \"#utility.yul\":2333:2339   */\n      dup2\n        /* \"#utility.yul\":2320:2340   */\n      calldataload\n        /* \"#utility.yul\":2311:2340   */\n      swap1\n      pop\n        /* \"#utility.yul\":2349:2382   */\n      tag_365\n        /* \"#utility.yul\":2376:2381   */\n      dup2\n        /* \"#utility.yul\":2349:2382   */\n      tag_279\n      jump\t// in\n    tag_365:\n        /* \"#utility.yul\":2249:2388   */\n      swap3\n      swap2\n      pop\n      pop\n      jump\t// out\n        /* \"#utility.yul\":2394:2723   */\n    tag_42:\n        /* \"#utility.yul\":2453:2459   */\n      0x00\n        /* \"#utility.yul\":2502:2504   */\n      0x20\n        /* \"#utility.yul\":2490:2499   */\n      dup3\n        /* \"#utility.yul\":2481:2488   */\n      dup5\n        /* \"#utility.yul\":2477:2500   */\n      sub\n        /* \"#utility.yul\":2473:2505   */\n      slt\n        /* \"#utility.yul\":2470:2589   */\n      iszero\n      tag_367\n      jumpi\n        /* \"#utility.yul\":2508:2587   */\n      tag_368\n      tag_270\n      jump\t// in\n    tag_368:\n        /* \"#utility.yul\":2470:2589   */\n    tag_367:\n        /* \"#utility.yul\":2628:2629   */\n      0x00\n        /* \"#utility.yul\":2653:2706   */\n      tag_369\n        /* \"#utility.yul\":2698:2705   */\n      dup5\n        /* \"#utility.yul\":2689:2695   */\n      dup3\n        /* \"#utility.yul\":2678:2687   */\n      dup6\n        /* \"#utility.yul\":2674:2696   */\n      add\n        /* \"#utility.yul\":2653:2706   */\n      tag_280\n      jump\t// in\n    tag_369:\n        /* \"#utility.yul\":2643:2706   */\n      swap2\n      pop\n        /* \"#utility.yul\":2599:2716   */\n      pop\n        /* \"#utility.yul\":2394:2723   */\n      swap3\n      swap2\n      pop\n      pop\n      jump\t// out\n        /* \"#utility.yul\":2729:2847   */\n    tag_281:\n        /* \"#utility.yul\":2816:2840   */\n      tag_371\n        /* \"#utility.yul\":2834:2839   */\n      dup2\n        /* \"#utility.yul\":2816:2840   */\n      tag_278\n      jump\t// in\n    tag_371:\n        /* \"#utility.yul\":2811:2814   */\n      dup3\n        /* \"#utility.yul\":2804:2841   */\n      mstore\n        /* \"#utility.yul\":2729:2847   */\n      pop\n      pop\n      jump\t// out\n        /* \"#utility.yul\":2853:3075   */\n    tag_51:\n        /* \"#utility.yul\":2946:2950   */\n      0x00\n        /* \"#utility.yul\":2984:2986   */\n      0x20\n        /* \"#utility.yul\":2973:2982   */\n      dup3\n        /* \"#utility.yul\":2969:2987   */\n      add\n        /* \"#utility.yul\":2961:2987   */\n      swap1\n      pop\n        /* \"#utility.yul\":2997:3068   */\n      tag_373\n        /* \"#utility.yul\":3065:3066   */\n      0x00\n        /* \"#utility.yul\":3054:3063   */\n      dup4\n        /* \"#utility.yul\":3050:3067   */\n      add\n        /* \"#utility.yul\":3041:3047   */\n      dup5\n        /* \"#utility.yul\":2997:3068   */\n      tag_281\n      jump\t// in\n    tag_373:\n        /* \"#utility.yul\":2853:3075   */\n      swap3\n      swap2\n      pop\n      pop\n      jump\t// out\n        /* \"#utility.yul\":3081:3203   */\n    tag_282:\n        /* \"#utility.yul\":3154:3178   */\n      tag_375\n        /* \"#utility.yul\":3172:3177   */\n      dup2\n        /* \"#utility.yul\":3154:3178   */\n      tag_267\n      jump\t// in\n    tag_375:\n        /* \"#utility.yul\":3147:3152   */\n      dup2\n        /* \"#utility.yul\":3144:3179   */\n      eq\n        /* \"#utility.yul\":3134:3197   */\n      tag_376\n      jumpi\n        /* \"#utility.yul\":3193:3194   */\n      0x00\n        /* \"#utility.yul\":3190:3191   */\n      dup1\n        /* \"#utility.yul\":3183:3195   */\n      revert\n        /* \"#utility.yul\":3134:3197   */\n    tag_376:\n        /* \"#utility.yul\":3081:3203   */\n      pop\n      jump\t// out\n        /* \"#utility.yul\":3209:3348   */\n    tag_283:\n        /* \"#utility.yul\":3255:3260   */\n      0x00\n        /* \"#utility.yul\":3293:3299   */\n      dup2\n        /* \"#utility.yul\":3280:3300   */\n      calldataload\n        /* \"#utility.yul\":3271:3300   */\n      swap1\n      pop\n        /* \"#utility.yul\":3309:3342   */\n      tag_378\n        /* \"#utility.yul\":3336:3341   */\n      dup2\n        /* \"#utility.yul\":3309:3342   */\n      tag_282\n      jump\t// in\n    tag_378:\n        /* \"#utility.yul\":3209:3348   */\n      swap3\n      swap2\n      pop\n      pop\n      jump\t// out\n        /* \"#utility.yul\":3354:3471   */\n    tag_284:\n        /* \"#utility.yul\":3463:3464   */\n      0x00\n        /* \"#utility.yul\":3460:3461   */\n      dup1\n        /* \"#utility.yul\":3453:3465   */\n      revert\n        /* \"#utility.yul\":3477:3594   */\n    tag_285:\n        /* \"#utility.yul\":3586:3587   */\n      0x00\n        /* \"#utility.yul\":3583:3584   */\n      dup1\n        /* \"#utility.yul\":3576:3588   */\n      revert\n        /* \"#utility.yul\":3600:3702   */\n    tag_286:\n        /* \"#utility.yul\":3641:3647   */\n      0x00\n        /* \"#utility.yul\":3692:3694   */\n      0x1f\n        /* \"#utility.yul\":3688:3695   */\n      not\n        /* \"#utility.yul\":3683:3685   */\n      0x1f\n        /* \"#utility.yul\":3676:3681   */\n      dup4\n        /* \"#utility.yul\":3672:3686   */\n      add\n        /* \"#utility.yul\":3668:3696   */\n      and\n        /* \"#utility.yul\":3658:3696   */\n      swap1\n      pop\n        /* \"#utility.yul\":3600:3702   */\n      swap2\n      swap1\n      pop\n      jump\t// out\n        /* \"#utility.yul\":3708:3888   */\n    tag_287:\n        /* \"#utility.yul\":3756:3833   */\n      0x4e487b7100000000000000000000000000000000000000000000000000000000\n        /* \"#utility.yul\":3753:3754   */\n      0x00\n        /* \"#utility.yul\":3746:3834   */\n      mstore\n        /* \"#utility.yul\":3853:3857   */\n      0x41\n        /* \"#utility.yul\":3850:3851   */\n      0x04\n        /* \"#utility.yul\":3843:3858   */\n      mstore\n        /* \"#utility.yul\":3877:3881   */\n      0x24\n        /* \"#utility.yul\":3874:3875   */\n      0x00\n        /* \"#utility.yul\":3867:3882   */\n      revert\n        /* \"#utility.yul\":3894:4175   */\n    tag_288:\n        /* \"#utility.yul\":3977:4004   */\n      tag_384\n        /* \"#utility.yul\":3999:4003   */\n      dup3\n        /* \"#utility.yul\":3977:4004   */\n      tag_286\n      jump\t// in\n    tag_384:\n        /* \"#utility.yul\":3969:3975   */\n      dup2\n        /* \"#utility.yul\":3965:4005   */\n      add\n        /* \"#utility.yul\":4107:4113   */\n      dup2\n        /* \"#utility.yul\":4095:4105   */\n      dup2\n        /* \"#utility.yul\":4092:4114   */\n      lt\n        /* \"#utility.yul\":4071:4089   */\n      0xffffffffffffffff\n        /* \"#utility.yul\":4059:4069   */\n      dup3\n        /* \"#utility.yul\":4056:4090   */\n      gt\n        /* \"#utility.yul\":4053:4115   */\n      or\n        /* \"#utility.yul\":4050:4138   */\n      iszero\n      tag_385\n      jumpi\n        /* \"#utility.yul\":4118:4136   */\n      tag_386\n      tag_287\n      jump\t// in\n    tag_386:\n        /* \"#utility.yul\":4050:4138   */\n    tag_385:\n        /* \"#utility.yul\":4158:4168   */\n      dup1\n        /* \"#utility.yul\":4154:4156   */\n      0x40\n        /* \"#utility.yul\":4147:4169   */\n      mstore\n        /* \"#utility.yul\":3937:4175   */\n      pop\n        /* \"#utility.yul\":3894:4175   */\n      pop\n      pop\n      jump\t// out\n        /* \"#utility.yul\":4181:4310   */\n    tag_289:\n        /* \"#utility.yul\":4215:4221   */\n      0x00\n        /* \"#utility.yul\":4242:4262   */\n      tag_388\n      tag_269\n      jump\t// in\n    tag_388:\n        /* \"#utility.yul\":4232:4262   */\n      swap1\n      pop\n        /* \"#utility.yul\":4271:4304   */\n      tag_389\n        /* \"#utility.yul\":4299:4303   */\n      dup3\n        /* \"#utility.yul\":4291:4297   */\n      dup3\n        /* \"#utility.yul\":4271:4304   */\n      tag_288\n      jump\t// in\n    tag_389:\n        /* \"#utility.yul\":4181:4310   */\n      swap2\n      swap1\n      pop\n      jump\t// out\n        /* \"#utility.yul\":4316:4624   */\n    tag_290:\n        /* \"#utility.yul\":4378:4382   */\n      0x00\n        /* \"#utility.yul\":4468:4486   */\n      0xffffffffffffffff\n        /* \"#utility.yul\":4460:4466   */\n      dup3\n        /* \"#utility.yul\":4457:4487   */\n      gt\n        /* \"#utility.yul\":4454:4510   */\n      iszero\n      tag_391\n      jumpi\n        /* \"#utility.yul\":4490:4508   */\n      tag_392\n      tag_287\n      jump\t// in\n    tag_392:\n        /* \"#utility.yul\":4454:4510   */\n    tag_391:\n        /* \"#utility.yul\":4528:4557   */\n      tag_393\n        /* \"#utility.yul\":4550:4556   */\n      dup3\n        /* \"#utility.yul\":4528:4557   */\n      tag_286\n      jump\t// in\n    tag_393:\n        /* \"#utility.yul\":4520:4557   */\n      swap1\n      pop\n        /* \"#utility.yul\":4612:4616   */\n      0x20\n        /* \"#utility.yul\":4606:4610   */\n      dup2\n        /* \"#utility.yul\":4602:4617   */\n      add\n        /* \"#utility.yul\":4594:4617   */\n      swap1\n      pop\n        /* \"#utility.yul\":4316:4624   */\n      swap2\n      swap1\n      pop\n      jump\t// out\n        /* \"#utility.yul\":4630:4778   */\n    tag_291:\n        /* \"#utility.yul\":4728:4734   */\n      dup3\n        /* \"#utility.yul\":4723:4726   */\n      dup2\n        /* \"#utility.yul\":4718:4721   */\n      dup4\n        /* \"#utility.yul\":4705:4735   */\n      calldatacopy\n        /* \"#utility.yul\":4769:4770   */\n      0x00\n        /* \"#utility.yul\":4760:4766   */\n      dup4\n        /* \"#utility.yul\":4755:4758   */\n      dup4\n        /* \"#utility.yul\":4751:4767   */\n      add\n        /* \"#utility.yul\":4744:4771   */\n      mstore\n        /* \"#utility.yul\":4630:4778   */\n      pop\n      pop\n      pop\n      jump\t// out\n        /* \"#utility.yul\":4784:5209   */\n    tag_292:\n        /* \"#utility.yul\":4862:4867   */\n      0x00\n        /* \"#utility.yul\":4887:4953   */\n      tag_396\n        /* \"#utility.yul\":4903:4952   */\n      tag_397\n        /* \"#utility.yul\":4945:4951   */\n      dup5\n        /* \"#utility.yul\":4903:4952   */\n      tag_290\n      jump\t// in\n    tag_397:\n        /* \"#utility.yul\":4887:4953   */\n      tag_289\n      jump\t// in\n    tag_396:\n        /* \"#utility.yul\":4878:4953   */\n      swap1\n      pop\n        /* \"#utility.yul\":4976:4982   */\n      dup3\n        /* \"#utility.yul\":4969:4974   */\n      dup2\n        /* \"#utility.yul\":4962:4983   */\n      mstore\n        /* \"#utility.yul\":5014:5018   */\n      0x20\n        /* \"#utility.yul\":5007:5012   */\n      dup2\n        /* \"#utility.yul\":5003:5019   */\n      add\n        /* \"#utility.yul\":5052:5055   */\n      dup5\n        /* \"#utility.yul\":5043:5049   */\n      dup5\n        /* \"#utility.yul\":5038:5041   */\n      dup5\n        /* \"#utility.yul\":5034:5050   */\n      add\n        /* \"#utility.yul\":5031:5056   */\n      gt\n        /* \"#utility.yul\":5028:5140   */\n      iszero\n      tag_398\n      jumpi\n        /* \"#utility.yul\":5059:5138   */\n      tag_399\n      tag_285\n      jump\t// in\n    tag_399:\n        /* \"#utility.yul\":5028:5140   */\n    tag_398:\n        /* \"#utility.yul\":5149:5203   */\n      tag_400\n        /* \"#utility.yul\":5196:5202   */\n      dup5\n        /* \"#utility.yul\":5191:5194   */\n      dup3\n        /* \"#utility.yul\":5186:5189   */\n      dup6\n        /* \"#utility.yul\":5149:5203   */\n      tag_291\n      jump\t// in\n    tag_400:\n        /* \"#utility.yul\":4868:5209   */\n      pop\n        /* \"#utility.yul\":4784:5209   */\n      swap4\n      swap3\n      pop\n      pop\n      pop\n      jump\t// out\n        /* \"#utility.yul\":5229:5569   */\n    tag_293:\n        /* \"#utility.yul\":5285:5290   */\n      0x00\n        /* \"#utility.yul\":5334:5337   */\n      dup3\n        /* \"#utility.yul\":5327:5331   */\n      0x1f\n        /* \"#utility.yul\":5319:5325   */\n      dup4\n        /* \"#utility.yul\":5315:5332   */\n      add\n        /* \"#utility.yul\":5311:5338   */\n      slt\n        /* \"#utility.yul\":5301:5423   */\n      tag_402\n      jumpi\n        /* \"#utility.yul\":5342:5421   */\n      tag_403\n      tag_284\n      jump\t// in\n    tag_403:\n        /* \"#utility.yul\":5301:5423   */\n    tag_402:\n        /* \"#utility.yul\":5459:5465   */\n      dup2\n        /* \"#utility.yul\":5446:5466   */\n      calldataload\n        /* \"#utility.yul\":5484:5563   */\n      tag_404\n        /* \"#utility.yul\":5559:5562   */\n      dup5\n        /* \"#utility.yul\":5551:5557   */\n      dup3\n        /* \"#utility.yul\":5544:5548   */\n      0x20\n        /* \"#utility.yul\":5536:5542   */\n      dup7\n        /* \"#utility.yul\":5532:5549   */\n      add\n        /* \"#utility.yul\":5484:5563   */\n      tag_292\n      jump\t// in\n    tag_404:\n        /* \"#utility.yul\":5475:5563   */\n      swap2\n      pop\n        /* \"#utility.yul\":5291:5569   */\n      pop\n        /* \"#utility.yul\":5229:5569   */\n      swap3\n      swap2\n      pop\n      pop\n      jump\t// out\n        /* \"#utility.yul\":5575:6229   */\n    tag_57:\n        /* \"#utility.yul\":5653:5659   */\n      0x00\n        /* \"#utility.yul\":5661:5667   */\n      dup1\n        /* \"#utility.yul\":5710:5712   */\n      0x40\n        /* \"#utility.yul\":5698:5707   */\n      dup4\n        /* \"#utility.yul\":5689:5696   */\n      dup6\n        /* \"#utility.yul\":5685:5708   */\n      sub\n        /* \"#utility.yul\":5681:5713   */\n      slt\n        /* \"#utility.yul\":5678:5797   */\n      iszero\n      tag_406\n      jumpi\n        /* \"#utility.yul\":5716:5795   */\n      tag_407\n      tag_270\n      jump\t// in\n    tag_407:\n        /* \"#utility.yul\":5678:5797   */\n    tag_406:\n        /* \"#utility.yul\":5836:5837   */\n      0x00\n        /* \"#utility.yul\":5861:5914   */\n      tag_408\n        /* \"#utility.yul\":5906:5913   */\n      dup6\n        /* \"#utility.yul\":5897:5903   */\n      dup3\n        /* \"#utility.yul\":5886:5895   */\n      dup7\n        /* \"#utility.yul\":5882:5904   */\n      add\n        /* \"#utility.yul\":5861:5914   */\n      tag_283\n      jump\t// in\n    tag_408:\n        /* \"#utility.yul\":5851:5914   */\n      swap3\n      pop\n        /* \"#utility.yul\":5807:5924   */\n      pop\n        /* \"#utility.yul\":5991:5993   */\n      0x20\n        /* \"#utility.yul\":5980:5989   */\n      dup4\n        /* \"#utility.yul\":5976:5994   */\n      add\n        /* \"#utility.yul\":5963:5995   */\n      calldataload\n        /* \"#utility.yul\":6022:6040   */\n      0xffffffffffffffff\n        /* \"#utility.yul\":6014:6020   */\n      dup2\n        /* \"#utility.yul\":6011:6041   */\n      gt\n        /* \"#utility.yul\":6008:6125   */\n      iszero\n      tag_409\n      jumpi\n        /* \"#utility.yul\":6044:6123   */\n      tag_410\n      tag_271\n      jump\t// in\n    tag_410:\n        /* \"#utility.yul\":6008:6125   */\n    tag_409:\n        /* \"#utility.yul\":6149:6212   */\n      tag_411\n        /* \"#utility.yul\":6204:6211   */\n      dup6\n        /* \"#utility.yul\":6195:6201   */\n      dup3\n        /* \"#utility.yul\":6184:6193   */\n      dup7\n        /* \"#utility.yul\":6180:6202   */\n      add\n        /* \"#utility.yul\":6149:6212   */\n      tag_293\n      jump\t// in\n    tag_411:\n        /* \"#utility.yul\":6139:6212   */\n      swap2\n      pop\n        /* \"#utility.yul\":5934:6222   */\n      pop\n        /* \"#utility.yul\":5575:6229   */\n      swap3\n      pop\n      swap3\n      swap1\n      pop\n      jump\t// out\n        /* \"#utility.yul\":6235:6564   */\n    tag_61:\n        /* \"#utility.yul\":6294:6300   */\n      0x00\n        /* \"#utility.yul\":6343:6345   */\n      0x20\n        /* \"#utility.yul\":6331:6340   */\n      dup3\n        /* \"#utility.yul\":6322:6329   */\n      dup5\n        /* \"#utility.yul\":6318:6341   */\n      sub\n        /* \"#utility.yul\":6314:6346   */\n      slt\n        /* \"#utility.yul\":6311:6430   */\n      iszero\n      tag_413\n      jumpi\n        /* \"#utility.yul\":6349:6428   */\n      tag_414\n      tag_270\n      jump\t// in\n    tag_414:\n        /* \"#utility.yul\":6311:6430   */\n    tag_413:\n        /* \"#utility.yul\":6469:6470   */\n      0x00\n        /* \"#utility.yul\":6494:6547   */\n      tag_415\n        /* \"#utility.yul\":6539:6546   */\n      dup5\n        /* \"#utility.yul\":6530:6536   */\n      dup3\n        /* \"#utility.yul\":6519:6528   */\n      dup6\n        /* \"#utility.yul\":6515:6537   */\n      add\n        /* \"#utility.yul\":6494:6547   */\n      tag_283\n      jump\t// in\n    tag_415:\n        /* \"#utility.yul\":6484:6547   */\n      swap2\n      pop\n        /* \"#utility.yul\":6440:6557   */\n      pop\n        /* \"#utility.yul\":6235:6564   */\n      swap3\n      swap2\n      pop\n      pop\n      jump\t// out\n        /* \"#utility.yul\":6570:6688   */\n    tag_294:\n        /* \"#utility.yul\":6657:6681   */\n      tag_417\n        /* \"#utility.yul\":6675:6680   */\n      dup2\n        /* \"#utility.yul\":6657:6681   */\n      tag_273\n      jump\t// in\n    tag_417:\n        /* \"#utility.yul\":6652:6655   */\n      dup3\n        /* \"#utility.yul\":6645:6682   */\n      mstore\n        /* \"#utility.yul\":6570:6688   */\n      pop\n      pop\n      jump\t// out\n        /* \"#utility.yul\":6694:6916   */\n    tag_64:\n        /* \"#utility.yul\":6787:6791   */\n      0x00\n        /* \"#utility.yul\":6825:6827   */\n      0x20\n        /* \"#utility.yul\":6814:6823   */\n      dup3\n        /* \"#utility.yul\":6810:6828   */\n      add\n        /* \"#utility.yul\":6802:6828   */\n      swap1\n      pop\n        /* \"#utility.yul\":6838:6909   */\n      tag_419\n        /* \"#utility.yul\":6906:6907   */\n      0x00\n        /* \"#utility.yul\":6895:6904   */\n      dup4\n        /* \"#utility.yul\":6891:6908   */\n      add\n        /* \"#utility.yul\":6882:6888   */\n      dup5\n        /* \"#utility.yul\":6838:6909   */\n      tag_294\n      jump\t// in\n    tag_419:\n        /* \"#utility.yul\":6694:6916   */\n      swap3\n      swap2\n      pop\n      pop\n      jump\t// out\n        /* \"#utility.yul\":6922:6982   */\n    tag_295:\n        /* \"#utility.yul\":6950:6953   */\n      0x00\n        /* \"#utility.yul\":6971:6976   */\n      dup2\n        /* \"#utility.yul\":6964:6976   */\n      swap1\n      pop\n        /* \"#utility.yul\":6922:6982   */\n      swap2\n      swap1\n      pop\n      jump\t// out\n        /* \"#utility.yul\":6988:7130   */\n    tag_296:\n        /* \"#utility.yul\":7038:7047   */\n      0x00\n        /* \"#utility.yul\":7071:7124   */\n      tag_422\n        /* \"#utility.yul\":7089:7123   */\n      tag_423\n        /* \"#utility.yul\":7098:7122   */\n      tag_424\n        /* \"#utility.yul\":7116:7121   */\n      dup5\n        /* \"#utility.yul\":7098:7122   */\n      tag_272\n      jump\t// in\n    tag_424:\n        /* \"#utility.yul\":7089:7123   */\n      tag_295\n      jump\t// in\n    tag_423:\n        /* \"#utility.yul\":7071:7124   */\n      tag_272\n      jump\t// in\n    tag_422:\n        /* \"#utility.yul\":7058:7124   */\n      swap1\n      pop\n        /* \"#utility.yul\":6988:7130   */\n      swap2\n      swap1\n      pop\n      jump\t// out\n        /* \"#utility.yul\":7136:7262   */\n    tag_297:\n        /* \"#utility.yul\":7186:7195   */\n      0x00\n        /* \"#utility.yul\":7219:7256   */\n      tag_426\n        /* \"#utility.yul\":7250:7255   */\n      dup3\n        /* \"#utility.yul\":7219:7256   */\n      tag_296\n      jump\t// in\n    tag_426:\n        /* \"#utility.yul\":7206:7256   */\n      swap1\n      pop\n        /* \"#utility.yul\":7136:7262   */\n      swap2\n      swap1\n      pop\n      jump\t// out\n        /* \"#utility.yul\":7268:7408   */\n    tag_298:\n        /* \"#utility.yul\":7332:7341   */\n      0x00\n        /* \"#utility.yul\":7365:7402   */\n      tag_428\n        /* \"#utility.yul\":7396:7401   */\n      dup3\n        /* \"#utility.yul\":7365:7402   */\n      tag_297\n      jump\t// in\n    tag_428:\n        /* \"#utility.yul\":7352:7402   */\n      swap1\n      pop\n        /* \"#utility.yul\":7268:7408   */\n      swap2\n      swap1\n      pop\n      jump\t// out\n        /* \"#utility.yul\":7414:7573   */\n    tag_299:\n        /* \"#utility.yul\":7515:7566   */\n      tag_430\n        /* \"#utility.yul\":7560:7565   */\n      dup2\n        /* \"#utility.yul\":7515:7566   */\n      tag_298\n      jump\t// in\n    tag_430:\n        /* \"#utility.yul\":7510:7513   */\n      dup3\n        /* \"#utility.yul\":7503:7567   */\n      mstore\n        /* \"#utility.yul\":7414:7573   */\n      pop\n      pop\n      jump\t// out\n        /* \"#utility.yul\":7579:7829   */\n    tag_68:\n        /* \"#utility.yul\":7686:7690   */\n      0x00\n        /* \"#utility.yul\":7724:7726   */\n      0x20\n        /* \"#utility.yul\":7713:7722   */\n      dup3\n        /* \"#utility.yul\":7709:7727   */\n      add\n        /* \"#utility.yul\":7701:7727   */\n      swap1\n      pop\n        /* \"#utility.yul\":7737:7822   */\n      tag_432\n        /* \"#utility.yul\":7819:7820   */\n      0x00\n        /* \"#utility.yul\":7808:7817   */\n      dup4\n        /* \"#utility.yul\":7804:7821   */\n      add\n        /* \"#utility.yul\":7795:7801   */\n      dup5\n        /* \"#utility.yul\":7737:7822   */\n      tag_299\n      jump\t// in\n    tag_432:\n        /* \"#utility.yul\":7579:7829   */\n      swap3\n      swap2\n      pop\n      pop\n      jump\t// out\n        /* \"#utility.yul\":7835:8004   */\n    tag_300:\n        /* \"#utility.yul\":7919:7930   */\n      0x00\n        /* \"#utility.yul\":7953:7959   */\n      dup3\n        /* \"#utility.yul\":7948:7951   */\n      dup3\n        /* \"#utility.yul\":7941:7960   */\n      mstore\n        /* \"#utility.yul\":7993:7997   */\n      0x20\n        /* \"#utility.yul\":7988:7991   */\n      dup3\n        /* \"#utility.yul\":7984:7998   */\n      add\n        /* \"#utility.yul\":7969:7998   */\n      swap1\n      pop\n        /* \"#utility.yul\":7835:8004   */\n      swap3\n      swap2\n      pop\n      pop\n      jump\t// out\n        /* \"#utility.yul\":8010:8178   */\n    tag_301:\n        /* \"#utility.yul\":8150:8170   */\n      0x47616d65206973206e6f74206163746976650000000000000000000000000000\n        /* \"#utility.yul\":8146:8147   */\n      0x00\n        /* \"#utility.yul\":8138:8144   */\n      dup3\n        /* \"#utility.yul\":8134:8148   */\n      add\n        /* \"#utility.yul\":8127:8171   */\n      mstore\n        /* \"#utility.yul\":8010:8178   */\n      pop\n      jump\t// out\n        /* \"#utility.yul\":8184:8550   */\n    tag_302:\n        /* \"#utility.yul\":8326:8329   */\n      0x00\n        /* \"#utility.yul\":8347:8414   */\n      tag_436\n        /* \"#utility.yul\":8411:8413   */\n      0x12\n        /* \"#utility.yul\":8406:8409   */\n      dup4\n        /* \"#utility.yul\":8347:8414   */\n      tag_300\n      jump\t// in\n    tag_436:\n        /* \"#utility.yul\":8340:8414   */\n      swap2\n      pop\n        /* \"#utility.yul\":8423:8516   */\n      tag_437\n        /* \"#utility.yul\":8512:8515   */\n      dup3\n        /* \"#utility.yul\":8423:8516   */\n      tag_301\n      jump\t// in\n    tag_437:\n        /* \"#utility.yul\":8541:8543   */\n      0x20\n        /* \"#utility.yul\":8536:8539   */\n      dup3\n        /* \"#utility.yul\":8532:8544   */\n      add\n        /* \"#utility.yul\":8525:8544   */\n      swap1\n      pop\n        /* \"#utility.yul\":8184:8550   */\n      swap2\n      swap1\n      pop\n      jump\t// out\n        /* \"#utility.yul\":8556:8975   */\n    tag_72:\n        /* \"#utility.yul\":8722:8726   */\n      0x00\n        /* \"#utility.yul\":8760:8762   */\n      0x20\n        /* \"#utility.yul\":8749:8758   */\n      dup3\n        /* \"#utility.yul\":8745:8763   */\n      add\n        /* \"#utility.yul\":8737:8763   */\n      swap1\n      pop\n        /* \"#utility.yul\":8809:8818   */\n      dup2\n        /* \"#utility.yul\":8803:8807   */\n      dup2\n        /* \"#utility.yul\":8799:8819   */\n      sub\n        /* \"#utility.yul\":8795:8796   */\n      0x00\n        /* \"#utility.yul\":8784:8793   */\n      dup4\n        /* \"#utility.yul\":8780:8797   */\n      add\n        /* \"#utility.yul\":8773:8820   */\n      mstore\n        /* \"#utility.yul\":8837:8968   */\n      tag_439\n        /* \"#utility.yul\":8963:8967   */\n      dup2\n        /* \"#utility.yul\":8837:8968   */\n      tag_302\n      jump\t// in\n    tag_439:\n        /* \"#utility.yul\":8829:8968   */\n      swap1\n      pop\n        /* \"#utility.yul\":8556:8975   */\n      swap2\n      swap1\n      pop\n      jump\t// out\n        /* \"#utility.yul\":8981:9154   */\n    tag_303:\n        /* \"#utility.yul\":9121:9146   */\n      0x52657665616c20706572696f64206e6f7420656e646564000000000000000000\n        /* \"#utility.yul\":9117:9118   */\n      0x00\n        /* \"#utility.yul\":9109:9115   */\n      dup3\n        /* \"#utility.yul\":9105:9119   */\n      add\n        /* \"#utility.yul\":9098:9147   */\n      mstore\n        /* \"#utility.yul\":8981:9154   */\n      pop\n      jump\t// out\n        /* \"#utility.yul\":9160:9526   */\n    tag_304:\n        /* \"#utility.yul\":9302:9305   */\n      0x00\n        /* \"#utility.yul\":9323:9390   */\n      tag_442\n        /* \"#utility.yul\":9387:9389   */\n      0x17\n        /* \"#utility.yul\":9382:9385   */\n      dup4\n        /* \"#utility.yul\":9323:9390   */\n      tag_300\n      jump\t// in\n    tag_442:\n        /* \"#utility.yul\":9316:9390   */\n      swap2\n      pop\n        /* \"#utility.yul\":9399:9492   */\n      tag_443\n        /* \"#utility.yul\":9488:9491   */\n      dup3\n        /* \"#utility.yul\":9399:9492   */\n      tag_303\n      jump\t// in\n    tag_443:\n        /* \"#utility.yul\":9517:9519   */\n      0x20\n        /* \"#utility.yul\":9512:9515   */\n      dup3\n        /* \"#utility.yul\":9508:9520   */\n      add\n        /* \"#utility.yul\":9501:9520   */\n      swap1\n      pop\n        /* \"#utility.yul\":9160:9526   */\n      swap2\n      swap1\n      pop\n      jump\t// out\n        /* \"#utility.yul\":9532:9951   */\n    tag_75:\n        /* \"#utility.yul\":9698:9702   */\n      0x00\n        /* \"#utility.yul\":9736:9738   */\n      0x20\n        /* \"#utility.yul\":9725:9734   */\n      dup3\n        /* \"#utility.yul\":9721:9739   */\n      add\n        /* \"#utility.yul\":9713:9739   */\n      swap1\n      pop\n        /* \"#utility.yul\":9785:9794   */\n      dup2\n        /* \"#utility.yul\":9779:9783   */\n      dup2\n        /* \"#utility.yul\":9775:9795   */\n      sub\n        /* \"#utility.yul\":9771:9772   */\n      0x00\n        /* \"#utility.yul\":9760:9769   */\n      dup4\n        /* \"#utility.yul\":9756:9773   */\n      add\n        /* \"#utility.yul\":9749:9796   */\n      mstore\n        /* \"#utility.yul\":9813:9944   */\n      tag_445\n        /* \"#utility.yul\":9939:9943   */\n      dup2\n        /* \"#utility.yul\":9813:9944   */\n      tag_304\n      jump\t// in\n    tag_445:\n        /* \"#utility.yul\":9805:9944   */\n      swap1\n      pop\n        /* \"#utility.yul\":9532:9951   */\n      swap2\n      swap1\n      pop\n      jump\t// out\n        /* \"#utility.yul\":9957:10137   */\n    tag_78:\n        /* \"#utility.yul\":10005:10082   */\n      0x4e487b7100000000000000000000000000000000000000000000000000000000\n        /* \"#utility.yul\":10002:10003   */\n      0x00\n        /* \"#utility.yul\":9995:10083   */\n      mstore\n        /* \"#utility.yul\":10102:10106   */\n      0x32\n        /* \"#utility.yul\":10099:10100   */\n      0x04\n        /* \"#utility.yul\":10092:10107   */\n      mstore\n        /* \"#utility.yul\":10126:10130   */\n      0x24\n        /* \"#utility.yul\":10123:10124   */\n      0x00\n        /* \"#utility.yul\":10116:10131   */\n      revert\n        /* \"#utility.yul\":10143:10475   */\n    tag_89:\n        /* \"#utility.yul\":10264:10268   */\n      0x00\n        /* \"#utility.yul\":10302:10304   */\n      0x40\n        /* \"#utility.yul\":10291:10300   */\n      dup3\n        /* \"#utility.yul\":10287:10305   */\n      add\n        /* \"#utility.yul\":10279:10305   */\n      swap1\n      pop\n        /* \"#utility.yul\":10315:10386   */\n      tag_448\n        /* \"#utility.yul\":10383:10384   */\n      0x00\n        /* \"#utility.yul\":10372:10381   */\n      dup4\n        /* \"#utility.yul\":10368:10385   */\n      add\n        /* \"#utility.yul\":10359:10365   */\n      dup6\n        /* \"#utility.yul\":10315:10386   */\n      tag_294\n      jump\t// in\n    tag_448:\n        /* \"#utility.yul\":10396:10468   */\n      tag_449\n        /* \"#utility.yul\":10464:10466   */\n      0x20\n        /* \"#utility.yul\":10453:10462   */\n      dup4\n        /* \"#utility.yul\":10449:10467   */\n      add\n        /* \"#utility.yul\":10440:10446   */\n      dup5\n        /* \"#utility.yul\":10396:10468   */\n      tag_268\n      jump\t// in\n    tag_449:\n        /* \"#utility.yul\":10143:10475   */\n      swap4\n      swap3\n      pop\n      pop\n      pop\n      jump\t// out\n        /* \"#utility.yul\":10481:10597   */\n    tag_305:\n        /* \"#utility.yul\":10551:10572   */\n      tag_451\n        /* \"#utility.yul\":10566:10571   */\n      dup2\n        /* \"#utility.yul\":10551:10572   */\n      tag_276\n      jump\t// in\n    tag_451:\n        /* \"#utility.yul\":10544:10549   */\n      dup2\n        /* \"#utility.yul\":10541:10573   */\n      eq\n        /* \"#utility.yul\":10531:10591   */\n      tag_452\n      jumpi\n        /* \"#utility.yul\":10587:10588   */\n      0x00\n        /* \"#utility.yul\":10584:10585   */\n      dup1\n        /* \"#utility.yul\":10577:10589   */\n      revert\n        /* \"#utility.yul\":10531:10591   */\n    tag_452:\n        /* \"#utility.yul\":10481:10597   */\n      pop\n      jump\t// out\n        /* \"#utility.yul\":10603:10740   */\n    tag_306:\n        /* \"#utility.yul\":10657:10662   */\n      0x00\n        /* \"#utility.yul\":10688:10694   */\n      dup2\n        /* \"#utility.yul\":10682:10695   */\n      mload\n        /* \"#utility.yul\":10673:10695   */\n      swap1\n      pop\n        /* \"#utility.yul\":10704:10734   */\n      tag_454\n        /* \"#utility.yul\":10728:10733   */\n      dup2\n        /* \"#utility.yul\":10704:10734   */\n      tag_305\n      jump\t// in\n    tag_454:\n        /* \"#utility.yul\":10603:10740   */\n      swap3\n      swap2\n      pop\n      pop\n      jump\t// out\n        /* \"#utility.yul\":10746:11091   */\n    tag_93:\n        /* \"#utility.yul\":10813:10819   */\n      0x00\n        /* \"#utility.yul\":10862:10864   */\n      0x20\n        /* \"#utility.yul\":10850:10859   */\n      dup3\n        /* \"#utility.yul\":10841:10848   */\n      dup5\n        /* \"#utility.yul\":10837:10860   */\n      sub\n        /* \"#utility.yul\":10833:10865   */\n      slt\n        /* \"#utility.yul\":10830:10949   */\n      iszero\n      tag_456\n      jumpi\n        /* \"#utility.yul\":10868:10947   */\n      tag_457\n      tag_270\n      jump\t// in\n    tag_457:\n        /* \"#utility.yul\":10830:10949   */\n    tag_456:\n        /* \"#utility.yul\":10988:10989   */\n      0x00\n        /* \"#utility.yul\":11013:11074   */\n      tag_458\n        /* \"#utility.yul\":11066:11073   */\n      dup5\n        /* \"#utility.yul\":11057:11063   */\n      dup3\n        /* \"#utility.yul\":11046:11055   */\n      dup6\n        /* \"#utility.yul\":11042:11064   */\n      add\n        /* \"#utility.yul\":11013:11074   */\n      tag_306\n      jump\t// in\n    tag_458:\n        /* \"#utility.yul\":11003:11074   */\n      swap2\n      pop\n        /* \"#utility.yul\":10959:11084   */\n      pop\n        /* \"#utility.yul\":10746:11091   */\n      swap3\n      swap2\n      pop\n      pop\n      jump\t// out\n        /* \"#utility.yul\":11097:11275   */\n    tag_307:\n        /* \"#utility.yul\":11237:11267   */\n      0x47616d6520616c7265616479206861732074776f20706c617965727300000000\n        /* \"#utility.yul\":11233:11234   */\n      0x00\n        /* \"#utility.yul\":11225:11231   */\n      dup3\n        /* \"#utility.yul\":11221:11235   */\n      add\n        /* \"#utility.yul\":11214:11268   */\n      mstore\n        /* \"#utility.yul\":11097:11275   */\n      pop\n      jump\t// out\n        /* \"#utility.yul\":11281:11647   */\n    tag_308:\n        /* \"#utility.yul\":11423:11426   */\n      0x00\n        /* \"#utility.yul\":11444:11511   */\n      tag_461\n        /* \"#utility.yul\":11508:11510   */\n      0x1c\n        /* \"#utility.yul\":11503:11506   */\n      dup4\n        /* \"#utility.yul\":11444:11511   */\n      tag_300\n      jump\t// in\n    tag_461:\n        /* \"#utility.yul\":11437:11511   */\n      swap2\n      pop\n        /* \"#utility.yul\":11520:11613   */\n      tag_462\n        /* \"#utility.yul\":11609:11612   */\n      dup3\n        /* \"#utility.yul\":11520:11613   */\n      tag_307\n      jump\t// in\n    tag_462:\n        /* \"#utility.yul\":11638:11640   */\n      0x20\n        /* \"#utility.yul\":11633:11636   */\n      dup3\n        /* \"#utility.yul\":11629:11641   */\n      add\n        /* \"#utility.yul\":11622:11641   */\n      swap1\n      pop\n        /* \"#utility.yul\":11281:11647   */\n      swap2\n      swap1\n      pop\n      jump\t// out\n        /* \"#utility.yul\":11653:12072   */\n    tag_120:\n        /* \"#utility.yul\":11819:11823   */\n      0x00\n        /* \"#utility.yul\":11857:11859   */\n      0x20\n        /* \"#utility.yul\":11846:11855   */\n      dup3\n        /* \"#utility.yul\":11842:11860   */\n      add\n        /* \"#utility.yul\":11834:11860   */\n      swap1\n      pop\n        /* \"#utility.yul\":11906:11915   */\n      dup2\n        /* \"#utility.yul\":11900:11904   */\n      dup2\n        /* \"#utility.yul\":11896:11916   */\n      sub\n        /* \"#utility.yul\":11892:11893   */\n      0x00\n        /* \"#utility.yul\":11881:11890   */\n      dup4\n        /* \"#utility.yul\":11877:11894   */\n      add\n        /* \"#utility.yul\":11870:11917   */\n      mstore\n        /* \"#utility.yul\":11934:12065   */\n      tag_464\n        /* \"#utility.yul\":12060:12064   */\n      dup2\n        /* \"#utility.yul\":11934:12065   */\n      tag_308\n      jump\t// in\n    tag_464:\n        /* \"#utility.yul\":11926:12065   */\n      swap1\n      pop\n        /* \"#utility.yul\":11653:12072   */\n      swap2\n      swap1\n      pop\n      jump\t// out\n        /* \"#utility.yul\":12078:12410   */\n    tag_122:\n        /* \"#utility.yul\":12199:12203   */\n      0x00\n        /* \"#utility.yul\":12237:12239   */\n      0x40\n        /* \"#utility.yul\":12226:12235   */\n      dup3\n        /* \"#utility.yul\":12222:12240   */\n      add\n        /* \"#utility.yul\":12214:12240   */\n      swap1\n      pop\n        /* \"#utility.yul\":12250:12321   */\n      tag_466\n        /* \"#utility.yul\":12318:12319   */\n      0x00\n        /* \"#utility.yul\":12307:12316   */\n      dup4\n        /* \"#utility.yul\":12303:12320   */\n      add\n        /* \"#utility.yul\":12294:12300   */\n      dup6\n        /* \"#utility.yul\":12250:12321   */\n      tag_294\n      jump\t// in\n    tag_466:\n        /* \"#utility.yul\":12331:12403   */\n      tag_467\n        /* \"#utility.yul\":12399:12401   */\n      0x20\n        /* \"#utility.yul\":12388:12397   */\n      dup4\n        /* \"#utility.yul\":12384:12402   */\n      add\n        /* \"#utility.yul\":12375:12381   */\n      dup5\n        /* \"#utility.yul\":12331:12403   */\n      tag_294\n      jump\t// in\n    tag_467:\n        /* \"#utility.yul\":12078:12410   */\n      swap4\n      swap3\n      pop\n      pop\n      pop\n      jump\t// out\n        /* \"#utility.yul\":12416:12559   */\n    tag_309:\n        /* \"#utility.yul\":12473:12478   */\n      0x00\n        /* \"#utility.yul\":12504:12510   */\n      dup2\n        /* \"#utility.yul\":12498:12511   */\n      mload\n        /* \"#utility.yul\":12489:12511   */\n      swap1\n      pop\n        /* \"#utility.yul\":12520:12553   */\n      tag_469\n        /* \"#utility.yul\":12547:12552   */\n      dup2\n        /* \"#utility.yul\":12520:12553   */\n      tag_282\n      jump\t// in\n    tag_469:\n        /* \"#utility.yul\":12416:12559   */\n      swap3\n      swap2\n      pop\n      pop\n      jump\t// out\n        /* \"#utility.yul\":12565:12916   */\n    tag_126:\n        /* \"#utility.yul\":12635:12641   */\n      0x00\n        /* \"#utility.yul\":12684:12686   */\n      0x20\n        /* \"#utility.yul\":12672:12681   */\n      dup3\n        /* \"#utility.yul\":12663:12670   */\n      dup5\n        /* \"#utility.yul\":12659:12682   */\n      sub\n        /* \"#utility.yul\":12655:12687   */\n      slt\n        /* \"#utility.yul\":12652:12771   */\n      iszero\n      tag_471\n      jumpi\n        /* \"#utility.yul\":12690:12769   */\n      tag_472\n      tag_270\n      jump\t// in\n    tag_472:\n        /* \"#utility.yul\":12652:12771   */\n    tag_471:\n        /* \"#utility.yul\":12810:12811   */\n      0x00\n        /* \"#utility.yul\":12835:12899   */\n      tag_473\n        /* \"#utility.yul\":12891:12898   */\n      dup5\n        /* \"#utility.yul\":12882:12888   */\n      dup3\n        /* \"#utility.yul\":12871:12880   */\n      dup6\n        /* \"#utility.yul\":12867:12889   */\n      add\n        /* \"#utility.yul\":12835:12899   */\n      tag_309\n      jump\t// in\n    tag_473:\n        /* \"#utility.yul\":12825:12899   */\n      swap2\n      pop\n        /* \"#utility.yul\":12781:12909   */\n      pop\n        /* \"#utility.yul\":12565:12916   */\n      swap3\n      swap2\n      pop\n      pop\n      jump\t// out\n        /* \"#utility.yul\":12922:13094   */\n    tag_310:\n        /* \"#utility.yul\":13062:13086   */\n      0x496e73756666696369656e7420616c6c6f77616e636500000000000000000000\n        /* \"#utility.yul\":13058:13059   */\n      0x00\n        /* \"#utility.yul\":13050:13056   */\n      dup3\n        /* \"#utility.yul\":13046:13060   */\n      add\n        /* \"#utility.yul\":13039:13087   */\n      mstore\n        /* \"#utility.yul\":12922:13094   */\n      pop\n      jump\t// out\n        /* \"#utility.yul\":13100:13466   */\n    tag_311:\n        /* \"#utility.yul\":13242:13245   */\n      0x00\n        /* \"#utility.yul\":13263:13330   */\n      tag_476\n        /* \"#utility.yul\":13327:13329   */\n      0x16\n        /* \"#utility.yul\":13322:13325   */\n      dup4\n        /* \"#utility.yul\":13263:13330   */\n      tag_300\n      jump\t// in\n    tag_476:\n        /* \"#utility.yul\":13256:13330   */\n      swap2\n      pop\n        /* \"#utility.yul\":13339:13432   */\n      tag_477\n        /* \"#utility.yul\":13428:13431   */\n      dup3\n        /* \"#utility.yul\":13339:13432   */\n      tag_310\n      jump\t// in\n    tag_477:\n        /* \"#utility.yul\":13457:13459   */\n      0x20\n        /* \"#utility.yul\":13452:13455   */\n      dup3\n        /* \"#utility.yul\":13448:13460   */\n      add\n        /* \"#utility.yul\":13441:13460   */\n      swap1\n      pop\n        /* \"#utility.yul\":13100:13466   */\n      swap2\n      swap1\n      pop\n      jump\t// out\n        /* \"#utility.yul\":13472:13891   */\n    tag_129:\n        /* \"#utility.yul\":13638:13642   */\n      0x00\n        /* \"#utility.yul\":13676:13678   */\n      0x20\n        /* \"#utility.yul\":13665:13674   */\n      dup3\n        /* \"#utility.yul\":13661:13679   */\n      add\n        /* \"#utility.yul\":13653:13679   */\n      swap1\n      pop\n        /* \"#utility.yul\":13725:13734   */\n      dup2\n        /* \"#utility.yul\":13719:13723   */\n      dup2\n        /* \"#utility.yul\":13715:13735   */\n      sub\n        /* \"#utility.yul\":13711:13712   */\n      0x00\n        /* \"#utility.yul\":13700:13709   */\n      dup4\n        /* \"#utility.yul\":13696:13713   */\n      add\n        /* \"#utility.yul\":13689:13736   */\n      mstore\n        /* \"#utility.yul\":13753:13884   */\n      tag_479\n        /* \"#utility.yul\":13879:13883   */\n      dup2\n        /* \"#utility.yul\":13753:13884   */\n      tag_311\n      jump\t// in\n    tag_479:\n        /* \"#utility.yul\":13745:13884   */\n      swap1\n      pop\n        /* \"#utility.yul\":13472:13891   */\n      swap2\n      swap1\n      pop\n      jump\t// out\n        /* \"#utility.yul\":13897:14064   */\n    tag_312:\n        /* \"#utility.yul\":14037:14056   */\n      0x43616e6e6f74206a6f696e207477696365000000000000000000000000000000\n        /* \"#utility.yul\":14033:14034   */\n      0x00\n        /* \"#utility.yul\":14025:14031   */\n      dup3\n        /* \"#utility.yul\":14021:14035   */\n      add\n        /* \"#utility.yul\":14014:14057   */\n      mstore\n        /* \"#utility.yul\":13897:14064   */\n      pop\n      jump\t// out\n        /* \"#utility.yul\":14070:14436   */\n    tag_313:\n        /* \"#utility.yul\":14212:14215   */\n      0x00\n        /* \"#utility.yul\":14233:14300   */\n      tag_482\n        /* \"#utility.yul\":14297:14299   */\n      0x11\n        /* \"#utility.yul\":14292:14295   */\n      dup4\n        /* \"#utility.yul\":14233:14300   */\n      tag_300\n      jump\t// in\n    tag_482:\n        /* \"#utility.yul\":14226:14300   */\n      swap2\n      pop\n        /* \"#utility.yul\":14309:14402   */\n      tag_483\n        /* \"#utility.yul\":14398:14401   */\n      dup3\n        /* \"#utility.yul\":14309:14402   */\n      tag_312\n      jump\t// in\n    tag_483:\n        /* \"#utility.yul\":14427:14429   */\n      0x20\n        /* \"#utility.yul\":14422:14425   */\n      dup3\n        /* \"#utility.yul\":14418:14430   */\n      add\n        /* \"#utility.yul\":14411:14430   */\n      swap1\n      pop\n        /* \"#utility.yul\":14070:14436   */\n      swap2\n      swap1\n      pop\n      jump\t// out\n        /* \"#utility.yul\":14442:14861   */\n    tag_136:\n        /* \"#utility.yul\":14608:14612   */\n      0x00\n        /* \"#utility.yul\":14646:14648   */\n      0x20\n        /* \"#utility.yul\":14635:14644   */\n      dup3\n        /* \"#utility.yul\":14631:14649   */\n      add\n        /* \"#utility.yul\":14623:14649   */\n      swap1\n      pop\n        /* \"#utility.yul\":14695:14704   */\n      dup2\n        /* \"#utility.yul\":14689:14693   */\n      dup2\n        /* \"#utility.yul\":14685:14705   */\n      sub\n        /* \"#utility.yul\":14681:14682   */\n      0x00\n        /* \"#utility.yul\":14670:14679   */\n      dup4\n        /* \"#utility.yul\":14666:14683   */\n      add\n        /* \"#utility.yul\":14659:14706   */\n      mstore\n        /* \"#utility.yul\":14723:14854   */\n      tag_485\n        /* \"#utility.yul\":14849:14853   */\n      dup2\n        /* \"#utility.yul\":14723:14854   */\n      tag_313\n      jump\t// in\n    tag_485:\n        /* \"#utility.yul\":14715:14854   */\n      swap1\n      pop\n        /* \"#utility.yul\":14442:14861   */\n      swap2\n      swap1\n      pop\n      jump\t// out\n        /* \"#utility.yul\":14867:15042   */\n    tag_314:\n        /* \"#utility.yul\":15007:15034   */\n      0x506c61796572203120686173206e6f7420617070726f76656400000000000000\n        /* \"#utility.yul\":15003:15004   */\n      0x00\n        /* \"#utility.yul\":14995:15001   */\n      dup3\n        /* \"#utility.yul\":14991:15005   */\n      add\n        /* \"#utility.yul\":14984:15035   */\n      mstore\n        /* \"#utility.yul\":14867:15042   */\n      pop\n      jump\t// out\n        /* \"#utility.yul\":15048:15414   */\n    tag_315:\n        /* \"#utility.yul\":15190:15193   */\n      0x00\n        /* \"#utility.yul\":15211:15278   */\n      tag_488\n        /* \"#utility.yul\":15275:15277   */\n      0x19\n        /* \"#utility.yul\":15270:15273   */\n      dup4\n        /* \"#utility.yul\":15211:15278   */\n      tag_300\n      jump\t// in\n    tag_488:\n        /* \"#utility.yul\":15204:15278   */\n      swap2\n      pop\n        /* \"#utility.yul\":15287:15380   */\n      tag_489\n        /* \"#utility.yul\":15376:15379   */\n      dup3\n        /* \"#utility.yul\":15287:15380   */\n      tag_314\n      jump\t// in\n    tag_489:\n        /* \"#utility.yul\":15405:15407   */\n      0x20\n        /* \"#utility.yul\":15400:15403   */\n      dup3\n        /* \"#utility.yul\":15396:15408   */\n      add\n        /* \"#utility.yul\":15389:15408   */\n      swap1\n      pop\n        /* \"#utility.yul\":15048:15414   */\n      swap2\n      swap1\n      pop\n      jump\t// out\n        /* \"#utility.yul\":15420:15839   */\n    tag_148:\n        /* \"#utility.yul\":15586:15590   */\n      0x00\n        /* \"#utility.yul\":15624:15626   */\n      0x20\n        /* \"#utility.yul\":15613:15622   */\n      dup3\n        /* \"#utility.yul\":15609:15627   */\n      add\n        /* \"#utility.yul\":15601:15627   */\n      swap1\n      pop\n        /* \"#utility.yul\":15673:15682   */\n      dup2\n        /* \"#utility.yul\":15667:15671   */\n      dup2\n        /* \"#utility.yul\":15663:15683   */\n      sub\n        /* \"#utility.yul\":15659:15660   */\n      0x00\n        /* \"#utility.yul\":15648:15657   */\n      dup4\n        /* \"#utility.yul\":15644:15661   */\n      add\n        /* \"#utility.yul\":15637:15684   */\n      mstore\n        /* \"#utility.yul\":15701:15832   */\n      tag_491\n        /* \"#utility.yul\":15827:15831   */\n      dup2\n        /* \"#utility.yul\":15701:15832   */\n      tag_315\n      jump\t// in\n    tag_491:\n        /* \"#utility.yul\":15693:15832   */\n      swap1\n      pop\n        /* \"#utility.yul\":15420:15839   */\n      swap2\n      swap1\n      pop\n      jump\t// out\n        /* \"#utility.yul\":15845:16020   */\n    tag_316:\n        /* \"#utility.yul\":15985:16012   */\n      0x506c61796572203220686173206e6f7420617070726f76656400000000000000\n        /* \"#utility.yul\":15981:15982   */\n      0x00\n        /* \"#utility.yul\":15973:15979   */\n      dup3\n        /* \"#utility.yul\":15969:15983   */\n      add\n        /* \"#utility.yul\":15962:16013   */\n      mstore\n        /* \"#utility.yul\":15845:16020   */\n      pop\n      jump\t// out\n        /* \"#utility.yul\":16026:16392   */\n    tag_317:\n        /* \"#utility.yul\":16168:16171   */\n      0x00\n        /* \"#utility.yul\":16189:16256   */\n      tag_494\n        /* \"#utility.yul\":16253:16255   */\n      0x19\n        /* \"#utility.yul\":16248:16251   */\n      dup4\n        /* \"#utility.yul\":16189:16256   */\n      tag_300\n      jump\t// in\n    tag_494:\n        /* \"#utility.yul\":16182:16256   */\n      swap2\n      pop\n        /* \"#utility.yul\":16265:16358   */\n      tag_495\n        /* \"#utility.yul\":16354:16357   */\n      dup3\n        /* \"#utility.yul\":16265:16358   */\n      tag_316\n      jump\t// in\n    tag_495:\n        /* \"#utility.yul\":16383:16385   */\n      0x20\n        /* \"#utility.yul\":16378:16381   */\n      dup3\n        /* \"#utility.yul\":16374:16386   */\n      add\n        /* \"#utility.yul\":16367:16386   */\n      swap1\n      pop\n        /* \"#utility.yul\":16026:16392   */\n      swap2\n      swap1\n      pop\n      jump\t// out\n        /* \"#utility.yul\":16398:16817   */\n    tag_158:\n        /* \"#utility.yul\":16564:16568   */\n      0x00\n        /* \"#utility.yul\":16602:16604   */\n      0x20\n        /* \"#utility.yul\":16591:16600   */\n      dup3\n        /* \"#utility.yul\":16587:16605   */\n      add\n        /* \"#utility.yul\":16579:16605   */\n      swap1\n      pop\n        /* \"#utility.yul\":16651:16660   */\n      dup2\n        /* \"#utility.yul\":16645:16649   */\n      dup2\n        /* \"#utility.yul\":16641:16661   */\n      sub\n        /* \"#utility.yul\":16637:16638   */\n      0x00\n        /* \"#utility.yul\":16626:16635   */\n      dup4\n        /* \"#utility.yul\":16622:16639   */\n      add\n        /* \"#utility.yul\":16615:16662   */\n      mstore\n        /* \"#utility.yul\":16679:16810   */\n      tag_497\n        /* \"#utility.yul\":16805:16809   */\n      dup2\n        /* \"#utility.yul\":16679:16810   */\n      tag_317\n      jump\t// in\n    tag_497:\n        /* \"#utility.yul\":16671:16810   */\n      swap1\n      pop\n        /* \"#utility.yul\":16398:16817   */\n      swap2\n      swap1\n      pop\n      jump\t// out\n        /* \"#utility.yul\":16823:17265   */\n    tag_163:\n        /* \"#utility.yul\":16972:16976   */\n      0x00\n        /* \"#utility.yul\":17010:17012   */\n      0x60\n        /* \"#utility.yul\":16999:17008   */\n      dup3\n        /* \"#utility.yul\":16995:17013   */\n      add\n        /* \"#utility.yul\":16987:17013   */\n      swap1\n      pop\n        /* \"#utility.yul\":17023:17094   */\n      tag_499\n        /* \"#utility.yul\":17091:17092   */\n      0x00\n        /* \"#utility.yul\":17080:17089   */\n      dup4\n        /* \"#utility.yul\":17076:17093   */\n      add\n        /* \"#utility.yul\":17067:17073   */\n      dup7\n        /* \"#utility.yul\":17023:17094   */\n      tag_294\n      jump\t// in\n    tag_499:\n        /* \"#utility.yul\":17104:17176   */\n      tag_500\n        /* \"#utility.yul\":17172:17174   */\n      0x20\n        /* \"#utility.yul\":17161:17170   */\n      dup4\n        /* \"#utility.yul\":17157:17175   */\n      add\n        /* \"#utility.yul\":17148:17154   */\n      dup6\n        /* \"#utility.yul\":17104:17176   */\n      tag_294\n      jump\t// in\n    tag_500:\n        /* \"#utility.yul\":17186:17258   */\n      tag_501\n        /* \"#utility.yul\":17254:17256   */\n      0x40\n        /* \"#utility.yul\":17243:17252   */\n      dup4\n        /* \"#utility.yul\":17239:17257   */\n      add\n        /* \"#utility.yul\":17230:17236   */\n      dup5\n        /* \"#utility.yul\":17186:17258   */\n      tag_268\n      jump\t// in\n    tag_501:\n        /* \"#utility.yul\":16823:17265   */\n      swap5\n      swap4\n      pop\n      pop\n      pop\n      pop\n      jump\t// out\n        /* \"#utility.yul\":17271:17451   */\n    tag_318:\n        /* \"#utility.yul\":17319:17396   */\n      0x4e487b7100000000000000000000000000000000000000000000000000000000\n        /* \"#utility.yul\":17316:17317   */\n      0x00\n        /* \"#utility.yul\":17309:17397   */\n      mstore\n        /* \"#utility.yul\":17416:17420   */\n      0x11\n        /* \"#utility.yul\":17413:17414   */\n      0x04\n        /* \"#utility.yul\":17406:17421   */\n      mstore\n        /* \"#utility.yul\":17440:17444   */\n      0x24\n        /* \"#utility.yul\":17437:17438   */\n      0x00\n        /* \"#utility.yul\":17430:17445   */\n      revert\n        /* \"#utility.yul\":17457:17867   */\n    tag_175:\n        /* \"#utility.yul\":17497:17504   */\n      0x00\n        /* \"#utility.yul\":17520:17540   */\n      tag_504\n        /* \"#utility.yul\":17538:17539   */\n      dup3\n        /* \"#utility.yul\":17520:17540   */\n      tag_267\n      jump\t// in\n    tag_504:\n        /* \"#utility.yul\":17515:17540   */\n      swap2\n      pop\n        /* \"#utility.yul\":17554:17574   */\n      tag_505\n        /* \"#utility.yul\":17572:17573   */\n      dup4\n        /* \"#utility.yul\":17554:17574   */\n      tag_267\n      jump\t// in\n    tag_505:\n        /* \"#utility.yul\":17549:17574   */\n      swap3\n      pop\n        /* \"#utility.yul\":17609:17610   */\n      dup3\n        /* \"#utility.yul\":17606:17607   */\n      dup3\n        /* \"#utility.yul\":17602:17611   */\n      mul\n        /* \"#utility.yul\":17631:17661   */\n      tag_506\n        /* \"#utility.yul\":17649:17660   */\n      dup2\n        /* \"#utility.yul\":17631:17661   */\n      tag_267\n      jump\t// in\n    tag_506:\n        /* \"#utility.yul\":17620:17661   */\n      swap2\n      pop\n        /* \"#utility.yul\":17810:17811   */\n      dup3\n        /* \"#utility.yul\":17801:17808   */\n      dup3\n        /* \"#utility.yul\":17797:17812   */\n      div\n        /* \"#utility.yul\":17794:17795   */\n      dup5\n        /* \"#utility.yul\":17791:17813   */\n      eq\n        /* \"#utility.yul\":17771:17772   */\n      dup4\n        /* \"#utility.yul\":17764:17773   */\n      iszero\n        /* \"#utility.yul\":17744:17827   */\n      or\n        /* \"#utility.yul\":17721:17860   */\n      tag_507\n      jumpi\n        /* \"#utility.yul\":17840:17858   */\n      tag_508\n      tag_318\n      jump\t// in\n    tag_508:\n        /* \"#utility.yul\":17721:17860   */\n    tag_507:\n        /* \"#utility.yul\":17505:17867   */\n      pop\n        /* \"#utility.yul\":17457:17867   */\n      swap3\n      swap2\n      pop\n      pop\n      jump\t// out\n        /* \"#utility.yul\":17873:18064   */\n    tag_177:\n        /* \"#utility.yul\":17913:17916   */\n      0x00\n        /* \"#utility.yul\":17932:17952   */\n      tag_510\n        /* \"#utility.yul\":17950:17951   */\n      dup3\n        /* \"#utility.yul\":17932:17952   */\n      tag_267\n      jump\t// in\n    tag_510:\n        /* \"#utility.yul\":17927:17952   */\n      swap2\n      pop\n        /* \"#utility.yul\":17966:17986   */\n      tag_511\n        /* \"#utility.yul\":17984:17985   */\n      dup4\n        /* \"#utility.yul\":17966:17986   */\n      tag_267\n      jump\t// in\n    tag_511:\n        /* \"#utility.yul\":17961:17986   */\n      swap3\n      pop\n        /* \"#utility.yul\":18009:18010   */\n      dup3\n        /* \"#utility.yul\":18006:18007   */\n      dup3\n        /* \"#utility.yul\":18002:18011   */\n      add\n        /* \"#utility.yul\":17995:18011   */\n      swap1\n      pop\n        /* \"#utility.yul\":18030:18033   */\n      dup1\n        /* \"#utility.yul\":18027:18028   */\n      dup3\n        /* \"#utility.yul\":18024:18034   */\n      gt\n        /* \"#utility.yul\":18021:18057   */\n      iszero\n      tag_512\n      jumpi\n        /* \"#utility.yul\":18037:18055   */\n      tag_513\n      tag_318\n      jump\t// in\n    tag_513:\n        /* \"#utility.yul\":18021:18057   */\n    tag_512:\n        /* \"#utility.yul\":17873:18064   */\n      swap3\n      swap2\n      pop\n      pop\n      jump\t// out\n        /* \"#utility.yul\":18070:18239   */\n    tag_319:\n        /* \"#utility.yul\":18210:18231   */\n      0x52657665616c20706572696f6420656e64656400000000000000000000000000\n        /* \"#utility.yul\":18206:18207   */\n      0x00\n        /* \"#utility.yul\":18198:18204   */\n      dup3\n        /* \"#utility.yul\":18194:18208   */\n      add\n        /* \"#utility.yul\":18187:18232   */\n      mstore\n        /* \"#utility.yul\":18070:18239   */\n      pop\n      jump\t// out\n        /* \"#utility.yul\":18245:18611   */\n    tag_320:\n        /* \"#utility.yul\":18387:18390   */\n      0x00\n        /* \"#utility.yul\":18408:18475   */\n      tag_516\n        /* \"#utility.yul\":18472:18474   */\n      0x13\n        /* \"#utility.yul\":18467:18470   */\n      dup4\n        /* \"#utility.yul\":18408:18475   */\n      tag_300\n      jump\t// in\n    tag_516:\n        /* \"#utility.yul\":18401:18475   */\n      swap2\n      pop\n        /* \"#utility.yul\":18484:18577   */\n      tag_517\n        /* \"#utility.yul\":18573:18576   */\n      dup3\n        /* \"#utility.yul\":18484:18577   */\n      tag_319\n      jump\t// in\n    tag_517:\n        /* \"#utility.yul\":18602:18604   */\n      0x20\n        /* \"#utility.yul\":18597:18600   */\n      dup3\n        /* \"#utility.yul\":18593:18605   */\n      add\n        /* \"#utility.yul\":18586:18605   */\n      swap1\n      pop\n        /* \"#utility.yul\":18245:18611   */\n      swap2\n      swap1\n      pop\n      jump\t// out\n        /* \"#utility.yul\":18617:19036   */\n    tag_183:\n        /* \"#utility.yul\":18783:18787   */\n      0x00\n        /* \"#utility.yul\":18821:18823   */\n      0x20\n        /* \"#utility.yul\":18810:18819   */\n      dup3\n        /* \"#utility.yul\":18806:18824   */\n      add\n        /* \"#utility.yul\":18798:18824   */\n      swap1\n      pop\n        /* \"#utility.yul\":18870:18879   */\n      dup2\n        /* \"#utility.yul\":18864:18868   */\n      dup2\n        /* \"#utility.yul\":18860:18880   */\n      sub\n        /* \"#utility.yul\":18856:18857   */\n      0x00\n        /* \"#utility.yul\":18845:18854   */\n      dup4\n        /* \"#utility.yul\":18841:18858   */\n      add\n        /* \"#utility.yul\":18834:18881   */\n      mstore\n        /* \"#utility.yul\":18898:19029   */\n      tag_519\n        /* \"#utility.yul\":19024:19028   */\n      dup2\n        /* \"#utility.yul\":18898:19029   */\n      tag_320\n      jump\t// in\n    tag_519:\n        /* \"#utility.yul\":18890:19029   */\n      swap1\n      pop\n        /* \"#utility.yul\":18617:19036   */\n      swap2\n      swap1\n      pop\n      jump\t// out\n        /* \"#utility.yul\":19042:19206   */\n    tag_321:\n        /* \"#utility.yul\":19182:19198   */\n      0x496e76616c69642063686f696365000000000000000000000000000000000000\n        /* \"#utility.yul\":19178:19179   */\n      0x00\n        /* \"#utility.yul\":19170:19176   */\n      dup3\n        /* \"#utility.yul\":19166:19180   */\n      add\n        /* \"#utility.yul\":19159:19199   */\n      mstore\n        /* \"#utility.yul\":19042:19206   */\n      pop\n      jump\t// out\n        /* \"#utility.yul\":19212:19578   */\n    tag_322:\n        /* \"#utility.yul\":19354:19357   */\n      0x00\n        /* \"#utility.yul\":19375:19442   */\n      tag_522\n        /* \"#utility.yul\":19439:19441   */\n      0x0e\n        /* \"#utility.yul\":19434:19437   */\n      dup4\n        /* \"#utility.yul\":19375:19442   */\n      tag_300\n      jump\t// in\n    tag_522:\n        /* \"#utility.yul\":19368:19442   */\n      swap2\n      pop\n        /* \"#utility.yul\":19451:19544   */\n      tag_523\n        /* \"#utility.yul\":19540:19543   */\n      dup3\n        /* \"#utility.yul\":19451:19544   */\n      tag_321\n      jump\t// in\n    tag_523:\n        /* \"#utility.yul\":19569:19571   */\n      0x20\n        /* \"#utility.yul\":19564:19567   */\n      dup3\n        /* \"#utility.yul\":19560:19572   */\n      add\n        /* \"#utility.yul\":19553:19572   */\n      swap1\n      pop\n        /* \"#utility.yul\":19212:19578   */\n      swap2\n      swap1\n      pop\n      jump\t// out\n        /* \"#utility.yul\":19584:20003   */\n    tag_187:\n        /* \"#utility.yul\":19750:19754   */\n      0x00\n        /* \"#utility.yul\":19788:19790   */\n      0x20\n        /* \"#utility.yul\":19777:19786   */\n      dup3\n        /* \"#utility.yul\":19773:19791   */\n      add\n        /* \"#utility.yul\":19765:19791   */\n      swap1\n      pop\n        /* \"#utility.yul\":19837:19846   */\n      dup2\n        /* \"#utility.yul\":19831:19835   */\n      dup2\n        /* \"#utility.yul\":19827:19847   */\n      sub\n        /* \"#utility.yul\":19823:19824   */\n      0x00\n        /* \"#utility.yul\":19812:19821   */\n      dup4\n        /* \"#utility.yul\":19808:19825   */\n      add\n        /* \"#utility.yul\":19801:19848   */\n      mstore\n        /* \"#utility.yul\":19865:19996   */\n      tag_525\n        /* \"#utility.yul\":19991:19995   */\n      dup2\n        /* \"#utility.yul\":19865:19996   */\n      tag_322\n      jump\t// in\n    tag_525:\n        /* \"#utility.yul\":19857:19996   */\n      swap1\n      pop\n        /* \"#utility.yul\":19584:20003   */\n      swap2\n      swap1\n      pop\n      jump\t// out\n        /* \"#utility.yul\":20009:20088   */\n    tag_323:\n        /* \"#utility.yul\":20048:20055   */\n      0x00\n        /* \"#utility.yul\":20077:20082   */\n      dup2\n        /* \"#utility.yul\":20066:20082   */\n      swap1\n      pop\n        /* \"#utility.yul\":20009:20088   */\n      swap2\n      swap1\n      pop\n      jump\t// out\n        /* \"#utility.yul\":20094:20251   */\n    tag_324:\n        /* \"#utility.yul\":20199:20244   */\n      tag_528\n        /* \"#utility.yul\":20219:20243   */\n      tag_529\n        /* \"#utility.yul\":20237:20242   */\n      dup3\n        /* \"#utility.yul\":20219:20243   */\n      tag_267\n      jump\t// in\n    tag_529:\n        /* \"#utility.yul\":20199:20244   */\n      tag_323\n      jump\t// in\n    tag_528:\n        /* \"#utility.yul\":20194:20197   */\n      dup3\n        /* \"#utility.yul\":20187:20245   */\n      mstore\n        /* \"#utility.yul\":20094:20251   */\n      pop\n      pop\n      jump\t// out\n        /* \"#utility.yul\":20257:20356   */\n    tag_325:\n        /* \"#utility.yul\":20309:20315   */\n      0x00\n        /* \"#utility.yul\":20343:20348   */\n      dup2\n        /* \"#utility.yul\":20337:20349   */\n      mload\n        /* \"#utility.yul\":20327:20349   */\n      swap1\n      pop\n        /* \"#utility.yul\":20257:20356   */\n      swap2\n      swap1\n      pop\n      jump\t// out\n        /* \"#utility.yul\":20362:20510   */\n    tag_326:\n        /* \"#utility.yul\":20464:20475   */\n      0x00\n        /* \"#utility.yul\":20501:20504   */\n      dup2\n        /* \"#utility.yul\":20486:20504   */\n      swap1\n      pop\n        /* \"#utility.yul\":20362:20510   */\n      swap3\n      swap2\n      pop\n      pop\n      jump\t// out\n        /* \"#utility.yul\":20516:20655   */\n    tag_327:\n        /* \"#utility.yul\":20605:20611   */\n      dup3\n        /* \"#utility.yul\":20600:20603   */\n      dup2\n        /* \"#utility.yul\":20595:20598   */\n      dup4\n        /* \"#utility.yul\":20589:20612   */\n      mcopy\n        /* \"#utility.yul\":20646:20647   */\n      0x00\n        /* \"#utility.yul\":20637:20643   */\n      dup4\n        /* \"#utility.yul\":20632:20635   */\n      dup4\n        /* \"#utility.yul\":20628:20644   */\n      add\n        /* \"#utility.yul\":20621:20648   */\n      mstore\n        /* \"#utility.yul\":20516:20655   */\n      pop\n      pop\n      pop\n      jump\t// out\n        /* \"#utility.yul\":20661:21051   */\n    tag_328:\n        /* \"#utility.yul\":20767:20770   */\n      0x00\n        /* \"#utility.yul\":20795:20834   */\n      tag_534\n        /* \"#utility.yul\":20828:20833   */\n      dup3\n        /* \"#utility.yul\":20795:20834   */\n      tag_325\n      jump\t// in\n    tag_534:\n        /* \"#utility.yul\":20850:20939   */\n      tag_535\n        /* \"#utility.yul\":20932:20938   */\n      dup2\n        /* \"#utility.yul\":20927:20930   */\n      dup6\n        /* \"#utility.yul\":20850:20939   */\n      tag_326\n      jump\t// in\n    tag_535:\n        /* \"#utility.yul\":20843:20939   */\n      swap4\n      pop\n        /* \"#utility.yul\":20948:21013   */\n      tag_536\n        /* \"#utility.yul\":21006:21012   */\n      dup2\n        /* \"#utility.yul\":21001:21004   */\n      dup6\n        /* \"#utility.yul\":20994:20998   */\n      0x20\n        /* \"#utility.yul\":20987:20992   */\n      dup7\n        /* \"#utility.yul\":20983:20999   */\n      add\n        /* \"#utility.yul\":20948:21013   */\n      tag_327\n      jump\t// in\n    tag_536:\n        /* \"#utility.yul\":21038:21044   */\n      dup1\n        /* \"#utility.yul\":21033:21036   */\n      dup5\n        /* \"#utility.yul\":21029:21045   */\n      add\n        /* \"#utility.yul\":21022:21045   */\n      swap2\n      pop\n        /* \"#utility.yul\":20771:21051   */\n      pop\n        /* \"#utility.yul\":20661:21051   */\n      swap3\n      swap2\n      pop\n      pop\n      jump\t// out\n        /* \"#utility.yul\":21057:21473   */\n    tag_189:\n        /* \"#utility.yul\":21217:21220   */\n      0x00\n        /* \"#utility.yul\":21232:21307   */\n      tag_538\n        /* \"#utility.yul\":21303:21306   */\n      dup3\n        /* \"#utility.yul\":21294:21300   */\n      dup6\n        /* \"#utility.yul\":21232:21307   */\n      tag_324\n      jump\t// in\n    tag_538:\n        /* \"#utility.yul\":21332:21334   */\n      0x20\n        /* \"#utility.yul\":21327:21330   */\n      dup3\n        /* \"#utility.yul\":21323:21335   */\n      add\n        /* \"#utility.yul\":21316:21335   */\n      swap2\n      pop\n        /* \"#utility.yul\":21352:21447   */\n      tag_539\n        /* \"#utility.yul\":21443:21446   */\n      dup3\n        /* \"#utility.yul\":21434:21440   */\n      dup5\n        /* \"#utility.yul\":21352:21447   */\n      tag_328\n      jump\t// in\n    tag_539:\n        /* \"#utility.yul\":21345:21447   */\n      swap2\n      pop\n        /* \"#utility.yul\":21464:21467   */\n      dup2\n        /* \"#utility.yul\":21457:21467   */\n      swap1\n      pop\n        /* \"#utility.yul\":21057:21473   */\n      swap4\n      swap3\n      pop\n      pop\n      pop\n      jump\t// out\n        /* \"#utility.yul\":21479:21648   */\n    tag_329:\n        /* \"#utility.yul\":21619:21640   */\n      0x436f6d6d69746d656e74206d69736d6174636800000000000000000000000000\n        /* \"#utility.yul\":21615:21616   */\n      0x00\n        /* \"#utility.yul\":21607:21613   */\n      dup3\n        /* \"#utility.yul\":21603:21617   */\n      add\n        /* \"#utility.yul\":21596:21641   */\n      mstore\n        /* \"#utility.yul\":21479:21648   */\n      pop\n      jump\t// out\n        /* \"#utility.yul\":21654:22020   */\n    tag_330:\n        /* \"#utility.yul\":21796:21799   */\n      0x00\n        /* \"#utility.yul\":21817:21884   */\n      tag_542\n        /* \"#utility.yul\":21881:21883   */\n      0x13\n        /* \"#utility.yul\":21876:21879   */\n      dup4\n        /* \"#utility.yul\":21817:21884   */\n      tag_300\n      jump\t// in\n    tag_542:\n        /* \"#utility.yul\":21810:21884   */\n      swap2\n      pop\n        /* \"#utility.yul\":21893:21986   */\n      tag_543\n        /* \"#utility.yul\":21982:21985   */\n      dup3\n        /* \"#utility.yul\":21893:21986   */\n      tag_329\n      jump\t// in\n    tag_543:\n        /* \"#utility.yul\":22011:22013   */\n      0x20\n        /* \"#utility.yul\":22006:22009   */\n      dup3\n        /* \"#utility.yul\":22002:22014   */\n      add\n        /* \"#utility.yul\":21995:22014   */\n      swap1\n      pop\n        /* \"#utility.yul\":21654:22020   */\n      swap2\n      swap1\n      pop\n      jump\t// out\n        /* \"#utility.yul\":22026:22445   */\n    tag_192:\n        /* \"#utility.yul\":22192:22196   */\n      0x00\n        /* \"#utility.yul\":22230:22232   */\n      0x20\n        /* \"#utility.yul\":22219:22228   */\n      dup3\n        /* \"#utility.yul\":22215:22233   */\n      add\n        /* \"#utility.yul\":22207:22233   */\n      swap1\n      pop\n        /* \"#utility.yul\":22279:22288   */\n      dup2\n        /* \"#utility.yul\":22273:22277   */\n      dup2\n        /* \"#utility.yul\":22269:22289   */\n      sub\n        /* \"#utility.yul\":22265:22266   */\n      0x00\n        /* \"#utility.yul\":22254:22263   */\n      dup4\n        /* \"#utility.yul\":22250:22267   */\n      add\n        /* \"#utility.yul\":22243:22290   */\n      mstore\n        /* \"#utility.yul\":22307:22438   */\n      tag_545\n        /* \"#utility.yul\":22433:22437   */\n      dup2\n        /* \"#utility.yul\":22307:22438   */\n      tag_330\n      jump\t// in\n    tag_545:\n        /* \"#utility.yul\":22299:22438   */\n      swap1\n      pop\n        /* \"#utility.yul\":22026:22445   */\n      swap2\n      swap1\n      pop\n      jump\t// out\n        /* \"#utility.yul\":22451:22631   */\n    tag_331:\n        /* \"#utility.yul\":22499:22576   */\n      0x4e487b7100000000000000000000000000000000000000000000000000000000\n        /* \"#utility.yul\":22496:22497   */\n      0x00\n        /* \"#utility.yul\":22489:22577   */\n      mstore\n        /* \"#utility.yul\":22596:22600   */\n      0x12\n        /* \"#utility.yul\":22593:22594   */\n      0x04\n        /* \"#utility.yul\":22586:22601   */\n      mstore\n        /* \"#utility.yul\":22620:22624   */\n      0x24\n        /* \"#utility.yul\":22617:22618   */\n      0x00\n        /* \"#utility.yul\":22610:22625   */\n      revert\n        /* \"#utility.yul\":22637:22813   */\n    tag_217:\n        /* \"#utility.yul\":22669:22670   */\n      0x00\n        /* \"#utility.yul\":22686:22706   */\n      tag_548\n        /* \"#utility.yul\":22704:22705   */\n      dup3\n        /* \"#utility.yul\":22686:22706   */\n      tag_267\n      jump\t// in\n    tag_548:\n        /* \"#utility.yul\":22681:22706   */\n      swap2\n      pop\n        /* \"#utility.yul\":22720:22740   */\n      tag_549\n        /* \"#utility.yul\":22738:22739   */\n      dup4\n        /* \"#utility.yul\":22720:22740   */\n      tag_267\n      jump\t// in\n    tag_549:\n        /* \"#utility.yul\":22715:22740   */\n      swap3\n      pop\n        /* \"#utility.yul\":22759:22760   */\n      dup3\n        /* \"#utility.yul\":22749:22784   */\n      tag_550\n      jumpi\n        /* \"#utility.yul\":22764:22782   */\n      tag_551\n      tag_331\n      jump\t// in\n    tag_551:\n        /* \"#utility.yul\":22749:22784   */\n    tag_550:\n        /* \"#utility.yul\":22805:22806   */\n      dup3\n        /* \"#utility.yul\":22802:22803   */\n      dup3\n        /* \"#utility.yul\":22798:22807   */\n      mod\n        /* \"#utility.yul\":22793:22807   */\n      swap1\n      pop\n        /* \"#utility.yul\":22637:22813   */\n      swap3\n      swap2\n      pop\n      pop\n      jump\t// out\n        /* \"#utility.yul\":22819:22984   */\n    tag_332:\n        /* \"#utility.yul\":22959:22976   */\n      0x5472616e73666572206661696c65640000000000000000000000000000000000\n        /* \"#utility.yul\":22955:22956   */\n      0x00\n        /* \"#utility.yul\":22947:22953   */\n      dup3\n        /* \"#utility.yul\":22943:22957   */\n      add\n        /* \"#utility.yul\":22936:22977   */\n      mstore\n        /* \"#utility.yul\":22819:22984   */\n      pop\n      jump\t// out\n        /* \"#utility.yul\":22990:23356   */\n    tag_333:\n        /* \"#utility.yul\":23132:23135   */\n      0x00\n        /* \"#utility.yul\":23153:23220   */\n      tag_554\n        /* \"#utility.yul\":23217:23219   */\n      0x0f\n        /* \"#utility.yul\":23212:23215   */\n      dup4\n        /* \"#utility.yul\":23153:23220   */\n      tag_300\n      jump\t// in\n    tag_554:\n        /* \"#utility.yul\":23146:23220   */\n      swap2\n      pop\n        /* \"#utility.yul\":23229:23322   */\n      tag_555\n        /* \"#utility.yul\":23318:23321   */\n      dup3\n        /* \"#utility.yul\":23229:23322   */\n      tag_332\n      jump\t// in\n    tag_555:\n        /* \"#utility.yul\":23347:23349   */\n      0x20\n        /* \"#utility.yul\":23342:23345   */\n      dup3\n        /* \"#utility.yul\":23338:23350   */\n      add\n        /* \"#utility.yul\":23331:23350   */\n      swap1\n      pop\n        /* \"#utility.yul\":22990:23356   */\n      swap2\n      swap1\n      pop\n      jump\t// out\n        /* \"#utility.yul\":23362:23781   */\n    tag_242:\n        /* \"#utility.yul\":23528:23532   */\n      0x00\n        /* \"#utility.yul\":23566:23568   */\n      0x20\n        /* \"#utility.yul\":23555:23564   */\n      dup3\n        /* \"#utility.yul\":23551:23569   */\n      add\n        /* \"#utility.yul\":23543:23569   */\n      swap1\n      pop\n        /* \"#utility.yul\":23615:23624   */\n      dup2\n        /* \"#utility.yul\":23609:23613   */\n      dup2\n        /* \"#utility.yul\":23605:23625   */\n      sub\n        /* \"#utility.yul\":23601:23602   */\n      0x00\n        /* \"#utility.yul\":23590:23599   */\n      dup4\n        /* \"#utility.yul\":23586:23603   */\n      add\n        /* \"#utility.yul\":23579:23626   */\n      mstore\n        /* \"#utility.yul\":23643:23774   */\n      tag_557\n        /* \"#utility.yul\":23769:23773   */\n      dup2\n        /* \"#utility.yul\":23643:23774   */\n      tag_333\n      jump\t// in\n    tag_557:\n        /* \"#utility.yul\":23635:23774   */\n      swap1\n      pop\n        /* \"#utility.yul\":23362:23781   */\n      swap2\n      swap1\n      pop\n      jump\t// out\n        /* \"#utility.yul\":23787:23972   */\n    tag_248:\n        /* \"#utility.yul\":23827:23828   */\n      0x00\n        /* \"#utility.yul\":23844:23864   */\n      tag_559\n        /* \"#utility.yul\":23862:23863   */\n      dup3\n        /* \"#utility.yul\":23844:23864   */\n      tag_267\n      jump\t// in\n    tag_559:\n        /* \"#utility.yul\":23839:23864   */\n      swap2\n      pop\n        /* \"#utility.yul\":23878:23898   */\n      tag_560\n        /* \"#utility.yul\":23896:23897   */\n      dup4\n        /* \"#utility.yul\":23878:23898   */\n      tag_267\n      jump\t// in\n    tag_560:\n        /* \"#utility.yul\":23873:23898   */\n      swap3\n      pop\n        /* \"#utility.yul\":23917:23918   */\n      dup3\n        /* \"#utility.yul\":23907:23942   */\n      tag_561\n      jumpi\n        /* \"#utility.yul\":23922:23940   */\n      tag_562\n      tag_331\n      jump\t// in\n    tag_562:\n        /* \"#utility.yul\":23907:23942   */\n    tag_561:\n        /* \"#utility.yul\":23964:23965   */\n      dup3\n        /* \"#utility.yul\":23961:23962   */\n      dup3\n        /* \"#utility.yul\":23957:23966   */\n      div\n        /* \"#utility.yul\":23952:23966   */\n      swap1\n      pop\n        /* \"#utility.yul\":23787:23972   */\n      swap3\n      swap2\n      pop\n      pop\n      jump\t// out\n\n    auxdata: 0xa26469706673582212204ecfbd827d28e4f2d29286d38982e64fee247f50ea1c338e0d170422eb6dfdd564736f6c634300081a0033\n}\n",
				"bytecode": {
					"linkReferences": {},
					"object": "60806040525f80555f60075f6101000a81548160ff02191690831515021790555064e8d4a51000600855348015610034575f80fd5b506040516124f43803806124f4833981810160405281019061005691906100fb565b80600760016101000a81548173ffffffffffffffffffffffffffffffffffffffff021916908373ffffffffffffffffffffffffffffffffffffffff16021790555050610126565b5f80fd5b5f73ffffffffffffffffffffffffffffffffffffffff82169050919050565b5f6100ca826100a1565b9050919050565b6100da816100c0565b81146100e4575f80fd5b50565b5f815190506100f5816100d1565b92915050565b5f602082840312156101105761010f61009d565b5b5f61011d848285016100e7565b91505092915050565b6123c1806101335f395ff3fe608060405234801561000f575f80fd5b50600436106100cd575f3560e01c8063bf4747661161008a578063f020044f11610064578063f020044f146101ff578063f712545b1461021d578063f71d96cb14610239578063fc0c546a14610269576100cd565b8063bf47476614610195578063d24257c0146101b1578063e8fcf723146101cf576100cd565b80630252b995146100d1578063228cb733146100ef578063410346b31461010d578063b14b28a31461013d578063b8c23c0a1461015b578063b9a5301314610165575b5f80fd5b6100d9610287565b6040516100e69190611809565b60405180910390f35b6100f761028d565b6040516101049190611809565b60405180910390f35b6101276004803603810190610122919061188d565b610292565b6040516101349190611809565b60405180910390f35b6101456102a7565b6040516101529190611809565b60405180910390f35b6101636102ad565b005b61017f600480360381019061017a919061188d565b6107db565b60405161018c91906118d2565b60405180910390f35b6101af60048036038101906101aa919061191e565b6107f8565b005b6101b9610ec7565b6040516101c69190611809565b60405180910390f35b6101e960048036038101906101e4919061188d565b610ecd565b6040516101f69190611958565b60405180910390f35b610207610ee2565b60405161021491906118d2565b60405180910390f35b61023760048036038101906102329190611ad7565b610ef4565b005b610253600480360381019061024e9190611b31565b61123a565b6040516102609190611b6b565b60405180910390f35b610271611275565b60405161027e9190611bdf565b60405180910390f35b60055481565b5f5481565b6002602052805f5260405f205f915090505481565b60065481565b60075f9054906101000a900460ff166102fb576040517f08c379a00000000000000000000000000000000000000000000000000000000081526004016102f290611c52565b60405180910390fd5b600654421161033f576040517f08c379a000000000000000000000000000000000000000000000000000000000815260040161033690611cba565b60405180910390fd5b60035f60045f8154811061035657610355611cd8565b5b905f5260205f20015f9054906101000a900473ffffffffffffffffffffffffffffffffffffffff1673ffffffffffffffffffffffffffffffffffffffff1673ffffffffffffffffffffffffffffffffffffffff1681526020019081526020015f205f9054906101000a900460ff168015610453575060035f60046001815481106103e3576103e2611cd8565b5b905f5260205f20015f9054906101000a900473ffffffffffffffffffffffffffffffffffffffff1673ffffffffffffffffffffffffffffffffffffffff1673ffffffffffffffffffffffffffffffffffffffff1681526020019081526020015f205f9054906101000a900460ff16155b1561053757600760019054906101000a900473ffffffffffffffffffffffffffffffffffffffff1673ffffffffffffffffffffffffffffffffffffffff1663a9059cbb60045f815481106104aa576104a9611cd8565b5b905f5260205f20015f9054906101000a900473ffffffffffffffffffffffffffffffffffffffff165f546040518363ffffffff1660e01b81526004016104f1929190611d05565b6020604051808303815f875af115801561050d573d5f803e3d5ffd5b505050506040513d601f19601f820116820180604052508101906105319190611d56565b506107d1565b60035f600460018154811061054f5761054e611cd8565b5b905f5260205f20015f9054906101000a900473ffffffffffffffffffffffffffffffffffffffff1673ffffffffffffffffffffffffffffffffffffffff1673ffffffffffffffffffffffffffffffffffffffff1681526020019081526020015f205f9054906101000a900460ff16801561064b575060035f60045f815481106105db576105da611cd8565b5b905f5260205f20015f9054906101000a900473ffffffffffffffffffffffffffffffffffffffff1673ffffffffffffffffffffffffffffffffffffffff1673ffffffffffffffffffffffffffffffffffffffff1681526020019081526020015f205f9054906101000a900460ff16155b1561073057600760019054906101000a900473ffffffffffffffffffffffffffffffffffffffff1673ffffffffffffffffffffffffffffffffffffffff1663a9059cbb60046001815481106106a3576106a2611cd8565b5b905f5260205f20015f9054906101000a900473ffffffffffffffffffffffffffffffffffffffff165f546040518363ffffffff1660e01b81526004016106ea929190611d05565b6020604051808303815f875af1158015610706573d5f803e3d5ffd5b505050506040513d601f19601f8201168201806040525081019061072a9190611d56565b506107d0565b600760019054906101000a900473ffffffffffffffffffffffffffffffffffffffff1673ffffffffffffffffffffffffffffffffffffffff1663a9059cbb335f546040518363ffffffff1660e01b815260040161078e929190611d05565b6020604051808303815f875af11580156107aa573d5f803e3d5ffd5b505050506040513d601f19601f820116820180604052508101906107ce9190611d56565b505b5b6107d961129b565b565b6003602052805f5260405f205f915054906101000a900460ff1681565b600260048054905010610840576040517f08c379a000000000000000000000000000000000000000000000000000000000815260040161083790611dcb565b60405180910390fd5b600854600760019054906101000a900473ffffffffffffffffffffffffffffffffffffffff1673ffffffffffffffffffffffffffffffffffffffff1663dd62ed3e33306040518363ffffffff1660e01b81526004016108a0929190611de9565b602060405180830381865afa1580156108bb573d5f803e3d5ffd5b505050506040513d601f19601f820116820180604052508101906108df9190611e24565b1015610920576040517f08c379a000000000000000000000000000000000000000000000000000000000815260040161091790611e99565b60405180910390fd5b6001600480549050036109d75760045f8154811061094157610940611cd8565b5b905f5260205f20015f9054906101000a900473ffffffffffffffffffffffffffffffffffffffff1673ffffffffffffffffffffffffffffffffffffffff163373ffffffffffffffffffffffffffffffffffffffff16036109d6576040517f08c379a00000000000000000000000000000000000000000000000000000000081526004016109cd90611f01565b60405180910390fd5b5b600433908060018154018082558091505060019003905f5260205f20015f9091909190916101000a81548173ffffffffffffffffffffffffffffffffffffffff021916908373ffffffffffffffffffffffffffffffffffffffff1602179055508060015f3373ffffffffffffffffffffffffffffffffffffffff1673ffffffffffffffffffffffffffffffffffffffff1681526020019081526020015f2081905550600260048054905003610ec457600854600760019054906101000a900473ffffffffffffffffffffffffffffffffffffffff1673ffffffffffffffffffffffffffffffffffffffff1663dd62ed3e60045f81548110610adb57610ada611cd8565b5b905f5260205f20015f9054906101000a900473ffffffffffffffffffffffffffffffffffffffff16306040518363ffffffff1660e01b8152600401610b21929190611de9565b602060405180830381865afa158015610b3c573d5f803e3d5ffd5b505050506040513d601f19601f82011682018060405250810190610b609190611e24565b1015610ba1576040517f08c379a0000000000000000000000000000000000000000000000000000000008152600401610b9890611f69565b60405180910390fd5b600854600760019054906101000a900473ffffffffffffffffffffffffffffffffffffffff1673ffffffffffffffffffffffffffffffffffffffff1663dd62ed3e6004600181548110610bf757610bf6611cd8565b5b905f5260205f20015f9054906101000a900473ffffffffffffffffffffffffffffffffffffffff16306040518363ffffffff1660e01b8152600401610c3d929190611de9565b602060405180830381865afa158015610c58573d5f803e3d5ffd5b505050506040513d601f19601f82011682018060405250810190610c7c9190611e24565b1015610cbd576040517f08c379a0000000000000000000000000000000000000000000000000000000008152600401610cb490611fd1565b60405180910390fd5b600760019054906101000a900473ffffffffffffffffffffffffffffffffffffffff1673ffffffffffffffffffffffffffffffffffffffff166323b872dd60045f81548110610d0f57610d0e611cd8565b5b905f5260205f20015f9054906101000a900473ffffffffffffffffffffffffffffffffffffffff16306008546040518463ffffffff1660e01b8152600401610d5993929190611fef565b6020604051808303815f875af1158015610d75573d5f803e3d5ffd5b505050506040513d601f19601f82011682018060405250810190610d999190611d56565b50600760019054906101000a900473ffffffffffffffffffffffffffffffffffffffff1673ffffffffffffffffffffffffffffffffffffffff166323b872dd6004600181548110610ded57610dec611cd8565b5b905f5260205f20015f9054906101000a900473ffffffffffffffffffffffffffffffffffffffff16306008546040518463ffffffff1660e01b8152600401610e3793929190611fef565b6020604051808303815f875af1158015610e53573d5f803e3d5ffd5b505050506040513d601f19601f82011682018060405250810190610e779190611d56565b506002600854610e879190612051565b5f819055504260058190555061012c600554610ea39190612092565b600681905550600160075f6101000a81548160ff0219169083151502179055505b50565b60085481565b6001602052805f5260405f205f915090505481565b60075f9054906101000a900460ff1681565b60075f9054906101000a900460ff16610f42576040517f08c379a0000000000000000000000000000000000000000000000000000000008152600401610f3990611c52565b60405180910390fd5b600654421115610f87576040517f08c379a0000000000000000000000000000000000000000000000000000000008152600401610f7e9061210f565b60405180910390fd5b5f8210158015610f98575060048211155b610fd7576040517f08c379a0000000000000000000000000000000000000000000000000000000008152600401610fce90612177565b60405180910390fd5b8181604051602001610fea929190612207565b6040516020818303038152906040528051906020012060015f3373ffffffffffffffffffffffffffffffffffffffff1673ffffffffffffffffffffffffffffffffffffffff1681526020019081526020015f20541461107e576040517f08c379a000000000000000000000000000000000000000000000000000000000815260040161107590612278565b60405180910390fd5b8160025f3373ffffffffffffffffffffffffffffffffffffffff1673ffffffffffffffffffffffffffffffffffffffff1681526020019081526020015f2081905550600160035f3373ffffffffffffffffffffffffffffffffffffffff1673ffffffffffffffffffffffffffffffffffffffff1681526020019081526020015f205f6101000a81548160ff02191690831515021790555060035f60045f8154811061112c5761112b611cd8565b5b905f5260205f20015f9054906101000a900473ffffffffffffffffffffffffffffffffffffffff1673ffffffffffffffffffffffffffffffffffffffff1673ffffffffffffffffffffffffffffffffffffffff1681526020019081526020015f205f9054906101000a900460ff168015611228575060035f60046001815481106111b9576111b8611cd8565b5b905f5260205f20015f9054906101000a900473ffffffffffffffffffffffffffffffffffffffff1673ffffffffffffffffffffffffffffffffffffffff1673ffffffffffffffffffffffffffffffffffffffff1681526020019081526020015f205f9054906101000a900460ff165b15611236576112356112c6565b5b5050565b60048181548110611249575f80fd5b905f5260205f20015f915054906101000a900473ffffffffffffffffffffffffffffffffffffffff1681565b600760019054906101000a900473ffffffffffffffffffffffffffffffffffffffff1681565b60045f6112a891906117b8565b5f80555f60075f6101000a81548160ff021916908315150217905550565b5f60025f60045f815481106112de576112dd611cd8565b5b905f5260205f20015f9054906101000a900473ffffffffffffffffffffffffffffffffffffffff1673ffffffffffffffffffffffffffffffffffffffff1673ffffffffffffffffffffffffffffffffffffffff1681526020019081526020015f205490505f60025f600460018154811061135b5761135a611cd8565b5b905f5260205f20015f9054906101000a900473ffffffffffffffffffffffffffffffffffffffff1673ffffffffffffffffffffffffffffffffffffffff1673ffffffffffffffffffffffffffffffffffffffff1681526020019081526020015f205490505f8160056001856113d09190612092565b6113da91906122c3565b14806113fd57508160056003856113f19190612092565b6113fb91906122c3565b145b1561144657600460018154811061141757611416611cd8565b5b905f5260205f20015f9054906101000a900473ffffffffffffffffffffffffffffffffffffffff1690506114c8565b8260056001846114569190612092565b61146091906122c3565b148061148357508260056003846114779190612092565b61148191906122c3565b145b156114c75760045f8154811061149c5761149b611cd8565b5b905f5260205f20015f9054906101000a900473ffffffffffffffffffffffffffffffffffffffff1690505b5b5f73ffffffffffffffffffffffffffffffffffffffff168173ffffffffffffffffffffffffffffffffffffffff16146115dd57600760019054906101000a900473ffffffffffffffffffffffffffffffffffffffff1673ffffffffffffffffffffffffffffffffffffffff1663a9059cbb825f546040518363ffffffff1660e01b8152600401611559929190611d05565b6020604051808303815f875af1158015611575573d5f803e3d5ffd5b505050506040513d601f19601f820116820180604052508101906115999190611d56565b6115d8576040517f08c379a00000000000000000000000000000000000000000000000000000000081526004016115cf9061233d565b60405180910390fd5b6117ab565b600760019054906101000a900473ffffffffffffffffffffffffffffffffffffffff1673ffffffffffffffffffffffffffffffffffffffff1663a9059cbb60045f8154811061162f5761162e611cd8565b5b905f5260205f20015f9054906101000a900473ffffffffffffffffffffffffffffffffffffffff1660025f54611665919061235b565b6040518363ffffffff1660e01b8152600401611682929190611d05565b6020604051808303815f875af115801561169e573d5f803e3d5ffd5b505050506040513d601f19601f820116820180604052508101906116c29190611d56565b50600760019054906101000a900473ffffffffffffffffffffffffffffffffffffffff1673ffffffffffffffffffffffffffffffffffffffff1663a9059cbb600460018154811061171657611715611cd8565b5b905f5260205f20015f9054906101000a900473ffffffffffffffffffffffffffffffffffffffff1660025f5461174c919061235b565b6040518363ffffffff1660e01b8152600401611769929190611d05565b6020604051808303815f875af1158015611785573d5f803e3d5ffd5b505050506040513d601f19601f820116820180604052508101906117a99190611d56565b505b6117b361129b565b505050565b5080545f8255905f5260205f20908101906117d391906117d6565b50565b5b808211156117ed575f815f9055506001016117d7565b5090565b5f819050919050565b611803816117f1565b82525050565b5f60208201905061181c5f8301846117fa565b92915050565b5f604051905090565b5f80fd5b5f80fd5b5f73ffffffffffffffffffffffffffffffffffffffff82169050919050565b5f61185c82611833565b9050919050565b61186c81611852565b8114611876575f80fd5b50565b5f8135905061188781611863565b92915050565b5f602082840312156118a2576118a161182b565b5b5f6118af84828501611879565b91505092915050565b5f8115159050919050565b6118cc816118b8565b82525050565b5f6020820190506118e55f8301846118c3565b92915050565b5f819050919050565b6118fd816118eb565b8114611907575f80fd5b50565b5f81359050611918816118f4565b92915050565b5f602082840312156119335761193261182b565b5b5f6119408482850161190a565b91505092915050565b611952816118eb565b82525050565b5f60208201905061196b5f830184611949565b92915050565b61197a816117f1565b8114611984575f80fd5b50565b5f8135905061199581611971565b92915050565b5f80fd5b5f80fd5b5f601f19601f8301169050919050565b7f4e487b71000000000000000000000000000000000000000000000000000000005f52604160045260245ffd5b6119e9826119a3565b810181811067ffffffffffffffff82111715611a0857611a076119b3565b5b80604052505050565b5f611a1a611822565b9050611a2682826119e0565b919050565b5f67ffffffffffffffff821115611a4557611a446119b3565b5b611a4e826119a3565b9050602081019050919050565b828183375f83830152505050565b5f611a7b611a7684611a2b565b611a11565b905082815260208101848484011115611a9757611a9661199f565b5b611aa2848285611a5b565b509392505050565b5f82601f830112611abe57611abd61199b565b5b8135611ace848260208601611a69565b91505092915050565b5f8060408385031215611aed57611aec61182b565b5b5f611afa85828601611987565b925050602083013567ffffffffffffffff811115611b1b57611b1a61182f565b5b611b2785828601611aaa565b9150509250929050565b5f60208284031215611b4657611b4561182b565b5b5f611b5384828501611987565b91505092915050565b611b6581611852565b82525050565b5f602082019050611b7e5f830184611b5c565b92915050565b5f819050919050565b5f611ba7611ba2611b9d84611833565b611b84565b611833565b9050919050565b5f611bb882611b8d565b9050919050565b5f611bc982611bae565b9050919050565b611bd981611bbf565b82525050565b5f602082019050611bf25f830184611bd0565b92915050565b5f82825260208201905092915050565b7f47616d65206973206e6f742061637469766500000000000000000000000000005f82015250565b5f611c3c601283611bf8565b9150611c4782611c08565b602082019050919050565b5f6020820190508181035f830152611c6981611c30565b9050919050565b7f52657665616c20706572696f64206e6f7420656e6465640000000000000000005f82015250565b5f611ca4601783611bf8565b9150611caf82611c70565b602082019050919050565b5f6020820190508181035f830152611cd181611c98565b9050919050565b7f4e487b71000000000000000000000000000000000000000000000000000000005f52603260045260245ffd5b5f604082019050611d185f830185611b5c565b611d2560208301846117fa565b9392505050565b611d35816118b8565b8114611d3f575f80fd5b50565b5f81519050611d5081611d2c565b92915050565b5f60208284031215611d6b57611d6a61182b565b5b5f611d7884828501611d42565b91505092915050565b7f47616d6520616c7265616479206861732074776f20706c6179657273000000005f82015250565b5f611db5601c83611bf8565b9150611dc082611d81565b602082019050919050565b5f6020820190508181035f830152611de281611da9565b9050919050565b5f604082019050611dfc5f830185611b5c565b611e096020830184611b5c565b9392505050565b5f81519050611e1e81611971565b92915050565b5f60208284031215611e3957611e3861182b565b5b5f611e4684828501611e10565b91505092915050565b7f496e73756666696369656e7420616c6c6f77616e6365000000000000000000005f82015250565b5f611e83601683611bf8565b9150611e8e82611e4f565b602082019050919050565b5f6020820190508181035f830152611eb081611e77565b9050919050565b7f43616e6e6f74206a6f696e2074776963650000000000000000000000000000005f82015250565b5f611eeb601183611bf8565b9150611ef682611eb7565b602082019050919050565b5f6020820190508181035f830152611f1881611edf565b9050919050565b7f506c61796572203120686173206e6f7420617070726f766564000000000000005f82015250565b5f611f53601983611bf8565b9150611f5e82611f1f565b602082019050919050565b5f6020820190508181035f830152611f8081611f47565b9050919050565b7f506c61796572203220686173206e6f7420617070726f766564000000000000005f82015250565b5f611fbb601983611bf8565b9150611fc682611f87565b602082019050919050565b5f6020820190508181035f830152611fe881611faf565b9050919050565b5f6060820190506120025f830186611b5c565b61200f6020830185611b5c565b61201c60408301846117fa565b949350505050565b7f4e487b71000000000000000000000000000000000000000000000000000000005f52601160045260245ffd5b5f61205b826117f1565b9150612066836117f1565b9250828202612074816117f1565b9150828204841483151761208b5761208a612024565b5b5092915050565b5f61209c826117f1565b91506120a7836117f1565b92508282019050808211156120bf576120be612024565b5b92915050565b7f52657665616c20706572696f6420656e646564000000000000000000000000005f82015250565b5f6120f9601383611bf8565b9150612104826120c5565b602082019050919050565b5f6020820190508181035f830152612126816120ed565b9050919050565b7f496e76616c69642063686f6963650000000000000000000000000000000000005f82015250565b5f612161600e83611bf8565b915061216c8261212d565b602082019050919050565b5f6020820190508181035f83015261218e81612155565b9050919050565b5f819050919050565b6121af6121aa826117f1565b612195565b82525050565b5f81519050919050565b5f81905092915050565b8281835e5f83830152505050565b5f6121e1826121b5565b6121eb81856121bf565b93506121fb8185602086016121c9565b80840191505092915050565b5f612212828561219e565b60208201915061222282846121d7565b91508190509392505050565b7f436f6d6d69746d656e74206d69736d61746368000000000000000000000000005f82015250565b5f612262601383611bf8565b915061226d8261222e565b602082019050919050565b5f6020820190508181035f83015261228f81612256565b9050919050565b7f4e487b71000000000000000000000000000000000000000000000000000000005f52601260045260245ffd5b5f6122cd826117f1565b91506122d8836117f1565b9250826122e8576122e7612296565b5b828206905092915050565b7f5472616e73666572206661696c656400000000000000000000000000000000005f82015250565b5f612327600f83611bf8565b9150612332826122f3565b602082019050919050565b5f6020820190508181035f8301526123548161231b565b9050919050565b5f612365826117f1565b9150612370836117f1565b9250826123805761237f612296565b5b82820490509291505056fea26469706673582212204ecfbd827d28e4f2d29286d38982e64fee247f50ea1c338e0d170422eb6dfdd564736f6c634300081a0033",
					"opcodes": "PUSH1 0x80 PUSH1 0x40 MSTORE PUSH0 DUP1 SSTORE PUSH0 PUSH1 0x7 PUSH0 PUSH2 0x100 EXP DUP2 SLOAD DUP2 PUSH1 0xFF MUL NOT AND SWAP1 DUP4 ISZERO ISZERO MUL OR SWAP1 SSTORE POP PUSH5 0xE8D4A51000 PUSH1 0x8 SSTORE CALLVALUE DUP1 ISZERO PUSH2 0x34 JUMPI PUSH0 DUP1 REVERT JUMPDEST POP PUSH1 0x40 MLOAD PUSH2 0x24F4 CODESIZE SUB DUP1 PUSH2 0x24F4 DUP4 CODECOPY DUP2 DUP2 ADD PUSH1 0x40 MSTORE DUP2 ADD SWAP1 PUSH2 0x56 SWAP2 SWAP1 PUSH2 0xFB JUMP JUMPDEST DUP1 PUSH1 0x7 PUSH1 0x1 PUSH2 0x100 EXP DUP2 SLOAD DUP2 PUSH20 0xFFFFFFFFFFFFFFFFFFFFFFFFFFFFFFFFFFFFFFFF MUL NOT AND SWAP1 DUP4 PUSH20 0xFFFFFFFFFFFFFFFFFFFFFFFFFFFFFFFFFFFFFFFF AND MUL OR SWAP1 SSTORE POP POP PUSH2 0x126 JUMP JUMPDEST PUSH0 DUP1 REVERT JUMPDEST PUSH0 PUSH20 0xFFFFFFFFFFFFFFFFFFFFFFFFFFFFFFFFFFFFFFFF DUP3 AND SWAP1 POP SWAP2 SWAP1 POP JUMP JUMPDEST PUSH0 PUSH2 0xCA DUP3 PUSH2 0xA1 JUMP JUMPDEST SWAP1 POP SWAP2 SWAP1 POP JUMP JUMPDEST PUSH2 0xDA DUP2 PUSH2 0xC0 JUMP JUMPDEST DUP2 EQ PUSH2 0xE4 JUMPI PUSH0 DUP1 REVERT JUMPDEST POP JUMP JUMPDEST PUSH0 DUP2 MLOAD SWAP1 POP PUSH2 0xF5 DUP2 PUSH2 0xD1 JUMP JUMPDEST SWAP3 SWAP2 POP POP JUMP JUMPDEST PUSH0 PUSH1 0x20 DUP3 DUP5 SUB SLT ISZERO PUSH2 0x110 JUMPI PUSH2 0x10F PUSH2 0x9D JUMP JUMPDEST JUMPDEST PUSH0 PUSH2 0x11D DUP5 DUP3 DUP6 ADD PUSH2 0xE7 JUMP JUMPDEST SWAP2 POP POP SWAP3 SWAP2 POP POP JUMP JUMPDEST PUSH2 0x23C1 DUP1 PUSH2 0x133 PUSH0 CODECOPY PUSH0 RETURN INVALID PUSH1 0x80 PUSH1 0x40 MSTORE CALLVALUE DUP1 ISZERO PUSH2 0xF JUMPI PUSH0 DUP1 REVERT JUMPDEST POP PUSH1 0x4 CALLDATASIZE LT PUSH2 0xCD JUMPI PUSH0 CALLDATALOAD PUSH1 0xE0 SHR DUP1 PUSH4 0xBF474766 GT PUSH2 0x8A JUMPI DUP1 PUSH4 0xF020044F GT PUSH2 0x64 JUMPI DUP1 PUSH4 0xF020044F EQ PUSH2 0x1FF JUMPI DUP1 PUSH4 0xF712545B EQ PUSH2 0x21D JUMPI DUP1 PUSH4 0xF71D96CB EQ PUSH2 0x239 JUMPI DUP1 PUSH4 0xFC0C546A EQ PUSH2 0x269 JUMPI PUSH2 0xCD JUMP JUMPDEST DUP1 PUSH4 0xBF474766 EQ PUSH2 0x195 JUMPI DUP1 PUSH4 0xD24257C0 EQ PUSH2 0x1B1 JUMPI DUP1 PUSH4 0xE8FCF723 EQ PUSH2 0x1CF JUMPI PUSH2 0xCD JUMP JUMPDEST DUP1 PUSH4 0x252B995 EQ PUSH2 0xD1 JUMPI DUP1 PUSH4 0x228CB733 EQ PUSH2 0xEF JUMPI DUP1 PUSH4 0x410346B3 EQ PUSH2 0x10D JUMPI DUP1 PUSH4 0xB14B28A3 EQ PUSH2 0x13D JUMPI DUP1 PUSH4 0xB8C23C0A EQ PUSH2 0x15B JUMPI DUP1 PUSH4 0xB9A53013 EQ PUSH2 0x165 JUMPI JUMPDEST PUSH0 DUP1 REVERT JUMPDEST PUSH2 0xD9 PUSH2 0x287 JUMP JUMPDEST PUSH1 0x40 MLOAD PUSH2 0xE6 SWAP2 SWAP1 PUSH2 0x1809 JUMP JUMPDEST PUSH1 0x40 MLOAD DUP1 SWAP2 SUB SWAP1 RETURN JUMPDEST PUSH2 0xF7 PUSH2 0x28D JUMP JUMPDEST PUSH1 0x40 MLOAD PUSH2 0x104 SWAP2 SWAP1 PUSH2 0x1809 JUMP JUMPDEST PUSH1 0x40 MLOAD DUP1 SWAP2 SUB SWAP1 RETURN JUMPDEST PUSH2 0x127 PUSH1 0x4 DUP1 CALLDATASIZE SUB DUP2 ADD SWAP1 PUSH2 0x122 SWAP2 SWAP1 PUSH2 0x188D JUMP JUMPDEST PUSH2 0x292 JUMP JUMPDEST PUSH1 0x40 MLOAD PUSH2 0x134 SWAP2 SWAP1 PUSH2 0x1809 JUMP JUMPDEST PUSH1 0x40 MLOAD DUP1 SWAP2 SUB SWAP1 RETURN JUMPDEST PUSH2 0x145 PUSH2 0x2A7 JUMP JUMPDEST PUSH1 0x40 MLOAD PUSH2 0x152 SWAP2 SWAP1 PUSH2 0x1809 JUMP JUMPDEST PUSH1 0x40 MLOAD DUP1 SWAP2 SUB SWAP1 RETURN JUMPDEST PUSH2 0x163 PUSH2 0x2AD JUMP JUMPDEST STOP JUMPDEST PUSH2 0x17F PUSH1 0x4 DUP1 CALLDATASIZE SUB DUP2 ADD SWAP1 PUSH2 0x17A SWAP2 SWAP1 PUSH2 0x188D JUMP JUMPDEST PUSH2 0x7DB JUMP JUMPDEST PUSH1 0x40 MLOAD PUSH2 0x18C SWAP2 SWAP1 PUSH2 0x18D2 JUMP JUMPDEST PUSH1 0x40 MLOAD DUP1 SWAP2 SUB SWAP1 RETURN JUMPDEST PUSH2 0x1AF PUSH1 0x4 DUP1 CALLDATASIZE SUB DUP2 ADD SWAP1 PUSH2 0x1AA SWAP2 SWAP1 PUSH2 0x191E JUMP JUMPDEST PUSH2 0x7F8 JUMP JUMPDEST STOP JUMPDEST PUSH2 0x1B9 PUSH2 0xEC7 JUMP JUMPDEST PUSH1 0x40 MLOAD PUSH2 0x1C6 SWAP2 SWAP1 PUSH2 0x1809 JUMP JUMPDEST PUSH1 0x40 MLOAD DUP1 SWAP2 SUB SWAP1 RETURN JUMPDEST PUSH2 0x1E9 PUSH1 0x4 DUP1 CALLDATASIZE SUB DUP2 ADD SWAP1 PUSH2 0x1E4 SWAP2 SWAP1 PUSH2 0x188D JUMP JUMPDEST PUSH2 0xECD JUMP JUMPDEST PUSH1 0x40 MLOAD PUSH2 0x1F6 SWAP2 SWAP1 PUSH2 0x1958 JUMP JUMPDEST PUSH1 0x40 MLOAD DUP1 SWAP2 SUB SWAP1 RETURN JUMPDEST PUSH2 0x207 PUSH2 0xEE2 JUMP JUMPDEST PUSH1 0x40 MLOAD PUSH2 0x214 SWAP2 SWAP1 PUSH2 0x18D2 JUMP JUMPDEST PUSH1 0x40 MLOAD DUP1 SWAP2 SUB SWAP1 RETURN JUMPDEST PUSH2 0x237 PUSH1 0x4 DUP1 CALLDATASIZE SUB DUP2 ADD SWAP1 PUSH2 0x232 SWAP2 SWAP1 PUSH2 0x1AD7 JUMP JUMPDEST PUSH2 0xEF4 JUMP JUMPDEST STOP JUMPDEST PUSH2 0x253 PUSH1 0x4 DUP1 CALLDATASIZE SUB DUP2 ADD SWAP1 PUSH2 0x24E SWAP2 SWAP1 PUSH2 0x1B31 JUMP JUMPDEST PUSH2 0x123A JUMP JUMPDEST PUSH1 0x40 MLOAD PUSH2 0x260 SWAP2 SWAP1 PUSH2 0x1B6B JUMP JUMPDEST PUSH1 0x40 MLOAD DUP1 SWAP2 SUB SWAP1 RETURN JUMPDEST PUSH2 0x271 PUSH2 0x1275 JUMP JUMPDEST PUSH1 0x40 MLOAD PUSH2 0x27E SWAP2 SWAP1 PUSH2 0x1BDF JUMP JUMPDEST PUSH1 0x40 MLOAD DUP1 SWAP2 SUB SWAP1 RETURN JUMPDEST PUSH1 0x5 SLOAD DUP2 JUMP JUMPDEST PUSH0 SLOAD DUP2 JUMP JUMPDEST PUSH1 0x2 PUSH1 0x20 MSTORE DUP1 PUSH0 MSTORE PUSH1 0x40 PUSH0 KECCAK256 PUSH0 SWAP2 POP SWAP1 POP SLOAD DUP2 JUMP JUMPDEST PUSH1 0x6 SLOAD DUP2 JUMP JUMPDEST PUSH1 0x7 PUSH0 SWAP1 SLOAD SWAP1 PUSH2 0x100 EXP SWAP1 DIV PUSH1 0xFF AND PUSH2 0x2FB JUMPI PUSH1 0x40 MLOAD PUSH32 0x8C379A000000000000000000000000000000000000000000000000000000000 DUP2 MSTORE PUSH1 0x4 ADD PUSH2 0x2F2 SWAP1 PUSH2 0x1C52 JUMP JUMPDEST PUSH1 0x40 MLOAD DUP1 SWAP2 SUB SWAP1 REVERT JUMPDEST PUSH1 0x6 SLOAD TIMESTAMP GT PUSH2 0x33F JUMPI PUSH1 0x40 MLOAD PUSH32 0x8C379A000000000000000000000000000000000000000000000000000000000 DUP2 MSTORE PUSH1 0x4 ADD PUSH2 0x336 SWAP1 PUSH2 0x1CBA JUMP JUMPDEST PUSH1 0x40 MLOAD DUP1 SWAP2 SUB SWAP1 REVERT JUMPDEST PUSH1 0x3 PUSH0 PUSH1 0x4 PUSH0 DUP2 SLOAD DUP2 LT PUSH2 0x356 JUMPI PUSH2 0x355 PUSH2 0x1CD8 JUMP JUMPDEST JUMPDEST SWAP1 PUSH0 MSTORE PUSH1 0x20 PUSH0 KECCAK256 ADD PUSH0 SWAP1 SLOAD SWAP1 PUSH2 0x100 EXP SWAP1 DIV PUSH20 0xFFFFFFFFFFFFFFFFFFFFFFFFFFFFFFFFFFFFFFFF AND PUSH20 0xFFFFFFFFFFFFFFFFFFFFFFFFFFFFFFFFFFFFFFFF AND PUSH20 0xFFFFFFFFFFFFFFFFFFFFFFFFFFFFFFFFFFFFFFFF AND DUP2 MSTORE PUSH1 0x20 ADD SWAP1 DUP2 MSTORE PUSH1 0x20 ADD PUSH0 KECCAK256 PUSH0 SWAP1 SLOAD SWAP1 PUSH2 0x100 EXP SWAP1 DIV PUSH1 0xFF AND DUP1 ISZERO PUSH2 0x453 JUMPI POP PUSH1 0x3 PUSH0 PUSH1 0x4 PUSH1 0x1 DUP2 SLOAD DUP2 LT PUSH2 0x3E3 JUMPI PUSH2 0x3E2 PUSH2 0x1CD8 JUMP JUMPDEST JUMPDEST SWAP1 PUSH0 MSTORE PUSH1 0x20 PUSH0 KECCAK256 ADD PUSH0 SWAP1 SLOAD SWAP1 PUSH2 0x100 EXP SWAP1 DIV PUSH20 0xFFFFFFFFFFFFFFFFFFFFFFFFFFFFFFFFFFFFFFFF AND PUSH20 0xFFFFFFFFFFFFFFFFFFFFFFFFFFFFFFFFFFFFFFFF AND PUSH20 0xFFFFFFFFFFFFFFFFFFFFFFFFFFFFFFFFFFFFFFFF AND DUP2 MSTORE PUSH1 0x20 ADD SWAP1 DUP2 MSTORE PUSH1 0x20 ADD PUSH0 KECCAK256 PUSH0 SWAP1 SLOAD SWAP1 PUSH2 0x100 EXP SWAP1 DIV PUSH1 0xFF AND ISZERO JUMPDEST ISZERO PUSH2 0x537 JUMPI PUSH1 0x7 PUSH1 0x1 SWAP1 SLOAD SWAP1 PUSH2 0x100 EXP SWAP1 DIV PUSH20 0xFFFFFFFFFFFFFFFFFFFFFFFFFFFFFFFFFFFFFFFF AND PUSH20 0xFFFFFFFFFFFFFFFFFFFFFFFFFFFFFFFFFFFFFFFF AND PUSH4 0xA9059CBB PUSH1 0x4 PUSH0 DUP2 SLOAD DUP2 LT PUSH2 0x4AA JUMPI PUSH2 0x4A9 PUSH2 0x1CD8 JUMP JUMPDEST JUMPDEST SWAP1 PUSH0 MSTORE PUSH1 0x20 PUSH0 KECCAK256 ADD PUSH0 SWAP1 SLOAD SWAP1 PUSH2 0x100 EXP SWAP1 DIV PUSH20 0xFFFFFFFFFFFFFFFFFFFFFFFFFFFFFFFFFFFFFFFF AND PUSH0 SLOAD PUSH1 0x40 MLOAD DUP4 PUSH4 0xFFFFFFFF AND PUSH1 0xE0 SHL DUP2 MSTORE PUSH1 0x4 ADD PUSH2 0x4F1 SWAP3 SWAP2 SWAP1 PUSH2 0x1D05 JUMP JUMPDEST PUSH1 0x20 PUSH1 0x40 MLOAD DUP1 DUP4 SUB DUP2 PUSH0 DUP8 GAS CALL ISZERO DUP1 ISZERO PUSH2 0x50D JUMPI RETURNDATASIZE PUSH0 DUP1 RETURNDATACOPY RETURNDATASIZE PUSH0 REVERT JUMPDEST POP POP POP POP PUSH1 0x40 MLOAD RETURNDATASIZE PUSH1 0x1F NOT PUSH1 0x1F DUP3 ADD AND DUP3 ADD DUP1 PUSH1 0x40 MSTORE POP DUP2 ADD SWAP1 PUSH2 0x531 SWAP2 SWAP1 PUSH2 0x1D56 JUMP JUMPDEST POP PUSH2 0x7D1 JUMP JUMPDEST PUSH1 0x3 PUSH0 PUSH1 0x4 PUSH1 0x1 DUP2 SLOAD DUP2 LT PUSH2 0x54F JUMPI PUSH2 0x54E PUSH2 0x1CD8 JUMP JUMPDEST JUMPDEST SWAP1 PUSH0 MSTORE PUSH1 0x20 PUSH0 KECCAK256 ADD PUSH0 SWAP1 SLOAD SWAP1 PUSH2 0x100 EXP SWAP1 DIV PUSH20 0xFFFFFFFFFFFFFFFFFFFFFFFFFFFFFFFFFFFFFFFF AND PUSH20 0xFFFFFFFFFFFFFFFFFFFFFFFFFFFFFFFFFFFFFFFF AND PUSH20 0xFFFFFFFFFFFFFFFFFFFFFFFFFFFFFFFFFFFFFFFF AND DUP2 MSTORE PUSH1 0x20 ADD SWAP1 DUP2 MSTORE PUSH1 0x20 ADD PUSH0 KECCAK256 PUSH0 SWAP1 SLOAD SWAP1 PUSH2 0x100 EXP SWAP1 DIV PUSH1 0xFF AND DUP1 ISZERO PUSH2 0x64B JUMPI POP PUSH1 0x3 PUSH0 PUSH1 0x4 PUSH0 DUP2 SLOAD DUP2 LT PUSH2 0x5DB JUMPI PUSH2 0x5DA PUSH2 0x1CD8 JUMP JUMPDEST JUMPDEST SWAP1 PUSH0 MSTORE PUSH1 0x20 PUSH0 KECCAK256 ADD PUSH0 SWAP1 SLOAD SWAP1 PUSH2 0x100 EXP SWAP1 DIV PUSH20 0xFFFFFFFFFFFFFFFFFFFFFFFFFFFFFFFFFFFFFFFF AND PUSH20 0xFFFFFFFFFFFFFFFFFFFFFFFFFFFFFFFFFFFFFFFF AND PUSH20 0xFFFFFFFFFFFFFFFFFFFFFFFFFFFFFFFFFFFFFFFF AND DUP2 MSTORE PUSH1 0x20 ADD SWAP1 DUP2 MSTORE PUSH1 0x20 ADD PUSH0 KECCAK256 PUSH0 SWAP1 SLOAD SWAP1 PUSH2 0x100 EXP SWAP1 DIV PUSH1 0xFF AND ISZERO JUMPDEST ISZERO PUSH2 0x730 JUMPI PUSH1 0x7 PUSH1 0x1 SWAP1 SLOAD SWAP1 PUSH2 0x100 EXP SWAP1 DIV PUSH20 0xFFFFFFFFFFFFFFFFFFFFFFFFFFFFFFFFFFFFFFFF AND PUSH20 0xFFFFFFFFFFFFFFFFFFFFFFFFFFFFFFFFFFFFFFFF AND PUSH4 0xA9059CBB PUSH1 0x4 PUSH1 0x1 DUP2 SLOAD DUP2 LT PUSH2 0x6A3 JUMPI PUSH2 0x6A2 PUSH2 0x1CD8 JUMP JUMPDEST JUMPDEST SWAP1 PUSH0 MSTORE PUSH1 0x20 PUSH0 KECCAK256 ADD PUSH0 SWAP1 SLOAD SWAP1 PUSH2 0x100 EXP SWAP1 DIV PUSH20 0xFFFFFFFFFFFFFFFFFFFFFFFFFFFFFFFFFFFFFFFF AND PUSH0 SLOAD PUSH1 0x40 MLOAD DUP4 PUSH4 0xFFFFFFFF AND PUSH1 0xE0 SHL DUP2 MSTORE PUSH1 0x4 ADD PUSH2 0x6EA SWAP3 SWAP2 SWAP1 PUSH2 0x1D05 JUMP JUMPDEST PUSH1 0x20 PUSH1 0x40 MLOAD DUP1 DUP4 SUB DUP2 PUSH0 DUP8 GAS CALL ISZERO DUP1 ISZERO PUSH2 0x706 JUMPI RETURNDATASIZE PUSH0 DUP1 RETURNDATACOPY RETURNDATASIZE PUSH0 REVERT JUMPDEST POP POP POP POP PUSH1 0x40 MLOAD RETURNDATASIZE PUSH1 0x1F NOT PUSH1 0x1F DUP3 ADD AND DUP3 ADD DUP1 PUSH1 0x40 MSTORE POP DUP2 ADD SWAP1 PUSH2 0x72A SWAP2 SWAP1 PUSH2 0x1D56 JUMP JUMPDEST POP PUSH2 0x7D0 JUMP JUMPDEST PUSH1 0x7 PUSH1 0x1 SWAP1 SLOAD SWAP1 PUSH2 0x100 EXP SWAP1 DIV PUSH20 0xFFFFFFFFFFFFFFFFFFFFFFFFFFFFFFFFFFFFFFFF AND PUSH20 0xFFFFFFFFFFFFFFFFFFFFFFFFFFFFFFFFFFFFFFFF AND PUSH4 0xA9059CBB CALLER PUSH0 SLOAD PUSH1 0x40 MLOAD DUP4 PUSH4 0xFFFFFFFF AND PUSH1 0xE0 SHL DUP2 MSTORE PUSH1 0x4 ADD PUSH2 0x78E SWAP3 SWAP2 SWAP1 PUSH2 0x1D05 JUMP JUMPDEST PUSH1 0x20 PUSH1 0x40 MLOAD DUP1 DUP4 SUB DUP2 PUSH0 DUP8 GAS CALL ISZERO DUP1 ISZERO PUSH2 0x7AA JUMPI RETURNDATASIZE PUSH0 DUP1 RETURNDATACOPY RETURNDATASIZE PUSH0 REVERT JUMPDEST POP POP POP POP PUSH1 0x40 MLOAD RETURNDATASIZE PUSH1 0x1F NOT PUSH1 0x1F DUP3 ADD AND DUP3 ADD DUP1 PUSH1 0x40 MSTORE POP DUP2 ADD SWAP1 PUSH2 0x7CE SWAP2 SWAP1 PUSH2 0x1D56 JUMP JUMPDEST POP JUMPDEST JUMPDEST PUSH2 0x7D9 PUSH2 0x129B JUMP JUMPDEST JUMP JUMPDEST PUSH1 0x3 PUSH1 0x20 MSTORE DUP1 PUSH0 MSTORE PUSH1 0x40 PUSH0 KECCAK256 PUSH0 SWAP2 POP SLOAD SWAP1 PUSH2 0x100 EXP SWAP1 DIV PUSH1 0xFF AND DUP2 JUMP JUMPDEST PUSH1 0x2 PUSH1 0x4 DUP1 SLOAD SWAP1 POP LT PUSH2 0x840 JUMPI PUSH1 0x40 MLOAD PUSH32 0x8C379A000000000000000000000000000000000000000000000000000000000 DUP2 MSTORE PUSH1 0x4 ADD PUSH2 0x837 SWAP1 PUSH2 0x1DCB JUMP JUMPDEST PUSH1 0x40 MLOAD DUP1 SWAP2 SUB SWAP1 REVERT JUMPDEST PUSH1 0x8 SLOAD PUSH1 0x7 PUSH1 0x1 SWAP1 SLOAD SWAP1 PUSH2 0x100 EXP SWAP1 DIV PUSH20 0xFFFFFFFFFFFFFFFFFFFFFFFFFFFFFFFFFFFFFFFF AND PUSH20 0xFFFFFFFFFFFFFFFFFFFFFFFFFFFFFFFFFFFFFFFF AND PUSH4 0xDD62ED3E CALLER ADDRESS PUSH1 0x40 MLOAD DUP4 PUSH4 0xFFFFFFFF AND PUSH1 0xE0 SHL DUP2 MSTORE PUSH1 0x4 ADD PUSH2 0x8A0 SWAP3 SWAP2 SWAP1 PUSH2 0x1DE9 JUMP JUMPDEST PUSH1 0x20 PUSH1 0x40 MLOAD DUP1 DUP4 SUB DUP2 DUP7 GAS STATICCALL ISZERO DUP1 ISZERO PUSH2 0x8BB JUMPI RETURNDATASIZE PUSH0 DUP1 RETURNDATACOPY RETURNDATASIZE PUSH0 REVERT JUMPDEST POP POP POP POP PUSH1 0x40 MLOAD RETURNDATASIZE PUSH1 0x1F NOT PUSH1 0x1F DUP3 ADD AND DUP3 ADD DUP1 PUSH1 0x40 MSTORE POP DUP2 ADD SWAP1 PUSH2 0x8DF SWAP2 SWAP1 PUSH2 0x1E24 JUMP JUMPDEST LT ISZERO PUSH2 0x920 JUMPI PUSH1 0x40 MLOAD PUSH32 0x8C379A000000000000000000000000000000000000000000000000000000000 DUP2 MSTORE PUSH1 0x4 ADD PUSH2 0x917 SWAP1 PUSH2 0x1E99 JUMP JUMPDEST PUSH1 0x40 MLOAD DUP1 SWAP2 SUB SWAP1 REVERT JUMPDEST PUSH1 0x1 PUSH1 0x4 DUP1 SLOAD SWAP1 POP SUB PUSH2 0x9D7 JUMPI PUSH1 0x4 PUSH0 DUP2 SLOAD DUP2 LT PUSH2 0x941 JUMPI PUSH2 0x940 PUSH2 0x1CD8 JUMP JUMPDEST JUMPDEST SWAP1 PUSH0 MSTORE PUSH1 0x20 PUSH0 KECCAK256 ADD PUSH0 SWAP1 SLOAD SWAP1 PUSH2 0x100 EXP SWAP1 DIV PUSH20 0xFFFFFFFFFFFFFFFFFFFFFFFFFFFFFFFFFFFFFFFF AND PUSH20 0xFFFFFFFFFFFFFFFFFFFFFFFFFFFFFFFFFFFFFFFF AND CALLER PUSH20 0xFFFFFFFFFFFFFFFFFFFFFFFFFFFFFFFFFFFFFFFF AND SUB PUSH2 0x9D6 JUMPI PUSH1 0x40 MLOAD PUSH32 0x8C379A000000000000000000000000000000000000000000000000000000000 DUP2 MSTORE PUSH1 0x4 ADD PUSH2 0x9CD SWAP1 PUSH2 0x1F01 JUMP JUMPDEST PUSH1 0x40 MLOAD DUP1 SWAP2 SUB SWAP1 REVERT JUMPDEST JUMPDEST PUSH1 0x4 CALLER SWAP1 DUP1 PUSH1 0x1 DUP2 SLOAD ADD DUP1 DUP3 SSTORE DUP1 SWAP2 POP POP PUSH1 0x1 SWAP1 SUB SWAP1 PUSH0 MSTORE PUSH1 0x20 PUSH0 KECCAK256 ADD PUSH0 SWAP1 SWAP2 SWAP1 SWAP2 SWAP1 SWAP2 PUSH2 0x100 EXP DUP2 SLOAD DUP2 PUSH20 0xFFFFFFFFFFFFFFFFFFFFFFFFFFFFFFFFFFFFFFFF MUL NOT AND SWAP1 DUP4 PUSH20 0xFFFFFFFFFFFFFFFFFFFFFFFFFFFFFFFFFFFFFFFF AND MUL OR SWAP1 SSTORE POP DUP1 PUSH1 0x1 PUSH0 CALLER PUSH20 0xFFFFFFFFFFFFFFFFFFFFFFFFFFFFFFFFFFFFFFFF AND PUSH20 0xFFFFFFFFFFFFFFFFFFFFFFFFFFFFFFFFFFFFFFFF AND DUP2 MSTORE PUSH1 0x20 ADD SWAP1 DUP2 MSTORE PUSH1 0x20 ADD PUSH0 KECCAK256 DUP2 SWAP1 SSTORE POP PUSH1 0x2 PUSH1 0x4 DUP1 SLOAD SWAP1 POP SUB PUSH2 0xEC4 JUMPI PUSH1 0x8 SLOAD PUSH1 0x7 PUSH1 0x1 SWAP1 SLOAD SWAP1 PUSH2 0x100 EXP SWAP1 DIV PUSH20 0xFFFFFFFFFFFFFFFFFFFFFFFFFFFFFFFFFFFFFFFF AND PUSH20 0xFFFFFFFFFFFFFFFFFFFFFFFFFFFFFFFFFFFFFFFF AND PUSH4 0xDD62ED3E PUSH1 0x4 PUSH0 DUP2 SLOAD DUP2 LT PUSH2 0xADB JUMPI PUSH2 0xADA PUSH2 0x1CD8 JUMP JUMPDEST JUMPDEST SWAP1 PUSH0 MSTORE PUSH1 0x20 PUSH0 KECCAK256 ADD PUSH0 SWAP1 SLOAD SWAP1 PUSH2 0x100 EXP SWAP1 DIV PUSH20 0xFFFFFFFFFFFFFFFFFFFFFFFFFFFFFFFFFFFFFFFF AND ADDRESS PUSH1 0x40 MLOAD DUP4 PUSH4 0xFFFFFFFF AND PUSH1 0xE0 SHL DUP2 MSTORE PUSH1 0x4 ADD PUSH2 0xB21 SWAP3 SWAP2 SWAP1 PUSH2 0x1DE9 JUMP JUMPDEST PUSH1 0x20 PUSH1 0x40 MLOAD DUP1 DUP4 SUB DUP2 DUP7 GAS STATICCALL ISZERO DUP1 ISZERO PUSH2 0xB3C JUMPI RETURNDATASIZE PUSH0 DUP1 RETURNDATACOPY RETURNDATASIZE PUSH0 REVERT JUMPDEST POP POP POP POP PUSH1 0x40 MLOAD RETURNDATASIZE PUSH1 0x1F NOT PUSH1 0x1F DUP3 ADD AND DUP3 ADD DUP1 PUSH1 0x40 MSTORE POP DUP2 ADD SWAP1 PUSH2 0xB60 SWAP2 SWAP1 PUSH2 0x1E24 JUMP JUMPDEST LT ISZERO PUSH2 0xBA1 JUMPI PUSH1 0x40 MLOAD PUSH32 0x8C379A000000000000000000000000000000000000000000000000000000000 DUP2 MSTORE PUSH1 0x4 ADD PUSH2 0xB98 SWAP1 PUSH2 0x1F69 JUMP JUMPDEST PUSH1 0x40 MLOAD DUP1 SWAP2 SUB SWAP1 REVERT JUMPDEST PUSH1 0x8 SLOAD PUSH1 0x7 PUSH1 0x1 SWAP1 SLOAD SWAP1 PUSH2 0x100 EXP SWAP1 DIV PUSH20 0xFFFFFFFFFFFFFFFFFFFFFFFFFFFFFFFFFFFFFFFF AND PUSH20 0xFFFFFFFFFFFFFFFFFFFFFFFFFFFFFFFFFFFFFFFF AND PUSH4 0xDD62ED3E PUSH1 0x4 PUSH1 0x1 DUP2 SLOAD DUP2 LT PUSH2 0xBF7 JUMPI PUSH2 0xBF6 PUSH2 0x1CD8 JUMP JUMPDEST JUMPDEST SWAP1 PUSH0 MSTORE PUSH1 0x20 PUSH0 KECCAK256 ADD PUSH0 SWAP1 SLOAD SWAP1 PUSH2 0x100 EXP SWAP1 DIV PUSH20 0xFFFFFFFFFFFFFFFFFFFFFFFFFFFFFFFFFFFFFFFF AND ADDRESS PUSH1 0x40 MLOAD DUP4 PUSH4 0xFFFFFFFF AND PUSH1 0xE0 SHL DUP2 MSTORE PUSH1 0x4 ADD PUSH2 0xC3D SWAP3 SWAP2 SWAP1 PUSH2 0x1DE9 JUMP JUMPDEST PUSH1 0x20 PUSH1 0x40 MLOAD DUP1 DUP4 SUB DUP2 DUP7 GAS STATICCALL ISZERO DUP1 ISZERO PUSH2 0xC58 JUMPI RETURNDATASIZE PUSH0 DUP1 RETURNDATACOPY RETURNDATASIZE PUSH0 REVERT JUMPDEST POP POP POP POP PUSH1 0x40 MLOAD RETURNDATASIZE PUSH1 0x1F NOT PUSH1 0x1F DUP3 ADD AND DUP3 ADD DUP1 PUSH1 0x40 MSTORE POP DUP2 ADD SWAP1 PUSH2 0xC7C SWAP2 SWAP1 PUSH2 0x1E24 JUMP JUMPDEST LT ISZERO PUSH2 0xCBD JUMPI PUSH1 0x40 MLOAD PUSH32 0x8C379A000000000000000000000000000000000000000000000000000000000 DUP2 MSTORE PUSH1 0x4 ADD PUSH2 0xCB4 SWAP1 PUSH2 0x1FD1 JUMP JUMPDEST PUSH1 0x40 MLOAD DUP1 SWAP2 SUB SWAP1 REVERT JUMPDEST PUSH1 0x7 PUSH1 0x1 SWAP1 SLOAD SWAP1 PUSH2 0x100 EXP SWAP1 DIV PUSH20 0xFFFFFFFFFFFFFFFFFFFFFFFFFFFFFFFFFFFFFFFF AND PUSH20 0xFFFFFFFFFFFFFFFFFFFFFFFFFFFFFFFFFFFFFFFF AND PUSH4 0x23B872DD PUSH1 0x4 PUSH0 DUP2 SLOAD DUP2 LT PUSH2 0xD0F JUMPI PUSH2 0xD0E PUSH2 0x1CD8 JUMP JUMPDEST JUMPDEST SWAP1 PUSH0 MSTORE PUSH1 0x20 PUSH0 KECCAK256 ADD PUSH0 SWAP1 SLOAD SWAP1 PUSH2 0x100 EXP SWAP1 DIV PUSH20 0xFFFFFFFFFFFFFFFFFFFFFFFFFFFFFFFFFFFFFFFF AND ADDRESS PUSH1 0x8 SLOAD PUSH1 0x40 MLOAD DUP5 PUSH4 0xFFFFFFFF AND PUSH1 0xE0 SHL DUP2 MSTORE PUSH1 0x4 ADD PUSH2 0xD59 SWAP4 SWAP3 SWAP2 SWAP1 PUSH2 0x1FEF JUMP JUMPDEST PUSH1 0x20 PUSH1 0x40 MLOAD DUP1 DUP4 SUB DUP2 PUSH0 DUP8 GAS CALL ISZERO DUP1 ISZERO PUSH2 0xD75 JUMPI RETURNDATASIZE PUSH0 DUP1 RETURNDATACOPY RETURNDATASIZE PUSH0 REVERT JUMPDEST POP POP POP POP PUSH1 0x40 MLOAD RETURNDATASIZE PUSH1 0x1F NOT PUSH1 0x1F DUP3 ADD AND DUP3 ADD DUP1 PUSH1 0x40 MSTORE POP DUP2 ADD SWAP1 PUSH2 0xD99 SWAP2 SWAP1 PUSH2 0x1D56 JUMP JUMPDEST POP PUSH1 0x7 PUSH1 0x1 SWAP1 SLOAD SWAP1 PUSH2 0x100 EXP SWAP1 DIV PUSH20 0xFFFFFFFFFFFFFFFFFFFFFFFFFFFFFFFFFFFFFFFF AND PUSH20 0xFFFFFFFFFFFFFFFFFFFFFFFFFFFFFFFFFFFFFFFF AND PUSH4 0x23B872DD PUSH1 0x4 PUSH1 0x1 DUP2 SLOAD DUP2 LT PUSH2 0xDED JUMPI PUSH2 0xDEC PUSH2 0x1CD8 JUMP JUMPDEST JUMPDEST SWAP1 PUSH0 MSTORE PUSH1 0x20 PUSH0 KECCAK256 ADD PUSH0 SWAP1 SLOAD SWAP1 PUSH2 0x100 EXP SWAP1 DIV PUSH20 0xFFFFFFFFFFFFFFFFFFFFFFFFFFFFFFFFFFFFFFFF AND ADDRESS PUSH1 0x8 SLOAD PUSH1 0x40 MLOAD DUP5 PUSH4 0xFFFFFFFF AND PUSH1 0xE0 SHL DUP2 MSTORE PUSH1 0x4 ADD PUSH2 0xE37 SWAP4 SWAP3 SWAP2 SWAP1 PUSH2 0x1FEF JUMP JUMPDEST PUSH1 0x20 PUSH1 0x40 MLOAD DUP1 DUP4 SUB DUP2 PUSH0 DUP8 GAS CALL ISZERO DUP1 ISZERO PUSH2 0xE53 JUMPI RETURNDATASIZE PUSH0 DUP1 RETURNDATACOPY RETURNDATASIZE PUSH0 REVERT JUMPDEST POP POP POP POP PUSH1 0x40 MLOAD RETURNDATASIZE PUSH1 0x1F NOT PUSH1 0x1F DUP3 ADD AND DUP3 ADD DUP1 PUSH1 0x40 MSTORE POP DUP2 ADD SWAP1 PUSH2 0xE77 SWAP2 SWAP1 PUSH2 0x1D56 JUMP JUMPDEST POP PUSH1 0x2 PUSH1 0x8 SLOAD PUSH2 0xE87 SWAP2 SWAP1 PUSH2 0x2051 JUMP JUMPDEST PUSH0 DUP2 SWAP1 SSTORE POP TIMESTAMP PUSH1 0x5 DUP2 SWAP1 SSTORE POP PUSH2 0x12C PUSH1 0x5 SLOAD PUSH2 0xEA3 SWAP2 SWAP1 PUSH2 0x2092 JUMP JUMPDEST PUSH1 0x6 DUP2 SWAP1 SSTORE POP PUSH1 0x1 PUSH1 0x7 PUSH0 PUSH2 0x100 EXP DUP2 SLOAD DUP2 PUSH1 0xFF MUL NOT AND SWAP1 DUP4 ISZERO ISZERO MUL OR SWAP1 SSTORE POP JUMPDEST POP JUMP JUMPDEST PUSH1 0x8 SLOAD DUP2 JUMP JUMPDEST PUSH1 0x1 PUSH1 0x20 MSTORE DUP1 PUSH0 MSTORE PUSH1 0x40 PUSH0 KECCAK256 PUSH0 SWAP2 POP SWAP1 POP SLOAD DUP2 JUMP JUMPDEST PUSH1 0x7 PUSH0 SWAP1 SLOAD SWAP1 PUSH2 0x100 EXP SWAP1 DIV PUSH1 0xFF AND DUP2 JUMP JUMPDEST PUSH1 0x7 PUSH0 SWAP1 SLOAD SWAP1 PUSH2 0x100 EXP SWAP1 DIV PUSH1 0xFF AND PUSH2 0xF42 JUMPI PUSH1 0x40 MLOAD PUSH32 0x8C379A000000000000000000000000000000000000000000000000000000000 DUP2 MSTORE PUSH1 0x4 ADD PUSH2 0xF39 SWAP1 PUSH2 0x1C52 JUMP JUMPDEST PUSH1 0x40 MLOAD DUP1 SWAP2 SUB SWAP1 REVERT JUMPDEST PUSH1 0x6 SLOAD TIMESTAMP GT ISZERO PUSH2 0xF87 JUMPI PUSH1 0x40 MLOAD PUSH32 0x8C379A000000000000000000000000000000000000000000000000000000000 DUP2 MSTORE PUSH1 0x4 ADD PUSH2 0xF7E SWAP1 PUSH2 0x210F JUMP JUMPDEST PUSH1 0x40 MLOAD DUP1 SWAP2 SUB SWAP1 REVERT JUMPDEST PUSH0 DUP3 LT ISZERO DUP1 ISZERO PUSH2 0xF98 JUMPI POP PUSH1 0x4 DUP3 GT ISZERO JUMPDEST PUSH2 0xFD7 JUMPI PUSH1 0x40 MLOAD PUSH32 0x8C379A000000000000000000000000000000000000000000000000000000000 DUP2 MSTORE PUSH1 0x4 ADD PUSH2 0xFCE SWAP1 PUSH2 0x2177 JUMP JUMPDEST PUSH1 0x40 MLOAD DUP1 SWAP2 SUB SWAP1 REVERT JUMPDEST DUP2 DUP2 PUSH1 0x40 MLOAD PUSH1 0x20 ADD PUSH2 0xFEA SWAP3 SWAP2 SWAP1 PUSH2 0x2207 JUMP JUMPDEST PUSH1 0x40 MLOAD PUSH1 0x20 DUP2 DUP4 SUB SUB DUP2 MSTORE SWAP1 PUSH1 0x40 MSTORE DUP1 MLOAD SWAP1 PUSH1 0x20 ADD KECCAK256 PUSH1 0x1 PUSH0 CALLER PUSH20 0xFFFFFFFFFFFFFFFFFFFFFFFFFFFFFFFFFFFFFFFF AND PUSH20 0xFFFFFFFFFFFFFFFFFFFFFFFFFFFFFFFFFFFFFFFF AND DUP2 MSTORE PUSH1 0x20 ADD SWAP1 DUP2 MSTORE PUSH1 0x20 ADD PUSH0 KECCAK256 SLOAD EQ PUSH2 0x107E JUMPI PUSH1 0x40 MLOAD PUSH32 0x8C379A000000000000000000000000000000000000000000000000000000000 DUP2 MSTORE PUSH1 0x4 ADD PUSH2 0x1075 SWAP1 PUSH2 0x2278 JUMP JUMPDEST PUSH1 0x40 MLOAD DUP1 SWAP2 SUB SWAP1 REVERT JUMPDEST DUP2 PUSH1 0x2 PUSH0 CALLER PUSH20 0xFFFFFFFFFFFFFFFFFFFFFFFFFFFFFFFFFFFFFFFF AND PUSH20 0xFFFFFFFFFFFFFFFFFFFFFFFFFFFFFFFFFFFFFFFF AND DUP2 MSTORE PUSH1 0x20 ADD SWAP1 DUP2 MSTORE PUSH1 0x20 ADD PUSH0 KECCAK256 DUP2 SWAP1 SSTORE POP PUSH1 0x1 PUSH1 0x3 PUSH0 CALLER PUSH20 0xFFFFFFFFFFFFFFFFFFFFFFFFFFFFFFFFFFFFFFFF AND PUSH20 0xFFFFFFFFFFFFFFFFFFFFFFFFFFFFFFFFFFFFFFFF AND DUP2 MSTORE PUSH1 0x20 ADD SWAP1 DUP2 MSTORE PUSH1 0x20 ADD PUSH0 KECCAK256 PUSH0 PUSH2 0x100 EXP DUP2 SLOAD DUP2 PUSH1 0xFF MUL NOT AND SWAP1 DUP4 ISZERO ISZERO MUL OR SWAP1 SSTORE POP PUSH1 0x3 PUSH0 PUSH1 0x4 PUSH0 DUP2 SLOAD DUP2 LT PUSH2 0x112C JUMPI PUSH2 0x112B PUSH2 0x1CD8 JUMP JUMPDEST JUMPDEST SWAP1 PUSH0 MSTORE PUSH1 0x20 PUSH0 KECCAK256 ADD PUSH0 SWAP1 SLOAD SWAP1 PUSH2 0x100 EXP SWAP1 DIV PUSH20 0xFFFFFFFFFFFFFFFFFFFFFFFFFFFFFFFFFFFFFFFF AND PUSH20 0xFFFFFFFFFFFFFFFFFFFFFFFFFFFFFFFFFFFFFFFF AND PUSH20 0xFFFFFFFFFFFFFFFFFFFFFFFFFFFFFFFFFFFFFFFF AND DUP2 MSTORE PUSH1 0x20 ADD SWAP1 DUP2 MSTORE PUSH1 0x20 ADD PUSH0 KECCAK256 PUSH0 SWAP1 SLOAD SWAP1 PUSH2 0x100 EXP SWAP1 DIV PUSH1 0xFF AND DUP1 ISZERO PUSH2 0x1228 JUMPI POP PUSH1 0x3 PUSH0 PUSH1 0x4 PUSH1 0x1 DUP2 SLOAD DUP2 LT PUSH2 0x11B9 JUMPI PUSH2 0x11B8 PUSH2 0x1CD8 JUMP JUMPDEST JUMPDEST SWAP1 PUSH0 MSTORE PUSH1 0x20 PUSH0 KECCAK256 ADD PUSH0 SWAP1 SLOAD SWAP1 PUSH2 0x100 EXP SWAP1 DIV PUSH20 0xFFFFFFFFFFFFFFFFFFFFFFFFFFFFFFFFFFFFFFFF AND PUSH20 0xFFFFFFFFFFFFFFFFFFFFFFFFFFFFFFFFFFFFFFFF AND PUSH20 0xFFFFFFFFFFFFFFFFFFFFFFFFFFFFFFFFFFFFFFFF AND DUP2 MSTORE PUSH1 0x20 ADD SWAP1 DUP2 MSTORE PUSH1 0x20 ADD PUSH0 KECCAK256 PUSH0 SWAP1 SLOAD SWAP1 PUSH2 0x100 EXP SWAP1 DIV PUSH1 0xFF AND JUMPDEST ISZERO PUSH2 0x1236 JUMPI PUSH2 0x1235 PUSH2 0x12C6 JUMP JUMPDEST JUMPDEST POP POP JUMP JUMPDEST PUSH1 0x4 DUP2 DUP2 SLOAD DUP2 LT PUSH2 0x1249 JUMPI PUSH0 DUP1 REVERT JUMPDEST SWAP1 PUSH0 MSTORE PUSH1 0x20 PUSH0 KECCAK256 ADD PUSH0 SWAP2 POP SLOAD SWAP1 PUSH2 0x100 EXP SWAP1 DIV PUSH20 0xFFFFFFFFFFFFFFFFFFFFFFFFFFFFFFFFFFFFFFFF AND DUP2 JUMP JUMPDEST PUSH1 0x7 PUSH1 0x1 SWAP1 SLOAD SWAP1 PUSH2 0x100 EXP SWAP1 DIV PUSH20 0xFFFFFFFFFFFFFFFFFFFFFFFFFFFFFFFFFFFFFFFF AND DUP2 JUMP JUMPDEST PUSH1 0x4 PUSH0 PUSH2 0x12A8 SWAP2 SWAP1 PUSH2 0x17B8 JUMP JUMPDEST PUSH0 DUP1 SSTORE PUSH0 PUSH1 0x7 PUSH0 PUSH2 0x100 EXP DUP2 SLOAD DUP2 PUSH1 0xFF MUL NOT AND SWAP1 DUP4 ISZERO ISZERO MUL OR SWAP1 SSTORE POP JUMP JUMPDEST PUSH0 PUSH1 0x2 PUSH0 PUSH1 0x4 PUSH0 DUP2 SLOAD DUP2 LT PUSH2 0x12DE JUMPI PUSH2 0x12DD PUSH2 0x1CD8 JUMP JUMPDEST JUMPDEST SWAP1 PUSH0 MSTORE PUSH1 0x20 PUSH0 KECCAK256 ADD PUSH0 SWAP1 SLOAD SWAP1 PUSH2 0x100 EXP SWAP1 DIV PUSH20 0xFFFFFFFFFFFFFFFFFFFFFFFFFFFFFFFFFFFFFFFF AND PUSH20 0xFFFFFFFFFFFFFFFFFFFFFFFFFFFFFFFFFFFFFFFF AND PUSH20 0xFFFFFFFFFFFFFFFFFFFFFFFFFFFFFFFFFFFFFFFF AND DUP2 MSTORE PUSH1 0x20 ADD SWAP1 DUP2 MSTORE PUSH1 0x20 ADD PUSH0 KECCAK256 SLOAD SWAP1 POP PUSH0 PUSH1 0x2 PUSH0 PUSH1 0x4 PUSH1 0x1 DUP2 SLOAD DUP2 LT PUSH2 0x135B JUMPI PUSH2 0x135A PUSH2 0x1CD8 JUMP JUMPDEST JUMPDEST SWAP1 PUSH0 MSTORE PUSH1 0x20 PUSH0 KECCAK256 ADD PUSH0 SWAP1 SLOAD SWAP1 PUSH2 0x100 EXP SWAP1 DIV PUSH20 0xFFFFFFFFFFFFFFFFFFFFFFFFFFFFFFFFFFFFFFFF AND PUSH20 0xFFFFFFFFFFFFFFFFFFFFFFFFFFFFFFFFFFFFFFFF AND PUSH20 0xFFFFFFFFFFFFFFFFFFFFFFFFFFFFFFFFFFFFFFFF AND DUP2 MSTORE PUSH1 0x20 ADD SWAP1 DUP2 MSTORE PUSH1 0x20 ADD PUSH0 KECCAK256 SLOAD SWAP1 POP PUSH0 DUP2 PUSH1 0x5 PUSH1 0x1 DUP6 PUSH2 0x13D0 SWAP2 SWAP1 PUSH2 0x2092 JUMP JUMPDEST PUSH2 0x13DA SWAP2 SWAP1 PUSH2 0x22C3 JUMP JUMPDEST EQ DUP1 PUSH2 0x13FD JUMPI POP DUP2 PUSH1 0x5 PUSH1 0x3 DUP6 PUSH2 0x13F1 SWAP2 SWAP1 PUSH2 0x2092 JUMP JUMPDEST PUSH2 0x13FB SWAP2 SWAP1 PUSH2 0x22C3 JUMP JUMPDEST EQ JUMPDEST ISZERO PUSH2 0x1446 JUMPI PUSH1 0x4 PUSH1 0x1 DUP2 SLOAD DUP2 LT PUSH2 0x1417 JUMPI PUSH2 0x1416 PUSH2 0x1CD8 JUMP JUMPDEST JUMPDEST SWAP1 PUSH0 MSTORE PUSH1 0x20 PUSH0 KECCAK256 ADD PUSH0 SWAP1 SLOAD SWAP1 PUSH2 0x100 EXP SWAP1 DIV PUSH20 0xFFFFFFFFFFFFFFFFFFFFFFFFFFFFFFFFFFFFFFFF AND SWAP1 POP PUSH2 0x14C8 JUMP JUMPDEST DUP3 PUSH1 0x5 PUSH1 0x1 DUP5 PUSH2 0x1456 SWAP2 SWAP1 PUSH2 0x2092 JUMP JUMPDEST PUSH2 0x1460 SWAP2 SWAP1 PUSH2 0x22C3 JUMP JUMPDEST EQ DUP1 PUSH2 0x1483 JUMPI POP DUP3 PUSH1 0x5 PUSH1 0x3 DUP5 PUSH2 0x1477 SWAP2 SWAP1 PUSH2 0x2092 JUMP JUMPDEST PUSH2 0x1481 SWAP2 SWAP1 PUSH2 0x22C3 JUMP JUMPDEST EQ JUMPDEST ISZERO PUSH2 0x14C7 JUMPI PUSH1 0x4 PUSH0 DUP2 SLOAD DUP2 LT PUSH2 0x149C JUMPI PUSH2 0x149B PUSH2 0x1CD8 JUMP JUMPDEST JUMPDEST SWAP1 PUSH0 MSTORE PUSH1 0x20 PUSH0 KECCAK256 ADD PUSH0 SWAP1 SLOAD SWAP1 PUSH2 0x100 EXP SWAP1 DIV PUSH20 0xFFFFFFFFFFFFFFFFFFFFFFFFFFFFFFFFFFFFFFFF AND SWAP1 POP JUMPDEST JUMPDEST PUSH0 PUSH20 0xFFFFFFFFFFFFFFFFFFFFFFFFFFFFFFFFFFFFFFFF AND DUP2 PUSH20 0xFFFFFFFFFFFFFFFFFFFFFFFFFFFFFFFFFFFFFFFF AND EQ PUSH2 0x15DD JUMPI PUSH1 0x7 PUSH1 0x1 SWAP1 SLOAD SWAP1 PUSH2 0x100 EXP SWAP1 DIV PUSH20 0xFFFFFFFFFFFFFFFFFFFFFFFFFFFFFFFFFFFFFFFF AND PUSH20 0xFFFFFFFFFFFFFFFFFFFFFFFFFFFFFFFFFFFFFFFF AND PUSH4 0xA9059CBB DUP3 PUSH0 SLOAD PUSH1 0x40 MLOAD DUP4 PUSH4 0xFFFFFFFF AND PUSH1 0xE0 SHL DUP2 MSTORE PUSH1 0x4 ADD PUSH2 0x1559 SWAP3 SWAP2 SWAP1 PUSH2 0x1D05 JUMP JUMPDEST PUSH1 0x20 PUSH1 0x40 MLOAD DUP1 DUP4 SUB DUP2 PUSH0 DUP8 GAS CALL ISZERO DUP1 ISZERO PUSH2 0x1575 JUMPI RETURNDATASIZE PUSH0 DUP1 RETURNDATACOPY RETURNDATASIZE PUSH0 REVERT JUMPDEST POP POP POP POP PUSH1 0x40 MLOAD RETURNDATASIZE PUSH1 0x1F NOT PUSH1 0x1F DUP3 ADD AND DUP3 ADD DUP1 PUSH1 0x40 MSTORE POP DUP2 ADD SWAP1 PUSH2 0x1599 SWAP2 SWAP1 PUSH2 0x1D56 JUMP JUMPDEST PUSH2 0x15D8 JUMPI PUSH1 0x40 MLOAD PUSH32 0x8C379A000000000000000000000000000000000000000000000000000000000 DUP2 MSTORE PUSH1 0x4 ADD PUSH2 0x15CF SWAP1 PUSH2 0x233D JUMP JUMPDEST PUSH1 0x40 MLOAD DUP1 SWAP2 SUB SWAP1 REVERT JUMPDEST PUSH2 0x17AB JUMP JUMPDEST PUSH1 0x7 PUSH1 0x1 SWAP1 SLOAD SWAP1 PUSH2 0x100 EXP SWAP1 DIV PUSH20 0xFFFFFFFFFFFFFFFFFFFFFFFFFFFFFFFFFFFFFFFF AND PUSH20 0xFFFFFFFFFFFFFFFFFFFFFFFFFFFFFFFFFFFFFFFF AND PUSH4 0xA9059CBB PUSH1 0x4 PUSH0 DUP2 SLOAD DUP2 LT PUSH2 0x162F JUMPI PUSH2 0x162E PUSH2 0x1CD8 JUMP JUMPDEST JUMPDEST SWAP1 PUSH0 MSTORE PUSH1 0x20 PUSH0 KECCAK256 ADD PUSH0 SWAP1 SLOAD SWAP1 PUSH2 0x100 EXP SWAP1 DIV PUSH20 0xFFFFFFFFFFFFFFFFFFFFFFFFFFFFFFFFFFFFFFFF AND PUSH1 0x2 PUSH0 SLOAD PUSH2 0x1665 SWAP2 SWAP1 PUSH2 0x235B JUMP JUMPDEST PUSH1 0x40 MLOAD DUP4 PUSH4 0xFFFFFFFF AND PUSH1 0xE0 SHL DUP2 MSTORE PUSH1 0x4 ADD PUSH2 0x1682 SWAP3 SWAP2 SWAP1 PUSH2 0x1D05 JUMP JUMPDEST PUSH1 0x20 PUSH1 0x40 MLOAD DUP1 DUP4 SUB DUP2 PUSH0 DUP8 GAS CALL ISZERO DUP1 ISZERO PUSH2 0x169E JUMPI RETURNDATASIZE PUSH0 DUP1 RETURNDATACOPY RETURNDATASIZE PUSH0 REVERT JUMPDEST POP POP POP POP PUSH1 0x40 MLOAD RETURNDATASIZE PUSH1 0x1F NOT PUSH1 0x1F DUP3 ADD AND DUP3 ADD DUP1 PUSH1 0x40 MSTORE POP DUP2 ADD SWAP1 PUSH2 0x16C2 SWAP2 SWAP1 PUSH2 0x1D56 JUMP JUMPDEST POP PUSH1 0x7 PUSH1 0x1 SWAP1 SLOAD SWAP1 PUSH2 0x100 EXP SWAP1 DIV PUSH20 0xFFFFFFFFFFFFFFFFFFFFFFFFFFFFFFFFFFFFFFFF AND PUSH20 0xFFFFFFFFFFFFFFFFFFFFFFFFFFFFFFFFFFFFFFFF AND PUSH4 0xA9059CBB PUSH1 0x4 PUSH1 0x1 DUP2 SLOAD DUP2 LT PUSH2 0x1716 JUMPI PUSH2 0x1715 PUSH2 0x1CD8 JUMP JUMPDEST JUMPDEST SWAP1 PUSH0 MSTORE PUSH1 0x20 PUSH0 KECCAK256 ADD PUSH0 SWAP1 SLOAD SWAP1 PUSH2 0x100 EXP SWAP1 DIV PUSH20 0xFFFFFFFFFFFFFFFFFFFFFFFFFFFFFFFFFFFFFFFF AND PUSH1 0x2 PUSH0 SLOAD PUSH2 0x174C SWAP2 SWAP1 PUSH2 0x235B JUMP JUMPDEST PUSH1 0x40 MLOAD DUP4 PUSH4 0xFFFFFFFF AND PUSH1 0xE0 SHL DUP2 MSTORE PUSH1 0x4 ADD PUSH2 0x1769 SWAP3 SWAP2 SWAP1 PUSH2 0x1D05 JUMP JUMPDEST PUSH1 0x20 PUSH1 0x40 MLOAD DUP1 DUP4 SUB DUP2 PUSH0 DUP8 GAS CALL ISZERO DUP1 ISZERO PUSH2 0x1785 JUMPI RETURNDATASIZE PUSH0 DUP1 RETURNDATACOPY RETURNDATASIZE PUSH0 REVERT JUMPDEST POP POP POP POP PUSH1 0x40 MLOAD RETURNDATASIZE PUSH1 0x1F NOT PUSH1 0x1F DUP3 ADD AND DUP3 ADD DUP1 PUSH1 0x40 MSTORE POP DUP2 ADD SWAP1 PUSH2 0x17A9 SWAP2 SWAP1 PUSH2 0x1D56 JUMP JUMPDEST POP JUMPDEST PUSH2 0x17B3 PUSH2 0x129B JUMP JUMPDEST POP POP POP JUMP JUMPDEST POP DUP1 SLOAD PUSH0 DUP3 SSTORE SWAP1 PUSH0 MSTORE PUSH1 0x20 PUSH0 KECCAK256 SWAP1 DUP2 ADD SWAP1 PUSH2 0x17D3 SWAP2 SWAP1 PUSH2 0x17D6 JUMP JUMPDEST POP JUMP JUMPDEST JUMPDEST DUP1 DUP3 GT ISZERO PUSH2 0x17ED JUMPI PUSH0 DUP2 PUSH0 SWAP1 SSTORE POP PUSH1 0x1 ADD PUSH2 0x17D7 JUMP JUMPDEST POP SWAP1 JUMP JUMPDEST PUSH0 DUP2 SWAP1 POP SWAP2 SWAP1 POP JUMP JUMPDEST PUSH2 0x1803 DUP2 PUSH2 0x17F1 JUMP JUMPDEST DUP3 MSTORE POP POP JUMP JUMPDEST PUSH0 PUSH1 0x20 DUP3 ADD SWAP1 POP PUSH2 0x181C PUSH0 DUP4 ADD DUP5 PUSH2 0x17FA JUMP JUMPDEST SWAP3 SWAP2 POP POP JUMP JUMPDEST PUSH0 PUSH1 0x40 MLOAD SWAP1 POP SWAP1 JUMP JUMPDEST PUSH0 DUP1 REVERT JUMPDEST PUSH0 DUP1 REVERT JUMPDEST PUSH0 PUSH20 0xFFFFFFFFFFFFFFFFFFFFFFFFFFFFFFFFFFFFFFFF DUP3 AND SWAP1 POP SWAP2 SWAP1 POP JUMP JUMPDEST PUSH0 PUSH2 0x185C DUP3 PUSH2 0x1833 JUMP JUMPDEST SWAP1 POP SWAP2 SWAP1 POP JUMP JUMPDEST PUSH2 0x186C DUP2 PUSH2 0x1852 JUMP JUMPDEST DUP2 EQ PUSH2 0x1876 JUMPI PUSH0 DUP1 REVERT JUMPDEST POP JUMP JUMPDEST PUSH0 DUP2 CALLDATALOAD SWAP1 POP PUSH2 0x1887 DUP2 PUSH2 0x1863 JUMP JUMPDEST SWAP3 SWAP2 POP POP JUMP JUMPDEST PUSH0 PUSH1 0x20 DUP3 DUP5 SUB SLT ISZERO PUSH2 0x18A2 JUMPI PUSH2 0x18A1 PUSH2 0x182B JUMP JUMPDEST JUMPDEST PUSH0 PUSH2 0x18AF DUP5 DUP3 DUP6 ADD PUSH2 0x1879 JUMP JUMPDEST SWAP2 POP POP SWAP3 SWAP2 POP POP JUMP JUMPDEST PUSH0 DUP2 ISZERO ISZERO SWAP1 POP SWAP2 SWAP1 POP JUMP JUMPDEST PUSH2 0x18CC DUP2 PUSH2 0x18B8 JUMP JUMPDEST DUP3 MSTORE POP POP JUMP JUMPDEST PUSH0 PUSH1 0x20 DUP3 ADD SWAP1 POP PUSH2 0x18E5 PUSH0 DUP4 ADD DUP5 PUSH2 0x18C3 JUMP JUMPDEST SWAP3 SWAP2 POP POP JUMP JUMPDEST PUSH0 DUP2 SWAP1 POP SWAP2 SWAP1 POP JUMP JUMPDEST PUSH2 0x18FD DUP2 PUSH2 0x18EB JUMP JUMPDEST DUP2 EQ PUSH2 0x1907 JUMPI PUSH0 DUP1 REVERT JUMPDEST POP JUMP JUMPDEST PUSH0 DUP2 CALLDATALOAD SWAP1 POP PUSH2 0x1918 DUP2 PUSH2 0x18F4 JUMP JUMPDEST SWAP3 SWAP2 POP POP JUMP JUMPDEST PUSH0 PUSH1 0x20 DUP3 DUP5 SUB SLT ISZERO PUSH2 0x1933 JUMPI PUSH2 0x1932 PUSH2 0x182B JUMP JUMPDEST JUMPDEST PUSH0 PUSH2 0x1940 DUP5 DUP3 DUP6 ADD PUSH2 0x190A JUMP JUMPDEST SWAP2 POP POP SWAP3 SWAP2 POP POP JUMP JUMPDEST PUSH2 0x1952 DUP2 PUSH2 0x18EB JUMP JUMPDEST DUP3 MSTORE POP POP JUMP JUMPDEST PUSH0 PUSH1 0x20 DUP3 ADD SWAP1 POP PUSH2 0x196B PUSH0 DUP4 ADD DUP5 PUSH2 0x1949 JUMP JUMPDEST SWAP3 SWAP2 POP POP JUMP JUMPDEST PUSH2 0x197A DUP2 PUSH2 0x17F1 JUMP JUMPDEST DUP2 EQ PUSH2 0x1984 JUMPI PUSH0 DUP1 REVERT JUMPDEST POP JUMP JUMPDEST PUSH0 DUP2 CALLDATALOAD SWAP1 POP PUSH2 0x1995 DUP2 PUSH2 0x1971 JUMP JUMPDEST SWAP3 SWAP2 POP POP JUMP JUMPDEST PUSH0 DUP1 REVERT JUMPDEST PUSH0 DUP1 REVERT JUMPDEST PUSH0 PUSH1 0x1F NOT PUSH1 0x1F DUP4 ADD AND SWAP1 POP SWAP2 SWAP1 POP JUMP JUMPDEST PUSH32 0x4E487B7100000000000000000000000000000000000000000000000000000000 PUSH0 MSTORE PUSH1 0x41 PUSH1 0x4 MSTORE PUSH1 0x24 PUSH0 REVERT JUMPDEST PUSH2 0x19E9 DUP3 PUSH2 0x19A3 JUMP JUMPDEST DUP2 ADD DUP2 DUP2 LT PUSH8 0xFFFFFFFFFFFFFFFF DUP3 GT OR ISZERO PUSH2 0x1A08 JUMPI PUSH2 0x1A07 PUSH2 0x19B3 JUMP JUMPDEST JUMPDEST DUP1 PUSH1 0x40 MSTORE POP POP POP JUMP JUMPDEST PUSH0 PUSH2 0x1A1A PUSH2 0x1822 JUMP JUMPDEST SWAP1 POP PUSH2 0x1A26 DUP3 DUP3 PUSH2 0x19E0 JUMP JUMPDEST SWAP2 SWAP1 POP JUMP JUMPDEST PUSH0 PUSH8 0xFFFFFFFFFFFFFFFF DUP3 GT ISZERO PUSH2 0x1A45 JUMPI PUSH2 0x1A44 PUSH2 0x19B3 JUMP JUMPDEST JUMPDEST PUSH2 0x1A4E DUP3 PUSH2 0x19A3 JUMP JUMPDEST SWAP1 POP PUSH1 0x20 DUP2 ADD SWAP1 POP SWAP2 SWAP1 POP JUMP JUMPDEST DUP3 DUP2 DUP4 CALLDATACOPY PUSH0 DUP4 DUP4 ADD MSTORE POP POP POP JUMP JUMPDEST PUSH0 PUSH2 0x1A7B PUSH2 0x1A76 DUP5 PUSH2 0x1A2B JUMP JUMPDEST PUSH2 0x1A11 JUMP JUMPDEST SWAP1 POP DUP3 DUP2 MSTORE PUSH1 0x20 DUP2 ADD DUP5 DUP5 DUP5 ADD GT ISZERO PUSH2 0x1A97 JUMPI PUSH2 0x1A96 PUSH2 0x199F JUMP JUMPDEST JUMPDEST PUSH2 0x1AA2 DUP5 DUP3 DUP6 PUSH2 0x1A5B JUMP JUMPDEST POP SWAP4 SWAP3 POP POP POP JUMP JUMPDEST PUSH0 DUP3 PUSH1 0x1F DUP4 ADD SLT PUSH2 0x1ABE JUMPI PUSH2 0x1ABD PUSH2 0x199B JUMP JUMPDEST JUMPDEST DUP2 CALLDATALOAD PUSH2 0x1ACE DUP5 DUP3 PUSH1 0x20 DUP7 ADD PUSH2 0x1A69 JUMP JUMPDEST SWAP2 POP POP SWAP3 SWAP2 POP POP JUMP JUMPDEST PUSH0 DUP1 PUSH1 0x40 DUP4 DUP6 SUB SLT ISZERO PUSH2 0x1AED JUMPI PUSH2 0x1AEC PUSH2 0x182B JUMP JUMPDEST JUMPDEST PUSH0 PUSH2 0x1AFA DUP6 DUP3 DUP7 ADD PUSH2 0x1987 JUMP JUMPDEST SWAP3 POP POP PUSH1 0x20 DUP4 ADD CALLDATALOAD PUSH8 0xFFFFFFFFFFFFFFFF DUP2 GT ISZERO PUSH2 0x1B1B JUMPI PUSH2 0x1B1A PUSH2 0x182F JUMP JUMPDEST JUMPDEST PUSH2 0x1B27 DUP6 DUP3 DUP7 ADD PUSH2 0x1AAA JUMP JUMPDEST SWAP2 POP POP SWAP3 POP SWAP3 SWAP1 POP JUMP JUMPDEST PUSH0 PUSH1 0x20 DUP3 DUP5 SUB SLT ISZERO PUSH2 0x1B46 JUMPI PUSH2 0x1B45 PUSH2 0x182B JUMP JUMPDEST JUMPDEST PUSH0 PUSH2 0x1B53 DUP5 DUP3 DUP6 ADD PUSH2 0x1987 JUMP JUMPDEST SWAP2 POP POP SWAP3 SWAP2 POP POP JUMP JUMPDEST PUSH2 0x1B65 DUP2 PUSH2 0x1852 JUMP JUMPDEST DUP3 MSTORE POP POP JUMP JUMPDEST PUSH0 PUSH1 0x20 DUP3 ADD SWAP1 POP PUSH2 0x1B7E PUSH0 DUP4 ADD DUP5 PUSH2 0x1B5C JUMP JUMPDEST SWAP3 SWAP2 POP POP JUMP JUMPDEST PUSH0 DUP2 SWAP1 POP SWAP2 SWAP1 POP JUMP JUMPDEST PUSH0 PUSH2 0x1BA7 PUSH2 0x1BA2 PUSH2 0x1B9D DUP5 PUSH2 0x1833 JUMP JUMPDEST PUSH2 0x1B84 JUMP JUMPDEST PUSH2 0x1833 JUMP JUMPDEST SWAP1 POP SWAP2 SWAP1 POP JUMP JUMPDEST PUSH0 PUSH2 0x1BB8 DUP3 PUSH2 0x1B8D JUMP JUMPDEST SWAP1 POP SWAP2 SWAP1 POP JUMP JUMPDEST PUSH0 PUSH2 0x1BC9 DUP3 PUSH2 0x1BAE JUMP JUMPDEST SWAP1 POP SWAP2 SWAP1 POP JUMP JUMPDEST PUSH2 0x1BD9 DUP2 PUSH2 0x1BBF JUMP JUMPDEST DUP3 MSTORE POP POP JUMP JUMPDEST PUSH0 PUSH1 0x20 DUP3 ADD SWAP1 POP PUSH2 0x1BF2 PUSH0 DUP4 ADD DUP5 PUSH2 0x1BD0 JUMP JUMPDEST SWAP3 SWAP2 POP POP JUMP JUMPDEST PUSH0 DUP3 DUP3 MSTORE PUSH1 0x20 DUP3 ADD SWAP1 POP SWAP3 SWAP2 POP POP JUMP JUMPDEST PUSH32 0x47616D65206973206E6F74206163746976650000000000000000000000000000 PUSH0 DUP3 ADD MSTORE POP JUMP JUMPDEST PUSH0 PUSH2 0x1C3C PUSH1 0x12 DUP4 PUSH2 0x1BF8 JUMP JUMPDEST SWAP2 POP PUSH2 0x1C47 DUP3 PUSH2 0x1C08 JUMP JUMPDEST PUSH1 0x20 DUP3 ADD SWAP1 POP SWAP2 SWAP1 POP JUMP JUMPDEST PUSH0 PUSH1 0x20 DUP3 ADD SWAP1 POP DUP2 DUP2 SUB PUSH0 DUP4 ADD MSTORE PUSH2 0x1C69 DUP2 PUSH2 0x1C30 JUMP JUMPDEST SWAP1 POP SWAP2 SWAP1 POP JUMP JUMPDEST PUSH32 0x52657665616C20706572696F64206E6F7420656E646564000000000000000000 PUSH0 DUP3 ADD MSTORE POP JUMP JUMPDEST PUSH0 PUSH2 0x1CA4 PUSH1 0x17 DUP4 PUSH2 0x1BF8 JUMP JUMPDEST SWAP2 POP PUSH2 0x1CAF DUP3 PUSH2 0x1C70 JUMP JUMPDEST PUSH1 0x20 DUP3 ADD SWAP1 POP SWAP2 SWAP1 POP JUMP JUMPDEST PUSH0 PUSH1 0x20 DUP3 ADD SWAP1 POP DUP2 DUP2 SUB PUSH0 DUP4 ADD MSTORE PUSH2 0x1CD1 DUP2 PUSH2 0x1C98 JUMP JUMPDEST SWAP1 POP SWAP2 SWAP1 POP JUMP JUMPDEST PUSH32 0x4E487B7100000000000000000000000000000000000000000000000000000000 PUSH0 MSTORE PUSH1 0x32 PUSH1 0x4 MSTORE PUSH1 0x24 PUSH0 REVERT JUMPDEST PUSH0 PUSH1 0x40 DUP3 ADD SWAP1 POP PUSH2 0x1D18 PUSH0 DUP4 ADD DUP6 PUSH2 0x1B5C JUMP JUMPDEST PUSH2 0x1D25 PUSH1 0x20 DUP4 ADD DUP5 PUSH2 0x17FA JUMP JUMPDEST SWAP4 SWAP3 POP POP POP JUMP JUMPDEST PUSH2 0x1D35 DUP2 PUSH2 0x18B8 JUMP JUMPDEST DUP2 EQ PUSH2 0x1D3F JUMPI PUSH0 DUP1 REVERT JUMPDEST POP JUMP JUMPDEST PUSH0 DUP2 MLOAD SWAP1 POP PUSH2 0x1D50 DUP2 PUSH2 0x1D2C JUMP JUMPDEST SWAP3 SWAP2 POP POP JUMP JUMPDEST PUSH0 PUSH1 0x20 DUP3 DUP5 SUB SLT ISZERO PUSH2 0x1D6B JUMPI PUSH2 0x1D6A PUSH2 0x182B JUMP JUMPDEST JUMPDEST PUSH0 PUSH2 0x1D78 DUP5 DUP3 DUP6 ADD PUSH2 0x1D42 JUMP JUMPDEST SWAP2 POP POP SWAP3 SWAP2 POP POP JUMP JUMPDEST PUSH32 0x47616D6520616C7265616479206861732074776F20706C617965727300000000 PUSH0 DUP3 ADD MSTORE POP JUMP JUMPDEST PUSH0 PUSH2 0x1DB5 PUSH1 0x1C DUP4 PUSH2 0x1BF8 JUMP JUMPDEST SWAP2 POP PUSH2 0x1DC0 DUP3 PUSH2 0x1D81 JUMP JUMPDEST PUSH1 0x20 DUP3 ADD SWAP1 POP SWAP2 SWAP1 POP JUMP JUMPDEST PUSH0 PUSH1 0x20 DUP3 ADD SWAP1 POP DUP2 DUP2 SUB PUSH0 DUP4 ADD MSTORE PUSH2 0x1DE2 DUP2 PUSH2 0x1DA9 JUMP JUMPDEST SWAP1 POP SWAP2 SWAP1 POP JUMP JUMPDEST PUSH0 PUSH1 0x40 DUP3 ADD SWAP1 POP PUSH2 0x1DFC PUSH0 DUP4 ADD DUP6 PUSH2 0x1B5C JUMP JUMPDEST PUSH2 0x1E09 PUSH1 0x20 DUP4 ADD DUP5 PUSH2 0x1B5C JUMP JUMPDEST SWAP4 SWAP3 POP POP POP JUMP JUMPDEST PUSH0 DUP2 MLOAD SWAP1 POP PUSH2 0x1E1E DUP2 PUSH2 0x1971 JUMP JUMPDEST SWAP3 SWAP2 POP POP JUMP JUMPDEST PUSH0 PUSH1 0x20 DUP3 DUP5 SUB SLT ISZERO PUSH2 0x1E39 JUMPI PUSH2 0x1E38 PUSH2 0x182B JUMP JUMPDEST JUMPDEST PUSH0 PUSH2 0x1E46 DUP5 DUP3 DUP6 ADD PUSH2 0x1E10 JUMP JUMPDEST SWAP2 POP POP SWAP3 SWAP2 POP POP JUMP JUMPDEST PUSH32 0x496E73756666696369656E7420616C6C6F77616E636500000000000000000000 PUSH0 DUP3 ADD MSTORE POP JUMP JUMPDEST PUSH0 PUSH2 0x1E83 PUSH1 0x16 DUP4 PUSH2 0x1BF8 JUMP JUMPDEST SWAP2 POP PUSH2 0x1E8E DUP3 PUSH2 0x1E4F JUMP JUMPDEST PUSH1 0x20 DUP3 ADD SWAP1 POP SWAP2 SWAP1 POP JUMP JUMPDEST PUSH0 PUSH1 0x20 DUP3 ADD SWAP1 POP DUP2 DUP2 SUB PUSH0 DUP4 ADD MSTORE PUSH2 0x1EB0 DUP2 PUSH2 0x1E77 JUMP JUMPDEST SWAP1 POP SWAP2 SWAP1 POP JUMP JUMPDEST PUSH32 0x43616E6E6F74206A6F696E207477696365000000000000000000000000000000 PUSH0 DUP3 ADD MSTORE POP JUMP JUMPDEST PUSH0 PUSH2 0x1EEB PUSH1 0x11 DUP4 PUSH2 0x1BF8 JUMP JUMPDEST SWAP2 POP PUSH2 0x1EF6 DUP3 PUSH2 0x1EB7 JUMP JUMPDEST PUSH1 0x20 DUP3 ADD SWAP1 POP SWAP2 SWAP1 POP JUMP JUMPDEST PUSH0 PUSH1 0x20 DUP3 ADD SWAP1 POP DUP2 DUP2 SUB PUSH0 DUP4 ADD MSTORE PUSH2 0x1F18 DUP2 PUSH2 0x1EDF JUMP JUMPDEST SWAP1 POP SWAP2 SWAP1 POP JUMP JUMPDEST PUSH32 0x506C61796572203120686173206E6F7420617070726F76656400000000000000 PUSH0 DUP3 ADD MSTORE POP JUMP JUMPDEST PUSH0 PUSH2 0x1F53 PUSH1 0x19 DUP4 PUSH2 0x1BF8 JUMP JUMPDEST SWAP2 POP PUSH2 0x1F5E DUP3 PUSH2 0x1F1F JUMP JUMPDEST PUSH1 0x20 DUP3 ADD SWAP1 POP SWAP2 SWAP1 POP JUMP JUMPDEST PUSH0 PUSH1 0x20 DUP3 ADD SWAP1 POP DUP2 DUP2 SUB PUSH0 DUP4 ADD MSTORE PUSH2 0x1F80 DUP2 PUSH2 0x1F47 JUMP JUMPDEST SWAP1 POP SWAP2 SWAP1 POP JUMP JUMPDEST PUSH32 0x506C61796572203220686173206E6F7420617070726F76656400000000000000 PUSH0 DUP3 ADD MSTORE POP JUMP JUMPDEST PUSH0 PUSH2 0x1FBB PUSH1 0x19 DUP4 PUSH2 0x1BF8 JUMP JUMPDEST SWAP2 POP PUSH2 0x1FC6 DUP3 PUSH2 0x1F87 JUMP JUMPDEST PUSH1 0x20 DUP3 ADD SWAP1 POP SWAP2 SWAP1 POP JUMP JUMPDEST PUSH0 PUSH1 0x20 DUP3 ADD SWAP1 POP DUP2 DUP2 SUB PUSH0 DUP4 ADD MSTORE PUSH2 0x1FE8 DUP2 PUSH2 0x1FAF JUMP JUMPDEST SWAP1 POP SWAP2 SWAP1 POP JUMP JUMPDEST PUSH0 PUSH1 0x60 DUP3 ADD SWAP1 POP PUSH2 0x2002 PUSH0 DUP4 ADD DUP7 PUSH2 0x1B5C JUMP JUMPDEST PUSH2 0x200F PUSH1 0x20 DUP4 ADD DUP6 PUSH2 0x1B5C JUMP JUMPDEST PUSH2 0x201C PUSH1 0x40 DUP4 ADD DUP5 PUSH2 0x17FA JUMP JUMPDEST SWAP5 SWAP4 POP POP POP POP JUMP JUMPDEST PUSH32 0x4E487B7100000000000000000000000000000000000000000000000000000000 PUSH0 MSTORE PUSH1 0x11 PUSH1 0x4 MSTORE PUSH1 0x24 PUSH0 REVERT JUMPDEST PUSH0 PUSH2 0x205B DUP3 PUSH2 0x17F1 JUMP JUMPDEST SWAP2 POP PUSH2 0x2066 DUP4 PUSH2 0x17F1 JUMP JUMPDEST SWAP3 POP DUP3 DUP3 MUL PUSH2 0x2074 DUP2 PUSH2 0x17F1 JUMP JUMPDEST SWAP2 POP DUP3 DUP3 DIV DUP5 EQ DUP4 ISZERO OR PUSH2 0x208B JUMPI PUSH2 0x208A PUSH2 0x2024 JUMP JUMPDEST JUMPDEST POP SWAP3 SWAP2 POP POP JUMP JUMPDEST PUSH0 PUSH2 0x209C DUP3 PUSH2 0x17F1 JUMP JUMPDEST SWAP2 POP PUSH2 0x20A7 DUP4 PUSH2 0x17F1 JUMP JUMPDEST SWAP3 POP DUP3 DUP3 ADD SWAP1 POP DUP1 DUP3 GT ISZERO PUSH2 0x20BF JUMPI PUSH2 0x20BE PUSH2 0x2024 JUMP JUMPDEST JUMPDEST SWAP3 SWAP2 POP POP JUMP JUMPDEST PUSH32 0x52657665616C20706572696F6420656E64656400000000000000000000000000 PUSH0 DUP3 ADD MSTORE POP JUMP JUMPDEST PUSH0 PUSH2 0x20F9 PUSH1 0x13 DUP4 PUSH2 0x1BF8 JUMP JUMPDEST SWAP2 POP PUSH2 0x2104 DUP3 PUSH2 0x20C5 JUMP JUMPDEST PUSH1 0x20 DUP3 ADD SWAP1 POP SWAP2 SWAP1 POP JUMP JUMPDEST PUSH0 PUSH1 0x20 DUP3 ADD SWAP1 POP DUP2 DUP2 SUB PUSH0 DUP4 ADD MSTORE PUSH2 0x2126 DUP2 PUSH2 0x20ED JUMP JUMPDEST SWAP1 POP SWAP2 SWAP1 POP JUMP JUMPDEST PUSH32 0x496E76616C69642063686F696365000000000000000000000000000000000000 PUSH0 DUP3 ADD MSTORE POP JUMP JUMPDEST PUSH0 PUSH2 0x2161 PUSH1 0xE DUP4 PUSH2 0x1BF8 JUMP JUMPDEST SWAP2 POP PUSH2 0x216C DUP3 PUSH2 0x212D JUMP JUMPDEST PUSH1 0x20 DUP3 ADD SWAP1 POP SWAP2 SWAP1 POP JUMP JUMPDEST PUSH0 PUSH1 0x20 DUP3 ADD SWAP1 POP DUP2 DUP2 SUB PUSH0 DUP4 ADD MSTORE PUSH2 0x218E DUP2 PUSH2 0x2155 JUMP JUMPDEST SWAP1 POP SWAP2 SWAP1 POP JUMP JUMPDEST PUSH0 DUP2 SWAP1 POP SWAP2 SWAP1 POP JUMP JUMPDEST PUSH2 0x21AF PUSH2 0x21AA DUP3 PUSH2 0x17F1 JUMP JUMPDEST PUSH2 0x2195 JUMP JUMPDEST DUP3 MSTORE POP POP JUMP JUMPDEST PUSH0 DUP2 MLOAD SWAP1 POP SWAP2 SWAP1 POP JUMP JUMPDEST PUSH0 DUP2 SWAP1 POP SWAP3 SWAP2 POP POP JUMP JUMPDEST DUP3 DUP2 DUP4 MCOPY PUSH0 DUP4 DUP4 ADD MSTORE POP POP POP JUMP JUMPDEST PUSH0 PUSH2 0x21E1 DUP3 PUSH2 0x21B5 JUMP JUMPDEST PUSH2 0x21EB DUP2 DUP6 PUSH2 0x21BF JUMP JUMPDEST SWAP4 POP PUSH2 0x21FB DUP2 DUP6 PUSH1 0x20 DUP7 ADD PUSH2 0x21C9 JUMP JUMPDEST DUP1 DUP5 ADD SWAP2 POP POP SWAP3 SWAP2 POP POP JUMP JUMPDEST PUSH0 PUSH2 0x2212 DUP3 DUP6 PUSH2 0x219E JUMP JUMPDEST PUSH1 0x20 DUP3 ADD SWAP2 POP PUSH2 0x2222 DUP3 DUP5 PUSH2 0x21D7 JUMP JUMPDEST SWAP2 POP DUP2 SWAP1 POP SWAP4 SWAP3 POP POP POP JUMP JUMPDEST PUSH32 0x436F6D6D69746D656E74206D69736D6174636800000000000000000000000000 PUSH0 DUP3 ADD MSTORE POP JUMP JUMPDEST PUSH0 PUSH2 0x2262 PUSH1 0x13 DUP4 PUSH2 0x1BF8 JUMP JUMPDEST SWAP2 POP PUSH2 0x226D DUP3 PUSH2 0x222E JUMP JUMPDEST PUSH1 0x20 DUP3 ADD SWAP1 POP SWAP2 SWAP1 POP JUMP JUMPDEST PUSH0 PUSH1 0x20 DUP3 ADD SWAP1 POP DUP2 DUP2 SUB PUSH0 DUP4 ADD MSTORE PUSH2 0x228F DUP2 PUSH2 0x2256 JUMP JUMPDEST SWAP1 POP SWAP2 SWAP1 POP JUMP JUMPDEST PUSH32 0x4E487B7100000000000000000000000000000000000000000000000000000000 PUSH0 MSTORE PUSH1 0x12 PUSH1 0x4 MSTORE PUSH1 0x24 PUSH0 REVERT JUMPDEST PUSH0 PUSH2 0x22CD DUP3 PUSH2 0x17F1 JUMP JUMPDEST SWAP2 POP PUSH2 0x22D8 DUP4 PUSH2 0x17F1 JUMP JUMPDEST SWAP3 POP DUP3 PUSH2 0x22E8 JUMPI PUSH2 0x22E7 PUSH2 0x2296 JUMP JUMPDEST JUMPDEST DUP3 DUP3 MOD SWAP1 POP SWAP3 SWAP2 POP POP JUMP JUMPDEST PUSH32 0x5472616E73666572206661696C65640000000000000000000000000000000000 PUSH0 DUP3 ADD MSTORE POP JUMP JUMPDEST PUSH0 PUSH2 0x2327 PUSH1 0xF DUP4 PUSH2 0x1BF8 JUMP JUMPDEST SWAP2 POP PUSH2 0x2332 DUP3 PUSH2 0x22F3 JUMP JUMPDEST PUSH1 0x20 DUP3 ADD SWAP1 POP SWAP2 SWAP1 POP JUMP JUMPDEST PUSH0 PUSH1 0x20 DUP3 ADD SWAP1 POP DUP2 DUP2 SUB PUSH0 DUP4 ADD MSTORE PUSH2 0x2354 DUP2 PUSH2 0x231B JUMP JUMPDEST SWAP1 POP SWAP2 SWAP1 POP JUMP JUMPDEST PUSH0 PUSH2 0x2365 DUP3 PUSH2 0x17F1 JUMP JUMPDEST SWAP2 POP PUSH2 0x2370 DUP4 PUSH2 0x17F1 JUMP JUMPDEST SWAP3 POP DUP3 PUSH2 0x2380 JUMPI PUSH2 0x237F PUSH2 0x2296 JUMP JUMPDEST JUMPDEST DUP3 DUP3 DIV SWAP1 POP SWAP3 SWAP2 POP POP JUMP INVALID LOG2 PUSH5 0x6970667358 0x22 SLT KECCAK256 0x4E 0xCF 0xBD DUP3 PUSH30 0x28E4F2D29286D38982E64FEE247F50EA1C338E0D170422EB6DFDD564736F PUSH13 0x634300081A0033000000000000 "
				},
				"gasEstimates": {
					"creation": {
						"codeDepositCost": "1830600",
						"executionCost": "infinite",
						"totalCost": "infinite"
					},
					"external": {
						"betAmount()": "2470",
						"choices(address)": "2847",
						"commitments(address)": "2869",
						"gameActive()": "2488",
						"gameStartTime()": "2426",
						"hasRevealed(address)": "2944",
						"joinGame(bytes32)": "infinite",
						"players(uint256)": "5010",
						"revealChoice(uint256,string)": "infinite",
						"revealDeadline()": "2492",
						"reward()": "2447",
						"token()": "infinite",
						"withdrawIfOpponentFails()": "infinite"
					},
					"internal": {
						"_checkWinnerAndPay()": "infinite",
						"_resetGame()": "infinite"
					}
				},
				"methodIdentifiers": {
					"betAmount()": "d24257c0",
					"choices(address)": "410346b3",
					"commitments(address)": "e8fcf723",
					"gameActive()": "f020044f",
					"gameStartTime()": "0252b995",
					"hasRevealed(address)": "b9a53013",
					"joinGame(bytes32)": "bf474766",
					"players(uint256)": "f71d96cb",
					"revealChoice(uint256,string)": "f712545b",
					"revealDeadline()": "b14b28a3",
					"reward()": "228cb733",
					"token()": "fc0c546a",
					"withdrawIfOpponentFails()": "b8c23c0a"
				}
			},
			"storageLayout": {
				"storage": [
					{
						"astId": 276,
						"contract": ".git/final_defi/RPSLS.sol:RPSLS",
						"label": "reward",
						"offset": 0,
						"slot": "0",
						"type": "t_uint256"
					},
					{
						"astId": 280,
						"contract": ".git/final_defi/RPSLS.sol:RPSLS",
						"label": "commitments",
						"offset": 0,
						"slot": "1",
						"type": "t_mapping(t_address,t_bytes32)"
					},
					{
						"astId": 284,
						"contract": ".git/final_defi/RPSLS.sol:RPSLS",
						"label": "choices",
						"offset": 0,
						"slot": "2",
						"type": "t_mapping(t_address,t_uint256)"
					},
					{
						"astId": 288,
						"contract": ".git/final_defi/RPSLS.sol:RPSLS",
						"label": "hasRevealed",
						"offset": 0,
						"slot": "3",
						"type": "t_mapping(t_address,t_bool)"
					},
					{
						"astId": 291,
						"contract": ".git/final_defi/RPSLS.sol:RPSLS",
						"label": "players",
						"offset": 0,
						"slot": "4",
						"type": "t_array(t_address)dyn_storage"
					},
					{
						"astId": 293,
						"contract": ".git/final_defi/RPSLS.sol:RPSLS",
						"label": "gameStartTime",
						"offset": 0,
						"slot": "5",
						"type": "t_uint256"
					},
					{
						"astId": 295,
						"contract": ".git/final_defi/RPSLS.sol:RPSLS",
						"label": "revealDeadline",
						"offset": 0,
						"slot": "6",
						"type": "t_uint256"
					},
					{
						"astId": 298,
						"contract": ".git/final_defi/RPSLS.sol:RPSLS",
						"label": "gameActive",
						"offset": 0,
						"slot": "7",
						"type": "t_bool"
					},
					{
						"astId": 301,
						"contract": ".git/final_defi/RPSLS.sol:RPSLS",
						"label": "token",
						"offset": 1,
						"slot": "7",
						"type": "t_contract(IERC20)252"
					},
					{
						"astId": 304,
						"contract": ".git/final_defi/RPSLS.sol:RPSLS",
						"label": "betAmount",
						"offset": 0,
						"slot": "8",
						"type": "t_uint256"
					}
				],
				"types": {
					"t_address": {
						"encoding": "inplace",
						"label": "address",
						"numberOfBytes": "20"
					},
					"t_array(t_address)dyn_storage": {
						"base": "t_address",
						"encoding": "dynamic_array",
						"label": "address[]",
						"numberOfBytes": "32"
					},
					"t_bool": {
						"encoding": "inplace",
						"label": "bool",
						"numberOfBytes": "1"
					},
					"t_bytes32": {
						"encoding": "inplace",
						"label": "bytes32",
						"numberOfBytes": "32"
					},
					"t_contract(IERC20)252": {
						"encoding": "inplace",
						"label": "contract IERC20",
						"numberOfBytes": "20"
					},
					"t_mapping(t_address,t_bool)": {
						"encoding": "mapping",
						"key": "t_address",
						"label": "mapping(address => bool)",
						"numberOfBytes": "32",
						"value": "t_bool"
					},
					"t_mapping(t_address,t_bytes32)": {
						"encoding": "mapping",
						"key": "t_address",
						"label": "mapping(address => bytes32)",
						"numberOfBytes": "32",
						"value": "t_bytes32"
					},
					"t_mapping(t_address,t_uint256)": {
						"encoding": "mapping",
						"key": "t_address",
						"label": "mapping(address => uint256)",
						"numberOfBytes": "32",
						"value": "t_uint256"
					},
					"t_uint256": {
						"encoding": "inplace",
						"label": "uint256",
						"numberOfBytes": "32"
					}
				}
			},
			"userdoc": {
				"kind": "user",
				"methods": {},
				"version": 1
			}
		}
	}
}